:020000040800F2
:10100000580E0020A911000889150008591500087C
:101010008515000815140008891800080000000054
:101020000000000000000000000000007916000829
:101030002D150008000000008D1500087D16000821
:10104000C3110008C3110008C3110008C311000830
:10105000C3110008C3110008C311000831150008AE
:10106000000000001914000845140008811400084D
:10107000B1120008C3110008C311000800000000ED
:1010800061180008C31100080000000025180008BE
:101090003918000851180008C3110008C3110008CE
:1010A000C3110008C3110008C31100088518000807
:1010B000C311000800000000000000000000000054
:1010C000C311000800000000C311000800F002F87E
:1010D00000F05AF80AA090E8000C82448344AAF178
:1010E0000107DA4501D100F04FF8AFF2090EBAE876
:1010F0000F0013F0010F18BFFB1A43F0010318474C
:10110000D45C0000F45C00000A444FF0000C10F8BE
:10111000013B13F0070408BF10F8014B1D1108BF75
:1011200010F8015B641E05D010F8016B641E01F815
:10113000016BF9D113F0080F1EBF10F8014BAD1C65
:101140000C1B09D16D1E58BF01F801CBFAD505E083
:1011500014F8016B01F8016B6D1EF9D59142D6D3DD
:10116000704700000023002400250026103A28BF05
:1011700078C1FBD8520728BF30C148BF0B60704709
:101180001FB51FBD10B510BD00F058F81146FFF790
:10119000F7FF02F0FBFC00F076F803B4FFF7F2FF74
:1011A00003BC00F07DF8000009488047094800476B
:1011B000FEE7FEE7FEE7FEE7FEE7FEE7FEE7FEE707
:1011C000FEE7FEE704480549054A064B7047000064
:1011D00081160008CD10000858080020580E002085
:1011E000580A0020580A00204FF0000200B51346AC
:1011F00094469646203922BFA0E80C50A0E80C5037
:10120000B1F12001BFF4F7AF090728BFA0E80C50E7
:1012100048BF0CC05DF804EB890028BF40F8042BE0
:1012200008BF704748BF20F8022B11F0804F18BF4D
:1012300000F8012B7047704770477047754600F003
:101240002BF8AE4605006946534620F00700854658
:1012500018B020B5FFF7B6FFBDE820404FF00006FC
:101260004FF000074FF000084FF0000BAC46ACE821
:10127000C009ACE8C009ACE8C009ACE8C00921F07D
:1012800007018D46704710B50446AFF30080204635
:10129000BDE81040FFF781BF00487047B803002049
:1012A00001491820ABBEFEE726000200704700008F
:1012B00040F21440C4F201000168890258BF70472F
:1012C0004FF40011016002F045BA000040F22850CE
:1012D000C2F20000818840F2F042C2F200021180A6
:1012E000018840F2F442C2F200021180408840F2CC
:1012F000DC41C2F20001088070470000F0B587B001
:1013000042F200444FF09040032100224023C4F2F7
:101310000104002702F01AF94FF090400321002247
:10132000082302F013F94FF4A010012101F0AEFBE5
:101330000825C4F20205284601F0F6FD02AE30464B
:1013400001F0A4FD0320C0F20010CDF8120040F21D
:101350002850C2F20000039004F14C00029040F2C9
:101360000110C0F20120CDF8160028463146ADF834
:10137000107001F09BFD2846012101F081FD09203C
:10138000C0F21800012101F081FB072001F05AFA98
:1013900001AD284600F0B2FA40F20110C0F2003070
:1013A00001902046294600F087FA204606210122B6
:1013B000032300F0CBFA204603210222032300F08E
:1013C000C5FA204610210322032300F0BFFA0120B2
:1013D00000F00AFC20460721012200F0E5FB204630
:1013E000012100F0A3FA2046012100F0A9FA2046CD
:1013F00000F088FA204600F08BFA0028FAD1204647
:1014000000F08AFA204600F08DFA0028FAD107B0E1
:10141000F0BD0000FEE70000B0B5022001F03EFD87
:10142000012818BFB0BD0424C4F2020401252560C0
:10143000FFF74CFF082001F031FD012808BF2560AF
:10144000B0BD000010B51C242020C4F2020401F03D
:1014500025FD012806D1102044F8180C206820F042
:1014600001002060802001F019FD012818BF10BD87
:10147000102044F8180C206820F00100206010BDF6
:1014800010B540F2B140C2F200000078A0B10420D3
:10149000C4F202004FF480510160016C21F001019F
:1014A000016404F0C3FF40F21040C4F201004FF4A5
:1014B0000041016010BD00BF04244FF48040C4F21D
:1014C000020401F0EBFC012810D140F2B240C2F25C
:1014D0000000007850B140F22040C4F200000168E2
:1014E00041F0020101604FF4804020604FF4005051
:1014F00001F0D4FC01280FD14FF480502060206C03
:1015000020F00100206404F091FF40F21040C4F28A
:1015100001004FF4004101604FF4004001F0BEFCB7
:10152000012804BF4FF48050206010BD70470000B8
:1015300040F2F061C2F200010A6840F21440013248
:10154000C4F201000A600168090458BF70474FF4F3
:101550000041016003F01EBDFEE7000043F2000001
:10156000C4F2000045F2555101604CF6CC410160D7
:10157000032141604FF47A6181604AF6AA2101603B
:1015800070470000FEE70000704700007047000051
:1015900070B544F20C40C4F20100016840F200054D
:1015A00021F001010160C2F20005697E687F40F20E
:1015B00090440129C2F200040AD10130C1B20729C6
:1015C000687722BF01206877207500F001000AE0EB
:1015D00001380106687703D106200121687721755B
:1015E000012121EA00002876EFF3108072B6E07D39
:1015F00010B9687F00F0F8FB62B600F0A7FB6079D5
:10160000E17A084308D0A06FB0F5FA6F04D9012041
:101610002875002004E000BF287DB0FA80F0400962
:1016200000216A7F40F20C56A4F82310B4F84E1043
:10163000C2F2000606EB4202D181B5F84E20AB792A
:1016400002EB420211448A08A5F84E204A09C1F370
:10165000CE0102FB131102FB03F50028E587A4F875
:10166000481018BF01F080FC706842F20F71884288
:101670009CBF0130706070BD704700007047000073
:1016800041F20000C4F20200016841F00101016072
:101690000168890709D4016889075CBF01685FEAAE
:1016A000817102D401688907F2D5416821F00301F4
:1016B000416000BF416811F00C0F0BD0416811F080
:1016C0000C0F07D0416811F00C0F03D0416811F0E6
:1016D0000C0FEFD101684FF6FF72CFF6F2621140A6
:1016E00001600021416041F61071C1624FF4801128
:1016F00001634FF41F0181604EF6085041F2000172
:10170000CEF20000C0F600010160704710B50B205A
:10171000C0F21800012101F0B9F942F60044C4F208
:10172000010440F6B830E0620020A06246F668008E
:10173000A0616820E06120460021012204F0DCFD68
:1017400020460221012204F0D7FD20460421012277
:1017500004F0D2FD2046012104F000FE606C3C2123
:1017600061F3070060641124C0F2140420460121D3
:1017700001F08CF9601C012101F088F940F200446D
:10178000C4F60004204602210022022301F0DEFEFE
:10179000204602210022012301F0D8FE4FF09040A4
:1017A00002210022802301F0D1FE204601210222E5
:1017B00001F0ECFE20460021022201F0E7FE4FF08E
:1017C00090400721022201F0E1FE4FF090400221FB
:1017D00000224FF4806301F0B9FE4FF090400221E7
:1017E00000224FF4007301F0B1FE4FF0904002214F
:1017F00000224FF4807301F0A9FE4FF090400A21BF
:10180000022201F0C3FE4FF090400921022201F0B4
:10181000BDFE4FF0904008210222BDE8104001F0CB
:10182000B5BE000042F21000C4F200004FF6FE7197
:10183000016004F0C1BA000044F21000C4F20100DB
:101840004FF6FE7101604FF6FD71016070470000B8
:1018500044F21040C4F2010000210160FFF798BE7D
:1018600040F21040C4F200000168890744BF4FF6FF
:10187000FD7101600168C9071CBF4FF6FE71016070
:101880007047000070470000FEE700004EF60C5065
:10189000BFF34F8FCEF200000168042201F4E06133
:1018A000C0F2FA5211430160BFF34F8F00BF00BF77
:1018B00000BF00BFFAE700000A78436802F00102A7
:1018C00023F4807343EA022242604A78836862F319
:1018D000410383608A78836802F0010223F4006385
:1018E00043EAC2228260C978C26A013901F00F015D
:1018F00022F4700242EA0151C16270474FF08071D8
:1019000001607047816841F0080181607047000004
:101910008068C0F3C0007047816841F004018160B5
:10192000704700008068C0F380007047826801F053
:10193000010122F4807242EA0121816070470000B7
:10194000826861F3000282607047000080B511294F
:1019500000F2BB80DFE801F00A121C26303A444E48
:1019600058626C747E88929CA6B000BFD0F810C0FC
:1019700063F3020CC0F810C0A7E000BFD0F810C09D
:1019800003F0070E2CF0380343EACE0303619CE01A
:10199000D0F810C003F0070E2CF4E07343EA8E1366
:1019A000036192E0D0F810C003F0070E2CF46063DE
:1019B00043EA4E23036188E0D0F810C003F0070E1D
:1019C0002CF4E04343EA0E3303617EE0D0F810C00C
:1019D00003F0070E2CF4603343EACE33036174E066
:1019E000D0F810C003F0070E2CF4E01343EA8E4346
:1019F00003616AE0D0F810C003F0070E2CF4600316
:101A000043EA4E53036160E0D0F810C003F0070EC4
:101A10002CF0E06343EA0E63036156E0D0F810C097
:101A200003F0070E2CF0605343EACE6303614CE0F1
:101A3000D0F80CC063F3020CC0F80CC045E000BF46
:101A4000D0F80CC003F0070E2CF0380343EACE03A5
:101A50003AE000BFD0F80CC003F0070E2CF4E0739E
:101A600043EA8E1330E000BFD0F80CC003F0070E3D
:101A70002CF4606343EA4E2326E000BFD0F80CC08C
:101A800003F0070E2CF4E04343EA0E331CE000BFE2
:101A9000D0F80CC003F0070E2CF4603343EACE33C9
:101AA00012E000BFD0F80CC003F0070E2CF4E013D6
:101AB00043EA8E4308E000BFD0F80CC003F0070EE5
:101AC0002CF4600343EA4E53C360013A0F2A88BFE7
:101AD00080BDDFE802F0090F151B21272D33393FA8
:101AE000454B51575D6300BF426B61F30402426393
:101AF00080BD00BF426B61F34912426380BD00BFED
:101B0000426B61F38E22426380BD00BF426B61F382
:101B1000D332426380BD00BF426B61F3185242630F
:101B200080BD00BF426B61F35D62426380BD00BF58
:101B3000026B61F30402026380BD00BF026B61F3BC
:101B40004912026380BD00BF026B61F38E22026303
:101B500080BD00BF026B61F3D332026380BD00BF62
:101B6000026B61F31852026380BD00BF026B61F328
:101B70005D62026380BD00BFC26A61F30402C2629B
:101B800080BD00BFC26A61F34912C26280BD00BF5E
:101B9000C26A61F38E22C26280BD00BFC26A61F375
:101BA000D332C26280BD00008368072923F000732E
:101BB00088BF03F100738360836802F0010261F360
:101BC00053438360816821F4801141EA02518160AE
:101BD00070470000826801F0010122F4800242EAAD
:101BE000815181607047000042F20841C4F2010156
:101BF0000A6800F0010022F4000242EAC0500860C6
:101C000070470000F0B581B02825C4F6000505F541
:101C1000767420460121002202230126022701F0CA
:101C200095FC4FF09040012100224FF48063C5F8ED
:101C300000744FF4806701F089FC204601210022E6
:101C400001232F6001F082FC4FF09040012100221F
:101C50004FF40073C5F800644FF4007401F076FC93
:101C60004FF090400121002280232C60802401F05D
:101C70006DFC4FF09040012100224FF480732C60E6
:101C80004FF4807401F062FC2C6001B0F0BD0000E4
:101C900070B540F20105C2F20005287840F2004418
:101CA000C4F600040028204606D0022100220223A8
:101CB00001F04CFC07E000BF0121002202230226B4
:101CC00001F044FCA6624FF09040022100224FF444
:101CD000806301F03BFC287830B1204602210022CD
:101CE000012301F033FC07E02046012100220123FB
:101CF000012601F02BFCA6624FF090400221002249
:101D00004FF4007301F022FC287838B14FF0904076
:101D100002210022802301F019FC0CE04FF09040DA
:101D2000012100228023802501F010FC4FF628407D
:101D3000CFF6FF7025504FF09040022100224FF463
:101D40008073BDE8704001F001BC000040F21D034B
:101D5000C2F200031A781C20C121C4F20100042A37
:101D6000C4F2000101D0012A03D101F11002026086
:101D70001A78052A01D0022A03D101F1200202605B
:101D80001A78062A04D0032A08BF016001E000BFC8
:101D9000016040F21801C2F200010A78D0F8EC1399
:101DA00052B121F40011C0F8EC13D0F8F01341F453
:101DB0000011C0F8F013704741F40011C0F8EC13A3
:101DC000D0F8F01321F40011C0F8F01370470000B0
:101DD000002818BF70471C20C4F20100026861F39C
:101DE00000020260704700000138052888BF704774
:101DF000F0B581B0DFE810F0060044008400C400B4
:101E00000401440128254FF0904001210022802345
:101E1000C4F600050126802401F098FB4FF09040A5
:101E2000012100224FF480732C604FF4807401F084
:101E30008DFB2C6005F576742046012100220123DC
:101E400001F084FB4FF09040012100224FF4007319
:101E5000C5F8F0634FF4007601F078FB40F2010022
:101E60002E60C2F200000078002800F04781204672
:101E700002210022022301F069FB4FF4806384E118
:101E80002825C4F6000505F57674204601210022B8
:101E900002230126022701F059FB4FF09040012157
:101EA00000224FF48063C5F800744FF4806701F09E
:101EB0004DFB20460121002201232F6001F046FB4B
:101EC0004FF09040012100224FF40073C5F8F063F9
:101ED0004FF4007401F03AFB40F201002C60C2F2B2
:101EE00000000078002800F015814FF0904002219A
:101EF0000022802301F02AFB4FF4807345E100BFEC
:101F00002825C4F6000505F5767420460121002237
:101F10000123012601F01AFB4FF09040012100221D
:101F20004FF40073C5F800644FF4007601F00EFB27
:101F300020460121002202232E60022401F006FB2C
:101F40004FF09040012100224FF48063C5F8F04328
:101F50004FF4806401F0FAFA40F201002C60C2F202
:101F600000000078002800F0E1804FF0904002214E
:101F70000022802301F0EAFA4FF4807305E100BFEC
:101F800028254FF09040012100228023C4F600054F
:101F90000126802401F0DAFA4FF09040012100225E
:101FA0004FF480732C604FF4807401F0CFFA2C60F2
:101FB00005F576742046012100220223022701F054
:101FC000C5FA4FF09040012100224FF48063C5F81C
:101FD000F0734FF4806701F0B9FA40F201002F600E
:101FE000C2F200000078002800F0AC8020460221F8
:101FF0000022012301F0AAFA4FF40073C5E000BFEC
:102000002825C4F6000505F5767420460121002236
:1020100002230126022701F099FA4FF09040012196
:1020200000224FF48063C5F800744FF4806701F01C
:102030008DFA4FF090400121002280232F608027ED
:1020400001F084FA4FF09040012100224FF4807398
:1020500045F8107C4FF4807701F078FA40F20100E7
:102060002F60C2F200000078002877D020460221BD
:102070000022012301F06AFA4FF4007385E000BFEB
:102080002825C4F6000505F57674204601210022B6
:102090000123012601F05AFA4FF09040012100225D
:1020A0004FF40073C5F800644FF4007601F04EFA67
:1020B0004FF090400121002280232E60802601F005
:1020C00045FA4FF09040012100224FF4807345F80B
:1020D000106C4FF4807601F039FA40F201002E6066
:1020E000C2F200000078002844D0204602210022DD
:1020F000022301F02BFA4FF4806346E020460121D1
:1021000000220223022401F021FAC5F800444FF412
:1021100080633AE04FF09040012100228023802428
:1021200001F014FA2C604FF480732EE04FF09040D1
:10213000012100228023802401F008FA2C604FF452
:10214000807322E0204601210022012301F0FEF9E4
:10215000C5F800644FF4007317E000BF204601216A
:102160000022012301F0F2F9C5F800644FF4007376
:102170000BE000BF2046012100220223022401F0CF
:10218000E5F9C5F800444FF480634FF09040022118
:10219000002201B0BDE8F04001F0D8B92DE9F04FC0
:1021A00087B040F23C57C2F200073A68D7F87CB0DB
:1021B00040F21849ABEB0200C2F20009A9F80A008C
:1021C00081B240F28040C2F200000388480999427F
:1021D000A9F8080040F2478140F25C03C2F2000314
:1021E0001B88994280F03F81D7E90136D7E9035136
:1021F0009A1A82424FF00002D7E9054ED7E907ACA0
:1022000088BF01220692AA1B82424FF00002A4EB73
:10221000010188BF012281424FF00001059288BF71
:1022200001210491AAEB0E0181424FF0000188BF09
:10223000012107F1240603914ECED7E90D5EA1EBF3
:102240000C0181424FF00001FC6BD7F840C088BF01
:1022500001210291991A81424FF0000188BF0121AA
:102260000191A91B81424FF0000188BF012100911B
:10227000796CA4EB0E0686424FF0000AA1EB0C012C
:1022800088BF4FF0010A8142D7E912414FF00003A5
:1022900088BF0123091BD7E9144C0025814288BF60
:1022A0000125ACEB040CD7E9164E8445AEEB040CCB
:1022B0004FF0000E88BF4FF0010ED7E91884844517
:1022C0004FF0000CA4EB080488BF4FF0010CD7F8C6
:1022D00068804E46D7F86C908442A9EB0808D7E98D
:1022E0001C94BF6FA4EB09094FF00004ABEB070788
:1022F00088BF012480454FF0000B88BF4FF0010BD1
:1023000081454FF0000188BF012187424FF000074F
:1023100088BF012780454FEAC40888BF08F1040838
:10232000814540F2AF40C2F2000090F8009040F2C8
:10233000A840C2F20000007888BF08F1020850EA05
:102340000900716506980299F06180EA0100F16266
:10235000F36380EA03000599019B316281EA03017E
:1023600081EA05014FEA810141EAC0000499009A1F
:10237000716281EA020181EA0E01C6E9134B40EA6B
:1023800041040398B765B06280EA0A00474440F20E
:10239000A848356480EA0C05C2F200083363726312
:1023A000C6F844E0C6F838A0C6F848C00BD101F022
:1023B00089F840B130790130C1B26529307124BF4C
:1023C000012088F8000098F80000002844EA050081
:1023D00018BF87F00F07874242D106F11C0C9CE81A
:1023E0008F10490241EA802040EA022040EAC310EF
:1023F000D6E90D5440EA871040EA4C1006F13C073C
:1024000040EA05108ECF40EAC40040EA810040EA6D
:10241000420040EA030140F2DA40B389C2F2000010
:1024200000220280581C012FB08105D140F2A64045
:10243000C2F2000001220270302917DB7078A8B1C7
:1024400040F2D440C2F20000018040F23C60C2F28F
:10245000000000210170B17007B0BDE8F08F00BF2F
:10246000F0890130F08107B0BDE8F08F481E2E28BA
:102470000CD840F2D440C2F200000022028040F2A8
:102480003C62C2F20002C8B2117018E031B140F2F1
:102490003C60C2F20000007811E000BF307840F2EA
:1024A000D441012804BF00207070C2F20001002056
:1024B000088040F23C61C2F200010870B070002850
:1024C000D1D040F2AB41C2F2000109780029CAD153
:1024D00040F2AF41C2F2000109780029C3D0F1787F
:1024E00088421EBFF0700021B170052805D3B17875
:1024F0000131CAB2062AB170B5D3411E0025142994
:10250000B57000F2A280DFE801F00B131B232BA0B3
:1025100033414F57A05F737FA0A0A0A0A087950074
:1025200040F2A341C2F20001012008708DE000BF1B
:1025300040F2A341C2F200010220087085E000BF12
:1025400040F2A341C2F20001032008707DE000BF09
:1025500040F2A341C2F200010420087075E000BF00
:1025600040F2A341C2F20001052008706DE000BFF7
:1025700040F29240C2F200000021017040F21900C6
:10258000C2F200000121017007205EE040F292409B
:10259000C2F200000121017040F21900C2F20000F5
:1025A00000210170082050E040F29340C2F2000088
:1025B00000210170092048E040F29340C2F200007F
:1025C000012101700A2040E002F0B6FD40F2924085
:1025D000C2F20000007840F2A342411C40F23C608D
:1025E000C2F20000C2F20002007811702DE000BFBC
:1025F000317801204FF4606270710129F28008BFC8
:1026000070700D2021E000BF0020707140F6FF6067
:10261000F0800E2019E000BF40F29240C2F20000AC
:10262000007840F21901C0F10100C2F20001087007
:1026300014200AE040F29240C2F20000007840F21A
:102640001901C2F200010870152040F28871C2F22F
:102650000001087040F23C60C2F20000057007B053
:10266000BDE8F08F70B582B040F23C55C2F2000573
:10267000D5E9000140F27652081AA0F2213140F269
:1026800074449142C2F2000436D86178D1B3E17843
:10269000002951D0217940F2E14290420BD840F21A
:1026A0002602C2F2000213880131C3EBC3031844AF
:1026B000C00821711080C8B24C2871D340F22600A6
:1026C000C2F2000001880025193101804FF6125036
:1026D000CFF6FF7010FA81F000EBD07040F23D6150
:1026E0004008C2F2000181F82000657002F024FD6C
:1026F000257102F025FB53E040F2D040C2F2000009
:1027000052E000BF40F29341C2F20001097839B3B0
:1027100040F22A01C2F200010A88904234D940F204
:102720002801C2F200010B88511C4FF4FA661A46C8
:1027300040F2E93330E000BFA17840F228060029DA
:102740000CBF208120890131C2F20006A1703188BE
:1027500080B200F097FE332844DB0020607062E016
:1027600040F2260140F22802C2F20001C2F2000249
:102770000988128840F2FF762F23009602F092F922
:102780003128B8BF00200AE040F22601C2F2000161
:1027900009884FF47A760023009602F083F92061CD
:1027A00040F2DA40C2F2000040F2D441C2F200012D
:1027B00040F2DC0622690B88C2F200063668D51AA0
:1027C000B5424FF00005058004DD9A190A8002B079
:1027D00070BD00BF981AB042C8BF9A1B0A8002B0F1
:1027E00070BD00BF3088D5E90012C0EBC000511A9F
:1027F0000844A178C0083329308014D34FF62A1139
:102800001938CFF6FF71308011FA80F000EBD070EC
:1028100040F23D614008C2F2000181F82100012030
:10282000E07002F0C1FAE078318800282181B7D049
:10283000D5E90001081A217940F2E14290427FF681
:102840002EAF38E741F20401C4F202010A6860F3D6
:102850008F320A600A68800860F31C720A60704751
:1028600041F20401C4F202010A6800F00F0022F0F4
:10287000F00242EA001008607047000041F20401D3
:10288000C4F202010A6800F0070022F4E06242EAA2
:10289000002008607047000041F20401C4F2020108
:1028A0000A6800F0070022F4605242EAC020086083
:1028B0007047000041F25401C4F202010A68012885
:1028C00022F0300208BF30320A607047042888BF07
:1028D0007047DFE800F0030D1B29330041F20000D0
:1028E000C4F20200026861F300020260704700BF98
:1028F00041F20000C4F20200026801F0010122F47A
:10290000803242EA01410160704700BF41F200009D
:10291000C4F20200026801F0010122F0807242EA72
:1029200001610160704700BF41F20000C4F2020083
:10293000026A61F300020262704700BF41F20000C8
:10294000C4F20200426A61F3000242627047000072
:10295000F0B541F20401C4F202010A68C2F3810336
:1029600041F20022022BC0F27A020DD0002B4BD193
:102970000B6D9B0548D5CB6A9B0144BF46F60042D0
:10298000C0F2DC2240E000BF0B688C6AC3F3004752
:10299000002C17D40C680B68C4F38344C3F3417351
:1029A0001D016E1C0F2C354618BF0225002B18BFC9
:1029B000354605EB0403FFB940F60012C0F23D02B4
:1029C0005A4321E08B6A8C6AC3F3031E8B6A40F67C
:1029D000001CC0F23D0CC4F3082403F007031FB130
:1029E0000D68AD0358BF94460CFB04F20EFA03F3D6
:1029F000B2FBF3F208E000BF0F68BF0344BF40F62C
:102A00000012C0F23D025A4302600B6812A7C3F3E2
:102A10000313FB5C46F6BA57DA4042600B68C0F617
:102A20000007C3F30223FB5C22FA03F3C3600B68C5
:102A3000C3F3C223FB5C0427DA4082600B68096899
:102A400007EA9363C1F38131194407A3595CB2FBD0
:102A5000F1F10161F0BD00BF0000000000000000C6
:102A6000010203040607080902040608020C081004
:102A700041F20002010CC4F20202895800F01F006A
:102A800021FA00F000F001007047000041F200025E
:102A900000F01F034FF0010CC4F2020201290CFAEE
:102AA00003F14FEA1040835814BF23EA0101194390
:102AB0008150704741F2000200F01F034FF0010CFB
:102AC000C4F2020201290CFA03F14FEA10408358C4
:102AD00014BF23EA010119438150704741F20402F7
:102AE000C4F20202136868B143F4803313601368C0
:102AF000012807BF23F400334FF0007043F4003384
:102B0000002002E023F4803300201360136861F397
:102B1000954313601368090961F35E731360916A4A
:102B200021F0E061084390627047000041F200002C
:102B3000C4F20200016841F00101016001688907E7
:102B400009D4016889075CBF01685FEA817102D41A
:102B500001688907F2D5416821F00301416000BF97
:102B6000416811F00C0F0BD0416811F00C0F07D029
:102B7000416811F00C0F03D0416811F00C0FEFD138
:102B800001684FF6FF72CFF6F2621140016000213A
:102B9000416041F61071C1624FF4801101634FF43E
:102BA0001F0181607047000041F20401C4F202017C
:102BB0000A6860F301020A607047000041F20400F5
:102BC000C4F202000068C0F38100704744F624019B
:102BD000C4F2010100220A6007E000BF0A688242D5
:102BE00028BF70470A68824205D20A68824202D230
:102BF0000A688242F2D3704744F62401C4F201010C
:102C000000220A6042F6E0624A6051F8102C00EBA4
:102C1000800042F00102400041F8102C0A68824214
:102C200008D20A68824205D20A68824202D20A6841
:102C30008242F3D37820486051F8100C40F0010034
:102C400041F8100C70470000B0B540F23C5CC2F295
:102C5000000C40F2580EDCF80040C2F2000E44F6C0
:102C6000206200230021AEF8022002E02833782BF6
:102C70007AD00CEB030045682C1B1BD18468651BC4
:102C800021D1C5682C1B27D10469651B2DD145694D
:102C90002C1B33D18469651B39D1C5692C1B3FD1ED
:102CA000046A651B45D1456A2C1B4BD1846A601BA5
:102CB000DCD051E0214494423CBFA2B2AEF80240C5
:102CC0008468651BDDD0294495423CBFAAB2AEF8AA
:102CD0000250C5682C1BD7D0214494423CBFA2B2FD
:102CE000AEF802400469651BD1D0294495423CBF2F
:102CF000AAB2AEF8025045692C1BCBD021449442B5
:102D00003CBFA2B2AEF802408469651BC5D029441D
:102D100095423CBFAAB2AEF80250C5692C1BBFD089
:102D2000214494423CBFA2B2AEF80240046A651B43
:102D3000B9D0294495423CBFAAB2AEF80250456AC8
:102D40002C1BB3D0214494423CBFA2B2AEF8024047
:102D5000846A601B3FF48AAF014490423CBF82B258
:102D6000AEF8020082E700BF40F2B143C2F20003B6
:102D7000187840F2744C4C09C2F2000C0128CCF8CF
:102D8000184030D1941E022C0ED8CC090E2C0BD832
:102D900040F2D904C2F200040025257001248CF809
:102DA00006401C700E2410E0541F032C1BD8CC09C5
:102DB000182C18D840F2D9050124C2F200051C7065
:102DC0002C7003248CF80640072440F2D805C2F288
:102DD00000052C7020248EF8004040F2B044C2F26E
:102DE00000040125257040F2B244C2F200042578A7
:102DF000012D11D1A2F1C90044F65651884288BF75
:102E0000B0BD0120207040F2D900C2F2000077214D
:102E1000017002202BE000BF284330D1901E022811
:102E20000ED8C8090E280BD840F2D900C2F2000013
:102E30000021017001208CF8060018700E2010E0AF
:102E4000501F0328D6D8C8091828D3D840F2D90172
:102E50000120C2F200011870087003208CF80600EF
:102E6000072040F2D801C2F20001087020208EF83D
:102E7000000040F2B040C2F2000001210170B0BD7C
:102E8000026861F3000202607047000000210182C5
:102E9000C0E90011C0E90211704700000021C4F22E
:102EA00002010968084018BF0120704702684BF60C
:102EB000EF731A4002600A8903681A4302604A7C71
:102EC000036802F0030223F4405343EA0232026033
:102ED000CA7B036802F0030223F4406343EA8222C0
:102EE00002608A7B036802F0030223F4407343EA22
:102EF000022202604A7B036802F0010223F0800391
:102F000043EAC21202600A7B036862F3861303601D
:102F10000A7C036862F3451303604A8942600A68C9
:102F200082604968C1607047016800F0FC024CF69D
:102F3000CD43083ACCF6CC43A2FB032321F0010198
:102F4000016000210422016041608160C1606FF076
:102F50000300C4F2020200EA93000F21136801FA91
:102F600000F018431060704740F20040C4F20100C6
:102F7000016841F4001101607047000010B542F68D
:102F80000044C4F2010420460021012203F068F944
:102F900020460221012203F063F920460421012288
:102FA00003F05EF920460121012203F059F9204681
:102FB0000321012203F054F920460521012203F0E8
:102FC0004FF9206840F001002060606C40F4004040
:102FD0006064606940F00100606144F20040C4F246
:102FE0000100016840F2004441F0010101604169C3
:102FF000C4F2000441F001014161C16821F0010106
:10300000C160D0F8001441F00101C0F80014D4F8F8
:10301000000C40F00100C4F8000C41F21400C4F2AE
:103020000000016841F00101016042F20000C4F2B9
:103030000000016841F001010160416941F00101B6
:103040004161C16841F00101C160FEF757F92046B6
:103050000021012203F004F92068202140F0010042
:1030600020604EF20740CEF2000001704EF20010D8
:10307000CEF200008021016040F20040C4F2010065
:10308000016841F40041016010BD000042F20C01F2
:10309000C4F202010860704742F21000C4F202005C
:1030A000016841F0800101607047000042F20C01AC
:1030B000C4F202014A6842F002024A60886048682D
:1030C00040F0400048600868C0070DD1086840071C
:1030D00046D40868C0064FF0020058BF03204A6873
:1030E00022F002024A6070474FF080420868C00731
:1030F00000F08B800868C00738D00868C0073BD054
:103100000868C0073ED00868C00741D00868C007FB
:1031100044D00868C00747D00868C0074AD008688C
:10312000C0074DD00868C00750D00868C00753D00A
:103130000868C00756D00868C00759D00868C0079B
:103140005CD00868C0075FD00868C00768D0103A34
:10315000CCD104204A6822F002024A60704700BFC6
:1031600001204A6822F002024A607047013A08686A
:1031700040074DD558E000BF023A0868400747D5E0
:1031800052E000BF033A0868400741D54CE000BF59
:10319000043A086840073BD546E000BF053A086896
:1031A000400735D540E000BF063A086840072FD5F4
:1031B0003AE000BF073A0868400729D534E000BF6D
:1031C000083A0868400723D52EE000BF093A08688E
:1031D00040071DD528E000BF0A3A0868400717D508
:1031E00022E000BF0B3A0868400711D51CE000BF81
:1031F0000C3A086840070BD516E000BF0D3A086886
:10320000400705D510E000BF0E3A086840070BD410
:103210000868C0064FF0020058BF032005E000BF59
:103220000F3A08684007F3D50120012A08BF04209F
:103230004A6822F002024A607047000042F204002D
:1032400040F22311C4F20200C4F26751016048F653
:10325000AB11CCF6EF5101607047000042F20C0256
:10326000C4F20202536843F0010353600160106826
:10327000C0070DD11068400746D41068C0064FF053
:10328000020058BF0320516821F0010151607047CE
:103290004FF480111068C00700F08B801068C007E1
:1032A00038D01068C0073BD01068C0073ED0106807
:1032B000C00741D01068C00744D01068C00747D08D
:1032C0001068C0074AD01068C0074DD01068C0070A
:1032D00050D01068C00753D01068C00756D010688F
:1032E000C00759D01068C0075CD01068C0075FD015
:1032F0001068C00768D01039CCD10420516821F083
:1033000001015160704700BF0120516821F00101A7
:10331000516070470139106840074DD558E000BF33
:1033200002391068400747D552E000BF03391068E2
:10333000400741D54CE000BF0439106840073BD539
:1033400046E000BF05391068400735D540E000BFB2
:103350000639106840072FD53AE000BF07391068DA
:10336000400729D534E000BF08391068400723D54D
:103370002EE000BF0939106840071DD528E000BFC6
:103380000A391068400717D522E000BF0B391068D2
:10339000400711D51CE000BF0C39106840070BD561
:1033A00016E000BF0D391068400705D510E000BFDA
:1033B0000E39106840070BD41068C0064FF00200A9
:1033C00058BF032005E000BF0F3910684007F3D550
:1033D0000120012908BF0420516821F0010151603A
:1033E00070470000F0B581B02825C4F6000505F54A
:1033F000767420460121002202230126022700F0D4
:10340000A5F84FF09040012100224FF48063C5F8E9
:10341000F0734FF4806700F099F8204601210022F4
:1034200001232F6000F092F84FF09040012100221C
:103430004FF40073C5F8F0634FF4007400F086F8A1
:103440004FF090400121002280232C60802400F066
:103450007DF84FF09040012100224FF4807345F831
:10346000104C4FF4807400F071F82C6001B0F0BD86
:1034700042F61440C4F20100016841F0010101600C
:1034800070470000401A48BF404270471C20C4F2F9
:1034900001000068C0F380707047000048F2E80146
:1034A000484343F23811A1EB10304FF2CF31CCF644
:1034B0003C7150FB01F0C10801EBD0700F3000B23D
:1034C0007047000040F21040C4F60000006800F0B1
:1034D00010007047F0B50A88002A08BFF0BD00232D
:1034E0004FF0030C4FF0010E002405E0520804F1E8
:1034F000010403F1020327D0D507F7D005680CFAC1
:1035000003F6B54305608D7907689D403D4305602E
:1035100045680EFA04F7BD4345600D794768A5403C
:103520003D4345608568B5438560CD7987689D409A
:103530003D438560C568B543C5604D79C6689D400B
:103540003543C560D2E700BFF0BD0000D0F800C031
:103550005B4303EB43022CEA02025943114301602F
:103560007047000080B5D0F800C05B4303EB430E0A
:103570002CEA0E0C594341EA0C010160C1685A4320
:1035800021EA0E011143C16080BD000010B51C236B
:1035900003EA810E24234FF00F0C082938BF2023A3
:1035A000C4580CFA0EF124EA0101C150C15802FAC4
:1035B0000EF21143C15010BD62B670472DE9F04FB5
:1035C00081B002F0CBFA4FF4A0100121FFF75EFAB0
:1035D0004EF20B47CEF2000710204EF20016387064
:1035E000CEF200064FF400603060FEF78FF840F234
:1035F000010BC0F21C0B0BF103000121FFF746FA8F
:1036000041F22800C4F200004FF6FF7A3B24C0F8D4
:1036100004A004600BF107000121FFF737FA42F222
:103620002800C4F20000322141607721016030207F
:1036300038724FF4002011253060C0F2140528467E
:103640000121FFF723FA4FF4C0100121FFF71EFA02
:103650004FF090400321002202234FF00009FFF7B2
:1036600075FF4FF09040032100222023FFF76EFFEB
:1036700087F801904FF48050306000200121FEF760
:10368000A7FB1220C0F218000121FFF7FFF944F652
:103690002C0044F20048C4F20100C4F20108C0F852
:1036A00000A0C8F82844D8F80004012140F08000A8
:1036B000C8F8000405F58020FFF7E8F94FF4FA7028
:1036C000C8F82C00C8F82840D8F80000012140F0C4
:1036D0008000C8F8000087F80A904FF400103060AE
:1036E000681CFFF7D3F958460121FFF7CFF940F2E4
:1036F0000044C4F600042046022100221023FFF7F4
:1037000025FF204604210122FFF740FF4FF4A010BF
:103710000121FFF7BBF94420C4F2020040F68A11F0
:103720000160102139704FF40060306040F20040B9
:10373000C4F20000C0F82CA08162016841F0800151
:103740000160016841F00101016001B0BDE8F04F86
:1037500002F0B8BAF0B581B040F29044C2F2000471
:10376000A06F41F224057E28C4F2000528D3286802
:1037700040F20C567C28C2F200060BD8B4F8460082
:10378000C0084A2806D87068B0F5FA7F02D201B0A6
:10379000F0BD00BF40F20001C2F200012868B1F89C
:1037A0004E10B0EB510FF2D3607F0130C1B26529EA
:1037B000607705D301F09EF90020706001B0F0BD84
:1037C00040F20006C2F200062968327EB07DA4F8FD
:1037D0004E105AB1A0B10027FFF758FE0028D6D1ED
:1037E000B07D01378742F7D30AE000BF40B1002720
:1037F000FFF74CFE0028CAD0B07D01378742F7D3CF
:1038000001F078F9EFF3108072B62A68B4F84E1020
:1038100000208A424FF0000284BF2A68521A2A60B0
:10382000B4F84810F27CD14044F20C42C4F20102D8
:10383000A4F84810906111625060106840F00100D7
:10384000106062B601B0F0BD2DE9F04182B040F2E7
:103850003D64C2F2000447F60041C0F60001204674
:10386000B02201F0EFFB607CA17C0138B0FA80F05F
:1038700040F290454009C2F20005A870481EE27C63
:10388000B0FA80F04009012AE87004BF0120A87155
:10389000207D617D0138B0FA80F040F200064009D9
:1038A000C2F200067070481EA27DB0FA80F0400996
:1038B000B070501EB0FA80F04009E37DF070207EB9
:1038C00042F62C48042BA0F10801C4F2010828BFDD
:1038D00002232829B37115D8182823D2A0F10C018E
:1038E0000B292FD900F0FC0108293BD141F64C5798
:1038F0000721102243F69823009701F0D3F8F087B0
:1039000031E000BF41F28830B087C8F80000607E27
:10391000A0F13201642932D99620B0865520308733
:1039200038E000BF40F6C4171821302241F2883336
:10393000009701F0B7F80146207EF187A0F10C0155
:103940000B29CFD841F288370C21182242F210738C
:10395000009701F0A7F80146207EF18700F0FC01F6
:103960000829C3D0F08F81B2C8F80010A6F848002B
:10397000A6F84000607EA0F132016429CCD800F1A5
:103980003C01B186142101EB500131871E2101EB6E
:1039900050007087A07E227F00EB8000142707EB89
:1039A000C000F083501E637FB0FA80F04009287198
:1039B000581EB0FA80F0E17E400968710220F17172
:1039C00002F062F86078002800F0B680A07F0B2833
:1039D00088BF052002F058F8E07F94F820100138E5
:1039E000B0FA80F04009E87140F2EE2094F821200E
:1039F00000EB410094F82230F08440F2D66000EBF6
:103A00004200308503F25E50708594F8230094F8EC
:103A100024107073481EB0FA80F094F82510400905
:103A2000A87201F1FA0094F82610B085481EB0FA89
:103A300080F04009E87294F828000021421F142AFF
:103A4000297298BF307394F82900411E092998BF44
:103A5000707294F82A00411EC9B208291FD8B072AA
:103A600000EB80006FF02D01A1EB4000617EF07251
:103A700051FA80F2B2864908B6F8462051FA80F130
:103A8000318752FA80F1F28EA6F8461052FA80F190
:103A9000F186D8F81810C0B20843C8F8180094F896
:103AA0002B00A0F14601462998BF707194F82C00B4
:103AB000411E622903D8400030840120A87394F885
:103AC0002D00411E092998BF307294F82E10092943
:103AD00008D804290FD805F12200DFE801F00343DC
:103AE0000A0C47000020A5F8210040F21940C2F25C
:103AF000000001210170F08B202781084A299CBF1A
:103B00000021F17348F21F51C5F2EB11A0FB011225
:103B10004FF2F101CFF2F001A0FB0113F17952094C
:103B2000B7FBF1F11B09B2FBF1F2B3FBF1F1A6F81F
:103B30004220A6F8441000E0F08B4FF4FA774FF4DF
:103B4000967140F6B8324FF47A73009700F0AAFFEE
:103B500071783086002904BF0020E87002B0BDE80B
:103B6000F08100BF012085F82100BEE740F2184037
:103B7000C2F200000121017040F21940C2F20000BF
:103B80000021017005F12100B3E7000082B0FFF7CA
:103B900013FDFFF713FDFFF7F1F9FFF755FE40F6B0
:103BA000FC70C0F60000017840F23D60C2F20000F7
:103BB000C27840F2904B40F20009C2F2000B022A98
:103BC000C2F200098BF8251002D1017908294AD0E8
:103BD00040F60201A0F8031045F24141C3F233213F
:103BE000C0F8051044F25021C2F23401C0F80910A7
:103BF0004FF02031C0F80D1099F800109BF80360C9
:103C000041709BF802109BF806500139B1FA81F11E
:103C100049094174711EB1FA81F149098174691E23
:103C200099F80120B1FA81F14909C174511E99F83E
:103C30000230B1FA81F149090175591E99F80370F2
:103C4000B1FA81F149094175791E99F80620B1FA56
:103C500081F14909C27547F600428175C0F600023C
:103C6000B02101F0ABFAB9F83E00B9F8361044F6CD
:103C7000D3574143C1F26207A1FB0712B9F84610BE
:103C80009BF802304143A1FB0717591E18BF0121C1
:103C900089F8191099F80B10A9F83C0001EBD21122
:103CA00099F80120A9F83610F909A9F84610002A58
:103CB000A9F8480004BF00208BF806009BF80B0011
:103CC00000B34FF47A70A9F8460001208BF8030086
:103CD000002189F80F00B9F838008BF80610A9F810
:103CE000011089F80310B9F83A103230A9F83800F9
:103CF00001F13200B9F83410A9F83A0001F13200AC
:103D0000A9F8340043F20004C4F2000401F0FCF806
:103D10004FF00008ABF84080FDF720FC4AF6AA20DF
:103D2000206001F0C1F99BF8000000281CBF0120B1
:103D30008BF80D0001F08CFE40F20C5AC2F2000A22
:103D400093E000BF013801B2002948BF40F267107C
:103D5000BBF85210ABF8500001390AB2002A48BF34
:103D600040F26711BBF85420ABF85210511E0AB252
:103D7000002A48BF40F2671140F2E20500B2C2F2E9
:103D80000005ABF8541035F91000B9F84C10B9F82B
:103D90003E20084444F6D3545043C1F2620450FB21
:103DA00004F0C11199F8082001EBD07046F2676663
:103DB0005043C6F2666650FB06F0810801EBD070F6
:103DC00080B201F04FFEBBF95200B9F84C1035F942
:103DD0001000B9F83E200844504350FB04F0C111D4
:103DE00099F8082001EBD070504350FB06F0810891
:103DF00001EBD07080B201F03BFEBBF95400B9F882
:103E00004C1035F91000B9F83E200844504350FBDF
:103E100004F0C11199F8082001EBD070504350FB19
:103E200006F0810801EBD07080B201F027FE99F80E
:103E3000071041F65832B2FBF1F340F22A32BBF8D8
:103E40004200B2FBF1F730217822009700F02AFE01
:103E5000A9F84A0080B2FEF7B9FEB9F84A004FF45B
:103E60001671B1FBF0F0ABF85E00012443F20000E4
:103E7000C4F200004AF6AA210160BAF81000BAF8AC
:103E80001210BAF81420BAF816300844BAF81870AC
:103E90001044BAF81A6018443844304499F80210B3
:103EA00004304008CAF8080059B1B9F83E70B9F8B2
:103EB0004E007B086021C822009700F0F3FDA9F8AE
:103EC0003C00BBF84A0042F21171884209D39BF8CA
:103ED0001F10002940F0528449F64141884280F089
:103EE0004D84BBF8320044F62161884248D3BBF9C7
:103EF0003450284602F020FE0021C4F2B43102F012
:103F000009FDDBF8701002460846114602F06AFC13
:103F100040F21D41C2F200010978CBF8700003297C
:103F20000AD0022918D0012928D19BF826000221A5
:103F300000F5007018E000BFBBF8580044F2AF7104
:103F40004143A0EB1140400800EB1140000904215F
:103F500061F31F20012107E0A8B2C0B22921484324
:103F6000C00A00F5C060032140F21E42C2F2000206
:103F7000108040F21D40C2F200000170ABF83280A8
:103F8000BBF83A10DAF80400C8294FF0000238BF35
:103F9000012264284FF0000388BF0123B0F57A7F27
:103FA00058D8002956D01A4018BF8BF81A809BF8B1
:103FB00006201AB19F2998BF8BF81A809BF8102011
:103FC00032B10909182998BF8BF81A8006E000BFA2
:103FD00095298CBF0A21642189F81010DAF808109D
:103FE00045F25652C5F2555251FB02F19BF814208E
:103FF00001EBD171002ACBF8781040D00B283ED3CA
:10400000DAF80C00FFF73EFADBF878100A097C2A90
:1040100031D84A0890422ED99BF80300BBF84220C1
:10402000B0FA80F040092F2A4FF0000288BF012229
:1040300010429BF80F00CAF8048000F101008BF8D1
:104040000F000FD1B9F84E00B0F57A7F88BF8BF81A
:104050001B8009E08BF81A809BF80620002AA9D162
:10406000ACE700BF8BF81B80B9F8340089F8144026
:104070004008ABF836008BF81480CAF80C109BF897
:104080001800B9F84E10002818BF012032294FF04F
:10409000000188BF01214EF20B4208404FF0100191
:1040A000CEF200021CBF00211020117090725070DF
:1040B0009BF81600B8B1DBF870009BF82650BBF8EF
:1040C0005860BBF8347002F01BFDBBF85E4003463D
:1040D000284631463A460094012400F069FB01F07D
:1040E0004DF98BF816809BF815000130C1B2C92933
:1040F0008BF81500C0F09780FDF7E8F843F2000058
:10410000C4F2000000F574400121FDF763FDBBF827
:104110006000FFF7C3F9BBF8641040F6E44440F2D6
:1041200001126143C0F21002A1FB0223C91A03EB82
:104130005101B9F83220C90A514348F21F52C5F261
:10414000EB12A1FB021C9BF8191040F28A7EC2F20E
:10415000000EDAF800303EF81170BBF84C60DB1B43
:104160003344A3FB0275C5F34F1740F2FF427C4373
:10417000C4F6EC72A4FB0242BBF85840ABF86200F4
:104180008BF82600C4EBC4002EF81160013100EB5F
:104190005C10CAF80030CBB2632B4FEAD0004FEA74
:1041A0005513ABF8580088BF0021ABF83C30130A18
:1041B0008BF819109BF80A101B044FF00003CBF882
:1041C000747058BF130AABF8343049B39BF8111020
:1041D000B9F82C2080B2514381421FD9BBF830007E
:1041E0009BF81C104FF67C47013044F62063CFF655
:1041F000FF7782B211FB07319142ABF830000FDA42
:10420000ABF84280FDF7FEFC00F074FC8BF81B80DD
:10421000ABF840808BF81F8002E000BFABF8308025
:1042200001248BF815809BF81C008BF81D8078B357
:10423000BBF8420031286BD39BF81F10002967D0D0
:10424000882840F25F8299F81910BBF850000029C5
:104250008BF8094000F06481013801B2002948BFA1
:1042600040F26710BBF85210ABF8500001390AB2A7
:10427000002A48BF40F26711BBF85420ABF8521037
:10428000511E0AB2002A48BF40F2671162E100BF26
:10429000DAF8080042F2C072C0F209029BF81B1063
:1042A00092FBF0F04843ABF85E0080B24CF6CD4193
:1042B000484399F80F10C00CABF8660061B1B9F82B
:1042C0004210B9F84420B9F84630B9F84870009760
:1042D00000F0E8FBA9F840009BF8260099F80520BB
:1042E00090420AD9B9F84830A2F10A010A325B08B3
:1042F000009400F0D7FBA9F84000DAF80400632826
:1043000030D8B9F84E10B1F5FA7F2BD90C2035E032
:104310009BF804008BF80940002800F09580B9F85C
:104320003E0099F80910B9F83C2000EB410113391F
:104330008BB25A43B2FBF0F2ABF84610801A013050
:10434000ABF85C0000F042FEBBF85C0042F6344182
:10435000C4F20101C1E9000088608BF81740ABF896
:104360005E8083E5DBF8780064214FF4FA72032362
:104370000C27009700F096FBB9F84E10642938BF5F
:104380000220B9F81E1041F224028908C4F200028A
:104390007C2989F816009CBF400089F81600106837
:1043A0004AF6C9718842FFF461AD9BF81B000128F1
:1043B0007FF45CAD9BF81A0001308BF81A0000F016
:1043C00099FBBBF8420089F8144041F224033028DD
:1043D0003ABF8BF81B8041F28830B9F84E00C4F226
:1043E0000003CAF80480196800EB4000ABF84E10D7
:1043F000C3F8008010FA81F099F817208108C0F303
:104400008F00B0FBF2F2A9F84E10DAF80410C2EBFC
:1044100050000A29ABF83E20ABF8480022D21868B9
:1044200099F8191099F81D0001292BD10130C1B25A
:10443000072989F81D0022BF012089F81D008BF88B
:10444000140000F0010029E042F63440C4F20100FB
:10445000C0E90088C0F80880FDF7D4FBABF85E80A7
:1044600004E500BF80B200BF19688142D8D2196844
:104470008142D5D219688142D2D219688142F3D3E0
:10448000CEE700BF0138010689F81D0004D10620DF
:1044900089F81D008BF8144024EA000089F8180000
:1044A000EFF3108072B69BF8170018B999F81D0049
:1044B000FDF79AFC62B6FDF749FC9BF805009BF8F6
:1044C0000B10084318BF012006D0DBF87810B1F5B7
:1044D000FA6F88BF89F8144099F81D10BBF84E2078
:1044E0000AEB4101CA81DAF8041001F10101ABF8CD
:1044F00023808BF81E80CAF8041048B11429FFF4F9
:10450000B5ACB9F84E00B0F5FA6F04D9AEE400BF0F
:104510001F29FFF4ABAC89F81480FEF725FDA5E454
:10452000013001B2B1F5B47FA8BF0020BBF8521032
:10453000ABF8500001310AB2B2F5B47FA8BF002138
:10454000BBF85420ABF85210511C0AB2B2F5B47F3C
:10455000A8BF002140F2E20500B2C2F20005ABF8AC
:10456000541035F91000B9F84C10B9F83E20084441
:1045700044F6D3545043C1F2620450FB04F0C1111D
:1045800099F8082001EBD07046F267665043C6F2F6
:10459000666650FB06F0810801EBD07080B201F036
:1045A00061FABBF95200B9F84C1035F91000B9F8AE
:1045B0003E200844504350FB04F0C11199F80820F4
:1045C00001EBD070504350FB06F0810801EBD07036
:1045D00080B201F04DFABBF95400B9F84C1035F92E
:1045E0001000B9F83E200844504350FB04F0C111BC
:1045F00099F8082001EBD070504350FB06F0810879
:1046000001EBD07080B201F039FABBF84200C82843
:1046100006D95020ABF85080A9F84A0002E000BF4C
:10462000B9F84A000124FEF7D1FABBF8500000287F
:104630007FF41CAC41F2240042F22831C4F20000A5
:10464000ABF81B4089F81440A9F84E10CBF878104D
:10465000CAF80C1001609BF805001421CAF8041078
:104660008BF8178000281CBFB9F83A00ABF8360069
:1046700099F8191099F8150001290DD10130C1B22E
:10468000072989F81D0022BF012089F81D008BF839
:10469000140000F001000BE00138010689F81D004C
:1046A00004D1062089F81D008BF8144024EA00008C
:1046B00089F81800EFF3108072B69BF8170018B94C
:1046C00099F81D00FDF790FB62B6FDF73FFB9BF8E4
:1046D00005009BF80B10084306D0DBF87800B0F516
:1046E000FA6F88BF89F8144099F81D00BBF84E1086
:1046F0000AEB4000ABF82380C181FEF7B9FEFFF75B
:10470000B5BB00BF9BF80900A8B144F20C41C4F24C
:104710000101086820F00100086000F0EBF942F6A2
:104720003440C4F20100C0E90088C0F80880FDF7F9
:10473000AFFA8BF8098099F81910BBF850000029DE
:104740007FF400AB013001B2B1F5B47FA8BF002007
:10475000BBF85210ABF8500001310AB2B2F5B47F89
:10476000A8BF0021BBF85420ABF85210511C0AB26C
:10477000B2F5B47FA8BF0021FFF7FEBAFDF742FAF9
:1047800042F634410020C4F20101ABF81F00CBF81F
:10479000400008604860886000F0C6FC40F23C5071
:1047A000C2F200004FF48071FCF71EFDFDF76EF8B9
:1047B00080B540F22E5CC2F2000C8CF80000080AB2
:1047C000DDF808E08CF80100100A8CF80300180AE4
:1047D0008CF802108CF804208CF805004FEA1E209B
:1047E0008CF808E04FF0000E072100228CF806300C
:1047F0008CF807001CF80E305A4053B2D2B2500069
:10480000002B48BF81EA420081EA4002030658BFFC
:10481000420081EA4200130658BF500081EA40027C
:10482000030658BF420081EA4200130658BF5000F9
:1048300081EA4002030658BF420081EA42001306A3
:1048400058BF500081EA4002030658BF4200BEF143
:10485000080F31D00CEB0E0040780EF1020E5040E4
:1048600042B2C0B24300002A48BF81EA400381EA55
:1048700043001A0658BF580081EA4002030658BF99
:10488000420081EA4200130658BF500081EA40020C
:10489000030658BF420081EA4200130658BF500089
:1048A00081EA4003020658BF430081EA430218062A
:1048B00058BF5A009EE700BF8CF8092080BD000059
:1048C0002DE9F04F40F2184CC2F2000CBCF8061073
:1048D00021B10020ACF806001CE000BF40F2AB4163
:1048E000C2F20001097800294FF0000108BF4FF61D
:1048F000FF70B1EBD03F07D100F44041B1F5804FDC
:1049000040F0A880062100E00721C840CCF8101034
:1049100040EA4121080980EA112048400F248443DD
:1049200044EA011046F6C252CCF81400C0F6000268
:10493000C1F303100B0A155CD65CA80240EAC63727
:1049400001F00F0012F80080135D40F2D802C2F2AD
:10495000000292F800E040F2F460C2F2000000EBC6
:104960008E02802020EAC60A06F008068AEA061BA4
:1049700000EA972147EA481481EA0B0100EA57262A
:1049800044EA03094E4000EA1727CCF81890774014
:1049900005F0100C87EACC0C05F008058CEA05152B
:1049A000C2F808A002F1100A8AE8C21000EA541105
:1049B00025F07F0787EA010C00EA141750608CEAA3
:1049C000070A00EAD40080EA0A0008F0100615621F
:1049D00080EAC60608F0080586EA051509F0800495
:1049E0006C4009F0400824F07F0181EA480109F099
:1049F000200781EA8707C2E90B0603F01000C2E92D
:104A00000F1787EAC00003F0080180EA011103F0E4
:104A1000040781EA471703F00206C2E909CA87EAD8
:104A20008616DB0102F1440CC2E90D54DBB226F01C
:104A30007F058CE8830040F2F4616B400020C2F2F5
:104A40000001C2F80CB0C2E9146341F82E00BDE8C1
:104A5000F08F00BF00F46041B1F5005F02D1052185
:104A600053E700BF00F47041B1F5805F02D104212B
:104A70004BE700BF00F47841B1F5006F02D103218C
:104A800043E700BF00F47C41B1F5806F02D1022101
:104A90003BE700BF00F47E41A1F50071B1FA81F15E
:104AA000490932E710B5DDF808C09E460C461146AC
:104AB000634600BF81429C4617DD0A468C420DDCEE
:104AC000E64511D0111949100CEB0E038C424FEA48
:104AD00063030DD08142EDDA0131E6E7114622464B
:104AE0006346F446E1E700BFF446604610BD00BFF0
:104AF000184610BD40F20040C4F20100016821F4E4
:104B0000001101604FF4001141617047B0B54EF6DD
:104B10000C5ECEF2000EDEF800304FF0FF35C3F32E
:104B2000022383F00704042C28BF0424033B05FA66
:104B300004F438BF0023A1434EF2001C994005FA4B
:104B400003F3CEF2000C9A43114300F00F0200EB86
:104B50000C030901043A03F540730028724448BF6E
:104B600002F10C03197048BFB0BD00F01F01012213
:104B700002FA01F1C0F342104CF82010B0BD000061
:104B80002DE9F04381B042F62848C4F2010841F211
:104B90008830C8F80400EFF3108072B640F2385045
:104BA000C2F20000007843F200094CF6CD447925AA
:104BB000C4F200094AF6AA27CCF6CC440A26C8E972
:104BC0000300C8F8140000BF023DA5FB040108095A
:104BD000C9F80070FDF708F906EB5500C8F80000A9
:104BE0000A20FEF709F8022DEED8FDF70BF8002099
:104BF00040F23E02C8F80000C2F2000240F2DA4180
:104C00001288C2F200010880C8F8042062B601B020
:104C1000BDE8F0832DE9F04F81B042F6284543F21C
:104C200000080320C4F20105C4F20008FDF7DCF817
:104C300040F2DA4940F23D6600274AF6AA24C2F261
:104C40000009C2F200064FF0000B4FF0000A07E027
:104C50000AF1010A0BF134000BF1020BAE285BD212
:104C6000C8F8004006EB0B0191F83400A9F8007079
:104C7000FF28EDD091F8351000293DD04FF47A622D
:104C8000F72311FB032149F28062C0F29802B2FBC4
:104C9000F1F148F2A0635FFA8AF2C0F20103C2EBBD
:104CA000C212B3FBF1F300EB420048F21F5258432B
:104CB000C5F2EB12A0FB020243F60060C0F249000D
:104CC000B0FBF1F00A21296040F238516860C2F26D
:104CD00000010978484341F25971CDF2B711A0FBA8
:104CE0000101080BC5E903006861C2F34F10FDF72D
:104CF00083FF4FF0000AADE75FFA8AF1C1EBC11103
:104D000000EB41004FF0000AC5E903AAC5F814A062
:104D1000FDF772FF9EE700BFFCF774FF002040F232
:104D20003E012860C2F2000109886960A9F800000C
:104D30004AF6AA20C8F8000001B0BDE8F08F0000D4
:104D400010B542F62844C4F2010441F28830606094
:104D50002820206040F23850C2F200000078C4E9F8
:104D6000030060610220FDF73FF89620FDF744FF45
:104D700043F20000C4F200004AF6AA21016050206C
:104D800020609620FDF738FFFCF73CFF002040F242
:104D90003E022060C2F2000240F2DA411288C2F202
:104DA00000010880626010BD10B542F62844C4F2CC
:104DB000010441F2883060603220206040F23850B7
:104DC000C2F200000078C4E9030060610220FDF730
:104DD0000BF89620FDF710FF43F20000C4F200002C
:104DE0004AF6AA2101601E2020609620FDF704FFEC
:104DF000FCF708FF002040F23E022060C2F20002F1
:104E000040F2DA411288C2F200010880626010BDEF
:104E100010B5EFF3108072B642F62844C4F20104D4
:104E200041F28830606043F20000C4F200004AF6AC
:104E3000AA2101605020206040F23850C2F20000E8
:104E40000078C4E9030060610320FCF7CDFF642013
:104E5000FDF7D2FE462020606420FDF7CDFE28201D
:104E600020606420FDF7C8FEFCF7CCFE002040F275
:104E70003E022060C2F2000240F2DA411288C2F221
:104E800000010880626062B610BD000070B542F695
:104E90002844C4F2010441F288306060EFF31080CE
:104EA00072B643F20005C4F200054AF6AA263C2079
:104EB0002E60206040F23850C2F200000078C4E951
:104EC000030060610120FCF78FFF4B20FDF794FE8B
:104ED000502020604B20FDF78FFE5A2020604B2091
:104EE0002E60FDF789FEFCF78DFE002040F23E02A9
:104EF0002060C2F2000240F2DA411288C2F20001E0
:104F00000880626062B670BD10B5EFF3108072B6B3
:104F100047F63040C0F60000007842F62844FF28EB
:104F2000C4F2010402D0FFF775FE2BE041F2883095
:104F3000606040F23850C2F200000078C4E903001B
:104F400060610320FCF750FF37202060C820FDF788
:104F500053FE0520FCF748FF28202060C820FDF7FD
:104F60004BFE0620FCF740FF19202060C820FDF70B
:104F700043FEFCF747FE40F2DA410020C2F2000196
:104F80002060088040F23E00C2F2000000886060AD
:104F900062B610BD10B540F29044C2F200046078D1
:104FA000022809D0012803D1FDF7F8F8002060702D
:104FB000BDE8104000F0F0B940F20C50C2F2000021
:104FC0000089FFF77DFC0020607010BDB0B54FF088
:104FD0009040012100224FF480634FF48064FEF77B
:104FE000B5FA2825C4F600054FF0904001210022B3
:104FF0004FF400732C604FF40074FEF7A7FA4FF0E3
:105000009040012100224FF480732C604FF4807493
:10501000FEF79CFA2C6005F57674204602210022EA
:105020000223FEF793FA2046022100220123FEF715
:105030008DFA4FF09040022100228023BDE8B0405D
:10504000FEF784BA70B5012A2CDB531E032B02F045
:10505000030C01D2002211E022F0030E431C0022B7
:105060008D5C9E188C1806F8015C65789D54A578B7
:1050700004327570E4789645B470F1D1BCF1000F3C
:1050800010D0535CBCF1010F83540BD0531C13F8A8
:1050900001E0BCF1020F00F803E008BF70BD02326E
:1050A000515C815470BD0000B0B54425C4F20205C6
:1050B000286840F20044C4F200042860204601F051
:1050C00057F9712040F2D901A061C2F200010B2012
:1050D000097820624FF6FF70A162E06260690021EA
:1050E00040F00100606140F28970C2F2000001707E
:1050F00004F134006162A86040F23C50C2F200004A
:10510000E86040F25800C2F2000000786860E06891
:1051100040F40070E060206840F00100206040F63C
:105120008B102860B0BD000040F22440C4F20000A3
:105130000021816001607047B0B540F20001C2F209
:10514000000140F23D600A78C2F20000427040F275
:105150009042C2F200029478D57892794B78013A65
:10516000B2FA82F25209C2745A1E91F802C0B2FA1F
:1051700082F252090275ACF1010291F803E0013CA0
:10518000B2FA82F2B4FA84F4520964094275AEF1BB
:10519000010244746C1EB2FA82F2B4FA84F4520929
:1051A0008B796409827547F600428474C0F6000268
:1051B000B021C375BDE8B040AFF300802DE9F04FDA
:1051C00003AF85B08346C81701EB9070841020F0C0
:1051D0000300073020F007009246ADEB0008894637
:1051E000C54640462146FBF7FFFFB9F1040F44DBFB
:1051F000601E032804F0030C04D20021BCF1000F50
:1052000027D13AE024F00300C0F1000E08F10809AC
:105210000022002047F81C4C0BEB00045BF8001048
:10522000A3686568E468043A08EB000648F80010D3
:1052300009EB000149F80030964500F1100041F8F3
:10524000045CF460E8D157F81C4C5142BCF1000FEB
:1052500013D05BF82100BCF1010F48F821000CD0FD
:10526000481C5BF82020BCF1020F48F8202004D035
:10527000881C5BF8201048F8201047F8144CFDF704
:10528000DDFF5FEA8A5002D15046FDF70FFF002094
:1052900047F8180C57F8180C57F8141C884217D206
:1052A00057F8180C57F8181C0AEB800058F8211012
:1052B000FDF7D4FF0320FDF7E9FE57F8180C013085
:1052C00047F8180C57F8180C57F8141C8842E7D305
:1052D000A7F10C04A546BDE8F04FFDF7DDBE0000C8
:1052E000B0B54425C4F20205286840F2004440F0FD
:1052F0001000C4F200042860204601F039F8602054
:10530000A0610320206240F27A40C2F200000078DF
:105310000121A0624C20E06240F28970C2F20000DC
:105320000170606940F00100606104F13400A86020
:1053300040F2F460C2F20000E86040F2D800C2F22D
:105340000000007817306860286840F0020028608C
:10535000286840F008002860286840F001002860B4
:10536000E06840F40070E060606C40F4004060640D
:10537000206840F001002060B0BD000040F2E00075
:10538000C2F2000000781C21C4F2020148600868E3
:1053900040F00100086070472DE9F04182B040F212
:1053A0009046C2F20006F07840F20008C2F200080F
:1053B00030B196F8210038B1B6F8440027E100BFBB
:1053C000B6F8440070879BE1F17A98F80D30B6F892
:1053D00044004FF47A72002902EB430114D0814259
:1053E00056D298F81920B778BA423FD1357B0027BA
:1053F0000124002D7787F4754AD0C2F1010288F8A4
:105400001920F77534E000BF81420DD34FF47A7450
:10541000A4EB4302824200F2A780A4EB4301814245
:1054200040F2EA80EFE000BF98F81920B3789A4282
:1054300040F08580B8F84E00B8F83030002498422B
:10544000B6F846304FF0000088BF0120C82B4FF05F
:10545000000338BF012318425AD1307F002857D1AA
:105460004FF47A70A6F8440069E000BFF27D7AB983
:105470000022327340F2FF774FF4FA622F23009735
:10548000FFF710FB0146B6F8440098F80D3071871D
:105490004FF47A74A4EB4302824224D9B17898F88D
:1054A0001970C1F10105BD420CD1357B4FF0000CE4
:1054B0000127A6F83AC0F775ADB188F8191086F83B
:1054C00017C001E0F17D71B9002131732F27002150
:1054D00040F2FF730097FFF7E5FA0146B6F8440083
:1054E00098F80D307187A4EB4301814200F28B8064
:1054F00004EB43018142C0F08680F27D0021002A46
:10550000718700F08080F175012131737BE000BF6D
:10551000C2F1010088F8190040F20C50C2F20000FC
:105520004460012088F81400FFF7E4FA98F80D10A1
:10553000B6F844004FF47A72B47402EB410140F2C1
:10554000FF774FF4FA622F230097FFF7ABFA01467B
:10555000B6F8440098F80D3071874FF47A74A4EBD4
:10556000430282427FF659AFB17898F81930C1F101
:1055700001079F422FD1B8F84E00B8F8303000250F
:105580009842B6F846304FF0000088BF0120C82B83
:105590004FF0000338BF0123184207D1307F28B9EC
:1055A0004FF47A70A6F8440015E000BF40F20C50AA
:1055B000C2F200004560012088F8140088F8191034
:1055C000FFF798FA98F80D10B6F844004FF47A7285
:1055D000B574A2EB41022F27002140F2FF73009720
:1055E000FFF760FA0146B6F8440098F80D3071876D
:1055F000A4EB4301814206D804EB4301814222BF60
:1056000000217187B17496F82110002978D0B0F587
:10561000836F35D398F81910B278914229D1B8F830
:105620004E00B8F8302000249042B6F846204FF0E3
:10563000000088BF0120C82A4FF0000238BF0122B5
:10564000104205D1307F18B90020A6F8440010E0C0
:10565000C1F1010088F8190040F20C50C2F20000BC
:105660004460012088F81400FFF744FAB6F84400BB
:10567000B47498F81110C1EB4001A1F601017187D3
:10568000A0F1300189B2C9087C2934D8B17898F8E2
:105690001920C1F10103934227D1B8F84E00B8F8A0
:1056A000302000249042B6F846204FF0000088BF1A
:1056B0000120C82A4FF0000238BF0122104205D154
:1056C000307F18B90020A6F844000EE040F20C50DC
:1056D000C2F200004460012088F8140088F8191014
:1056E000FFF708FAB6F84400B47498F81110C1EB4B
:1056F0004001313971872F2802D800207087B0749B
:10570000B07E98F8101088420CD998F8030048B180
:10571000FCF778FAFFF7EEF90020A6F842006620C1
:10572000B07672E0B07938B1708F1D282CD8002186
:10573000A6F8421056E000BF707B002862D0307897
:1057400030B3708FD8E914732F2140F2FF720097A5
:10575000FFF7A8F948F20071C0F2933198F80720DA
:1057600091FBF0F05108728F90FBF1F02E2AF0853A
:105770000ED840F260010020C2F20001A6F84200FB
:105780000860B06641E000BF1E281BD11E2029E042
:10579000B46E4EF20005C4F2FF452046294601F0E2
:1057A000A6F8002818BF2546284601F0A9F90021CF
:1057B000A6F84200C4F24021204601F08AF820BB3E
:1057C000302020E098F80C1001EB81018A00824221
:1057D00008D9A0271E212F230097FFF763F9014660
:1057E000708FA5E798F80C1001EB810189008142C8
:1057F0000BD840F2FF7740F2FF72A0230097FFF72B
:1058000051F900E0708FA6F84200307F10B102B06D
:10581000BDE8F081B279B6F8420002EB82012F2494
:1058200004EB0111814226D8F07F20B3F07E68B9E5
:10583000FCF7E8F998F81400002808BF00F02EF9EA
:105840000120F076B8F83400B279F086B6F842005C
:10585000B8F83830B8F83E708921002A40F2FF725B
:1058600008BF2F210097FFF71DF9F17A3087002933
:1058700004BF0020F075B079B6F8421000EB80004C
:1058800004EB001088424BD9F07C052812D8DFE8E1
:1058900000F01303070B0F03FFF786FA0AE000BFBF
:1058A000FFF74EFA06E000BFFFF76AF902E000BF1B
:1058B000FFF7ECFA0020F07498F80100002871D08E
:1058C000F07E002800F0808098F81D00B8F82410C1
:1058D000C0EB001001EB8000A0F13C010AB2B2F570
:1058E000B47FA8BFA0F5D27108B27722A6F85010F5
:1058F000F028C8BF6FF0F0020A44EF23A6F8522048
:105900006FF0F0027828C8BF02F17803B07919442B
:105910000128A6F8541004BF0120307700203087FA
:10592000F07D00287FF473AFB6F842502F2D16D3C8
:1059300040F20C50C2F2000071794068142222FA41
:1059400001F188420BD2308FB8F8341088423CBF46
:1059500031870846B8F83610884288BF3187378FBC
:10596000B8F84000874284BF30870746B07B28B133
:10597000B8F92E008742C4BF87B23787F46E002182
:10598000204600F0ADFF00287FF441AF302DFFF43A
:105990003EAF204601F0B4F83844308702B0BDE88D
:1059A000F08100BFF17E00203087A1BB012188F883
:1059B0001410317940F20C52C2F20002506029B347
:1059C000FDF710FD27E000BF0120327988F81400B0
:1059D00040F20C50C2F2000000214160B1778AB160
:1059E000B07900287FF470AFB8F83E0098F809103D
:1059F00000EB410013383085FFF7E8FA0120F0751D
:105A000062E700BFFCF7FEF85EE700BFF07D00280C
:105A100008BFFCF7F7F8F17AF07D002918BF0028DD
:105A20003FF47FAFB6F844104FF47A70FDF72AFDCB
:105A300000F57A7081B240F2CF729142308703D381
:105A4000FDF7D0FC6CE700BFFFF7C0FA68E7000085
:105A500040F20040C4F60000022101221023FDF7AD
:105A600081BD000042F63441C4F201010860704774
:105A700042F63841C4F201010860704742F63C41E9
:105A8000C4F20101086070470B2828BF0B2040F2C8
:105A900038514000C2F2000108707047B0B540F2C2
:105AA0009044C2F20004E07E20B1BDE8B040FDF7B2
:105AB0005BBA00BF40F20005C2F20005697E687F54
:105AC00001290BD10130C1B20729687722BF01201B
:105AD0006877207500F001000BE000BF0138010677
:105AE000687703D10620012168772175012121EA19
:105AF00000002876EFF3108072B6E07D10B9687F61
:105B0000FCF772F962B6FCF721F96079E17A084393
:105B100005D0A06FB0F5FA6F84BF01202875002072
:105B2000697F40F20C52A4F82300B4F84E00C2F290
:105B3000000202EB4101C88142F21070A5F84E004C
:105B400041F22400C4F2000041F2883101600120DA
:105B5000E076BDE8B040FDF707BA000080B542F23C
:105B60000000C4F2020040F253110160FCF7DEFFB6
:105B700000200121FCF7AAFE0120FCF779FF012893
:105B8000FAD100201D21FCF7A9FF02200121FCF71A
:105B90009DFE00BF1920FCF76BFF0128FAD1002001
:105BA000FCF75EFE0020FCF777FE0020FCF766FEA7
:105BB0000120FCF77FFE0220FCF7F6FFFCF7FEFF5A
:105BC0000228FBD10020FCF775FEBDE8804000F004
:105BD00001B80000B0B541F2040441F20025C4F25E
:105BE0000204C0F27A05FCF7E9FF02280CD0002875
:105BF00052D1206D80054FD5E06A800144BF46F642
:105C00000045C0F2DC2547E02068A16AC0F3004CE3
:105C100000291BD421682268C1F38341C2F3417279
:105C20001301581C0F29034618BF0223002A18BF6E
:105C30000346BCF1000F03EB010021D140F6001137
:105C4000C0F23D0100FB01F526E000BFA06AA36A97
:105C5000C0F3031EA06A40F60011C0F23D01C3F379
:105C60000823BCF1000F00F0070003D02268920364
:105C700058BF294659430EFA00F0B1FBF0F50BE08E
:105C80002168890302D4454306E000BF40F60011B5
:105C9000C0F23D0100FB01F540F2B430C2F2000059
:105CA0000560216803A2C1F30311515C25FA01F1DB
:105CB0000160B0BD0000000000000000010203040C
:105CC00006070809F0B587B00E20C0F218000121C0
:105CD000FCF7DCFE1220C0F214000121FCF7D6FE16
:105CE0004FF4A0100121FCF7D1FE40F20010C0F2E9
:105CF000021040F2004406904020C4F600040590D3
:105D000005A92046FDF7E6FB2046062100220027D4
:105D1000FDF73CFC1C25C4F202052846FDF704F9FA
:105D20006E463046FDF7B2F840F2E000C2F20000E5
:105D3000007843F60004ADF80A001020ADF8080022
:105D400040F22E50C2F20000C4F201040190201D66
:105D500000904FF48070039028463146ADF81070E3
:105D6000FDF7A4F828684FF4E13140F00200286004
:105D70002868002240F0080028602046002300F038
:105D80003FFC2046012100F093FC2046012100F059
:105D90007BFC2046012100F081FC2046012100F01F
:105DA0001BFC2046012100F021FC0A2003210022D7
:105DB000FEF7ACFE07B0F0BD2DE9F04740F290458C
:105DC000C2F20005288F698EA5F84600481C698D2F
:105DD0006886481C6885E87FA98D002801F10100CC
:105DE000A8854CD1687C002849D195F8200000286E
:105DF00045D0688F20B10020A5F856003FE000BFD5
:105E0000B5F8560044F62162013081B29142A5F8FE
:105E1000560034D3B5F840001F2825D3A87A0121B5
:105E2000E97728B3B5F858004DF2B9324108CBF202
:105E30001F12A1FB0212D109B0F5B97F697419D301
:105E400043F200060024C4F200064AF6AA2700BF67
:105E5000FEF7DEFF6420FCF7CFFE3760687C01347C
:105E60008442F5D306E000BF002085F82000C3E798
:105E7000FEF7CEFF95F8220008B90020E872E87915
:105E8000A0B140F20001B5F85A00C2F20001097950
:105E9000013082B201EB8101B2EB810FA5F85A000B
:105EA00004D90120A8750020A5F85A00287F38B130
:105EB000B5F84A000130A5F84A00BDE8F08700BFF8
:105EC00040F2000AC2F2000A9AF81400002848D0F2
:105ED000E87E002845D0FEF70DFEFDF7D7FA9AF8C8
:105EE000181079B178B1A87F9AF81A200130C3B29E
:105EF0009342A87718D895F8230090BB95F8240012
:105F000019E000BF40B195F82400013095F8232036
:105F100085F824002ABB0DE0A87F9AF81A200130EA
:105F2000C3B29342A8770DD9002095F8232085F8B5
:105F30002400B2B959B19AF81B10C0B288420BD8EC
:105F40000FE000BF95F8230058B995F824009AF89F
:105F50001C10C0B2884204D9012085F8230000F04B
:105F6000B1FBA88D1528C0F0AE80A97B95F81B80E9
:105F700000200029A88518BFB8F1000F49D0B5F955
:105F80003400BAF820106FF0630201FB020240F205
:105F90006001C2F200018B6BD1E90B408A6200FB09
:105FA00002308B6C4F6B9842A8BF18465B429842F8
:105FB000D8BF18460B6C8863D31A03FB070003FB9A
:105FC00007F604FB0200CB6CCE630A649842A8BFBC
:105FD00018465A429042D8BF1046486400F0ACFDC3
:105FE00044F20001C4F21C6100F094FC00F088FD52
:105FF000BAF82E10081ABAF8381002B28A42B8BF9E
:106000000846BAF83C1002B28A42C8BF0846AAF84D
:106010002E006879002818BFB8F1000F4DD0BAF8EB
:106020004E00BAF82210421A40F26001C2F200019A
:106030000B6ED1E915700A6500FB02300B6FCE6D57
:106040009842A8BF18465B429842D8BF18468B6E4C
:106050000866D31A03FB060003FB06F407FB0200E5
:106060004B6F4C668A669842A8BF18465A429042C7
:10607000D8BF1046C86600F05FFD44F20001C4F2CC
:106080001C6100F047FCE96E02460846114600F02C
:10609000A9FB0021C4F21631044600F013FC0028CD
:1060A0001CBF0024C4F2163420460021EC660024F4
:1060B00000F008FC002808BFEC66687B002818BFC9
:1060C000B8F1000F6CD19AF80E0030B3AA6F2821F6
:1060D000E88EB2F5FA7F88BF0A21B5F846209628E7
:1060E000A2EB000338BF02218B428AF812100BDDAD
:1060F0000844BAF84E10A5F846000020B1F5FA7F22
:1061000088BF012007E000BF821A8A42C4BF401A3C
:10611000A5F8460000208AF81300E87F90B1E87ED9
:1061200080B1B5F8420030280CD3B5F84610BAF863
:106130003C00BAF83E2000FB01F3B3FBF2F201325F
:106140001AE000BFE87D68B1298DBAF83C00BAF8C2
:106150003E204143B1FBF2F1511A4A1CB5F84610FA
:106160000AE000BFB5F84610BAF83C00BAF83E2085
:1061700000FB01F3B3FBF2F2E98642F62C41C4F2D4
:106180000101A5F85C20086090B2C1E90200086135
:10619000B5F84A000130A5F84A00BDE8F08700BF15
:1061A00040F20C50C2F200008168EA8D40F26007B4
:1061B000C2F20007D0F80480891A3A69D7E90130A1
:1061C000396000FB01203A6AFE689042A8BF104681
:1061D00052429042D8BF1046BA6938618A1A02FB0F
:1061E000060002FB06F403FB01007A6A7C61B961D8
:1061F0009042A8BF104651428842D8BF0846F86175
:1062000000F09AFC44F20001C4F21C6100F082FB31
:10621000A96E02460846114600F0E4FA4EF200016B
:10622000C4F2FF41044600F04DFB00281CBF4EF2B3
:106230000004C4F2FF44204600214FF0000900F0A2
:1062400056FB002818BF0024B8F1630FAC6698BF56
:10625000C7F810909AF80E0000287FF437AF5CE77B
:10626000062988BF7047DFE801F0050B151F2933A9
:106270003D0000BF016A62F300010162704700BF88
:10628000016A02F0010221F0040141EA8201016287
:10629000704700BF016A02F0010221F0100141EADB
:1062A00002110162704700BF016A02F0010221F091
:1062B000400141EA82110162704700BF016A02F0A9
:1062C000010221F4807141EA02210162704700BF9E
:1062D000016A02F0010221F4806141EA8221016237
:1062E000704700BF016A02F0010221F4805141EAC7
:1062F0000231016270470000062988BF7047DFE85D
:1063000001F0052B0F2B192B230000BF816902F030
:10631000010221F0080141EAC2018161704700BF1A
:10632000816902F0010221F4006141EAC221816128
:10633000704700BFC16902F0010221F0080141EA83
:10634000C201C161704700BFC16902F0010221F4BE
:10635000006141EAC221C16170470000026801F09A
:10636000010122F0800242EAC11101607047000081
:1063700010B542F6FF31C4F20101884216DD44F245
:10638000FF31C4F201010B248842C0F20C0425DC69
:1063900042F60041C4F2010188423AD044F20001C1
:1063A000C4F2010188423FD1053432E040F200419D
:1063B000C4F20001884221D041F20001C4F2000180
:1063C00088421FD042F20001C4F2000188422BD162
:1063D0000120C0F21000C41D1BE000BF44F20041C8
:1063E000C4F20101884213D044F60001C4F2010155
:1063F000884218BF10BD07340BE000BF0124C0F273
:10640000100406E00120C0F21000C41C01E000BF2F
:10641000063420460121FCF74DFB20460021BDE853
:106420001040FCF747BB00BF10BD0000B0B540F204
:10643000AF44C2F20004207840F2DA41002840F272
:10644000A840C2F200000078C2F200014FF0000242
:106450000A8018BF00280FD140F2B041C2F20001FB
:106460000978012918D0002960D1FCF7EDFBBDE8BF
:10647000B040FEF719BE00BF40F28970C2F20000C2
:106480000078E8B1FEF710FE40F29140C2F2000041
:1064900002210170B0BD00BFE0B140F28970C2F2CC
:1064A0000000007890B340F21450C2F2000000885F
:1064B000FEF706FAFBF772FEBDE8B040FEF7F4BD4A
:1064C000FEF70EFF40F29140C2F200000121017080
:1064D000B0BD00BF40F2B145C2F2000528780128E6
:1064E00003D1FBF75BFEFEF7DFFD40F2B240C2F2E4
:1064F00000000078012817D1FCF7E4FF50B140F20A
:106500005800C2F20000032101700BE0BDE8B0406A
:10651000FEF7E6BE40F25800C2F200000221017010
:10652000FCF7A0F8FEF7C0FD207808B1B0BD00BFB1
:1065300040F2D04C2878C2F2000CBCF8002040F2A7
:106540007444C2F20004E8B1607907281AD8062A18
:1065500018D3431C40F23C50C2F200000568C06FE3
:106560006169401B0844082B637160610AD1C1084E
:1065700040F2580501EBD013C2F20005A1EBD01098
:10658000AB80A08140F2CA45C2F20005288828B934
:10659000617819B9501CACF80000B0BD40F2DD5272
:1065A00000219042ACF8001038BFB0BD6189FCF703
:1065B00069FF2278E17801323228C8BF0022D0B2C8
:1065C0003328227005D321B9FEF7DAFA4FF4807030
:1065D000208028886081B0BD426901F0010122F06D
:1065E000800242EAC111416170470000C26801F0B7
:1065F000010122F4005242EA4131C16070470000BB
:106600002DE9F04186B001AD04462846984616466D
:106610000F46FCF79DF943F6000105F10C00C4F2AA
:1066200001018C4208BF05F1080000684CF6CD411D
:1066300000EB80004000B0FBF7F0CCF6CC41A0FBB3
:106640000112D10801EB8103A0EB43000428A068EC
:106650004FF0010388BF03EBD201C1EA0000A06044
:10666000E06806F0010120F4805040EA0130E0606B
:10667000206908F0030120F4405040EA0130206115
:1066800006B0BDE8F0810000C26801F0010122F00F
:10669000040242EA8101C16070470000426901F0D2
:1066A000010122F0080242EAC10141617047000085
:1066B000C26801F0010122F0080242EAC101C16092
:1066C0007047000070B541F22400C4F20000016878
:1066D00040F29045C2F20005002240F20004A5F805
:1066E0004E100260C2F20004B4F84E20E37D02EBCB
:1066F000420212FA81F140F20C568A08C1F38F016E
:10670000C2F20006B1FBF3F3A4F84E207268C3EBAB
:1067100051010A2AEB87A5F848100FD20068617E64
:10672000607F01291AD10130C1B20729607722BFE9
:1067300001206077287500F001001AE089B200BFDF
:1067400002688A42EBD202688A42E8D202688A4230
:10675000E5D202688A42F3D3E1E700BF01380106BF
:10676000607703D10620012160772975012121EA94
:1067700000002076EFF3108072B6E87D10B9607FDC
:10678000FBF732FB62B6FBF7E1FA6879E97A084376
:1067900018BF012005D0A96FB1F5FA6F84BF0121A0
:1067A0002175627FB5F84E3006EB4202D3817268E4
:1067B0000021A5F82310A977511C716070B114292C
:1067C0000ED3B4F84E00B0F5FA6F88BF70BD00204C
:1067D0002075BDE87040FCF7C7BB00BF1F29F6D28B
:1067E00070BD000090EA010F48BF81F0004100F148
:1067F0007682421A3CBF801A89184FEAD052A2EB27
:10680000D1534FF07F4C1CEA410F18BF9CEA026F36
:1068100000F03B804FF0004C4CEA00204CEA012194
:1068200021FA03FC10EB0C0C1ED202F1FF325FEADE
:106830001C2040EBC25038BF70471CF07F0F4FEA5E
:10684000400C18BFBCF17F4F38BF7047C3F1200325
:10685000994008BF20F00100BCF17F4F38BF70475E
:10686000A0F1C04000F02EBA4FEA3C00000A40EB15
:10687000C25028BF1CF0FF0F4FEA400CE6D018BFF3
:10688000BCF17F4F38BF7047EAE79CEA026F05D042
:1068900010EA5C0F08BF00F00040704710B500F030
:1068A000CBF900BF64FBBE3E10B500F0F5F80CBF9D
:1068B0000120002010BD10B500F0EEF814BF01203B
:1068C000002010BD10B500F04FF98CBF0120002052
:1068D00010BD10B500F048F92CBF0120002010BDFC
:1068E00010B500F075F994BF0120002010BD10B55F
:1068F00000F06EF934BF0120002010BD401058BFD9
:10690000C0F14040491058BFC1F140418142EFF30E
:10691000008070474FF47F0C1CEAD0121EBF1CEAA7
:10692000D11392EA0C0F93EA0C0F00F0858090EAE5
:10693000010F48BF42F4807240F4000C41F40000A3
:106940002CF07F4120F07F4000B5A2EB0302814292
:106950000FF2081CACEB504E9EF800E0C0F10000B6
:106960004FEA4E0E00FB0EFC38BF49004FEA2C1CCC
:106970000CFB0EF34FEACE1E0EEB635E4FEA112CBA
:106980000EFB0CFC4FEAC1214FEA1C5300FB031124
:1069900002F5FA024FEA112C0EFB0CFC4FEA013112
:1069A0004FEADC4C00FB0C1142EB2242C14228BFF3
:1069B00009184CEB03335DF804EB10EB410143EB9A
:1069C000C250B2F57C0F38BF704729D512F0F00FD6
:1069D0001CBF00F1C04000F000407047008182837E
:1069E0008485868788898B8C8D8E8F9192939596DE
:1069F00097999A9C9D9FA0A2A3A5A7A8AAACAEB068
:106A0000B2B3B5B7B9BCBEC0C2C5C7C9CCCED1D46C
:106A1000D7D9DCDFE2E6E9ECF0F3F7FAFE0000009C
:106A20004FEA400C0CF1807CBCF17E4F28BF7047D0
:106A3000B0F1C04000F046B90CEAD11390EA010F62
:106A400048BF42F48072624538BF634507D213F4F1
:106A50007F0F16D080EA010000F00040704710B5AB
:106A600000F0EAF8097EFC3E00F005B880EA01007B
:106A700000F00040704780EA010000F0004000F0A4
:106A800021B912F47F0F04BF0248704780EA010069
:106A900000F018B90000C07F50EA010C00F113802B
:106AA0001CF5000F58BFBCF5000F01D48842704799
:106AB00007D710F5000F58BF11F5000F15D4884205
:106AC0007047894270471CF5000F04D5BCF5000FD4
:106AD000F7D5814270474FF0807C1CEB400F38BFE8
