:04000005080010BD22
:020000040800F2
:1000000000900020A90B00088D0B00088F0B000842
:1000100000000000000000000000000000000000E0
:10002000000000000000000000000000910B00082C
:100030000000000000000000930B0008950B000872
:10004000F90B0008F90B0008F90B0008F90B000880
:10005000F90B0008F90B0008F90B0008F90B000870
:10006000F90B0008F90B0008F90B0008F90B000860
:10007000F90B0008F90B0008F90B0008F90B000850
:10008000F90B0008F90B0008F90B0008F90B000840
:10009000F90B0008F90B0008F90B0008F90B000830
:1000A000F90B0008F90B0008F90B0008F90B000820
:1000B000F90B0008F90B0008F90B000810B5064C05
:1000C0002378002B07D1054B002B02D0044800E019
:1000D00000BF0123237010BD1800002000000000A5
:1000E000C00D0008044B10B5002B03D00349044891
:1000F00000E000BF10BDC046000000001C00002052
:10010000C00D0008002243088B4274D303098B42C0
:100110005FD3030A8B4244D3030B8B4228D3030CD7
:100120008B420DD3FF22090212BA030C8B4202D379
:100130001212090265D0030B8B4219D300E0090AA1
:10014000C30B8B4201D3CB03C01A5241830B8B42AA
:1001500001D38B03C01A5241430B8B4201D34B0393
:10016000C01A5241030B8B4201D30B03C01A5241F8
:10017000C30A8B4201D3CB02C01A5241830A8B427D
:1001800001D38B02C01A5241430A8B4201D34B0266
:10019000C01A5241030A8B4201D30B02C01A5241CA
:1001A000CDD2C3098B4201D3CB01C01A524183097E
:1001B0008B4201D38B01C01A524143098B4201D3B8
:1001C0004B01C01A524103098B4201D30B01C01AE3
:1001D0005241C3088B4201D3CB00C01A524183085D
:1001E0008B4201D38B00C01A524143088B4201D38A
:1001F0004B00C01A5241411A00D2014652411046EA
:100200007047FFE701B5002000F006F802BDC046C8
:100210000029F7D076E770477047C0460323F0B552
:1002200087B015006A46CC171C406418A410A300C0
:100230000733DB08DB00D31A00AF9D466E46220071
:1002400078600021300000F0B3FD00227868A242FF
:1002500046DB3B4A80211300FC60490210690842DA
:10026000FCD15169002905DA36490968916036499F
:10027000096891606A051DD15A693449FC200A4019
:100280005A610222596940000A435A61F822120653
:10029000AA185969120A02400A435A618022596910
:1002A00052021143596119691142FCD102215A6964
:1002B0008A435A618022196980240A431A61002204
:1002C00064023A617A6101327869F968884216D32A
:1002D0008022BD46596912060A435A6107B0F0BD33
:1002E000C37881781B0609040B4301780B434178DE
:1002F000043009020B43910073500132A7E759699A
:100300001143596178693969800080594919086039
:1003100078693969013080008059043149190860D1
:1003200019692142FCD119691A61596991435961CE
:10033000396908313961796902317961C4E7C046A8
:1003400000200240000000200400002007FEFFFF04
:10035000002310B5934200DB10BDCC5CC4540133C4
:10036000F8E70000054B82B05A6B02435A635B6B9F
:1003700018400190019B02B07047C0460010024037
:1003800080230022DB055A625A6A8242FCD37047FE
:1003900010B572B6094B0A4A1B681360094A1278F5
:1003A000012A03D00022084B1A8010BD074A1360AF
:1003B000074A126882F308889847F6E70410000895
:1003C0008401002000F8000842000020BC02002048
:1003D00000100008F7B50191002100900B00080003
:1003E0000125124A124F11705170019C84420BDC9E
:1003F000002902D013701B0A537011780D4B19702D
:1004000052780D4B1A70F7BD00990C5C082126003C
:100410005E405B082E4201D07B409BB20139C9B2DD
:1004200064080029F3D129000130DEE73400002000
:1004300001A0FFFF8A0100208901002070B5431848
:10044000455C5C78FFF7C6FF054B00201B78AB428C
:1004500005D1044B1878001B43425841C0B270BD0F
:100460008A0100208901002010B586B018220021E1
:10047000684600F09DFC0220FFF774FF1023002463
:10048000009369460F3B04480493019400F0B5FBC8
:10049000024B1C6006B010BD00040050C4020020D6
:1004A0000449054A0B681A4080235B0013430B6024
:1004B0007047C04600040050FFFCFFFFF8B5002362
:1004C0001D4D80202B701D4B10221F00C005196987
:1004D000114223D01A4B802019781023C0053A69A5
:1004E00014001C401A4221D11A20FFF749FF0126AF
:1004F0003420FFF745FF3B692A781B093340A340AE
:10050000013413432B70082CF2D11A20FFF738FF67
:100510000B4B2A781E700B4B1A7006E0446A0A498E
:100520008C42D4D96522094B1A80F8BD426AFA2A56
:10053000D5D90029D3D0F8E74500002000040050A9
:1005400044000020C2020020400D030042000020B1
:10055000F8B51027060008250A4CA7623420FFF7DB
:100560000FFF01231E420BD0A761013DEDB27608BB
:10057000002DF3D13420FFF703FF1023A361F8BD52
:10058000A762F2E70004005010B5FFF789FF3020A2
:10059000FFF7DEFFFFF768FF10BD10B5FFF780FF24
:1005A000C120FFF7D5FFFFF75FFF10BD10B5FFF7C4
:1005B00077FFC220FFF7CCFFFFF756FF10BD70B5E5
:1005C00006000D000024AC4200DB70BD305DFFF77B
:1005D000BFFF3420FFF7D4FE0134F4E710B5FFF776
:1005E0005FFF09210248FFF7EAFFFFF73DFF10BD5B
:1005F00008000020F7B5934C934D237800AF002BF3
:100600001ED0924B28001988914B1980FFF716FFD6
:10061000002815D096228F4E52000021300000F0A5
:10062000C7FB8B4B1A8800239A4205DCFFF7ACFF0F
:1006300000232370BD46F7BDE95CF1540133F3E7B5
:100640002B78854E33602A7C7D2A0AD12A7A0D2A9E
:1006500007D16A7A422A04D1FFF7C0FF00232B7525
:10066000E8E72A7D7D2A05D12A7B0D2A02D16A7B03
:10067000422AF1D02A00283212787D2A07D16A1C3A
:10068000D27F0D2A03D1AA1CD27F422AE4D0002BAC
:1006900022D1AA786B781343EA78134302D16522FA
:1006A0006E4B1A803368FF2B49D10421684BEC78DC
:1006B0001980AB78280024021C43FFF7BFFE674D6A
:1006C000002836D000232B80802364BA1B05A4B2F7
:1006D000E418634B1C6013E0012B1AD102215C4B20
:1006E00028001980FFF7AAFE00280FD05C4B1A687B
:1006F0005C4B9A4207D9554B56481988FFF78EFD37
:10070000FFF742FF96E7FFF748FF93E7FFF74EFF3B
:1007100090E7052BC6D102214D4B28001980FFF729
:100720008DFE0028BED04E4B1A6880235B02D21883
:10073000E1E7FFF73BFF2B8801332B807AE7FE2BA5
:1007400015D10421424B28001980FFF777FE0028BD
:10075000DCD0AB78012B07D0EB783C4A1380012327
:100760002370FFF781FE65E780235B00F5E72B78B8
:10077000FD2B0DD10221364B28001980FFF75EFEBC
:10078000002805D0FFF78CFEC120FFF7E1FEE8E767
:100790003168022906D12E4B28001980FFF74EFE42
:1007A0000028ADD13368042B0CD101222E4B1A70D6
:1007B000FFF776FEC120FFF7CBFE284A13880133EE
:1007C0001380CEE7032BF3D10222214B1A80274A54
:1007D0001368013313606C78002C01D10134FF34AD
:1007E00002212800FFF72AFE00288FD0FFF758FECD
:1007F00023006E460A33DB08DB00F31A9D46E51C36
:100800002A00002168467B6000F0D2FA144B2200D7
:1008100019686846FFF79CFD21006846FFF7DAFD7E
:10082000134B7A681B7868461355124B6C441B783F
:10083000290063703023A370FFF7C1FEFFF714FE99
:10084000B546F7E6410000208B010020480000205B
:10085000C00200204A000020380000204200002092
:1008600078010020FF0F0008400000203C0000201D
:100870008A01002089010020F8B5962200241B4D32
:100880001B4E1C4B210028008027520034601C7036
:1008900000F08EFAFF05FFF711FE174B1B78002BB7
:1008A00011D0164A3368128802329A420FD0144A85
:1008B0000133127833602A709623013401355B00CE
:1008C0009C42E8D103E07A6AFA2A03D93360FFF741
:1008D00091FEF8BD0A4B1B782B700223FF339C421C
:1008E000EAD1084A138814331380E5E78B0100200E
:1008F0003C0000204400002041000020480000206F
:10090000450000204200002010B50A4C3022200093
:100910000949FFF71DFDA378072B0AD0013BDBB285
:10092000FD2B06D8072330212000034AA370FFF7D0
:1009300075FC10BD8B01002000F80008F8B580237D
:10094000FA201A4D1A4FEA689B003A401343FA24E2
:10095000EB604000FFF714FD0026640010222B69B5
:10096000134201D10136B6B20A20013CFFF708FD5F
:10097000002CF3D1002E18D0FA20EB68FA263B4069
:10098000EB604000FFF7FCFC102776002B693B4230
:1009900001D10134A4B20A20013EFFF7F1FC002E80
:1009A000F4D1002C01D0FFF7F3FCF8BD0004005097
:1009B000FFFCFFFF0721234B10B51A688A43110083
:1009C00002220A431A6080221B681F4B52001968DA
:1009D0000A431A608022D20019681142FCD0DA68FA
:1009E0001A4911401A4A0A43DA60802219685204EF
:1009F0000A431A608022D96852050A43DA608022CD
:100A0000920419681142FCD09A6812490A400721E1
:100A10009A609A688A43110002220A4338219A6038
:100A20009A680A40102AFBD19A680B490B480A4081
:100A30009A6000F083F9094800F090F9074800F047
:100A40008DF910BD00200240001002408C80FF1F75
:100A500002080020FFF0FFFFFF8FFFFF0090D00390
:100A6000F0B501268021404D8BB02B6C49053343F6
:100A70002B642B6C102733400293029BEA6B04AC6F
:100A80000A43EA630822EB6B0B400193019B374B4F
:100A900019680A4380211A601A6849003A431A60AB
:100AA000334A13680B431360FFF784FF18220021B9
:100AB000200000F07DF93000FFF754FC0220FFF722
:100AC00051FC002204972B4F210038006260226104
:100AD00000F093F814220021200000F069F9EB6B7C
:100AE00000223343EB63EB6B802533400393039B7E
:100AF0003F23ED05210023802800403B6260A36076
:100B0000E26000F0CBF880222B681B4993432B60F6
:100B1000AB681A4C0B407021AB606B688B436B6009
:100B2000AB689343AB602B681E4380232E60FA684A
:100B30009B0022401343FB60FFF700FF8021FB680E
:100B4000490023400B43FB600D4B1A780D4BDA70C4
:100B5000FFF7DAFEFFF790FE0B4B1B88642BF9D9E9
:100B6000FFF716FCF6E7C046001002400000014007
:100B70000020024000040050F8BFFEFFFFFCFFFF12
:100B80001100002008000020420000207047FEE70E
:100B900070477047704700008022024B12059A6030
:100BA0007047C04600ED00E00D488546002103E097
:100BB0000C4B5B58435004310B480C4B42189A4283
:100BC000F6D30B4A02E0002313600432094B9A4229
:100BD000F9D3FFF7E1FF00F0C7F8FFF741FFFEE7A9
:100BE00000900020E00D0008000000201800002008
:100BF00018000020C8020020FEE7F7B500254B686A
:100C00000A680093013B01931300EB400AD1019B5A
:100C1000012B05D84368C96893434A431A4342608D
:100C20000020FEBD01241300AC402340224228D006
:100C30001A0003275A4357433E000468FF43B44356
:100C4000009E564334430460019C012C05D88C68F7
:100C5000866854433E40344384600C69C6685443FC
:100C600037402743009CC760022C0AD14C69FF2BF8
:100C700009D80F26524356436243036AB3431343D2
:100C800003620135BBE70F221B0A5B435B435A43F8
:100C90006343466A96431E434662F2E7204A10B514
:100CA0000368904206D08024E405A04202D01D4C87
:100CB000A0420CD17024A3434C682343904212D02D
:100CC0008024E405A0420ED0164CA0420BD0164C56
:100CD000A04208D0154CA04205D0154CA04202D02D
:100CE000144CA04203D1144C2340CC68234303602E
:100CF0008B68C3620B888362904208D00B4B98428A
:100D000005D00B4B984202D00A4B984201D10B7C84
:100D100003630123426913434361002010BDC046B1
:100D2000002C014000040040002000400040014031
:100D30000044014000480140FFFCFFFFFA2110B5CC
:100D40008900FFF7DFF90022034B013858609A60F1
:100D500005321A6010BDC04610E000E0014B18607B
:100D60007047C0461400002070B500260C4D0D4C95
:100D7000641BA410A64209D1002600F021F80A4DF8
:100D80000A4C641BA410A64205D170BDB300EB58F9
:100D900098470136EEE7B300EB5898470136F2E783
:100DA000D80D0008D80D0008D80D0008DC0D00088B
:100DB00003008218934200D1704719700133F9E79C
:100DC000F8B5C046F8BC08BC9E467047F8B5C046AA
:100DD000F8BC08BC9E467047E5000008BD0000084E
:100DE00023016745AB89EFCD343731643506060101
:080DF000301400000024F4009F
:10100000480C0020D1100008C1260008451800082F
:1010100000000000000000000000000000000000D0
:10102000000000000000000000000000A5270008EC
:101030000000000000000000C3260008A7270008E9
:10104000E3100008E3100008E3100008E3100008B4
:10105000E3100008E3100008E3100008311800084E
:10106000E31000082D170008DD170008B916000866
:10107000A9140008E3100008E3100008E3100008BA
:10108000152900083D290008E3100008C1280008C0
:10109000E3100008ED280008E3100008E310000842
:1010A000E3100008E3100008E3100008E310000854
:1010B000E3100008E3100008E31000080348854629
:1010C00000F0B4F9004800470D400008480C00202B
:1010D0000448804704480047FEE7FEE7FEE7FEE7D6
:1010E000FEE7FEE7B1280008BD10000803460B43E9
:1010F0009B0703D009E008C9121F08C0042AFAD2CE
:1011000003E00B780370401C491C521EF9D2704753
:10111000D2B201E00270401C491EFBD2704700228F
:10112000F6E710B513460A4604461946FFF7F0FFE6
:10113000204610BDF8B502464A40D40F42004B008D
:1011400052085B089A4202D20246084611464A00FB
:1011500023D0C30D4A00DDB2120EAD1A202D35DAB0
:1011600049020126490AF6058A19002C00D052428C
:1011700020214F1B1146B9402A411018C20D9A4236
:1011800021D0002C17D0012D08DCDA05801AD20FEF
:101190008019D207DBB200F00FF9F8BDDA05801A2A
:1011A000012340001B06C01880185A428018CA0F3D
:1011B0001043490007E04908C2071143DA05801AC5
:1011C00080194008801800F0EFF8F8BD6100012296
:1011D000511A001BF7E70122D2075140AAE701226A
:1011E000D2075040A6E770B502464A40D50F4000EE
:1011F0004A00ED0740085208002814D0002A12D0F7
:10120000C40DD30D41020120C0055202490A520A01
:10121000E41A091812187D34914201D3641C00E0CD
:101220004900002C01DA002070BD0023914201D357
:10123000891A0343400849000028F7D100290AD041
:10124000914202D10121C90705E0914201D2012159
:1012500001E00121C943E005C018401900F0A4F8DD
:1012600070BD0122D207002800DB101A002900DB24
:10127000511A814201D80120704700207047012295
:10128000D207002800DB101A002900DB511A814226
:1012900001D201207047002070470122D2070028A8
:1012A00000DB101A002900DB511A814201D3012012
:1012B0007047002070470122D207002800DB101A77
:1012C000002900DB511A814201D90120704700201A
:1012D0007047C217C10F504010B54018CA07962377
:1012E000002100F069F810BDC20F41004002012347
:1012F000400ADB05D207090EC0187F2901DA002059
:101300007047962903DC9623591AC84001E09639A4
:101310008840002AF4D04042704770B50446002946
:1013200003D000202022012310E0002801D000205B
:10133000C043C046C0460DE02546D5408D4205D38A
:101340000D469540641B1D46954040191546521E9A
:10135000002DF1DC214670BD70B5002504462E46F7
:10136000002911D0002C01DA01254442002901DABC
:10137000012649422046FFF7D0FFB54200D0404247
:10138000002D00D0494270BD002C02DA0121C907AE
:1013900002E0002C00DD03490846C046C046214655
:1013A00070BD0000FFFFFF7F002904DA401C4900E8
:1013B00001D140084000704770B40024050C05D1ED
:1013C0001024000402D1002921D01124050E01D1DE
:1013D00000020834050F01D10001241D850F01D141
:1013E0008000A41C002801DB4000641C002908D0F8
:1013F00020252E1B0D46F540A14000D00121294398
:10140000084301061B1B000ADB1D02D5002070BC2F
:101410007047DB05181880180029F8DA401C4900CD
:10142000F5D170BC4008400070470000064C012513
:10143000064E05E0E36807CC2B430C3C984710347C
:10144000B442F7D3FFF73EFEDC6F0008FC6F0008E4
:1014500070B58C180578401C6B075B0F01D10378C1
:10146000401C2A1106D10278401C03E006780E7059
:10147000401C491C5B1EF9D12B0705D40023521ECA
:101480000DD40B70491CFAE70378401CCB1A921C50
:1014900003E01D780D70491C5B1C521EF9D5A1425A
:1014A000D8D3002070BD000080B501229104E4482B
:1014B00043685B030BD403680B4206D151044268B6
:1014C000920304D402680A4204D0016000E0416043
:1014D00002F0CCFB80BDC04605488188054A1180DA
:1014E0004188054A11800088044908807047C04639
:1014F00018050020DE040020E2040020CA040020B9
:10150000F0B597B000260D960C960B960A960996A4
:1015100001231A0505925F48C1681143C160C16883
:1015200011401191119901680193194301600068FC
:101530001840119003270897102007901198052054
:101540000490040707AD2046294600F0DDF90B960C
:1015500008974020069007902046294600F0D4F9CD
:101560004D480168049A1143FA22914301604B48A7
:1015700001684B4A114001603B46029739030268FB
:101580008A43019F790351180160016820220A43B0
:1015900002600168069A91430160016880220A4353
:1015A0000260190202688A437902511801609A02A6
:1015B000049201689143BA028918016039480168B0
:1015C000394A0A4039495118016016961597149600
:1015D00013960F200390000312901196344C254669
:1015E000143D11A9284600F049F9201F0168B943AC
:1015F00001601121490602688A4379065118016089
:1016000079052246083A13680B4313600168294A9A
:101610000A40F90451180160206804210843029A25
:10162000D24302402260206870220243226020469A
:10163000103802688A430260016808229143016001
:1016400010960F960E960DA9284600F0FDF86069D9
:10165000062101430920814361611149103120684D
:1016600008402060606906990843B02188436061A2
:101670003803216881432160039800026169814336
:10168000049808186061206805990843206017B025
:10169000F0BDC04634100240040802401C00024065
:1016A000EFBFFFFF08270140FFEF3F4E001000B0E3
:1016B00014240140FFFFF73FB0B5194801466C39CB
:1016C0000A680A68920216D40968090212D5012133
:1016D000CA43036813400360CB03124C656C9D43FF
:1016E00065642368134023600F4A00231370683831
:1016F00009050160B0BD01466839012213050B6080
:10170000D14303680B400360D003064A536C834304
:101710005364106808401060034800210170B0BD98
:101720006C000240004401402C06002010B5244803
:101730000078002812D02148007800280ED02148D7
:1017400001680124214301600021416021480078A3
:10175000002827D004F0A2F8022026E01948011F33
:101760000A6852070CD5184A1278002A08D0174A7E
:10177000136802241C4308239C4314600422026063
:101780000A68920705D40968090701D5012101609B
:1017900010BD01680124214301600021416005F072
:1017A0008DFA04E004F024FA20460B490870E003A7
:1017B00007490A6802430A6010BDC0469804002029
:1017C0009F04002004000240A204002020040040E6
:1017D00008180240790700208104002010B5124C3F
:1017E0002068800609D4206800060DD42068800592
:1017F0000FD4206800050FD410BD10206060FFF7E3
:101800006BFE20680006F1D58020606020688005AE
:10181000EFD5064800210170012001026160216BB3
:101820008143216310BDC0460000024096040020A1
:1018300080B50120C0030249086003F0BBFF80BDF2
:101840000C180240FEE700008268D20712D1C2687D
:10185000094B13404A681A438B681343CA681A43FA
:10186000C260032292070369934309681943016127
:101870000020704701207047C73FFFFF10B5826806
:10188000D20713D1C2689202134A11D54B68F02BCC
:101890000ED1C36813400A681A43CB680C694969C2
:1018A000134323430B43C360F0210FE0012010BD1D
:1018B000C36813400A681A438B681343CA681A4303
:1018C0000B6913434A691A43C2604968826A0A4332
:1018D0008262002010BDC0463CC2FEFFF0B5026827
:1018E000002A0DD40268074B1340F4C909681A4353
:1018F00022432A4332433A430A4302600020F0BDA8
:101900000120F0BD0F7C00FEF0B584B00B68002B09
:1019100049D000250191009010E07F437F433B4672
:101920000F2159438E435D4335430098055101997A
:10193000039D6D1C0B681C46EC4035D00122AA406B
:101940001A40F6D00395144654434B6826465E432E
:10195000032767430568BD4335430560FE43029393
:101960005D1E2346012D05D88D685D43876837408D
:101970002F4387600D695D43C76837402F43C760B9
:10198000029D022D039DD4D1170A05D024244D6950
:101990000659002FC1D104E020244D690659002FBB
:1019A000BBD15B43BCE700234A68521E012A05D81D
:1019B000C968594342689A430A434260002004B010
:1019C000F0BD000080B57D21C900FFF7A6FC401ED8
:1019D00003494860002088600520086080BDC0463B
:1019E00010E000E070B50446904E351F286838219D
:1019F00001409048082921D0102919D131680322CB
:101A00000A408B49032A00D00846022A00D001462A
:101A100030684004400E484331684906490F491C6C
:101A2000FFF77BFC3168490F491CFFF776FC05E0A6
:101A30000C3E30688004410F7D48C8402060296812
:101A400089093C220A407D4989581F221140C8401B
:101A500060602968890A1C230B407749C9581140E6
:101A6000C840A06070BDC046B0B50C2825D0032882
:101A700051D16E4CA06C032108400A048018704AB2
:101A8000904251D06F4A904247D06F4A904251D114
:101A9000201F0068382202406648082A00D1C4E0AE
:101AA000102A00D08BE022680A406149032A00D046
:101AB0000846022A1FD001461DE05C4CA06C0007BE
:101AC000800F032830D0022827D0012854D1201FAE
:101AD0000068382101405748082900D1A5E01029A5
:101AE0006DD1216803220A405149032A00D00846DB
:101AF000022A00D0014620684004400E4843216875
:101B00004906490F491CFFF708FC2168490F491C89
:101B1000FFF703FCB0BD0020B0BD0C3C20684005C1
:101B2000C11743480840B0BD0120C103206D8003A8
:101B30000840B0BD251F2868382202403D48082AC9
:101B40004AD0102A42D122680A403949032A00D0DB
:101B50000846022A00D0014620684004400E48434F
:101B600021684906490F491CFFF7D7FB2168490F37
:101B7000491CFFF7D2FB2FE0251F286838210140C0
:101B80002C48082940D0102938D1216803220A4066
:101B90002749032A00D00846022A00D001462068BF
:101BA0004004400E484321684906490F491CFFF78D
:101BB000B4FB2168490F491CFFF7AFFB24E00C3C44
:101BC00020688004410F1A48C840B0BD0C3C206812
:101BD0008004410F1648C84029682A68920A1C23CD
:101BE0001340154AD2581F231A4089093C240C403F
:101BF000124909591940C840D040B0BD0C3C20687A
:101C00008004410F0A48C84029682A68920A1C23A8
:101C10001340094AD2581F231A4089093C240C401A
:101C2000064909591940C840D040B0BD0C100240C7
:101C30000024F40000127A00AC6F00086C6F0008FA
:101C400003000300020003000100030001490860D3
:101C50007047C046F0000020B0B51F22D30234C93F
:101C60009C433F239B029D430B782B4323430F242C
:101C70002403A2431A4303239B034C689C4314434D
:101C80004A88154B134023430A6A1A433D4B0C39CB
:101C9000984202D042640020B0BD104B1A404B69FC
:101CA0000F4C1C4014438A690E4B134023432322DC
:101CB00012064C6A94431C4311225206CB6993438B
:101CC0002343012252070C6A94431C438A6A22432D
:101CD00042640020B0BDC046FF1F0000FFFF00CCE3
:101CE000FFFF0FCCFFFF0FDCB0B5056801229407A2
:101CF000A04205D0234B984202D0234B984217D1E3
:101D000070239D434B682B43204DA84214DD204C8B
:101D1000A04206DC1B4CA04216D0204CA04213D09F
:101D20002EE01C4CA0420FD01B4CA0420CD027E050
:101D30002B46164DA842EADCA04205D0124CA04228
:101D400002D0174CA0421BD103242402A343CC6829
:101D50001C4304608B68C3620B888362CE4BC3183C
:101D60000A24E341072B06D814469C40E1231C4279
:101D700001D0097C01634169114341610020B0BD7C
:101D80001C46E6E7002C014000040040FF2B014008
:101D9000FF43014000480140004401400040014031
:101DA00000200040F0B584B00123BA4CA1424EDCC3
:101DB000012900D18BE0102900D1C3E001273C02AA
:101DC000A14200D080E0016AA1430162B749491CE9
:101DD00013691B020B40032102910902046A8C4320
:101DE0001C431168039151680B022343AA4941180F
:101DF0000A24E1414568C46907291DD88F40E121C3
:101E00000F4219D0029F39038D43516901919169A5
:101E1000D66900960901A44E0E402E4300994D014B
:101E20003543B9028B43A249091D019EB6020E40FB
:101E30001E4391688B023343456099490C400399D6
:101E40000C43C461D168C163036200233CE00124F8
:101E50002503A94200D1B4E02504A94200D1E2E063
:101E60002505A94230D1016AA94301628A49431874
:101E70000A21CB41016A1568039555681669476DBB
:101E8000072B11D8029131462E4625469D40E1236D
:101E90001D4235460E46029906D0A30444689C4371
:101EA00093699B02234343607C4B1F40039B1B02AF
:101EB0003B434365D268C265032212059143720811
:101EC00052050A432905DBE0184604B0F0BD01279E
:101ED000F943036A0B40036213690B40046A032150
:101EE00002918C431C431668516821436A4BC31806
:101EF0000A24E34145688469072B1BD803963E46B4
:101F00009E40E1231E4214D0029B1B029D437B0294
:101F1000566902969769D6699F432F4375003D43E2
:101F20000C239943029B5B08DB000B4391688900FB
:101F30001943039E45605A4B1C4034438461D26868
:101F400042639EE0016A102399430162016A3023D3
:101F5000994313695B085C010C43176851680901D8
:101F600021434D4C06190A24E64145688469072E31
:101F70001ED803970127B740E126374217D0032622
:101F8000B602B543536902939769D369BF002646E9
:101F9000474C3C402C43DD0025433446C023994345
:101FA000029B5B08DB010B43916889011943039F86
:101FB00045603C4B1C403B0223438361D2688263F3
:101FC0005FE0016AA9430162334945180A21CD4106
:101FD000016A436816680296566817690397C769CD
:101FE000072D55D801962646AE40E1252E424DD00C
:101FF000A403A3439469A4011C43019E4460294B9C
:102000001F40029B1B023B43C361D2680264032250
:1020100012039143244A1032039B1B0313400B43CA
:10202000310319432DE01E4F7337016A39400162B5
:10203000194946180A21CE41016A1568536803936D
:1020400013690293436D072E09D8B440E126344248
:1020500005D044683C409669360226434660104CE1
:10206000E41C23402B434365836DD26882650322C1
:1020700012049143029A520852040A430399090434
:10208000114301620023184604B0F0BD1C46B4E7BA
:102090001C46B3E7FF0F000000D4FEBFFF8FFFFE1A
:1020A0008CFFFEFFFF8CFFFEF0DFFFFFFFFDFFFF59
:1020B000FCF7FFFFF0B583B004460068C00724D1E9
:1020C0000D46206833490140A86808432969014347
:1020D00068690843E96901432160032001036268DC
:1020E0008A43E968114361600002A1688143A869DD
:1020F0000843A0600126284884420ADC294884421B
:1021000016D0294884420CD03BE00126304603B06B
:10211000F0BD2248844204D02148844231D10320BA
:1021200007E06846FFF75EFC0298002805D128E02A
:102130000C20FFF799FC002823D06F68002F20D0D7
:10214000296800260B291CD8890018A25158FFF7CE
:10215000E4F80121C903EA698A420BD179084000F9
:1021600040183946FFF7D9F81C4901400007400FD5
:10217000401805E0790840183946FFF7CEF880B2DC
:10218000E060E06A0F21884329880143E16230461C
:1021900003B0F0BDF369FFEFFF4B0040004C00407F
:1021A00000380140004400400048004001000000A9
:1021B000020000000400000006000000080000000B
:1021C0000A0000000C0000001000000020000000C9
:1021D000400000008000000000010000F0FF00004F
:1021E000F0B58FB0002708970797069705970497D3
:1021F000E04A10680121019108431060106808400E
:102200000E900E9810680221084310601068084074
:102210000E9003260396042002900E9805200007D6
:10222000009002AC2146FFF76FFB06970396082546
:10223000029500982146FFF767FB069703960295E3
:10224000D0482146FFF760FB06970396802502954C
:10225000CC482146FFF758FBC64AD068019908438D
:10226000D060D06808400E9048050D900C970B97F1
:102270000A950D46480209900E98274C08A9204659
:10228000FFF72CFBB00421688143216020682349BB
:1022900008402060201F02680A4002602168204A2E
:1022A000114021600168114001600E971D480068CF
:1022B0001D49FFF732F8C82141430E910E980028BE
:1022C00017D00E98401E0E900E98002811D00E9830
:1022D000401E0E900E9800280BD00E98401E0E90B7
:1022E0000E98002805D00E98401E0E900E980028DB
:1022F000E7D10E4841680E4A114041600168114023
:1023000001600C480168FF22914301602803EA49FB
:1023100008600FB0F0BDC04604020140FFF7FFFFA8
:10232000FFBFFFFFF000002080841E0080180240E5
:10233000FFFFFBFF0CE400E00E4908460C380E4A94
:1023400002600E4A02600A46083A002313600B1F1F
:102350000B4A1A600B685B0708D00B685B0705D057
:102360000B685B0702D00B685B07F3D14A60054935
:10237000016070470C300040CCCC00005555000087
:10238000FF0F0000AAAA0000F0B5A7B00025259510
:10239000249523952295219510950C950124E3020F
:1023A0000693BE4AD0681843D06021A90D740D80F1
:1023B000D068184019907048239019986F4E304695
:1023C000FFF792FC30688021019108433060B069CA
:1023D000082105910843B0611A951B951C951D9520
:1023E0001E951F9520956020199019AF3046214603
:1023F0003A46FFF7D7FC0420C1430491B069084076
:10240000B061B06906990843B0611B951A95102117
:1024100030463A46FFF7C6FCB06959490840B061FA
:10242000F06905990843F0611B951A952102029104
:1024300030463A46FFF7B6FCF06904990840F0616F
:10244000F06906990843F0611B951A9521033046FF
:102450003A46FFF7A7FCF06949490840F061706D02
:102460000599084370651B951A95210430463A4634
:10247000FFF798FC706D04990840706570687021D2
:10248000884370600F2000057168814371600DA959
:10249000CD8128200873B068019FB843B0601895BB
:1024A000179516956006159014951395129560036F
:1024B00011900F950E950D953046FFF7CDFB77499E
:1024C0000868264620430860086820400394269048
:1024D0002698086802242043086008682040269057
:1024E0000C940B950A950995089407972698052052
:1024F0000007069007AF3946FFF706FA0C940B95D4
:102500000A95099508940796654E30463946FFF7B7
:10251000FBF90C940B950A9509950894079430469D
:102520003946FFF7F1F90C940B950A950995089433
:1025300002980790069E30463946FFF7E5F90C945D
:102540000B950A9509950894039840020790304628
:102550003946FFF7D9F90C940B950A95099508941B
:1025600003988002079030463946FFF7CDF927B02F
:10257000F0BDC04634100240B80B0000002C0140F2
:10258000FFFBFFFF00040050F0B58DB000240C9459
:102590000B940A94099408944048816802221143DC
:1025A00081608168114002910299016811430160C4
:1025B000016811400192029102990168012631439C
:1025C00001600068304002900298079606940594D6
:1025D0000494039210200290314802A9FFF794F965
:1025E0003048016820221143DF23994301602E48BF
:1025F00001682E4B0B40036003210B0305689D43CC
:102600000560036893430360026840239A430260B5
:10261000026880252A4302600A020368934332025B
:102620009A180260890202688A43F1025118016017
:102630001F480168FF22914301601E480A90401C18
:102640001D49086008A90C800B9409941B4F3C4657
:10265000183C2046FFF748FBE84321680140216011
:10266000394614390A6870239A430A60394610398A
:102670000A6802400A60386830430199884338602C
:1026800038680C21884338603868F0218843386006
:10269000B8680A210143B9600DB0F0BD34100240A2
:1026A000000400500008024008000240EFBFFFFF96
:1026B00010E400E0FFFF000000E100E0180400402B
:1026C0007047704770B5324801680125A943016021
:1026D000304CA07FA17E01290AD1401CA077C1B255
:1026E000072903D32C480575A5772846284009E01B
:1026F000411EA177080603D1274805750621A17759
:10270000284688436076EFF3108072B6224EF07D43
:10271000002802D1A07F00F02FFB62B600F0D4FAAF
:102720007D200001B16F814202D96575002002E071
:10273000617D484248412321002272542421725471
:102740004C21725A5223E15A03254D43AA18950889
:10275000E5525309E5795D439203520C521B46231F
:10276000F252A27F52000D4C1219D181B587002878
:1027700004D160680A49884206D970BD01F048F862
:10278000606807498842F8D8401C606070BDC04648
:102790000C2000401000002080040020FC040020D9
:1027A0000F2700007047704770B53C4A136802203D
:1027B000034305218B431360126801263202384D12
:1027C0002B6813432B60B2022B68134208D12B688D
:1027D000134205D12B68134202D12B681342F3D068
:1027E0002A6E32432A662A6E920708D42A6E92070E
:1027F00005D42A6E920702D42A6E9207F3D5EA68AE
:10280000284B1340284A9A18EA6032062B68134373
:102810002B603207EB681343EB6072062B681342A0
:1028200008D12B68134205D12B68134202D12B68C3
:102830001342F3D00F221202AB689343AB60AA6835
:1028400002438A43AA60A9683820014010290BD0AE
:10285000A9680140102907D0A9680140102903D0B8
:10286000A96801401029EED107200003A96881431F
:10287000A9600E4C2046FFF7A5F82046FFF7E6F9C1
:102880002046FFF7E3F9B005696D814369650320D0
:102890008007696D8143696570BDC04600200240B4
:1028A000001002408C80FF1F020800200090D0031F
:1028B0000120C006014908607047C04608ED00E0ED
:1028C000B0B5074C2068074D2860FFF7FBFE0120DC
:1028D000C0430549086020682968401A2860B0BDD7
:1028E0002448014074070020102000400220C0430B
:1028F00007490A68920703D40A68D20704D17047CF
:1029000008600A68D207FAD0401C08607047C046C9
:10291000104401400220C04307490A68920703D4CB
:102920000A68D20704D1704708600A68D207FAD053
:10293000401C08607047C0461004004080B5054840
:102940000168C90704D00121C943016003F07AFF7F
:1029500080BDC04610100040F0B5A3B0FF200006B7
:102960004C490A68824303208307D2180A60012475
:10297000E102494A11600026219620961F961E9674
:102980001D9613961296119610960F960E960D960A
:102990000C966104414BDA680A43DA60DA680A404F
:1029A000159215993E490A682C231343D322934369
:1029B0000B603C490A683C4B134010330B60020328
:1029C0000B689343620302929A180A600A682023F4
:1029D0009A430A600A6840239A430A600A6880277B
:1029E0003A430A6002020B689343220201929A184A
:1029F0000A6080020A688243A002101808601DA9BC
:102A00000E740E8020964F201F9010201E90274D90
:102A10002846FFF769F9286838432860A869082123
:102A20000143A96116961796189619961A961B9641
:102A30001C966020159015AA28462146FFF7B2F98A
:102A4000A86904218843A86109A9CE810E7309965B
:102A50000A960B9614960E9602980D902846FFF74C
:102A6000FBF80E4A10680221084310601068084005
:102A7000229008910796069605910491019803907B
:102A80002298904803A9FEF73FFF286A2043286256
:102A900023B0F0BD08E400E000E100E034100240A3
:102AA000140802406C000240EFBFFFFF00440140E9
:102AB000B0B582B0002001900090404C2068C00763
:102AC0007AD120683E490140012528070818206076
:102AD0003C4800683C49FEF720FC4000019001980A
:102AE000002817D00198401E01900198002811D0AD
:102AF0000198401E0190019800280BD00198401EBB
:102B000001900198002805D00198401E019001987D
:102B10000028E7D16068032108400090606888437E
:102B20006060226829480240121818322260226828
:102B3000002A08D52268002A05D52268002A02D575
:102B40002268002AF3D4009A63688B4313436360BE
:102B5000402101910199002917D00199491E019145
:102B60000199002911D00199491E0191019900296B
:102B70000BD00199491E01910199002905D00199B5
:102B8000491E019101990029E7D12168014029439B
:102B90002160204608380168C90708D10168C907C3
:102BA00005D10168C90702D10068C007F1D0E80566
:102BB00007490A6802430A6002B0B0BD0824014018
:102BC000E8FFFF6FF0000020400D0300E8FFFF7FEB
:102BD0000827014070B5F84B18680421014308200C
:102BE0008143196002249C6203210A050520000725
:102BF0000568954301221605AD19056095028562A9
:102C00001D681543A5431D609A628B0404689C43AC
:102C10009304E3180360530283628B0304689C43AC
:102C20009303E318036080238362090403688B43E2
:102C30001104591801601102816270BD70B5DF493D
:102C40000A78DD4C20680C239843002A03D0082220
:102C50001043206004E00422104320600220A062A0
:102C6000032213050520000705689D4301235E0527
:102C7000AD1905600E7825689543002E03D0022615
:102C80003543256002E01D432560A3629404056876
:102C9000A543DC042C1904600C7895030168A94352
:102CA000002C03D0DC032143016004E09C0321439A
:102CB000016080218162110402688A43590451181D
:102CC000016070BD00040050B0B5244A1378132091
:102CD00040012349042B01D0012B08D1214B1B6853
:102CE0001C680C400546203525431D601378052BD4
:102CF00001D0022B08D11B4B1B681C680C400546F9
:102D0000103525431D601378062B01D0032B05D108
:102D1000144A126813680B40034313601248037887
:102D200012481349134A002B0BD003680B40036071
:102D30000168114001600B49496842680A434260DA
:102D4000B0BD084B5B6804681C43046043681340D3
:102D5000436042680A404260B0BDC0462E00002079
:102D60000FFCFFFF00000020290000200018024097
:102D7000FFFFFBFFFFFFFDFFF0B5411E052900D956
:102D800018E105200007C0467944097949008F44BD
:102D9000022343719FCD0322910303688B430121DA
:102DA0008C031B19036080238362130404689C4313
:102DB0000B04E31803600B0283627F4B1D680D4315
:102DC0000224A5431D6099619204056895438A0415
:102DD000AA1802604A02C9E0774A116804230B432B
:102DE00008218B4313600224946203210B050568BC
:102DF0009D4301231E05AD1905609D02856215687E
:102E00001D43A543156093618A04046894439A04A2
:102E1000A21802605A021EE0674A11680123194392
:102E20000224A1431160936203218D040668AE431E
:102E30009D04751905605D028562156804262E43A0
:102E40000825AE43166094610A05046894431A0588
:102E5000A21802609A028262584A157889030468AF
:102E60008C435904584A002D00D18DE0DB031C43EC
:102E700004609BE003218A030468944301239A03BE
:102E8000A2180260802282620A04046894431A0431
:102E9000A21802601A028262474C22680425154378
:102EA0000822954325600225A5610A050668964318
:102EB0001A05B21802609A028262404A17782668A0
:102EC0008E43D9043F4A002F69D02E4326606DE01F
:102ED000394B196804220A4308218A431A600224E4
:102EE0009C6203210A050668964301252A05B2184B
:102EF0000260AA0282628A0306689643AA03B21895
:102F00000260802282610A04066896432A04B2188D
:102F100002602A028262294A17781E688E43E904F9
:102F2000284A002F3FD026431E603FE0224B1A68FC
:102F300001210A430224A2431A60996203229504E4
:102F40000668AE438D04751905604D0285629503D0
:102F50000668AE438D0375190560802585611204EE
:102F6000056895430A04AA1802600A028262134A9D
:102F700016781D680C2295434905114A002E09D088
:102F8000082425431D6011E09B031C43046080233B
:102F900083620BE0042635431D609C6206E01E43FD
:102FA0002660A36202E02E431E609D620368134008
:102FB0000B430360F0BDC046000400501100002028
:102FC000FFFFCFFFFFFFF3FFFFFFFCFFF0B58DB06A
:102FD000E6480168C56F6A1AE54F7A8193B25A09CB
:102FE0003A81E54C2488A34200D81BE1E14C2488B7
:102FF000A34200D316E10C95E04B00251D804368E9
:10300000591A01269142314600D829460B91F9619F
:103010008168C368591A9142314600D829460A91FD
:10302000396201694369591A9142314600D82946EB
:10303000089179628169C369591A9142314600D871
:1030400029460791B962016A436A591A9142314689
:1030500000D829460691F962816AC36A591A9142D9
:10306000314600D829463963036B446BE31A934217
:10307000334600D82B467B63846BC76B3C1B944262
:10308000374600D82F46BA4C0997A763046C476CA3
:103090003C1B9442374600D82F46B54C0497E76353
:1030A000846CC76C3C1B9442374600D82F46B04C0A
:1030B00003972764046D476D3C1B9442374600D844
:1030C0002F46AB4C02976764846DC76D3C1B9442DE
:1030D000374600D82F46A64C0597A764046E476E66
:1030E0003C1B9442374600D82F46A14C0197E76419
:1030F000846EC76E3C1B9442374600D82F469C4CCA
:1031000000972765076F446FE41B9442374600D849
:103110002F46974C6765806F0C9C201A904200D810
:103120002E46934886650B98069A42400498424082
:10313000D0000A9A5140039A514089000A18089811
:103140004340029843405D00099B07984340019823
:10315000C00000998900081879004718884C207829
:1031600088490978014315D10C971F462C4615460E
:1031700000F054FC2A462546814C3B460C9F002813
:1031800008D07B490879401C0871C0B2652801D37A
:1031900001202070B8195119059A53402278002A4D
:1031A00001D00F225040724E1943884237D11C364D
:1031B0007CCE6F48076B6E48416B6D48806B920206
:1031C0005B02134322021A43EB011343B2011A4379
:1031D0007B01674E134309011943C000084334467D
:1031E0003C341ECC8D000543510029431943002077
:1031F000CD4A1080B289521CB281012C02D1624AA0
:103200000123137030290FDB7278002A0CD05F483D
:1032100000220270CB480180B2700DB0F0BDF08981
:10322000401CF0810DB0F0BD4A1E2E2A06D857482A
:103230000170C44800220280C8B20EE0002902D00A
:103240005248007809E03178012901D100217170DC
:103250004E490870BB490880B0700028E2D04C4944
:1032600009780029DED1474909780029DAD0F178B8
:10327000884202D00021B170F070052805D3B178E2
:10328000491CB170C9B20629CCD30025B570411EC6
:10329000142900D963E0C0467944097949008F4474
:1032A0000A14181C205E242B32365E3B45505E5EAD
:1032B0005E5E5E570E003949012008704FE03548C8
:1032C000007835490870152049E03449022008701B
:1032D00045E032490320087041E03049042008707D
:1032E0003DE02E490520087039E02B48012101708E
:1032F00028480570072032E027480570254801213D
:10330000017008202BE08D480570092027E08B48CC
:10331000012101700A2022E002F00AFB1D4800781A
:10332000401C1E4908701948007818E0012171718D
:1033300007204002F08032780D20012A0FD17170F1
:103340000DE0757107204002FF30F0800E2006E08E
:10335000104800780121081A0F49087014200B4901
:103360000D700F4908700DB0F0BDC0462C0500204F
:10337000080400207400002070040020C80400200D
:10338000980400209F040020960400202D060020B1
:103390009B040020820400202A00002093040020C7
:1033A00078070020F0B581B0FB4E03CE081A5B4FC2
:1033B000C1195C4A083E91420ED85B4D00242C8016
:1033C000F64B5978002909D0D978002969D1997824
:1033D00000292DD018892CE0514D88E057490978F3
:1033E0001E4600290DD056490A887D21CB00904207
:1033F00015D94E4C248809010091511C5B1C2246B2
:1034000011E04A490A884C4909887D231B012F3362
:1034100000932F2302F00AF8312806DA06E0464925
:1034200009880093002302F001F8044634615EE04D
:103430001881491C99703D4F398880B200F0E0FA3C
:10344000332804DBD54844700346394621E03888E8
:103450000721414305CE101A4018C0083880CF4AD2
:103460009178083E33291346394612D3193881B270
:103470002F4A8918CA0F8918490821221F462D4B47
:1034800099540121F9702949088002F0C7F82749A9
:103490003B4608881881D878002828D003CE081A1F
:1034A0001E4F19797D22D200FA32904208D2491C6F
:1034B0001971214A138807265E433018C00810800E
:1034C000C8B24C2813D31C48018819318AB2BA18E3
:1034D0003332D30FD21852082023164EF254AF4F76
:1034E0007C70018002F024FA3C7102F073F8002035
:1034F000288014480288A94909698C1A124B1B6854
:103500009C4201DDD11806E0541A9C4203DDD11A19
:10351000018001B0F0BD018001B0F0BDDFFCFFFF14
:10352000BE04002076050000C80400203A000020F8
:103530002AF9FFFF2E060020380000208304002017
:103540003C000020C2040020300100201849002265
:103550000A600A68824208D20A68824205D20A6872
:10356000824202D20A688242F3D3704710B51049F2
:1035700000220A60192212024A600A46103A1468B0
:1035800001231C4314600A2444430868A04208D263
:103590000868A04205D20868A04202D20868A0428A
:1035A000F3D34020486010681843106010BDC04637
:1035B00024480140F0B5764BC933764843807649BC
:1035C0000F6800252A4603E052182835782D77D059
:1035D00071494E197168CF1B1BD1B768791A21D177
:1035E000F168CF1B27D13769791A2DD17169CF1BAB
:1035F00033D1B769791A39D1F169CF1B3FD1376A15
:10360000791A45D1716ACF1B4BD1B76A791ADCD0D0
:1036100050E09CB2A74201D247803B46D219B7681E
:10362000791ADDD09CB2A14201D241800B465218DA
:10363000F168CF1BD7D09CB2A74201D247803B464E
:10364000D2193769791AD1D09CB2A14201D24180F6
:103650000B4652187169CF1BCBD09CB2A74201D246
:1036600047803B46D219B769791AC5D09CB2A142AE
:1036700001D241800B465218F169CF1BBFD09CB2DA
:10368000A74201D247803B46D219376A791AB9D08E
:103690009CB2A14201D241800B465218716ACF1BE5
:1036A000B3D09CB2A74201D247803B46D219B76A39
:1036B000791A8AD09CB2A14286D241800B4683E718
:1036C0005109364DA961364C2178012925D1591E61
:1036D00089B203290AD80F21C9018A4206D20021E2
:1036E000A971304E31700E262D490EE0591F89B256
:1036F000032912D81921C9018A420ED2294901266B
:103700000E7027490E70A91D0726274F3E7001260F
:103710000E702021017025490E70254E3178012947
:103720000BD1C93B99B21A4A914230D21D493F226E
:103730000A7001213170022125E02778002F26D15F
:10374000002924D1591E89B2032909D80F21C901A2
:103750008A4205D20021A971124A11700E210DE092
:10376000591F89B20329DCD81921C9018A42D8D24C
:103770000C4901220A702270AC1D07210A4A1170FF
:10378000012121702021094A012313700170F0BD2D
:10379000574D0000700000202C050020640400201C
:1037A000A1040020F5000020F4000020A004002067
:1037B000A2040020FF20000410490A68824303206D
:1037C000800510180860012081026C4A11600C49C4
:1037D0000C4A8A600C4ACA604A680C4B1340DA1CD7
:1037E0004A600A68022313430B600A6808231343E4
:1037F0000B600A6802430A607047C04608E400E0B4
:103800001C00024040240140180500200000FFFF7A
:10381000814840685A490A6802430A607047C046B6
:10382000B0B582B04E4801680124214301600168AF
:1038300010220A430260210202680A430260016802
:1038400004220A430260016840220A430260A10286
:1038500002680A430260210402680A4302602103ED
:1038600002680A43026064210162014620390A6845
:1038700022430A60E503416A294341620C3801682A
:10388000214301603748016A2143016201682143F5
:103890000160354801460C390A6822430A60816894
:1038A000214381600168214301600168A1430160F7
:1038B000EC48016821430160416921434161A0074F
:1038C000016821430160416921434161E648016883
:1038D00021430160416921434161C1682143C160C5
:1038E000FDF70EFEFFF766FFFFF7E2F800200190FC
:1038F0001E480168214301601D4800681D49FDF70D
:103900000CFDC00001900198002817D00198401EBE
:1039100001900198002811D00198401E0190019853
:1039200000280BD00198401E01900198002805D076
:103930000198401E019001980028E7D1FF20000661
:103940000D490A688243E00710180860C0488021CA
:1039500001600B4801682943016002B0B0BDC04658
:10396000202C0140000400400C20004004020140D3
:10397000F0000020400D030004E400E000E100E05E
:103980008018024070B5194B1868042101430820C3
:103990008143196002249C6103210A050520000768
:1039A0000568954301221605AD19056095028562EB
:1039B0001D681543A5431D609A618B0404689C43F0
:1039C0009304E3180360530283628B0304689C43EF
:1039D0009303E318036080238361090403688B4326
:1039E0001104591801601102816270BD0004005079
:1039F0000248016801220A4302607047142C01400A
:103A0000401AC1174840401A704700000248006839
:103A100000684000C00F70470000002002480168A5
:103A2000102008407047C046100400500248034967
:103A3000016062B67047C04608ED00E00010000863
:103A4000F0B58DB07D4A506801252843506050681C
:103A500028400790079828071168014311601168F2
:103A600014460140079107987548016808220A43E7
:103A70000260016810220592114301602802714919
:103A80000A6802430A60FEF78FFE20460838016884
:103A900029430160016829400791079901680222C2
:103AA000114301600068104007900798201F0168CB
:103AB000294301600068284007900798624A10680F
:103AC00062490840A9034018106068026049086014
:103AD0000B46FF200290000411688143A8050818D6
:103AE0001060A8021860FEF77BFBFEF74DFC002774
:103AF0000B970A9709970897079720682843206033
:103B000007A91F2000900880206828400C90514889
:103B100009900C98504E3446083C2046FEF7E4F8D5
:103B200080200390C143206808400A460691206027
:103B300030684A49014031607020C3430493301F0C
:103B4000016819400160306810403060FEF71CFDCC
:103B50000B970A97099708970797EA030192374945
:103B600048681043486048680E4610400C900C9816
:103B700002980006344A916881439160E804344910
:103B8000086007A9009808800A97324809900897AA
:103B9000334C2046FEF7A8F82068069908402060BC
:103BA0000B970A97099708970797A80432467168F8
:103BB0000143716007A90F743F260E8052680240CE
:103BC0000C92244809900C98264C2046FEF78CF85D
:103BD00020680399084320600B970A970997089774
:103BE0000797164A10680599084310601068084046
:103BF0000C900C98144A9068144908400199401898
:103C0000906068041249086007A90E80322009906C
:103C10000897154C2046FEF767F82068069908407B
:103C200020606068049A10406060A0680840A0604E
:103C300002F036FDFEF790FE0DB0F0BD3C100240E4
:103C4000000001400020024008E400E0FF00FFFF08
:103C500000E100E0FFFF000008000040F8BFFEFFA9
:103C600000200040004801400010004070B5DA4CD0
:103C7000A06F7E2819D321480068214D7C2809D8DF
:103C80004420205AC0084A2804D8686880087D2843
:103C900000D270BD607F401C6077C0B2652804D33D
:103CA00001F0F2FB0020686070BDC94DE87D00287E
:103CB00009D00026FFF7AAFE697E8842E9D0761C6B
:103CC000E87D8642F6D3EFF3108072B601F0DCFB9C
:103CD0000A4801684C22A152002101604620225A64
:103CE0002B7DDA40225207488161521C02624160FA
:103CF000016801220A43026062B670BD24000040E0
:103D0000FC0400200C200040F0B583B0B04EF16DF3
:103D1000B04CB022204601F097FD607C401E41422D
:103D20004141AD4FB970A07C401E41424141F97004
:103D3000E07C012801D10120B871E07D042800D386
:103D40000220B071207D401E414241417170607D72
:103D5000401E41424141B170A07D401E414241415F
:103D6000F170207E014608399C4D9D4A282913D8C0
:103D7000182815D201460C390B291FD9FC21014006
:103D8000082928D19949009107211022984B01F068
:103D90004DFB4221705220E040203552156023E057
:103DA00090490091182130222B4601F03FFB42211F
:103DB0007052207E01460C390B29DFD800950C216A
:103DC0001822894B01F032FB42217052207EFC21E7
:103DD00001400829D6D04220305A814A4C217052E5
:103DE0004421705280B21060607E014632396429ED
:103DF00008D841082830308708461730F0870D3141
:103E0000B18703E05520B08796203087E07E30727E
:103E1000A07E2825684314303084207F401E414214
:103E200041413971607F401E414241417971022018
:103E300002F02CFC6078002800D1A6E0A07F0B28BF
:103E400000D9052002F022FC002038722321615C99
:103E5000B17322210191625C664BD218B285252292
:103E6000A25CFA32F2852022A25C5200624BD21888
:103E7000328521210291635C5B006049591871858C
:103E8000E17F491E4B424B41FB712421615C491E7D
:103E90004B424B41BB722621615C491E4B424B4158
:103EA000FB72635D591F142900D873732921635C69
:103EB000591E092900D8B3722A21635C591EC9B260
:103EC000082918D84A21755A0927FF435F43423F02
:103ED000FAB2AD187552F37237733F4F617E4B08DB
:103EE0009B18B38789183187718F891871873C4B6C
:103EF0009969114399612B21635C1946463946291A
:103F000000D873712C21635C591E622903D80121EA
:103F1000B973590071842D21635C591E092900D899
:103F200073722E21645C092C0BD8042C10D83B46EC
:103F30002233C0467C4424796400A744023C07092C
:103F4000400001997854029978542D4B0121197041
:103F5000348CA1084A2900D83074317A2020FDF72A
:103F6000DCF9054611212046FDF7D7F92946FDF772
:103F7000D4F94821705264212046FDF7CEF9294634
:103F8000FDF7CBF94621705200E0348C4B208100C4
:103F90000846C83000907D20C3001B4A204601F02F
:103FA00045FAB0867078002801D003B0F0BD00203B
:103FB000F87003B0F0BD0121029AB954C5E7104969
:103FC0000870104901220A703B462133BEE7C04603
:103FD000100000202E060020800400206B0A000044
:103FE0002C2C014035050000D61400009F0F000066
:103FF000411F00005E050000EE020000D606000032
:104000000904002008040020B80B000000B593B09C
:10401000FFF70CFDFFF714FDFFF702FCFFF774FE3E
:10402000E6480068F82802D1E548E649C165E64C53
:1040300021790D204140E278022302935A400A433D
:1040400030D020710220E070601DE0A10C22FDF74D
:104050004DF8DB48017861708179E175DF498A7834
:10406000521E534253416374CA78521E5342534105
:10407000A3748979491E4A424A41E2744178491E33
:104080004A424A4122758178491E4A424A41627534
:10409000C178491E4A424A41A275C26DB0212046EC
:1040A00001F078FC4220C64E0F90375A4020129003
:1040B00037524C20049037524A24305B78437D219C
:1040C00011910D012946FDF728F905943053C34A93
:1040D0009078401E411E8841B076708F7843294603
:1040E0001546FDF71AF9317B401870877078002863
:1040F00001D10020A8711198C200E87A002811D0DF
:10410000059832520020A8710121E9703174708045
:104110007070B08F3230B087F08F3230F087308FD0
:104120003230308703927D2000240C9021462246B5
:1041300001F0AAFD01F0F8FA0894EC87FEF7FCF80C
:10414000A748A849016001F0A9FB2878002801D000
:104150000120687301200E9002F07AFAFF2010907F
:10416000074668370C9800010B900D972AE001274D
:104170006F722879002800D14EE30F98355AB07A33
:104180004000281813384421944A50521299715A09
:1041900080B248432946FDF7C0F8281A401C5A252A
:1041A0008E49485301F01EFB8C48405B8B4D8E4A74
:1041B000114608390860111F08601060EF750D9FE7
:1041C0005C202C52864887490160884A508A118AAF
:1041D0000818918A4018D18A4018118B4018518BC9
:1041E0004018001D40089060B07800280BD0522085
:1041F000305A0F99715A00914B086021C82201F082
:1042000015F9129970524822A85A7949884209D35F
:10421000E97F002901D000F0AFFC7649884201D344
:1042200000F0CDFC0A92288E734988423DD332209B
:104230002C462D5E2846FDF74CF87049FCF7D3FF5D
:104240000146206FFCF776FF20676D480078032851
:104250000BD0022819D00128604D24D12520295CDB
:10426000384699300843022119E056205B4D285A00
:1042700064494143090C401A400840180009C1B282
:10428000039818300843012109E0A8B2C0B22921DF
:104290004143C90A5C482430084303214F4D584A22
:1042A00011705A49088000202886288F0121C828CB
:1042B0000A4600D3089A4D4B5C68642C00D80899D4
:1042C000434243410C9DED00AC420E9D00D81D467B
:1042D000002D424D01D1114001D00021A976A979CC
:1042E000002903D09F2801D80021A976297C002924
:1042F00006D039462931884208D20020A87605E048
:10430000952801D8642000E00A207074374880683E
:1043100003210991FDF720F80146A867287D0028B0
:104320002FD00B2C2DD33148C068FFF769FBA96F44
:104330000B9A914221D24A0890421ED900202B4A62
:104340005060EA7B521CEA735222B25A039B9A4293
:1043500000D90120129AAA5A2F2A0E9A00D84CE2AC
:10436000EB78002B00D04DE2012A01D10020E87645
:1043700001207075308F4008A8861C48C16000205D
:10438000287552201190325A2B7E10980402204832
:1043900008380168A143002B40D03D2A3ED301607C
:1043A0001B4A10681B4908401B492439014311600E
:1043B000101F006812990843BF213BE0E00F00087E
:1043C0001000002000F800082E060020414D333276
:1043D0004553435F47303731000000008004002020
:1043E00000300040AAAA00003C2C0140FC04002040
:1043F00011270000419C0000214E00000000B44342
:104400000D040020AF470000DC0500000E04002072
:1044100010E400E0FFFFFF002400004001229203AF
:1044200011430160FA4A1068FA4908401060101FF1
:10443000006810998843111F0860A87D002811D0DA
:10444000286FFCF751FF03465620295A2520285C87
:104450005C22AC5A6A8E009400F0F0FB01F028FD5B
:104460000020A875687D401C6875C0B2C92800D2BC
:1044700091E0FDF731F8ED48006840000321FCF7BA
:104480004CFF1299715A401C87B28F4200D30F46DD
:10449000378656200790285A34460726464362201E
:1044A000285AE3494843E349FCF737FFE18E484384
:1044B00064242146FCF731FF8019C108DE48468C90
:1044C0000588DE480691079A8152D8484760DC4942
:1044D0000868DC4A1040001D08605E20D749085A71
:1044E000D3494843D849FCF718FF711B2646401BA7
:1044F000D24D6043FCF730FF1E3025216854602107
:104500006852697E4800D14C225A059BEB5A2352CF
:10451000CF4C2068801AC0182060491CCAB20027FE
:10452000632A3A4600D80A466A763146FCF7F5FE19
:10453000688780B26867BE49484329210901FCF7B2
:10454000ECFE010400D538466886A87A0028C14EE2
:104550000D9F1ED0687CF18D4143069880B2814248
:1045600015D9E88D401CE885297FBB4A5143BB4AD9
:10457000891880B281420CDA002412982C52FEF77E
:1045800029FB00F081FFEC87EC76EC7701E000205E
:10459000E8850020687500246C77287F002841D0CA
:1045A0001298285A312800D2E1E5E97F002900D18C
:1045B000DDE5882800D9A7E0687A002811D0A84A4C
:1045C000106801218843106000F05EFF974908469B
:1045D000083800240460081F04600C60FEF72EFBFE
:1045E0006C724E23E85AB17E00290A9300D1F7E19C
:1045F000411E08B20028384600D40846E85250212F
:104600006A5A521E13B2002B3B4600D413466B521B
:10461000119BE95A4A1E11B20029394600D5FAE128
:104620001146F8E18A4881688E48FCF795FEE97EDC
:1046300041435C20295288B28B494843C00C642412
:104640002853317C00290DD00599735A0A99725A62
:104650004621715A049D755B0095784D00F0E6FE89
:10466000442170522520285C727990420BD904991C
:10467000715A012300934B0811460A390A3200F09F
:10468000D5FE4421705272484068632811980BD8B7
:10469000315A38468D30814206D96448C4610820B9
:1046A0006429029911D211E00A206049C861A86FFB
:1046B0000C2100910C998A006421032300F0B6FEBE
:1046C0001199715A6429029900D30146F17567481E
:1046D00000686749884200D274E5E87E012800D06E
:1046E00070E5A87E401CA87600F0CEFE01200A905E
:1046F00070751298285A302800D3BFE00020E87661
:104700005C485A4F119BBCE00120099068724E2210
:10471000A85AB17E00290A9200D1E9E1411E08B2EF
:104720000028384600D40846A85250216A5A521E22
:1047300013B2002B3B4600D413466B52119BE95A2F
:104740004A1E11B20029394600D41146E9525027B9
:10475000F15B00B24000484A105E09183D480F9ACC
:10476000805A48430B9E3146FCF7F6FD3949497A99
:1047700048430A252946FCF7EFFD80B201F074FF9B
:104780003448C05B2D49C95F49003B4A515E41181E
:1047900030480F9A805A48433146FCF7DDFD2D49D9
:1047A000497A48432946FCF7D7FD80B201F062FF01
:1047B0002848C05B2149119A895E49002E4A515E02
:1047C000411824480F9A805A224E48430B99FCF70F
:1047D000C3FD717A48432946184DFCF7BDFD80B2F0
:1047E00001F04EFF1298285AC828079400D8C9E053
:1047F00020460A9C37532853C6E00246EB78002B2C
:1048000000D1B1E50246012A00D1AFE5B0E5C046CE
:1048100010E400E0FFFFFF00044908460838046088
:10482000081F04600C60FEF7D5F9C8E43C2C014079
:10483000E40C0000FF0F0000A875FF1F800400209B
:1048400008240140E8FFFF7FB80B00007A07002032
:10485000FC040020100000207CFCFFFF204E000024
:104860000C200040C0270900CDCC000024000040EF
:10487000C9AF00008813000036010020119BF05AD8
:10488000E44F0024E6494C603968049AA952099A19
:10489000424388B210188008F0523C6085B2317EE5
:1048A0002846FCF73AFD6908D74D091A4622A95255
:1048B000A88788B2DA4949680A2911D23968D649E5
:1048C0000862B07FB17E012917D1401CB077C1B218
:1048D00007290A9F02D32F75B7773846384016E06C
:1048E00039688142EBD239688142E8D23968814225
:1048F000E5D239688142F3D3E1E7411EB17708067A
:104900000A9F02D12F750621B17738468843707609
:10491000EFF3108072B6E87D002802D1B07FFEF779
:104920002BFA62B6FEF7D0F9A86F0B99884200D92E
:10493000777523202C5424202C54AC77B84B58681E
:10494000411C59601198305AB27F5200D218D08160
:10495000EA7A531E9A416B79002B0E9B00D11346C5
:10496000012B0D9F06D1142900D22BE4B2498842B5
:1049700004D327E4A549884200D323E47475FEF7E5
:1049800047FF1FE40A9C375B3846FEF7DFFD285BD4
:1049900000280D9F119900D014E49D487052099B86
:1049A000EB76079C2C777375A8679D4AD060994970
:1049B0000860EC75142050606879002801D0F08FF1
:1049C000A886B07DB17E012900D0AAE0401CB07756
:1049D000C1B2072902D32B75B37718461840A9E056
:1049E000421C10B20021B842084600DC1046E852D2
:1049F0005022AB5A5B1C1DB2BD420D4600DC1D4669
:104A0000814B9D521D46119A9A5A521C13B2BB42B9
:104A100000DC1146119BE9525027F15B00B24000C7
:104A2000834A105E09180F9E7648805B48430B9CB2
:104A30002146FCF791FC7349497A48430A252946E7
:104A4000FCF78AFC80B201F00FFE6E48C05B6E4935
:104A5000C95F4900764A515E41186A48805B484305
:104A60002146FCF779FC6749497A48432946FCF717
:104A700073FC80B201F0FEFD6248C05B6249119A8E
:104A8000895E49006A4A515E41185E48805B5D4E0E
:104A900048432146FCF760FC717A48432946FCF7FD
:104AA0005BFC80B201F0ECFD0398BE3880B2357A31
:104AB0002946FCF732FC07465E482946524DFCF772
:104AC0002CFC03461298285A00973021782200F0D7
:104AD000ADFC0A9C305380B2FEF738FD315B0D9F70
:104AE0003846F130FCF719FC5C216852FFF76AFB8D
:104AF000411C08B2B842204600DC0846A8525021AA
:104B00006A5A521C13B2BB42234600DC13466B5256
:104B1000119BE95A4A1C11B2B942214600DC14E645
:104B200014E6411EB177080602D12B750621B17734
:104B3000184688437076EFF3108072B6E87D00283F
:104B400002D1B07FFEF718F962B6FEF7BDF8A86F84
:104B50000B99884201D90998707523202C54242080
:104B60002C541198305AB17F49002D4A8918C881B8
:104B7000FEF73EFFFFF726FBFEF72CF82020002172
:104B8000295412982952E977244A104608380160BE
:104B9000101F0160E987116000F0C2FE01200102D0
:104BA0002048FCF7BCFABFF34F8F1F481F49016034
:104BB000BFF34F8F00BF00BF00BF00BFFAE7FEF793
:104BC00009F820200021295412982952E977134A24
:104BD000104608380160101F0160E987116000F07D
:104BE0009FFE012001020F48FCF799FABFF34F8F97
:104BF0000D480E490160BFF34F8F00BF00BF00BFDB
:104C000000BFFAE71000002080040020DC0500004F
:104C100028230000240000400C2000403C2C0140D0
:104C2000FC0400202C0500200CED00E00400FA0537
:104C300036010020581B0000D1070000F0B583B0FA
:104C4000EF4C089D2572A3712271A170207002950E
:104C50002D0A0195E57100931B0A6371170AE7702D
:104C60000E0A66704400072540B2002800D571E1A5
:104C7000600064B2002C00D572E1440040B200280C
:104C800000D573E1600064B2002C00D574E14400EB
:104C900040B2002800D575E1600064B2002C00D558
:104CA00076E1440040B2002800D577E1600064B2AC
:104CB000002C00D568407040440040B2002800D568
:104CC00073E1600064B2002C00D574E1440040B28E
:104CD000002800D575E1600064B2002C00D576E1B3
:104CE000440040B2002800D577E1600064B2002C97
:104CF00000D578E1440040B2002800D579E1600099
:104D000064B2002C00D568404840410040B2002801
:104D100000D577E1480049B2002900D578E141008B
:104D200040B2002800D579E1480049B2002900D5F9
:104D30007AE1410040B2002800D57BE1480049B249
:104D4000002900D57CE1410040B2002800D57DE17A
:104D5000480049B2002900D568404740780079B240
:104D6000002900D579E1410040B2002800D57AE160
:104D7000480049B2002900D57BE1410040B200283B
:104D800000D57CE1480049B2002900D57DE1410011
:104D900040B2002800D57EE1480049B2002900D584
:104DA0007FE1410040B2002800D569404A405000F0
:104DB00051B2002900D57BE1410040B2002800D566
:104DC0007CE1480049B2002900D57DE1410040B2B4
:104DD000002800D57EE1480049B2002900D57FE1D6
:104DE000410040B2002800D580E1480049B20029C6
:104DF00000D581E1410040B2002800D569404B4018
:104E0000580059B2002900D57DE1410040B2002888
:104E100000D57EE1480049B2002900D57FE141007C
:104E200040B2002800D580E1480049B2002900D5F1
:104E300081E1410040B2002800D582E1480049B23A
:104E4000002900D583E1410040B2002800D5694027
:104E5000009A4A40500051B2002900D57EE141003D
:104E600040B2002800D57FE1480049B2002900D5B2
:104E700080E1410040B2002800D581E1480049B2FC
:104E8000002900D582E1410040B2002800D583E12D
:104E9000480049B2002900D584E1410040B2002811
:104EA00000D56940019A4A40500051B2002900D50E
:104EB0007FE1410040B2002800D580E1480049B2BE
:104EC000002900D581E1410040B2002800D582E1EF
:104ED000480049B2002900D583E1410040B20028D2
:104EE00000D584E1480049B2002900D585E14100A0
:104EF00040B2002800D56940029A4A40500051B2A1
:104F0000002900D580E1410040B2002800D581E1B0
:104F1000480049B2002900D582E1410040B2002892
:104F200000D583E1480049B2002900D584E1410061
:104F300040B2002800D585E1480049B2002900D5DB
:104F400086E1410040B2002800D587E1C6484172A1
:104F500003B0F0BD6C40600064B2002C00D48CE65D
:104F60006840440040B2002800D48BE66C406000EA
:104F700064B2002C00D48AE66840440040B20028A5
:104F800000D489E66C40600064B2002C00D488E64E
:104F90006840440040B2002800D487E66C406000BE
:104FA00064B2002C00D585E685E66C40600064B2F2
:104FB000002C00D48AE66840440040B2002800D4A7
:104FC00089E66C40600064B2002C00D488E668403A
:104FD000440040B2002800D487E66C40600064B210
:104FE000002C00D486E66840440040B2002800D47B
:104FF00085E66C40600064B2002C00D583E683E651
:105000001E0500206940480049B2002900D486E608
:105010006840410040B2002800D485E6694048005D
:1050200049B2002900D484E66840410040B200281B
:1050300000D483E66940480049B2002900D482E6E2
:105040006840410040B2002800D481E66940480031
:1050500049B2002900D57FE67FE66840410040B2B2
:10506000002800D484E66940480049B2002900D4F1
:1050700083E66840410040B2002800D482E66940DF
:10508000480049B2002900D481E66840410040B29E
:10509000002800D480E66940480049B2002900D4C5
:1050A0007FE66840410040B2002800D57DE67DE6FD
:1050B0006840410040B2002800D482E669404800C0
:1050C00049B2002900D481E66840410040B200287E
:1050D00000D480E66940480049B2002900D47FE648
:1050E0006840410040B2002800D47EE66940480094
:1050F00049B2002900D47DE66840410040B2002852
:1051000000D57BE67BE66840410040B2002800D431
:1051100080E66940480049B2002900D47FE6684033
:10512000410040B2002800D47EE66940480049B200
:10513000002900D47DE66840410040B2002800D438
:105140007CE66940480049B2002900D47BE668400B
:10515000410040B2002800D579E679E66840410078
:1051600040B2002800D47FE66940480049B20029D7
:1051700000D47EE66840410040B2002800D47DE6BD
:105180006940480049B2002900D47CE668404100EB
:1051900040B2002800D47BE66940480049B20029AB
:1051A00000D47AE66840410040B2002800D578E695
:1051B00078E66840410040B2002800D47EE66940AD
:1051C000480049B2002900D47DE66840410040B261
:1051D000002800D47CE66940480049B2002900D488
:1051E0007BE66840410040B2002800D47AE669407E
:1051F000480049B2002900D479E66840410040B235
:10520000002800D577E677E66840410040B20028E4
:1052100000D47DE66940480049B2002900D47CE60C
:105220006840410040B2002800D47BE66940480055
:1052300049B2002900D47AE66840410040B2002813
:1052400000D479E66940480049B2002900D478E6E4
:105250006840410040B2002800D477E66940024827
:10526000417203B0F0BDC0461E050020F0B584B009
:10527000674EF588002D02D00020F08015E06549CA
:105280000978002900D16448C10B09D10322930396
:10529000034001218C03A34200D091E0062200E0EC
:1052A00007223261D040550205435D4800788000F6
:1052B00002905C490C1880236360290A5A48405CBC
:1052C0000190C20018469043A0602F0979406940C0
:1052D0000F2603968E43290189194D4A5161019980
:1052E0000A011A404240E260C80300900398074058
:1052F0004D49C85D0F460190810200980143039813
:105300000540785D3D46039047010F43AE5D3D4645
:1053100035433F488561880A1840504020614A0A59
:105320001A4042406261080A18405040A061019A48
:10533000D10019404140E16112011A404A40226205
:105340007F20C043024079091940514061623A0907
:105350001A404A40A262F90819405140E162039F95
:10536000FA001A404A4022633901194051406163F2
:105370002A461A404A40A26302406900194051403F
:10538000E163AA001A404A4022640021254D029F91
:10539000E951F10019405140616432011A404A401C
:1053A000A264710119405140E164B2011A404A40BF
:1053B00022650240F001C0B25040606504B0F0BD0B
:1053C00007235B0303404C03A34201D1052268E796
:1053D0000F231B0303400C03A34201D1042260E707
:1053E0001F23DB020340CC02A34200D159E73F2236
:1053F0009202024089028A4201D1022251E77F21B2
:1054000049020140054A89184A424A4149E7C046D3
:10541000080400209B040020FFFF000000FEFFFFA7
:10542000F4000020E0060020CC6F0008F0B5059CD9
:1054300088421EDD0F461D46264682421EDD13466B
:10544000974210DCB5421BD071194C10D9194A1083
:10545000974217D08242EFDA511C1A46234634464F
:105460008142E7DB05E019463A4633462C46814245
:10547000E0DB824200DC23461846F0BD3046F0BD3A
:105480002846F0BD2046F0BD0120800404490A688A
:1054900082430A600A46743A1060703908607047A7
:1054A00080180240F0B581B0BD4DBE486860EFF392
:1054B000108072B6BC480078E86028616861792481
:1054C000974E984F3760A41E14212046FBF725FF06
:1054D000FDF752FC60080A3028600A20FEF746F803
:1054E000022CEFD8FDF776FB00202860AF4908803A
:1054F000AF480088686062B601B0F0BDF0B581B019
:105500000320FDF739FC00263225009603E0761CC7
:10551000AD1CAE2D47D2834881490860A34800994D
:105520000180284840198778FF2FF0D0C0780028E4
:105530002CD00A219A4A1160F72141437D20400175
:1055400009182148FBF7E9FE044620482146FBF7ED
:10555000E4FE934948609449097848439149FBF730
:10556000DCFE8F49C86008614861F0B2FE2141430A
:10557000CE1917482146FBF7D0FE70436421FBF794
:10558000CCFE80B2FDF7F2FF0026C1E7002484487C
:10559000C46004614461F0B2FE214143C819FDF7C3
:1055A000E5FF2646B4E7FDF715FB00207C4A1060B6
:1055B0007F49098851607D4908805A4858490860E8
:1055C00001B0F0BD2E0600208096980000A8610072
:1055D000A0860100B0B5724D72486860282028602E
:1055E00071480078E860286168610220FDF7C4FB1B
:1055F00096242046FDF7BAFF49484A4901605020E9
:1056000028602046FDF7B2FFFDF7E4FA002028608D
:1056100066490880664800886860B0BDB0B5604DD6
:1056200060486860322028605F480078E860286140
:1056300068610220FDF7A0FB96242046FDF796FF47
:105640003748384901601E2028602046FDF78EFF4C
:10565000FDF7C0FA002028605449088054480088AB
:105660006860B0BDB0B5EFF3108072B64C4D4D48D8
:1056700068602B482B490160502028604A48007818
:10568000E860286168610320FDF776FB642420460A
:10569000FDF76CFF462028602046FDF767FF2820B5
:1056A00028602046FDF762FFFDF794FA002028608D
:1056B0003E4908803E480088686062B6B0BDC0467A
:1056C000F0B581B0364D37486860EFF3108072B6A0
:1056D000134E144F37603C20286033480078E86050
:1056E000286168610120FDF747FB4B242046FDF748
:1056F0003DFF502028602046FDF738FF5A202860E3
:1057000037602046FDF732FFFDF764FA002028607D
:105710002649088026480088686062B601B0F0BD5E
:1057200000300040AAAA0000B0B5EFF3108072B6B6
:105730001A4800683021405C194DFF2802D0FFF75D
:10574000DDFE25E01748686017480078E8602861AA
:1057500068610320FDF710FB37202860C82420462D
:10576000FDF704FF0520FDF707FB282028602046F1
:10577000FDF7FCFE0620FDF7FFFA19202860204601
:10578000FDF7F4FEFDF726FA0848002101802960A4
:1057900007480088686062B6B0BDC0466C00002053
:1057A000282C01406B0A000028050020C8040020B6
:1057B0005200002010B5764C6078022808D00128ED
:1057C00003D1FDF703FC0020607000F097FB10BDD3
:1057D00003480089FFF74AFD0020607010BDC046F5
:1057E000FC040020B0B503210A050520000703686A
:1057F0009343012214051B190360930283628B04F7
:1058000004689C439304E3180360530283620B040F
:1058100004689C431304E318036013028362094B7A
:105820001C68082525430424A5431D601C68022527
:10583000254395431D60890303688B43D1035918A1
:105840000160B0BD00040050F0B5012A24DB032440
:1058500013462340551E032D01D200240EE0A2431F
:1058600000240D5D055505190E1977786F70B7780E
:10587000AF70F678EE70241DA242F2D1002B0BD04F
:10588000625C0255012B07D0621C555C8554022BCB
:1058900002D0A21C515C8154F0BD0000B0B5F248AA
:1058A0000168022211430160016891430160EF48E1
:1058B0000146083961220A600A210160134909780A
:1058C00081601349C16002460C3A136801210B4301
:1058D000136000224260E74B0E4CDC600446143437
:1058E0009C600D4C24785C600C4C1C604B020446A0
:1058F000143C25681D43256003680B430360E14B9E
:105900001A70203802680A430260B0BDF50000201A
:10591000FFFF00002C050020700000208B09000014
:1059200002480021416001607047C04624040040E5
:1059300010B515490A78154842708A79C275144A1B
:1059400093785B1E5C425C414474D3785B1E5C427E
:105950005C4184749279521E53425341C3744A7815
:10596000521E5342534103758A78521E534253418B
:105970004375CA78521E534253418375CA6DB02194
:1059800000F008F810BDC046100000202E060020D0
:1059900080040020F0B503AF8BB06E46F41D1934BF
:1059A000B26171610546C817800F0B1803201946B4
:1059B000F0608143C91D072291436A46501A99102D
:1059C0008546F061B160FBF7AAFB70690428746139
:1059D0007CDBB1680A46F3681A40481E03287260EF
:1059E00001D200213AE09943F16000231946356164
:1059F000E818C278120685782D04AA1845782D0279
:105A000052193469E55C5219F469E250C279120600
:105A100085792D04AA1845792D0252190579551951
:105A2000E2185560C57A2D06847A24046419457AF3
:105A30002D026419057A64199460C47B2406857B61
:105A40002D042C19457B2D0264193569007B201823
:105A5000D0601033091DF0688842C9D17268002AED
:105A6000746933D089006818C278120683781B04E1
:105A70009A184078000210186A5C8018F269505039
:105A80007268012A22D0081D30602A18D3781B06BC
:105A9000F36093781B04F0681B18527812029A186E
:105AA00030682B5CD218F3691A50706802280DD048
:105AB00008316818C278120683781B049A18407857
:105AC000000210186A5C8018F2695050B068A0603B
:105AD00001203061020444480368134208D003687F
:105AE000134205D00368134202D003681342F3D176
:105AF0004368002B03D4B3695B052DD10AE03B4B0F
:105B00001C680546083D2C6074695B682B60B369AE
:105B10005B0521D1446802231C434460B469E40A54
:105B2000E4004568254345604468144344600468C4
:105B3000144208D00468144205D00468144202D00C
:105B400004681442F3D10468E40701D031690160AC
:105B500044689C4344607469002363602360256843
:105B60002346A468A542316935D2B469241DF46086
:105B70000DE044688C43446073695C6808345C6081
:105B80001C68A41C1C601C689D68AC4223D244683D
:105B90000C4344601C68A400F1690C595D68B1694C
:105BA0006C501C68A400F169641864685D68F16851
:105BB0004C510468144208D00468144205D00468AB
:105BC000144202D004681442F3D10468E407316936
:105BD000CFD00160CDE7C90742680A434260FC1F8D
:105BE000053CA546F0BDC04610200240080000203C
:105BF00010B51D48016802221143016001689143FC
:105C000001601A480146083960220A6003210160D8
:105C10001749097881605C21C16002460C3A13681B
:105C200001210B431360134A134BD3600346143313
:105C30009360124B1B7817335360114B13604A0269
:105C40000346143B1C6814431C6002680A4302604C
:105C5000CA03436A134343620A4A11702038026838
:105C60000A43026010BDC0462C10024020040040D0
:105C70006A04002008000240E0060020F400002032
:105C80009B09000079070020F0B5844B1C78002C9C
:105C900000D0F0BD14253C26D4072F4600D037464F
:105CA0007F4C678697072F466DD4278657072F4668
:105CB0006ED4E78517072F466FD4A785D7062F46E2
:105CC00070D4678597062F4671D4278557062F46CF
:105CD00000D53746E78452B2002A2A466DDBA284FB
