:020000040800F2
:10000000F0FF0120E56B06088DF2000895D1040889
:100010005D6C06085D6C06085D6C0608000000005B
:1000200000000000000000000000000089F200084D
:1000300085F200080000000081F20008919A04088F
:100040005D6C06085D6C06085D6C06085D6C060854
:100050005D6C06085D6C060899E20408C5E30408B7
:1000600089E304084DE3040811E304082950060855
:100070001950060809500608F94F0608E54F06080A
:10008000D14F0608BD4F06085D6C06080000000051
:10009000000000000000000000000000D5E204089D
:1000A0007D850408C98504086D850408ED8504086C
:1000B000BD850408AD8504089D850408ED5A060831
:1000C000F55A0608E15A0608E95A06085D6C060862
:1000D0005D6C06086D9C0408B19B040800000000DC
:1000E0005DE204085D6C0608A90901080000000033
:1000F000000000000000000000000000A94F0608FA
:1001000000000000DD2A06088D8504085D6C0608E5
:1001100000000000000000000000000000000000DF
:10012000954F0608814F06086D4F0608594F06087F
:10013000454F06080000000000000000000000001D
:1001400000000000000000000000000015EC0008A6
:10015000314F06081D4F0608094F0608F59A040896
:10016000D55A0608DD5A060800000000000000000D
:10017000000000000000000000000000000000007F
:10018000000000005D6C0608000000000000000098
:080190005D6C06085D6C0608B9
:0801980084670600010000006D
:1001A0000E02010002000000246700208467002086
:1001B00000000000F809000814020100050000001A
:1001C000C43E00208867002000000000FA090008F3
:1001D0001302010004000000DC24002090670020CE
:1001E00000000000000A00080D1001004C00000093
:1001F000A464002094670020000000005DF903085B
:100200000400080080000000E4630020E067002094
:1002100000000000000000000902010001000000D1
:100220008C6300206068002000000000040A0008C1
:10023000FD010100240000003063002064680020FC
:1002400000000000C7660408FB0101000100000077
:1002500070610020886800200000000025810508EA
:10026000FC010100090000003C6000208C680020B7
:10027000000000002D810508F701010006000000C4
:10028000306000209868002000000000060A000886
:10029000F9010100040000002C600020A06800208B
:1002A0000000000071670408160215003F000000FE
:1002B00064320020A468002000000000C980050806
:1002C0003400010010000000205F0020E4680020DE
:1002D00000000000E995020811020100080000007A
:1002E000F85E0020F4680020000000000C0A0008FE
:1002F0001212010004000000F05E0020FC680020E3
:1003000000000000140A000818200100320000005C
:10031000BC5E00200069002000000000B9890508CB
:100320001220010011000000DC5D00203469002073
:1003300000000000180A0008000201000B00000085
:10034000185B002048690020000000007D8105083E
:10035000FF11010006000000C05A0020546900206F
:1003600000000000B9800508081203000F0000001B
:10037000CC5A00205C69002000000000CD800508F8
:10038000FA01010003000000B85400206C6900204D
:1003900000000000558105080A80010028000000C7
:1003A000984C00207069002000000000E51402084D
:1003B000061001001C000000883100209869002010
:1003C00000000000B98105080202010003000000DE
:1003D000C4280020B46900200000000000000000D4
:1003E0000C02010004000000A4280020B8690020CD
:1003F0000000000085810508110001000C000000CC
:10040000EE400020BC6900200000000089F20308D3
:10041000FE01010014000000F43F0020C869002024
:10042000000000007D800508FD0701007600000047
:1004300068C00020E0C000200000000061790108D1
:10044000261001000E00000068C1002058C10020E5
:10045000000000006D1C01080B3001001A000000B4
:1004600034BA0020A8C10020000000002C0A0008B7
:100470001F3001002400000070B90020C4C100201A
:1004800000000000480A0008050201000400000006
:1004900064BC0020E8C10020000000006C0A0008D5
:1004A000030101000A000000B4B90020ECC10020E3
:1004B000000000000D170108220201001C010000CD
:1004C00078D9002030DC0020000000007189050888
:1004D0000C200600CC000000F4D700204CDD0020EA
:1004E00000000000D9F00308010201000B00000029
:1004F00098D7002018DE0020000000006D8105085C
:100500001B020100100000006CD7002024DE002038
:1005100000000000A58105081B1001000C00000070
:10052000F0C3002034DE002000000000D57F010869
:1005300021020100F000000070C2002040DE002017
:1005400000000000A5A10108231201001000000016
:1005500074D4002030DF002000000000700A000882
:10056000371001002E000000DCD6002040DF002004
:1005700000000000800A00081610010006000000BC
:100580006CD4002070DF002000000000AE0A0008DC
:100590002F100100220000000CDC002078DF00207A
:1005A00000000000B40A00081E000100090000005D
:1005B00064D300209CDF002000000000D60A000861
:1005C0000510010006000000D8D30020A8DF00209D
:1005D00000000000E00A0008F5810100680000004A
:1005E00000C20020B0DF00200000000025920108BA
:1005F000232001001000000018D4002018E0002083
:1006000000000000F9150208F62101000C000000AE
:10061000E4EB00209CED002000000000E80A000848
:100620001C0202001C00000088EB0020ECED002002
:1006300000000000A58A050828200100180000001D
:10064000A4EB002008EE0020000000004131020869
:1006500004120100020000005CED002020EE0020EA
:1006600000000000F40A00080F0201000100000071
:1006700058ED002024EE002000000000F60A0008DB
:10068000140001000400000080EB002028EE002090
:1006900000000000F80A0008012001000C00000022
:1006A00038E300202CEE002000000000FC0A0008C7
:1006B0000EF003009E01000020E1002038EE002033
:1006C0000000000031960208130001000400000041
:1006D00010E70020D8EF002000000000080B000801
:1006E00001010100040000006CE00020DCEF0020AC
:1006F00000000000000000000001010004000000F4
:1007000064E00020E0EF0020000000000C0B000877
:10071000020101000300000060E00020E4EF00207F
:100720000000000015F10308190001000500000099
:10073000E8FD0020D4FE002000000000100B00089F
:100740001A0001000E00000048FD0020DCFE002021
:1007500000000000160B0008203201000A00000013
:10076000E0FB0020ECFE0020000000000D960208D7
:100770001500100070000000BCF50020F8FE0020FD
:1007800000000000000000002A00080060000000D7
:1007900030FE002068FF002000000000C195020824
:1007A0002C00040010000000D8FF0020C8FF00202B
:1007B00000000000999302082B00120024000000A2
:1007C0000C000120E8FF0020000000006D930208EB
:1007D00029201400780000005CF300203000012084
:1007E00000000000000000001902010010000000DD
:1007F00090F20020A8000120000000005D810508A3
:1008000003000100010000000C190120201C012040
:100810000000000000000000031201003D00000085
:10082000B4180120241C012000000000240B000843
:1008300025201E002C01000018160120641C012038
:100840000000000000000000101001000200000085
:1008500098150120901D012000000000620B000887
:10086000F821010006000000F4150120941D01206C
:1008700000000000640B0008020001000C000000F2
:10088000FC2501209026012000000000000000004F
:1008900029020100400000006C2001209C2601205C
:1008A000000000006A0B00080A02010014000000AA
:1008B000581F0120FC26012000000000A5F00308BD
:1008C00028020400040000005430012030320120CE
:1008D00000000000A18105082702040004000000B8
:1008E00050300120343201200000000095810508BD
:1008F0001F02080010000000AC2D0120383201203A
:1009000000000000958005081A0201003C0000006C
:10091000542901204832012000000000298A0508DE
:10092000381001000100000030270120843201202E
:1009300000000000AA0B00082700010004000000CE
:100940004C3301205433012000000000AC0B0008A0
:100950000B1201003C0000000C350120D44701209F
:1009600000000000B00B00080D1201001400000090
:10097000C04101201048012000000000EC0B0008DD
:100980000702010002000000BC47012024480120AA
:1009900000000000000C00081D020200060000001C
:1009A00084470120284801200000000000000000CA
:1009B000060203000C00000090470120B04C01200B
:1009C00000000000318B050839000100050000001F
:1009D0009C470120BC4C0120000000004581050817
:1009E00010020100010000008C800120888001209D
:0809F00000000000020C0008E9
:1009F8000000000000FF00000000010000000000EF
:100A0800010000000000000001010101FFFFFFFFDD
:100A180000000001000105533431310000000002DC
:100A280000000000AE014A015E012C0164000200D2
:100A3800000001000A019A01001E0A0000020000DD
:100A48000000000000010000000500000102030092
:100A5800000000000000000000000000000000008E
:100A680000800700000000000000000000000000F7
:100A7800000000000000000020003200C800D0077D
:100A880096001400320028004C044006000550006F
:100A980014000F00080064000100010005000A00AE
:100AA8000000F4019600C4090000190000000000CD
:100AB800000000000000000000000000000000002E
:100AC8000000000000000000000000000000000519
:100AD80001000000000000002000030100000000E9
:100AE80000000000010000000202000000000000F9
:100AF80003000023E8036400040A000114001E0038
:100B080000204030900100000000280100007E0510
:100B1800EA05B4053200E803D00700000000000031
:100B280000000000000000000000000000000000BD
:100B380000000000000000000000000000000000AD
:100B4800000000000000000000000000000000009D
:100B58000000000000000000010000050201F4018F
:100B68001400000000000000000000000000000069
:100B7800000000000000000000000000000000006D
:100B8800000000000000000000000000000000005D
:100B9800000000000000000000000000000000004D
:100BA800000000002003000000000000000000001A
:100BB800000000000000000000000000000000002D
:100BC800000000000000000000000000000000001D
:100BD800000000000000000000000000000000000D
:100BE80001000000000000000000000000000000FC
:0B0BF8000000000000000000003C00B6
:100C03000403090412010002EF0201408304563277
:100C1300000201020301000012010002020200406F
:100C2300830440570002010203010800FFFFFFFF96
:100C3300006002401060024000000000000000005D
:100C4300000B000000000000000000000000000096
:100C53000060024028600240010000000000000024
:100C6300060C00000000000000000000000000006F
:100C730000600240406002400200000000000000EB
:100C8300100D000000000000000000000000000044
:100C930000600240586002400300000000000000B2
:100CA300160E00000000000000000000000000001D
:100CB3000060024070600240040000000000000079
:100CC300200F0000000000000000000000000000F2
:100CD3000060024088600240050000000000000040
:100CE30026100000000000000000000000000000CB
:100CF30000600240A0600240060000000000000007
:100D0300301100000000000000000000000000009F
:100D130000600240B86002400700000000000000CD
:100D2300362F00000000000000000000000000005B
:100D33000064024010640240000000000000000054
:100D43000038000000000000000000000000000068
:100D5300006402402864024001000000000000001B
:100D63000639000000000000000000000000000041
:100D730000640240406402400200000000000000E2
:100D8300103A000000000000000000000000000016
:100D930000640240586402400300000000000000A9
:100DA300163B0000000000000000000000000000EF
:100DB3000064024070640240040000000000000070
:100DC300203C0000000000000000000000000000C4
:100DD3000064024088640240050000000000000037
:100DE3002644000000000000000000000000000096
:100DF30000640240A06402400600000000000000FE
:100E0300304500000000000000000000000000006A
:100E130000640240B86402400700000000000000C4
:100E23003646000000000000000000000000000043
:100E33007D000000010000001583000811830008F5
:100E43000D83000801830008FD8200080983000860
:100E530005830008000000003D8F000855A300082B
:100E6300018F0008A9A400082190000885830008C9
:100E73007183000855830008019D0008B1880008AC
:100E830095D500080DD600088DD600087DD800083A
:100E9300990F01085D8300084D83000801000000DD
:100EA3000000803F193A01081D3F0108953A0108E7
:100EB30035100108191201084510010861100108D5
:100EC3000D100108FD0F01080000000000000000E4
:100ED30009022000010104C03209040000020806CF
:100EE300500507058102400000070501024000008C
:100EF30009026400030100C0320904000001030079
:100F030000000921110100012236000705830309AE
:100F1300000A080B01020202010009040100010298
:100F2300020100052400100105240100020424022B
:100F3300020524060102070582030800FF090402D3
:100F430000020A00000007050102400000070581B6
:100F53000240000009024300020100C032090400FC
:100F63000001020201000524001001052401000113
:100F7300042402020524060001070582030800FF7A
:100F830009040100020A00000007050102400000F5
:100F93000705810240000000FF00000000FF000081
:100FA300000000000000AA550701000001AA550532
:100FB30001000008F8AE0608FF1FFF1F0501090521
:100FC300A101A100050109300931093209330935AD
:100FD3000934093609371581257F7508950881027B
:100FE30005091901290815002501950875018102D4
:100FF300C0C0000009022200010100E03209040020
:10100300000103010200092111010001223600073A
:1010130005830309000A0000000000000102030425
:1010230001020304060708092D202D2D202D2D2D47
:101033002D202D2D2D2D00000000000000000000AC
:1010430000000000000000AA550B010000AA55058E
:10105300010000AA550902000000AA5503009F00E1
:1010630001000000C0120000A0C100200000000029
:1010730078C1002000000000010000008033070851
:1010830088330708000000009DF10308A0860100D3
:101093000400000000000000000000000000000049
:1010A300000000000000000000000000000000003D
:1010B300000000000000000000000000803307086B
:1010C3009033070800000000D57A0408E803000005
:1010D3000400000000000000000000000000000009
:1010E30000000000000000000000000000000000FD
:1010F3000000000000000000000000009833070813
:101103000000000000000000196203087D000000D9
:10111300FF000000000000000000000000000000CD
:1011230000000000000000000000000000000000BC
:101133000000000000000000000000007CB9070868
:101143000000000000000000AD7103087D000000F6
:10115300FF0000000000000000000000000000008D
:10116300000000000000000000000000000000007C
:1011730000000000000000000000000044480708D1
:101183000000000000000000D9B803087D00000043
:10119300FF0000000000000000000000000000004D
:1011A300000000000000000000000000000000003C
:1011B300000000000000000000000000A03307084A
:1011C300000000000000000039710408E80300007B
:1011D3000300000000000000000000000000000009
:1011E30000000000000000000000000000000000FC
:1011F300000000000000000000000000A433070806
:101203000000000000000000712603081027000002
:1012130003000000000000000000000000000000C8
:1012230000000000000000000000000000000000BB
:1012330000000000000000000000000090B5070857
:1012430000000000798F020849D204085F7600008D
:101253000500000000000000000000000000000086
:10126300000000000000000000000000000000007B
:1012730000000000000000000000000020B9070883
:10128300000000000000000009F20408102700001D
:10129300010000000000000000000000000000004A
:1012A300000000000000000000000000000000003B
:1012B300000000000000000000000000B033070839
:1012C300000000000000000099630408E803000028
:1012D3000500000000000000000000000000000006
:1012E30000000000000000000000000000000000FB
:1012F300000000000000000000000000BC330708ED
:101303000000000000000000C5F70308204E0000A5
:1013130003000000000000000000000000000000C7
:1013230000000000000000000000000000000000BA
:10133300000000000000000000000000CC3307089C
:101343000000000000000000ADF50308204E00007F
:101353000300000000000000000000000000000087
:10136300000000000000000000000000000000007A
:10137300000000000000000000000000DC3307084C
:1013830000000000000000004D770408400D03003A
:101393000300000000000000000000000000000047
:1013A300000000000000000000000000000000003A
:1013B300000000000000000000000000EC330708FC
:1013C3000000000000000000252C04081027000086
:1013D3000100000000000000000000000000000009
:1013E30000000000000000000000000000000000FA
:1013F300000000000000000000000000F4330708B4
:1014030000000000000000003DAE010810270000AE
:1014130003000000000000000000000000000000C6
:1014230000000000000000000000000000000000B9
:10143300000000000000000000000000F83307086F
:10144300000000000000000051710208A0860100A6
:101453000100000000000000000000000000000088
:101463000000000000000000000000000000000079
:101473000000000000000000000000000034070826
:101483000000000000000000C16F040850C300000A
:101493000100000000000000000000000000000048
:1014A3000000000000000000000000000000000039
:1014B30000000000000000000000000008340708DE
:1014C3000000000000000000916D0408A0860100E8
:1014D3000000000000000000000000000000000009
:1014E30000000000000000000000000000000000F9
:1014F3000000000000000000000000001434070892
:10150300000000000000000079690408A8610000E1
:1015130001000000000000000000000000000000C7
:1015230000000000000000000000000000000000B8
:101533000000000000000000000000002034070845
:10154300000000000000000091070208A0860100CF
:101553000100000000000000000000000000000087
:101563000000000000000000000000000000000078
:101573000000000000000000000000002C340708F9
:10158300000000000000000019A10408A00F0000E3
:101593000100000000000000000000000000000047
:1015A3000000000000000000000000000000000038
:1015B30000000000000000000000000038340708AD
:1015C30000000000000000008D0202081027000048
:1015D3000100000000000000000000000000000007
:1015E30000000000000000000000000000000000F8
:1015F3000000000000000000000000004434070861
:101603000000000000000000DDF10308A00F00004F
:1016130001000000000000000000000000000000C6
:1016230000000000000000000000000000000000B7
:101633000000000000000000000000005034070814
:10164300000000000000000079DD01081A410000DD
:101653000100000000000000000000000000000086
:101663000000000000000000000000000000000077
:1016730000000000000000000000000054340708D0
:1016830000000000000000004117010810270000BF
:101693000100000000000000000000000000000046
:1016A3000000000000000000000000000000000037
:1016B3000000000000000000000000006034070884
:1016C3000000000000000000554C020850C3000059
:1016D3000100000000000000000000000000000006
:1016E30000000000000000000000000000000000F7
:1016F3000000000000000000000000006434070840
:10170300000000000000000085200108400D0300D8
:1017130000000000000000000000000000000000C6
:1017230000000000000000000000000000000000B6
:101733000000000000000000000000006C340708F7
:101743000000000000000000A9F20308400D0300A0
:101753000000000000000000000000000000000086
:101763000000000000000000000000000000000076
:1017730000000000000000000000000074340708AF
:10178300000000000000000001EC010850C300004D
:101793000300000000000000000000000000000043
:1017A3000000000000000000000000000000000036
:1017B3000000000000000000000000008034070863
:1017C3000000000000000000ED08040840420F0084
:1017D3000000000000000000000000000000000006
:1017E30000000000000000000000000000000000F6
:1017F3000000000000000000000000008C34070817
:10180300000000000000000089FC030850C3000032
:1018130000000000000000000000000000000000C5
:1018230000000000000000000000000000000000B5
:1018330000000000000000000000000001000000A4
:1018430000000100E0010000FFFFFFFF01007EFF39
:10185300FFFFFFFF080000004257020000000106DF
:10186300425702000000010601FFFF00FFFFFFFFD8
:1018730001010100FD0A0208000000000000000051
:1018830030B90608E0E4002034E5002071260208A0
:10189300992402080000000098D10608ADFA010857
:1018A3000000000000000000FCD006081127020819
:1018B3000000000000000000B4D006080000000093
:1018C300000000000000000064CF060800000000D4
:1018D30000000000000000001CD00608000000000B
:1018E3000000000000000000C8CF06080000000050
:1018F3000000000075230208D5E60020D601FF2D65
:10190300202D2D202D2D2D2D202D2D2D00000000DF
:1019130000000000000000000000000000000000C4
:10192300FFFFFFFF012A0208000000000000000083
:10193300F4CE060801000000FA00000001000000D8
:10194300010000000101000000010101000000008E
:1019530032E300200000F4010100000030E3002026
:101963000000F401010000002EE300200000F40158
:10197300010000002CE300200000F401010000003E
:101983002AE300200000F4010100000028E3002006
:101993000000F4010100000026E300200000F40130
:1019A3000100000035130208F912020800000000CC
:1019B30074BB060816E300200532010024E300206F
:1019C3006400F4010100000022E300206400C40964
:1019D3000100000014E30020E803D0070100000029
:1019E30012E30020E803D0070100000010E3002009
:1019F300E803D007010000000EE300201E00B80B2F
:101A0300010000001CE3002005000F00010000009E
:101A13001EE3002003000A00010000000CE3002085
:101A23001E00F4010100000020E30020020000007A
:101A330000BC06080AE30020140064000100000053
:101A430018E300203200E8030100000008E300204F
:101A53000000C80001000000E1E2002000C801000E
:101A6300E0E2002000500100DFE20020005A010004
:101A7300DDE20020020000000CBC06088C3F0708D2
:101A8300943F07085E6600200100C40900000000BF
:101A93005C6600200100C409000000005A660020B3
:101AA3000100C40900000000586600200100C409B9
:101AB30000000000546600200100C409000000007B
:101AC300566600200100C409000000005266002091
:101AD3000100C40900000000506600200100C40991
:101AE300000000008BE0002000C801008AE0002015
:101AF30000C8010088E000200000FFFF0A0000008A
:101B030086E000200100C8000100000084E00020FE
:101B1300320030753200000082E0002005820500AB
:101B230080E0002005002C01050000007EE000207D
:101B3300055A05007BE0002000FF01007DE0002046
:101B4300020000001410002079E0002003000000D0
:101B530018B106087AE0002000FF01007CE00020B5
:101B6300020000001410002078E0002003000000B1
:101B730018B10608891202081912020800000000B1
:101B830018BC060848E30020EE02CA080100000062
:101B930046E3002000C801006400000045E3002084
:101BA30000C801006400000044E3002002000000BC
:101BB30024BD060872E000200000803E05000000FE
:101BC30070E0002080C1803E050000006AE0002034
:101BD3000083007D0500000068E0002080C1803E96
:101BE3000500000063E0002000FF01005EE000202C
:101BF3006400F401010000005CE000200400000028
:101C030030BD06085BE000200200000044BD06086A
:101C130011E100200D00000050BD06080EE1002078
:101C2300006401000CE10020320010270A000000CC
:101C33000AE100200D00000050BD060809E1002064
:101C43000D00000050BD060808E10020020000005E
:101C530088BD06080000000000000000000000002E
:101C630094BD06084EE300203E000000CCBD0608EC
:101C73004CE300200100FF7F010000004BE3002044
:101C830002000000C8BE060813E1002003000000A4
:101C9300D8BE060812E1002003000000D8BE0608E3
:101CA300CEE20020000A0100CCE200200000E8039D
:101CB30001000000CAE200200000E8030100000068
:101CC300C8E200200000E80301000000C6E2002093
:101CD3000000E80301000000BEE200200000E8036A
:101CE30001000000C4E200200000E803010000003E
:101CF300C2E200200000E80301000000C0E200206F
:101D030000140100DCE2002002000000E8BE060827
:101D1300DAE200200000F40101000000D8E2002014
:101D23000000F40101000000D6E200200000F401ED
:101D330001000000D4E200200000F40101000000D3
:101D4300D2E200200000A00F01000000D0E200203A
:101D53000000A00F01000000F5E20020196401005B
:101D6300F4E2002002000000F4BE0608F2E20020C4
:101D7300E803D0070A000000F0E20020006401003D
:101D83000A000000E5E2002000640100E4E2002014
:101D930000640100ECE20020006401000A0000007E
:101DA300EBE20020006401000A000000EAE20020E8
:101DB300006401000A000000EFE2002000FF0100C0
:101DC3000A000000EEE2002000FF01000A0000000C
:101DD300EDE2002000FF01000A000000E9E200201C
:101DE30001FF01000A000000E8E2002001FF0100FA
:101DF3000A000000E7E2002001FF01000A000000E2
:101E03001CE100200000F401010000001AE10020A1
:101E13000000A00F0100000018E100200000A00F47
:101E23000100000016E100200000A00F01000000E7
:101E330014E100200000A00F0100000025E70020AE
:101E430000C8010024E700200064010023E700200C
:101E53000064010022E700200064010021E7002064
:101E63000064010020E70020FF0801001FE70020B5
:101E730001640100811102084511020800000000FD
:101E830000BF060828E700200132010027E70020F1
:101E93000100000070BF060826E7002004000000D0
:101EA30078BF06081EE70020006401001CE700203D
:101EB3001400E803010000001AE70020E80330756E
:101EC3000A00000018E7002000C8010017E70020FF
:101ED30000C8010016E7002000C8010015E7002034
:101EE300003201002AE70020004B010029E700200F
:101EF300040000008CBF060814E700200064010002
:101F03000A00000038E700200000D00701000000AD
:101F130033E7002000C8010032E7002000C80100B9
:101F230031E7002000C8010036E700200000D00799
:101F33000100000030E7002000C801002FE7002067
:101F430000C801002EE7002000C8010034E700208C
:101F53000000D007010000002DE7002000C80100A9
:101F63002CE7002000C801002BE7002000C8010077
:101F7300390F0208210F020800000000A0BF060865
:101F830005E10020005A010004E1002000C801001F
:101F930002E10020E803D007010000000000000078
:101FA30000000000B52302083CC0060853544D331B
:101FB300324634313100000077E000200003010095
:101FC30076E00020000301005D0E0208110E0208F6
:101FD3000000000090C00608D10D0208890D020818
:101FE300000000002CC10608A90E0208E52902081A
:101FF30000000000ACC1060874E0002001030100EA
:1020030011140208E51302080000000004C50608C5
:10201300150D0208D10C02080000000074C5060863
:10202300490F0208392B02080000000010C60608F9
:10203300012F02083D14020800000000B8C606087C
:10204300990F0208000000000000000044C70608C2
:10205300751002081D10020800000000A8C706083A
:1020630009110208CD1002080000000050C806083C
:102073004D8C0208BD11020800000000DCC80608F0
:1020830007E3002001060100E10F0208AD0F02087B
:1020930000000000D8C90608818B0208052C02083D
:1020A3000000000048CA0608958C0208CD2C0208DF
:1020B3000000000098CB060806E30020010301009E
:1020C300F10E0208C10E0208000000006CCC0608E5
:1020D300ED8C02080000000000000000D0CC0608D0
:1020E300590D0208CD2902080000000050CD060852
:1020F300000000000000000000000000DCCD060826
:10210300F1110208452D0208000000004CCE06081C
:1021130000000000000000000000000064D006087A
:1021230010BC00209CFF2C010000000098E8002058
:10213300E0150C1700000000A0DB002002000000E7
:102143009CD0060857E0002002000000A8D0060833
:1021530052E0002088136F170100000054E00020B4
:1021630088136F1700000000A26600200000000023
:1021730000000000A0660020000000000000000036
:102183009E66002000000000000000009C66002006
:1021930000000000000000009A660020000000001C
:1021A300000000009866002000000000000000000E
:1021B300FC050020000000000000000028E00020D3
:1021C30003000000FCD1060850E0002088136F17BD
:1021D300010000005ABC002088136F1700000000A4
:1021E300B50B020800000000000000000CD2060836
:1021F30019E600200100000060D206085CBC002044
:10220300010000006CD2060852BC0020020000004E
:1022130074D2060800000000000000000000000067
:1022230080D20608A10B0208000000000000000095
:102233001CD306080000000000000000000000009E
:1022430070D306080000000000000000000000003A
:10225300E0D3060856E000200200000018D4060868
:1022630056BC0020E0150C1700000000010100001F
:10227300B8000120FFFFFFFF0000803F00000000C7
:10228300000000000000000000000000000000004B
:10229300000000000000000000000000000000003B
:1022A3000000803F0000000000000000000000006C
:1022B3000000803F0000000000000000000000005C
:1022C3000000803F0000000000000000000000004C
:1022D300010000000000FA430000FA430000803FC1
:1022E300352E04080000000000000000000000007C
:1022F300FFFFFFFFFF00000000000000EC260120AD
:102303000800000000000000DC2601200800000097
:102313002000000071390108291101080939010859
:1023230000000000F90F0108F141010859380108C4
:10233300A53401080000000000000000B90F0108E7
:102343002583000819830008858E0008A18E0008E4
:10235300698E00084D8E0008318E00082939010866
:10236300051101085D38010800000000D10F0108C4
:10237300A93401082D3801080534010800000000C4
:1023830000000000C50F0108685E0C00FFFFFFFF9F
:1023930002010000A00F0000B80B000002FFFF01C4
:1023A300FFFF000084B507080000080205030300CF
:1023B300000000008CB507080100080205040300B3
:1023C30000000000545D07080200FE010110030035
:1023D30000000000F4420708030014020003000099
:1023E3000000000094B5070804001F020200080063
:1023F300000000009CB5070805001F020201080049
:1024030000000000FFFFFFFF1A03000000000000B0
:1024130000000000000000000000000000000000B9
:102423000000000004030904120100020000004040
:10243300830420570002010203010B01599205088E
:102443002D920508D19105086D820508ED910508C7
:102453009191050869820508F41A0020499305083B
:1024630069930508399305084D820508F592050817
:10247300AD9205083D820508D01A00206D8B050832
:10248300558205085182050849820508B58C05085F
:102493004582050841820508D42607088D410108B5
:1024A300E51001086D400108000000000000000075
:1024B300053801081537010800000000000000007E
:1024C30000000000AD0F0108F5820508E982050848
:1024D300B9930508D5930508A18205089D930508BE
:1024E30081930508FFFFFFFF0100000050C30000B8
:1024F300010100001F0000001C0000001F0000007D
:102503001E0000001F0000001E0000001F0000004E
:102513001F0000001E0000001F0000001E0000003E
:102523001F0000000068214C012500001824070843
:1025330074300708181B0020008002021F000000EF
:1025430053544D202020202050726F647574202036
:102553002020202020202020302E30310080020235
:102563001F00000053544D202020202050726F6420
:10257300757420202020202020202020302E303170
:102583000B17010807170108FF160108E9140108D2
:10259300ED1F010819200108491F0108F51601085C
:1025A300E5160108D5160108C5160108E11401084E
:1025B300FF010000F4010000FF000000000004011F
:1025C30000000000000000021000000007000000EF
:1025D30000000000000000000102030406070809D0
:1025E30001000000801B002000000000000000002C
:1025F30000000000000000000000000000000000D8
:1026030000000000000000000000000000000000C7
:1026130000000000000000000000000000000000B7
:1026230000000000000000000000000000000000A7
:102633000000000000000000000000000000000097
:0826430000000000000000008F
:08280000082800080040000850
:10800000F0B401292A4C2B4D23684FF0000694BF91
:1080100000270127EE626662A6626763676B47EA24
:1080200042076763EE63EC6B002A38D144F4957421
:10803000EC631C6824F001041C601C68E407FCD499
:10804000490289085960D8601968EAB921F04001ED
:10805000196019498B421DD018494FF47410C8603B
:10806000196841F01E011960596941F08001596198
:10807000196841F00101196022B90E4AD36A43F030
:108080000803D362F0BC704741F0400119600A490F
:108090008B42E1D14FF0746041F8500CE0E744F0BE
:1080A0001A04EC63EC6A44F00804EC62C1E700BF18
:1080B000E01B0020002C0140586402400064024094
:1080C0001148002302461178032902F1060216D056
:1080D0000133062BF7D10D4AD36D052B0ED0591C59
:1080E00003EB4303D16500EB4303032040F2EB3184
:1080F00040F2FF32187059809A807047704703EB46
:10810000430300EB4303F0E7181C0020E01B0020B2
:1081100070B4C3080D4CE25C00F00706B24004EBFB
:10812000D004D2B20020C6F108038B4228BF0B4610
:10813000C3F108052A419840C91A40EA02004FF0ED
:10814000000614F8012FEED170BC7047801C00208F
:10815000084AD2E9343199420AD0D118013391F852
:10816000D8100170C3F30A03C2F8D0300120704761
:1081700000207047E01B0020064AD2F8D838D2F819
:10818000DC28934294BF4FF400600020013B9B1A0F
:1081900018447047E01B0020012380F851307047DD
:1081A00007B501A8FFF7D4FF0028FAD09DF8040016
:1081B00003B05DF804FB044BD3E93403984288BF55
:1081C00003F50063181A7047E01B00200120704778
:1081D000024BC3F8E028C3F8E4187047E01B002006
:1081E000024BC3F8E828C3F8EC187047E01B0020E6
:1081F0007047704730B4134DD5E934239A4286BF97
:1082000003F50064A21A9A1A0A44B2F5006F13D853
:10821000A9B101444A1E013810F8014FE918824201
:1082200003F1010381F8D840C3F30A03F4D1C5F880
:10823000D430002030BC7047022030BC7047084664
:10824000F8E700BFE01B0020212838B50C4605D018
:1082500022282ED0202813D0002038BD0029FBD0A2
:10826000072AF9D11A4BD3F8F00893F8F41893F8C9
:10827000F52893F8F638206021716271A371EBE75D
:108280000029E9D0072AE7D1114DD5F8E4381BB110
:108290000968D5F8E0089847206821796279A379C0
:1082A000C5F8F00885F8F41885F8F52885F8F6384B
:1082B000D2E70029D0D0022ACED1054AD2F8EC3834
:1082C000002BC9D00988D2F8E8089847C4E700BF56
:1082D000E01B0020024B0020C3F8F808704700BFE5
:1082E000E01B0020044B00200522C3F8F828C3F847
:1082F000EC08C3F8E4087047E01B0020704700BF9B
:10830000704700BF704700BF704700BF704700BF95
:10831000704700BF704700BF042301480B807047BF
:108320009801002010B4074A074B92F8FC08122469
:1083300003F114020C8001280CBF184610465DF8AA
:10834000044B7047E01B00209C0100200048704750
:10835000681C002000487047681C0020034B93F8FD
:108360008400032894BF002001207047E01B0020F8
:10837000034B93F88400032894BF0020012070472A
:10838000E01B0020034B93F88400003818BF012045
:10839000704700BFE01B0020A0B182680D4B12B1F6
:1083A00007229A7070471978DA6003294FF00400A9
:1083B0000CBF80214FF48071C3E901111A611A7555
:1083C00098707047034B41F2E47101225A545A707D
:1083D000704700BFDC9900200378022B10D00069A1
:1083E00008B9012070470C4B1B78032B0EBF0B4BB9
:1083F00080B24FF6F773984294BF00200120704777
:108400000549436841F650028A58B3EB422F2CBF0E
:1084100001200020704700BFDC990020F7FFFF0F0C
:108420000378022B14D030B4104A4368006941F637
:10843000480402F5C2511559096841F63C042B4025
:1084400012595B0A023801FB0030104430BC7047FF
:10845000064B426841F6340141F63000595818582D
:1084600000EB410000EB5220704700BFDC99002078
:108470002DE9F041684C00234FF4F07220210646AC
:1084800004F6041084F8003961F039FF04F6E420A2
:108490004FF4F072202161F032FF94F8C50C10B156
:1084A00094F8C62C1AB900252846BDE8F08144F09E
:1084B00053FB0746C4F8D00C44F022FE05460028C2
:1084C000F1D00FB12323FB800921384640F0F2FCA4
:1084D000D4F8D00C514F44F035FE94F8C60C013856
:1084E00040B246F0EDFA0223102184F8C83CC4F8EB
:1084F000CC0C59F093F9798D494846F02DF9D4F810
:10850000D00C44F019FEFF218C2059F0FFFA804670
:10851000D4F8D00C44F016FED4F8CC0C042159F059
:108520007DF9B8F11B0F05D0D4F8D00C202140F014
:10853000C1FCB8E7D4F8D03C012284F800290BB183
:108540002322DA80798D364846F006F9D4F8D00C2B
:1085500044F0F2FD40210A2059F0D8FAFF218A2088
:1085600059F0D4FAC0F38013D4F8D00C84F8D43C7A
:1085700044F0E8FDD4F8CC0C042159F04FF994F8FC
:10858000C43C012B3FD0022B37D0CBB394F8D53C61
:10859000182B08D194F8D42C7B8DA4F8D86CA4F8AF
:1085A000DA2CA4F8DC3C798D1D4846F0D5F8798D9D
:1085B0001B4846F0D1F8D4F8D00C44F0BDFD0221A0
:1085C000002059F0A3FAD4F8D00C44F0BBFD0421EC
:1085D000D4F8CC0C59F022F994F8E52C94F8E63C48
:1085E00094F8E41C84F8E01CC2F12002C3F11003EB
:1085F00084F8E72C84F8E83C56E708237B85C5E738
:1086000010237B85C2E7002EF7D094F8D43C002BD2
:1086100014BF08231023F1E7E01B0020980100207D
:10862000A82800202DE9F84F564B984210D003F5AA
:1086300068530833984267D0534B0020A3F8440D89
:10864000A3F8500DC3F8480DC3F84C0DBDE8F88FE2
:108650004D4C4E4E02224FF0000BC4F8EC2C04F5AA
:108660004F65D9464FF4007A4FF48078F26A0127BB
:108670005A455946BB4403D0D4F8600D53F028FF47
:1086800094F8642D85F82420D4F8600DA5F804A092
:108690004FF000724FF48031A960EA60A5F81080B5
:1086A00085F81290A5F806802F762862B72154F03D
:1086B00005F9D4F8EC2C364B6F76934545F8283BFA
:1086C000D4DB84F8529DD4F8EC1CB4F8F42CD4F824
:1086D000FC3CD4F8F80CB4F8005DC4F8683D12FB1B
:1086E00001F203FB01F3A4F8442DB4F8F61C294A67
:1086F000C4F8480DC4F84C3DA4F8505DA4F8461DDC
:10870000C4F8402D0120A1E71F4C204E0223C4F8DD
:10871000EC3C04F54F654FF0000B4FF4806A4FF0CE
:1087200040094FF40068F26A01275A455946BB4494
:1087300003D0D4F8600D53F0CBFED4F8601D94F84C
:10874000642D296285F824204FF400314FF0006237
:10875000C5E90212A5F804A0A5F81090A5F80680B6
:10876000AF74FFF7ADFC28466F7653F0F9FFD4F8ED
:10877000EC2C094B45F8283B9345D4DB84F8527D1B
:10878000A1E700BF1971EF00E01B00209801002055
:10879000A0A30608F8A30608CCA30608F8B51A4C4F
:1087A00094F86C3D002BFBD159B301444E1E451E7D
:1087B000D4F8DC28D4F8D81815F8017F531CC3F37B
:1087C0000A038B422CBF4FF400600020C91A2244D8
:1087D0000144012982F8707DC4F8DC380FD10120F2
:1087E00041F0B6F8D4F8D838D4F8DC188B4294BFEE
:1087F0004FF4006200225B1A1344012BEFD0B54204
:10880000D6D10020F8BD00BFE01B00200A4B08466F
:10881000D3F8F81810B569B1D3F8F838052B09D199
:10882000064C002AD4F8783404DD1146FFF7B6FF71
:10883000D4F8783410BD00BFE01B0020D82C0020F5
:1088400010B590F85010002380F8503089B10C4CCE
:10885000D4F8F8287AB1D4F8F828052A0DD1094CB3
:108860003C30D4F87834FFF799FFD4F878340120FD
:1088700010BD0120FCE71046FAE71846F8E700BFF4
:10888000E01B0020D82C0020002280F85120D7E7E0
:1088900090F85020531C0244DBB280F8503082F82C
:1088A0003C1090F851200AB1132B00D9C8E770474B
:1088B0002DE9F04143794F4C002B14BF01220022D7
:1088C00084F8B02003D184F88430BDE8F08190F8BA
:1088D000018008F1FF3676B2054630460F4646F075
:1088E000EFF80223C4F8BC0084F8B8302B78002BD2
:1088F0005CD1ED78002D4DD14FF48071D4F8BC00DF
:10890000C4F8C05058F08AFF4FF47A7041F020F854
:10891000D4F8C00044F016FCD4F8BC000A268389C1
:108920004FF6FF714FF47A73FF27028995071AD526
:1089300087814FF47A730289D20703F1FF3525D579
:10894000013E8289F1D12C4B0289920714D502890C
:1089500012F0800210D1294B84F87820D3F87834B3
:1089600063670123AFE7013B9BB28B42DDD145F04A
:108970003DFFD4F8BC00E6E7013BE5D194F8782050
:1089800084F88430531C84F878309EE7ABB28B4275
:10899000D1D1ECE7284644F0DFF8054608B11E23A4
:1089A000C3800921284640F085FAA5E706EB860634
:1089B0003E44414696F90320002041F03DFB064627
:1089C00030B140685AF058FFB36884F8CE3018B917
:1089D000002384F8C4308CE7094A431E02EB43139A
:1089E00017210022C4F8C8305AF058FF012384F838
:1089F000C4307EE7E01B0020A1860100D82C0020B7
:108A0000C80100202DE9F04FCF4ED04D86468C4650
:108A100017460FCE05F27C442DED068B0FC40FCE0A
:108A20000FC496E807008BB095F8B234059784E838
:108A30000700CDE906EC042B00F24981DFE813F0D2
:108A4000A801470142010500B8019FEDC18ADFED91
:108A5000C18AC149C5F89814C049C14BC14AC5F87B
:108A600094140599002918BF134638EE887AF5EE5C
:108A7000006AC6EE879ABC4EC5F8A034A6F115036D
:108A8000039306F1C0080027DFEDBF7A9FEDB79A88
:108A900028EE278AB0EE67AA079BBB4200F00C8144
:108AA000039B13F8014B039307F1010B5FFA8BF360
:108AB000002C00F08081002203E00132152A00F032
:108AC0007A8102EB42014FEA420918F80100A04204
:108AD000F3D12944049391F88D15002900F0738196
:108AE00020463FF0CDFF824600683FF06DFF9AF8C8
:108AF00005103FF0E5FF90F800C0BCF1000F40F01A
:108B00005A8105EB09014FEA141909F1FF39049B59
:108B100081F8CD350322B9F1040F81F8CC2504F09A
:108B20000F0000F2FF80924C04EB4901B1F8B0C095
:108B30004CFA00F111F0010100F02881012101FA45
:108B400000F0013800EA0C00A14404935DF0D2FE6D
:108B500099F8BCC0DFF82CE2049B60440EEBC00C1B
:108B600003228CF807308CF806205EF83000C6F837
:108B700014C000F13F4303F57E0304EB932401216D
:108B800094F8C4309AF8082003F01F045B09032B03
:108B900001FA04F100F0D380042B00F0CB80022B0B
:108BA00000F0C380BCF804300893B3FA83F3C3F138
:108BB0001F03C3F3CC0100EB810103F007030C6A30
:108BC0009B004FF00F0C0CFA03FC24EA0C040C621F
:108BD0000C6A02FA03F323430B62022308A90993E8
:108BE0000BF016FE059B002B76D0B5F8B034D5F807
:108BF000781807EE903AF8EEE77AFCEEE77A17EE8F
:108C0000900AB1FBF0F202F57F42FF32120CB1FB89
:108C1000F2F295F8B214B2FBF0F0042983B272D0EC
:108C200007EE902AF8EE676A66EE887A29EE677A90
:108C300095F8B30406990091A8EEA67A01905146E2
:108C40003046C6ED027A86ED037A37F003FA002F3C
:108C500064DD7368D5F8D024934261D0012F5DD0D4
:108C6000D5F8E82493425BD0022F57D0D5F80025E1
:108C7000934255D0032F51D0D5F8182593424FD0A9
:108C8000042F4BD0D5F83025934249D0052F45D03D
:108C9000D5F84825934243D0062F3FD0D5F860251C
:108CA000D31A18BF01235F460122082F3374727450
:108CB00006F118067FF4F0AE2E480BB0BDEC068B23
:108CC000BDE8F08F9FED2C8AF0EE488AC1E69FED5B
:108CD0002B8AF0EE488ABCE6B0EE690A5EF064FFCB
:108CE000FCEEC07A4FF6FF7317EE902AD5F878188D
:108CF000B1FBF2F21A44120CB1FBF2F295F8B21485
:108D0000042918468CD107EE900A07EE102AF8EED7
:108D1000677AF8EE476A67EE8A7A87E70123C2E747
:108D20000023C0E7C6F814C05CE7154B5C6C214318
:108D3000596437E7124B1C6B2143196332E7104B20
:108D40001C6C214319642DE724A40608D82C0020AC
:108D5000ACC5A737ACC5A73681F503085D67040825
:108D600029EE030851670408A431002000007A446A
:108D7000A0A3060854310020282930386F12033987
:108D800000380240D03200206F12833A716129E727
:108D90001FED038A0D4A0E4BC5F89824C5F894348C
:108DA00000220123CDE90532F0EE488A094B5CE64A
:108DB0009FED098AEEE7094A064BC5F89824C5F8E5
:108DC000A034002079E70B68FFDE00BF81F50308BF
:108DD0005D670408516704080000000079EF03088C
:108DE000104B70B5D3F87848054600680E46640805
:108DF0000BF012FCB4FBF6F1B1F5803F03D3012C6C
:108E0000FAD96408F6E72246284689B23FF0D6FC34
:108E10000549064B0B6028460022BDE870403FF034
:108E2000EDBB00BFD82C0020B83D002051FE01084A
:108E300010B5044C04480A4621460AF067FA204659
:108E400010BD00BFC03D00209832070810B5044C8B
:108E500004480A4621460AF059FA204610BD00BFD0
:108E6000C03D0020A832070810B5044C04480A464B
:108E700021460AF04BFA204610BD00BFC03D00203D
:108E8000B432070810B5044C04480A4621460AF0DB
:108E90003DFA204610BD00BFC03D0020C03207088B
:108EA00010B5044C04480A4621460AF02FFA204621
:108EB00010BD00BFC03D0020CC32070810B50D4CDE
:108EC00094F8CD200023C4F8803012B10A4AC2F8C9
:108ED000F03059F063FE20B10423022084F884307E
:108EE00010BD064BD3F878346367092384F88430C7
:108EF00010BD00BFE01B0020D03D0020D82C00207A
:108F000070B50D4D95F88430042B04460E460AD0FA
:108F1000082B06D1EB6F83420CD0FFF7CFFF02285E
:108F200001D0012070BD0823C5E91F4685F88430B3
:108F3000022070BD022070BDE01B002070B5437997
:108F4000234C002B14BF0123002384F8B03003D13D
:108F5000002384F8843070BD1E4D002195F9F72060
:108F6000032041F069F80028F2D0466830465AF0F4
:108F700083FC84F8CC000028EAD095F8F530003B5B
:108F800018BF0123304684F8CD305AF055FD0AF061
:108F90006DF938B994F8783084F88400013384F896
:108FA000783070BD59F0E4FE40B194F8783000227A
:108FB000013384F8783084F8842070BD064B84F83F
:108FC0007800D3F878346367012384F8843070BD67
:108FD000E01B0020D03D0020D82C002010B559F017
:108FE000C7FE58B10C4C94F878300133DBB2072B34
:108FF00084F8783003D9002384F8843010BD0AF057
:1090000035F90028F7D0054A0123D2F878246267A1
:1090100084F8843010BD00BFE01B0020D82C002055
:109020002DE9F041894C94F8B050002D00F0FB8000
:1090300094F88420864E874F531E082B42D8DFE8D1
:1090400003F0373AA1416B521541050059F0A6FDD6
:10905000002840F0EF80636FD6F87824FA3393420B
:109060002DD2FFF7BBFF94F88420E5E759F096FD79
:109070000028F0D0D4F880300022012B84F878202A
:1090800040F2DC80E16F94F8CD00013B0131C4E98E
:109090001F1310B16F4BC3F8F020082284F884200E
:1090A000A2F10805B5FA85F56D092846BDE8F081FD
:1090B000022384F8843059F071FD002843D194F8DC
:1090C0008420531EDBB2022B0AD8614B616FD3F8A8
:1090D00078345B1AC82BE3D9FFF780FF94F884201B
:1090E000042ADDD1E1E7236B002BD9D1584BE66E82
:1090F000D3F878346367072284F88420002ECFD019
:10910000D4E91821236F0120B047D8E7636FD6F860
:10911000781464338B42C3D2D4F82C80B8F1000F9A
:10912000F4D159F03BFD00289DD0E66E84F878809C
:10913000042384F88430002E7AD0D4E91821236FD8
:109140004046B047BBE759F0CFF90028B7D197F8B0
:10915000F930002BA3F10203B3FA83F314BF022208
:1091600001225B0984F8792084F87A3059F0BCF93F
:1091700000287FF476AFD7F84831C4F8883003234D
:1091800084F8843059F0B0F9002898D1314BC4F8F4
:10919000800093F82C61B3F82E01D3F830E1D3F8B6
:1091A00030C1D3F83071D3F8302184F88E6093F851
:1091B0003411A4F88C0093F8356184F8922093F868
:1091C0003501D3F83821C4F89420B3F83E81B3F8C0
:1091D0003E2184F89310B3F83E11C2F30B1343EA17
:1091E000182303F00F0301F00F024FEA1E6E4FEA3F
:1091F0001C4C3F0A360900F00F0003F5FA63042106
:1092000084F8990084F88FE084F890C084F8917015
:1092100084F89860A4F89A3084F89C2084F884102C
:109220002846BDE8F08184F884502846BDE8F081E6
:1092300005463AE7042384F8843036E7FAD1FFF78D
:109240003DFE94F88420531E3CE700BFE01B002045
:10925000D82C0020D03D00202DE9F04FC14C94F8CF
:10926000581183B00546C1F34001D4F8600143F0C2
:109270006FFF94F85811D4F85C01C94301F0010163
:109280006F1E43F065FFFBB20193002D00F0D0800C
:10929000B54EDFF8DC82B54D4FF01009D4F860010F
:1092A00043F03AFFD4F85C0143F036FFB4F868317C
:1092B000002B40F04E8194F86A11D4F86C0143F011
:1092C00047FF4FF0FA0A4FF47A710120D8F80430C2
:1092D000C3F30803002B40F00F81EFF31183002B41
:1092E00040F00A81D6F87824D5F808C0D6F878344A
:1092F0009A42F7D1D4F890319C45F3D8D4F88C71C8
:1093000001FB07F3A3EB0C03B3FBF7F301FB023202
:10931000D8F80430C3F30803002B40F0AB80EFF320
:109320001183002B40F0A680D6F87834D5F808B029
:10933000D6F87874BB42F7D1D4F89071BB45F3D816
:10934000D4F88C7101FB07FCACEB0B0CBCFBF7FCFD
:1093500001FB03C39B1AB3F57A7FD9D3BAF1010A93
:10936000B4D1D4F8600143F0D7FED4F85C0143F0E7
:10937000D3FEB4F86831002B40F0DF8094F86A1116
:10938000D4F86C0181F0010143F0E2FEFA204FF4C1
:109390007A714FF0010CD8F80430C3F30803002BA6
:1093A00040F08980EFF31183002B40F08480D6F8E1
:1093B0007824D5F808E0D6F878349A42F7D1D4F872
:1093C00090319E45F3D8D4F88CA101FB0AF3A3EBAE
:1093D0000E03B3FBFAF301FB0232D8F80430C3F3F7
:1093E000080343BBEFF311832BBBD6F87834D5F8D1
:1093F00008B0D6F87874BB42F7D1D4F89071BB4569
:10940000F3D8D4F88CA101FB0AFEAEEB0B0EBEFB29
:10941000FAFE01FB03E39B1AB3F57A7FDDD3013833
:10942000B9D1019B5F1EFBB2FF2B01937FF436AFD6
:1094300003B0BDE8F08FEFF3118A89F31288AF68AB
:109440002B68DB0344BFC4F888C1AF68D6F8783412
:10945000D4F888E15FFA8AFA8AF31188D4F88CA1EB
:10946000734401FB0AFEAEEB070EBEFBFAFE01FBE6
:1094700003E3D0E7EFF3118E89F31288D5F808B033
:109480002B68DF0344BFC4F88801D5F808B0D6F8CC
:109490007834D4F888C15FFA8EFE8EF31188D4F840
:1094A0008C71634401FB07FCACEB0B0CBCFBF7FCC1
:1094B00001FB03C34EE7EFF3118E89F31288D5F851
:1094C00008A02B68DA0344BFC4F888C1D5F808A007
:1094D000D6F87834D4F888215FFA8EFE8EF311889E
:1094E000D4F88CE11A4401FB0EF3A3EB0A03B3FB9F
:1094F000FEF301FB023270E7EFF3118C89F312885F
:10950000D5F808E02B68DB0344BFC4F88801D5F820
:1095100008E0D6F87834D4F888215FFA8CFC8CF314
:109520001188D4F88C711A4401FB07F3A3EB0E03E6
:10953000B3FBF7F301FB0232EAE6D4F88431002BE7
:109540003FF424AFD4F87031C3F800A084F881A1AF
:109550001CE7D4F88431002B3FF4B3AE40F0B8FAE6
:10956000AFE600BFD03D0020D82C002010E000E086
:1095700000ED00E02DE9F04FBD4CBE4E94F85811BF
:10958000D4F86001DFF8F482BB4D83B0C1F3400131
:1095900043F0DEFD94F85811D4F85C01C94301F0A2
:1095A000010143F0D5FD052301934FF01009D4F8D4
:1095B000600143F0B1FDD4F85C0143F0ADFDB4F8B7
:1095C0006831002B40F04C8194F86A11D4F86C019A
:1095D00043F0BEFD32274FF47A710120D8F80430F1
:1095E000C3F30803002B40F00F81EFF31183002B2E
:1095F00040F00A81D6F87824D5F808C0D6F8783437
:109600009A42F7D1D4F890319C45F3D8D4F88CE144
:1096100001FB0EF3A3EB0C03B3FBFEF301FB0232E1
:10962000D8F80430C3F30803002B40F0AB80EFF30D
:109630001183002B40F0A680D6F87834D5F808B016
:10964000D6F878C46345F7D1D4F890C1E345F3D890
:10965000D4F88CE101FB0EFCACEB0B0CBCFBFEFC6C
:1096600001FB03C39B1AB3F57A7FD9D3013FB5D170
:10967000D4F8600143F050FDD4F85C0143F04CFD98
:10968000B4F86831002B40F0E08094F86A11D4F807
:109690006C0181F0010143F05BFD32204FF47A71DF
:1096A0000127D8F80430C3F30803002B40F08B8067
:1096B000EFF31183002B40F08680D6F87824D5F89C
:1096C00008E0D6F878349A42F7D1D4F890319E4524
:1096D000F3D8D4F88CA101FB0AF3A3EB0E03B3FB80
:1096E000FAF301FB0232D8F80430C3F3080343BB9A
:1096F000EFF311832BBBD6F87834D5F808B0D6F841
:1097000078E47345F7D1D4F890E1F345F3D8D4F871
:109710008CA101FB0AFEAEEB0B0EBEFBFAFE01FBB9
:1097200003E39B1AB3F57A7FDDD30138B9D1019BEE
:109730005F1E17F0FF0301937FF439AF03B0BDE85C
:10974000F08FEFF3118A89F31288D5F808B02B68EF
:10975000DB0344BFC4F88871D5F808B0D6F8783474
:10976000D4F888E15FFA8AFA8AF31188D4F88CA1D8
:10977000734401FB0AFEAEEB0B0EBEFBFAFE01FBCF
:1097800003E3CEE7EFF3118E89F31288D5F808B022
:109790002B68DB0344BFC4F88801D5F808B0D6F8BD
:1097A0007834D4F888C15FFA8EFE8EF31188D4F82D
:1097B0008CE1634401FB0EFCACEB0B0CBCFBFEFC30
:1097C00001FB03C34EE7EFF3118E89F31288D5F83E
:1097D00008A02B68DA0344BFC4F88871D5F808A044
:1097E000D6F87834D4F888215FFA8EFE8EF311888B
:1097F000D4F88CE11A4401FB0EF3A3EB0A03B3FB8C
:10980000FEF301FB02326EE7EFF3118C89F312884D
:10981000D5F808E02B68DA0344BFC4F88801D5F80E
:1098200008E0D6F87834D4F888215FFA8CFC8CF301
:109830001188D4F88CC11A4401FB0CF3A3EB0E037E
:10984000B3FBFCF301FB0232EAE6D4F88431002BCF
:109850003FF423AFD4F870311F6084F881711CE7A6
:10986000D4F88431002B3FF4B5AE40F031F9B1E6C5
:10987000D03D0020D82C002010E000E000ED00E0FA
:109880000E4B30B4DB68427801780D4CDB43C3F3F8
:109890000223C3F10403DBB202FA03F360181B01D5
:1098A00001F01F050122490903F0F003AA4080F8E6
:1098B000003344F8212030BC704700BF00ED00E0C9
:1098C00000E100E000F01F0240090123032803FA31
:1098D00002F304D004280CD0022805D07047074AB0
:1098E000116C0B4313647047044A516C0B4353646F
:1098F0007047024A116B0B431363704700380240F4
:1099000000285FD00368374A2DE9F04103F13F4456
:1099100004F57E0402EB9422012492F8C42002F0A4
:109920001F055209032A04FA05F456D0042A4FD021
:10993000022A48D08588B5FA85F0C0F11F00C0F32F
:10994000CC0603EB860600F0070082000F24306A85
:10995000944020EA04003062306A01FA02F20243C5
:10996000002132624FF0010E0A464FF0030C02272D
:109970000EFA02F838EA050002F101021CD118685B
:109980000CFA01F420EA04001860186807FA01F6DE
:1099900006431E609E6826EA04069E6098689860EA
:1099A000586820EA0800586058685860D86820EA6B
:1099B0000400D860D868D860102A01F10201D7D11C
:1099C000BDE8F0817047084A556C2C435464B1E7F8
:1099D000054A156B2C431463ACE7034A156C2C4302
:1099E0001464A7E7A0A3060800380240002861D04D
:1099F0000368384A03F13F4101F57E0102EB9122F1
:109A00002DE9F04192F8C42002F01F04520901210F
:109A1000032A01FA04F158D0042A51D0022A4AD06C
:109A20008588B5FA85F2C2F11F02C2F3CC0403EBBC
:109A3000840402F00702216A92000F20904021EA7C
:109A400000012162206A0C2101FA02F20243002186
:109A5000226208464FF0010E4FF0030C02270EFA67
:109A600000F838EA050200F101001DD11C680CFA6B
:109A700001F224EA02041C601E6807FA01F4344370
:109A80001C609E6826EA02069E609E6816439E60E1
:109A90005C6824EA08045C605C685C60DC6824EA5A
:109AA0000202DA60DA68DA60102801F10201D6D128
:109AB000BDE8F0817047084A546C21435164AFE718
:109AC000054A146B21431163AAE7034A146C21432E
:109AD0001164A5E7A0A306080038024030B503785A
:109AE000012B85B0044637D0022B27D1836841F083
:109AF000800113B118689B8843836068858940F2B0
:109B0000E9330589013B15F0020F9BB219D089B2E8
:109B1000818140F2E9330189013B11F0010F9BB2D1
:109B200017D08389012300215BF086FAA368E3B193
:109B30001A689B881383012005B030BD002005B052
:109B400030BD002BDDD1039244F050FE6068039AD3
:109B5000E8E7002BDFD1F6E700920A46417990F959
:109B600004005BF00DFE05B030BD0120E7E700BF4B
:109B700058B183884FF00042B3FA83F332FA03F30B
:109B800003D002490A6813430B607047003C014050
:109B9000134B0268196821EA02011960596821EA29
:109BA0000201596019680A431A609968026821EA3B
:109BB00002019960D96821EA0201D960417910292E
:109BC00007D001F1804303F59E3319680A431A60F8
:109BD0007047996811439960D9680A43DA60704701
:109BE000003C0140002864D0F0B58388B3FA83F3C9
:109BF000202B0A4685B00446C3F11F0143D02D4DEA
:109C00002D4E05EB81037718C3F89421002197F8B6
:109C1000CC703FF04FF9B4F804C02268274CBCFA6E
:109C20008CFCCCF11F0303F0FC0101F1804101F534
:109C30009C3103F0030398004FF00F0E02F13F43F5
:109C40008A680EFA00FE22EA0E0203F57E038A609D
:109C5000C3F38723834088684FF0004222FA0CF256
:109C600003433D448B6002A8626101234FF400610D
:109C70008DF80E300292ADF80C10FFF789FF95F8C1
:109C8000D431F02B01D805B0F0BD3E44F02196F858
:109C9000DC308DF8043003224FF4807301A885F87E
:109CA000D4118DF80520ADF80630FFF7E9FD05B0B9
:109CB000F0BD7047D03D0020A0A30608003C014045
:109CC00010B4B8B10D4CD4F8DC31102B05D15DF8CF
:109CD000044B052100203FF0D5BB03EB4302224497
:109CE00082F8E11101210B4482F8E00182F8E211CF
:109CF000C4F8DC315DF8044B704700BFD03D002054
:109D0000C0782021DCE700BF2DE9F04FDFF87CA30D
:109D10002DED028B9AF824120022CAE98522CAE9A5
:109D2000872297B0CAF8102219B19AF825228AF82A
:109D300010229AF826221AB19AF827228AF81F22AE
:109D40009AF82A221AB19AF82B228AF81A229AF83B
:109D500028221AB19AF829228AF815229AF82C3268
:109D600005935A1ED3B257B204937B1C00F0AA800D
:109D7000BC4ABD4E52F83780029602EBC702002360
:109D80001279019308EE102A1D463446994626782A
:109D90003946304645F040F983463046BBF1000F66
:109DA0001ED042F0D9FEEA1D1321D2B220B14FF0ED
:109DB000000E827180F807E03FF07CF8207845F0D3
:109DC00055F94FF0070309F1010223714FF0010328
:109DD00084F802906070CDF804B05FFA82F9E37005
:109DE0000135042D04F10504D1D118EE100A029EAC
:109DF000CDF80C90FFF766FD9C499D4A48680240EB
:109E000042F440324A600FB9019B5BB9994C48203B
:109E1000FFF758FD204602215BF07EFEA26842F06B
:109E20000102A2609148934A4168BAF82E4241F477
:109E300000014160516821F480515160916B21F41F
:109E4000401141F480119163D16841F46001D16007
:109E5000956B85F44011C1F3015101EB81011F2085
:109E600000FA01FC25EA0C0C112505FA01F141EA82
:109E70000C019163D16841F0E061D160956BC5F34D
:109E80000151C1F10401C9B201EB810188404FF0D9
:109E9000120C25EA00000CFA01F108439063E4B1CA
:109EA000BAF83012CAF83842A1B1BAF83222CAF868
:109EB0003C1262B1019B7048521A90FBF2F2CAF850
:109EC00040226BB917B0BDEC028BBDE8F08F6B4A36
:109ED0001288EFE76A4A1188E7E76A4A1488DFE7E1
:109EE000404603995BF018FE5F4B012003F1140913
:109EF0000723F278441CE4B252B375783279A5F1A5
:109F00000A0101EB410105EB450C092D03FA01FEA5
:109F100003FA0CFB02FA01F140F28E80D8F80C2013
:109F200022EA0E0E41EA0E01C8F80C10421E02EBA6
:109F300082021F21062801FA02FC05FA02F261D80A
:109F4000D8F8341021EA0C010A432046C8F834201E
:109F50000536B145CDD1D8F80820049942F40072F5
:109F6000C8F80820D8F8082042F48072C8F8082001
:109F7000D8F80820574442F00102C8F8082097F9A1
:109F80003422022040F058F8044600289AD0406855
:109F900059F072FC059A062159F080FC60680AF0BD
:109FA000A1F907A80AF060F9039EA368364A07934F
:109FB000012E8CBF4FF48060002000230D9008F12B
:109FC0004C054FF40060089509920A934FF4807293
:109FD0000C930E904FF4003360680B9607A94FF472
:109FE0000055CDE90F5211930AF050F962681368D9
:109FF00043F001031360D8F8083043F08043C8F8F9
:10A0000008305FE7C11FA0F10D0201EB81014FF0A5
:10A010001F0E02EB82020C280EFA01FC0EFA02F06F
:10A0200005FA01F113D8D8F8302022EA0C021143C6
:10A030002046C8F830108BE7D8F8101002FA0CF25E
:10A0400021EA0B0B42EA0B02C8F810206EE7D8F8A1
:10A050002C1005FA02F221EA00010A432046C8F852
:10A060002C2075E784A40608E03F0020002301406F
:10A07000E030FCFF00200140803801002E7AFF1FF5
:10A080002C7AFF1F2A7AFF1F14400020D03D0020A9
:10A09000F8B5264E00EBC00406EB8404D4F8505209
:10A0A000002D36D094F861C20CF0FF07BCF1000F10
:10A0B0002FD149004FF0010CC9B284F8621284F824
:10A0C000632284F865C284F8667284F864C284F8F6
:10A0D00061C284F86072AA88C4E99A33940502D5F3
:10A0E00001273846F8BD2B88D9050CD44FF480538E
:10A0F00001E0013B10D02A889205FAD42B889BB24C
:10A1000043F480732B80AB889BB243F44073AB80E5
:10A11000E6E700273846F8BDB6F8B83201339BB2FF
:10A12000A6F8B8325BF0AAF8DBE700BFD03D00200C
:10A1300070B5464E96F8BA4204EB440306EBC303EF
:10A14000650093F8BC32032B6ED8DFE803F0592981
:10A150001E02254406EBC505D5F8C002002870D1C3
:10A1600096F81C339C425FD0013404F00302934202
:10A1700086F8BA2258D002EB420406EBC40402234C
:10A18000C4F8C00284F8BC3270BD2B1906EBC303BF
:10A19000D3F8C02272B1013AC3F8C022002070BDCA
:10A1A0002B1906EBC303D3F8C022002AF3D10222F5
:10A1B00083F8BC22254406EBC50595F8C832013B5F
:10A1C000DBB285F8C8328BBB214B96F81C63D3F801
:10A1D0003012D5F8C402621C02F003024B1E0324A5
:10A1E000B242034485F8BC42B3FBF1F0C5F8C002AB
:10A1F0001AD0994218D80138C5F8C002012070BDA4
:10A2000044F014FE80B1124B2C44D3F8302206EBFC
:10A21000C404012102F51C5384F8BC120F33B3FBB4
:10A22000F2F3C4F8C03270BD012070BD084BD3F802
:10A230003022012002F2E733B3FBF2F3C5F8C0325B
:10A2400070BD0138C5F8C002002070BDD03D0020AF
:10A2500098010020054B93F81D23002AFBD1D3F869
:10A26000803E03491B6801F10C001847D03D0020D7
:10A27000F04000202DE9F84F3249DFF8D4B091F8D2
:10A28000F91001240229074619461046CBF82C4044
:10A290004FF000022C4C1D4618BF7F02FDF7B0FEA8
:10A2A0002A4B63626B02A362E36A40F2FF5943F0F8
:10A2B00093034FF400704FF48A62E3620121C4F803
:10A2C0003890A0601020E26058F05AFA012D40F258
:10A2D00051434E46C4F83890CA4640F252488EBFA9
:10A2E0004FF0120998464FF011090A25C4F838A01A
:10A2F0000121A7604846C4F80C8058F041FA034693
:10A300004FF0000C40F2774201213720A6632BB9B1
:10A3100000231846CBF82830BDE8F88FA663C4F8B0
:10A3200008C0E26058F02CFA013DA6630028EFD087
:10A3300015F0FF05DAD10346CBF82C50CBF82830C6
:10A34000BDE8F88FD03D0020002C014000E1F5056C
:10A35000E01B00202DE9F843DFF8748098F8845062
:10A36000042D0446894617461E4608D0082D02D003
:10A370000020BDE8F883FEF7A1FD0228F8D10123F3
:10A380004A4620460021FFF775FF68B1FEF726FE1A
:10A39000D8F86C40002CEBD00022D8F87030D8F8F8
:10A3A00064101046A047E3E7084BC8F86090D3F864
:10A3B0007824C8F864400523C8E91B76C8F87420DF
:10A3C00088F884300120BDE8F88300BFD82C002035
:10A3D000E01B00202DE9F84F2F49DFF8C49091F8D9
:10A3E000F9101E4602292D4B07464FF0010418BFF5
:10A3F0004702012E40F259481C6398BF4FF48B6806
:10A400003B469346474640F2FF55B0468CBF4FF05F
:10A41000190A4FF0180A0A241E4640F2FF53C9F8E1
:10A4200038300121C9F808605046C9F80C7058F05E
:10A43000A7F903464FF0000C40F277420121372084
:10A44000C9F83850A3B9584641460122FDF7D8FD56
:10A450004646134A134B536276029662D36A43F020
:10A460009103D3620D4B002108469962BDE8F88F35
:10A47000C9F83850C9F808C0C9F80C2058F080F95C
:10A48000013CC9F838500028DDD014F0FF04C4D1D5
:10A49000024B1C63BDE8F88FD03D0020E01B00207C
:10A4A000002C014000E1F5052DE9F047374C82B062
:10A4B00005460E461746984694F8840004280CD0AA
:10A4C000082806D1E36FAB4207D0FEF7F7FC02285D
:10A4D000F2D0012002B0BDE8F087DFF8B8A0266610
:10A4E000DAF8F0906566C9F34F210F294FEA592237
:10A4F00023D8D4F880300193FBB194F8CD00E0B1BB
:10A50000B9F5005F13D0224831464FF40072484439
:10A510005FF094FE09F50072C2F34F211029CAF8CA
:10A52000F0204FEA522202D0019B012B21D192B29E
:10A53000013A174EAD1A0B4600E001233246284679
:10A54000062601250021E766C4F8708084F868506B
:10A5500084F88460FFF73EFF0028BBD0FEF73EFD85
:10A56000E66E86B12846236F616E0022B047032055
:10A57000B0E7E26F013B01320421C4E91F2384F8F4
:10A5800084100220A6E70320A4E700BFE01B002000
:10A59000DC690020D03D002070B5284D95F8844E30
:10A5A000022C84B013460ED0012C09D10091024632
:10A5B00095F8891E95F9880E5BF0E2F804B070BD3D
:10A5C000002004B070BDD5F88C2E12B114689288AA
:10A5D0006283D5F8886EB28940F2E9343289013C51
:10A5E00012F0020FA4B218D084B2B48140F2E93460
:10A5F0003289013C12F0010FA4B21AD0B2890A4686
:10A60000304600215AF018FDD5F88C3EA3B11A68E7
:10A610009B881383012004B070BD002CDED130462E
:10A62000CDE9021344F0E2F8DDE90213D5F8886EB3
:10A63000E5E7002CDCD1F2E70120BFE7D03D0020A8
:10A6400010B50278022A044613D0012A01D0002056
:10A6500010BD2D4B90F9040083F8C42E421CF6D097
:10A660000328F4DC0A4603F6C4636179BDE81040B0
:10A670000EE5836813B11A689B88538363689889D1
:10A6800040F2E9321889013A10F0020F92B225D057
:10A6900089B2998140F2E9321989013A11F0010F2A
:10A6A00092B22BD09A899A8940F2E9321989013AFB
:10A6B00011F0020F92B21ED001229A8140F2E932CB
:10A6C0001989013A11F0010F92B20ED09B89A3684B
:10A6D000BBB11A689B881383012010BD002AD1D119
:10A6E000184644F083F86368DDE7002AE8D118468D
:10A6F00044F07CF8EBE7002AD8D1F8E7002ACBD168
:10A70000EEE7012010BD00BFD03D002010B50C4C7D
:10A7100094F8843E022B11D1D4F88C0E42F012FD35
:10A72000D4F88C0E08B12123C38001213EF0C2FB76
:10A73000BDE810400348082144F00EB810BD00BF2A
:10A74000D03D0020544C002073B50D4E05460C46FC
:10A75000FF230A46014630468DF8073044F02EF9B3
:10A7600001230DF1070245F08001304644F0EAF87C
:10A770009DF80700031B5842584102B070BD00BF4E
:10A78000544C0020094B93F8B234042B08D9053BF4
:10A79000032B08D801231A4600B1037010467047F6
:10A7A00000230122F8E700231A46F5E7D82C002001
:10A7B000F0B40D6800240CE0BCF1050F18D8A0F12E
:10A7C00037030A2B14D104EB840415F8010B03EBB7
:10A7D0004404A0F13003DEB2092EA0F16107A0F11C
:10A7E000410CF0D9052FE7D8A0F157030A2BEAD086
:10A7F0000D601460F0BC70479FED737A07EE901AFD
:10A8000020EE070AF8EE677A27EE800AFDEEC07A9E
:10A8100017EE903A2033402B00F2C780DFED6B7AC1
:10A82000B4EEE70AF1EE10FAF0EE407A0CDD9FED9F
:10A83000686ADFED686AB0EE677AB4EEE67AF1EE48
:10A8400010FA77EEC67AF6DC9FED637AF4EEC77AFB
:10A85000F1EE10FA0CD59FED5E6ADFED606AB0EEA6
:10A86000677AB4EEE67AF1EE10FA77EE867AF6D4ED
:10A870009FED5B7AF4EEC77AF1EE10FA00F38D806B
:10A880009FED587AF4EEC77AF1EE10FA44BF9FEDCF
:10A89000527A77EE677A27EEA76ADFED535A9FED7B
:10A8A000537ADFED536AA6EE257A67EE865AE6EE16
:10A8B000076AB6EE007AE5EEA67A27EE877ADFED34
:10A8C000486A70EE267ABDEEE76A16EE103A20333B
:10A8D000402B67D8B4EEE60AF1EE10FA0CDDDFED9E
:10A8E0003C5A9FED3C6AF0EE676AF4EEC66AF1EE00
:10A8F00010FA77EEE57AF6DCDFED376AF4EEE67A09
:10A90000F1EE10FA0CD5DFED325A9FED346AF0EE1D
:10A91000676AF4EEC66AF1EE10FA77EEA57AF6D41D
:10A92000DFED2F6AF4EEE67AF1EE10FA40DDDFEDAE
:10A93000276A76EEE77A67EEA75A9FED2B5A9FEDCE
:10A940002B6ADFED2B6AA5EE856A27EEA55AE5EEA8
:10A95000866AB8EE006AE5EE267A67EE867AC7EE7A
:10A96000206A0023836143610362C361B7EE006A1A
:10A9700076EE865A76EE666A86EE257A67EE277A56
:10A9800066EE876AC0ED017AC0ED037A80ED007A49
:10A9900080ED027AC0ED046A70479FED0C7A77EE85
:10A9A000677A78E7DFED137AD9E79FED127A86E7C9
:10A9B000DFED0C6AF4EEE67AF1EE10FA44BFDFED5B
:10A9C000066A76EEE77AB6E727D4D236DB0F49403F
:10A9D000DB0FC940E4CB1641DB0F49C0E4CB16C105
:10A9E000DB0FC93FDB0FC9BF92E741B99730083C85
:10A9F00015A82ABE000000002DE9F047944C82B053
:10AA000094F8C53E0190002B40F01D8194F8E83E7B
:10AA1000B4F8EA2EDFED8F6AB4F8EC9EA4F8FC9E41
:10AA200007EE103AB8EEC76AB7EE007A07EE902A42
:10AA3000F0EE475AB4F8E62EE6EE665A4FEA4905BC
:10AA40009542A6EE267AB8BF154604F56F61F8EE7A
:10AA5000E77A04F6F46267EEA67AC1ED005AAEB268
:10AA600004F6F86182ED007A0122A4F8FE6EC1EDD1
:10AA7000007A84F8C52E002B00F0E180DDED017A2C
:10AA80009FED750A754FF8EE677AADB280EE270A32
:10AA90005DF0D0F86D00B0FBF5F5012DB8BF0125D4
:10AAA000EDB2B0FBF5F39BB2804684F8005F00EE98
:10AAB000103ABBEEED0A87ED000A5DF0BBF8684B7B
:10AAC000DFED686AB9FBF0F0A3FB08384FEAD8085D
:10AAD00007EE908AF8EEE77A022886EEA77AB8BFEA
:10AAE000022084F8080F07F10C0100239FED5E1A85
:10AAF0009FED5E6ADFED5E1ADFED5E5A9FED5E2A26
:10AB0000DFED5E2A9FED5E3ADFED5E3A9FED5E4A35
:10AB100087ED027A07EE903AB8EEE77AF0EE467AE1
:10AB2000E7EE017AFDEEE76A16EE902A2032402A1F
:10AB300000F28280B4EEE17AF1EE10FA0CDDDFED86
:10AB4000536A9FED537AB0EE675AB4EEC75AF1EEEE
:10AB500010FA77EEE67AF6DCF4EEE57AF1EE10FA2A
:10AB60000CD5DFED4A6A9FED4B7AB0EE675AB4EE32
:10AB7000C75AF1EE10FA77EEA67AF6D4F4EEC67A5A
:10AB8000F1EE10FA50DD74EE677A67EEA76AF0EE28
:10AB9000624AE6EE824AF0EE430AE6EEA40AB7EE17
:10ABA000007A27EEE65A77EE677AB6EE007AE5EE9F
:10ABB000207A67EE877A0133202BE1EC017AA9D164
:10ABC00007EE905AF8EEE77AF7EE006A86EEA77A7B
:10ABD000314B324A41F2AC5741F2A851E35141F2B4
:10ABE000B85003F128076750A83341F2094107EE36
:10ABF000906A2350F8EE677A41F2A45741F2B450BC
:10AC000041F2B0536554102620251421E6532552F5
:10AC1000E15282ED007AC2EDAC7AC2EDAD7AC2EDBE
:10AC2000AE7A02B0BDE8F087F4EEE37AF1EE10FA06
:10AC300048BF75EEE77AA8E7F6EE007ABBE7184A58
:10AC400082F834321AE794F8005FB4F8FE6EB7E782
:10AC5000D03D00200AD7233C00247449D44C002066
:10AC6000ABAAAAAADB0FC9413C8C4F3EDB0FC93F00
:10AC70000100F840DB0F49C092E741B99730083C2A
:10AC800015A82ABEDB0FC9BFDB0F4940DB0FC94047
:10AC9000E4CB1641E4CB16C18CA40608DC5100209D
:10ACA000980100200848002302461178022902F189
:10ACB000060204D00133062BF7D10020704703EBC6
:10ACC000430300EB43007047181C002010B500211F
:10ACD000094C82B00846C4F8E01535F09DF9074BE1
:10ACE0000193042304F2E4500DEB0302062143F028
:10ACF000EFFD02B010BD00BFC84E00205475C52A3C
:10AD000070B5461E00F13105344614F8011F601E6F
:10AD1000801BFF29C0B201D035F07EF9AC42F4D1DE
:10AD2000A02052F0C3F90121022035F075F90E4D33
:10AD300040F2E93401E0013C05D04221284643F0CD
:10AD400079FD0028F7D16221074843F073FD1321F4
:10AD5000242035F061F92520092135F05DF9BDE8A1
:10AD60007040A02052F0A2B9AC5400202DE9F04F61
:10AD70002DED108B034697B004331593DFEDCACA4F
:10AD8000149002238A4613928B461293149C4FEA26
:10AD9000DB0604EB461202EB06103101A6EB86033C
:10ADA0004FEAC60806EB4605CDE9000100EBC303F8
:10ADB000043108F104001196204421442C01C6EB13
:10ADC000C60C0394EC00119D04944FEACC04059446
:10ADD0006C0106EB860E0294159D009C03EB461752
:10ADE0004FEACE0E02EBC6064FEACB094FF0000C3D
:10ADF00051ED01AAD3ED001A92ED007A94ED005ABC
:10AE000096ED004AD7ED007A15ED012A50ED016A62
:10AE100032EE07BA76EE840A7AEE855A31EEA70A48
:10AE20003BEE256A70EE804A76EEC46A36EE244A1E
:10AE300036EE646A05ED014A82ED006AD0ED00BA93
:10AE4000D6ED012AD3ED019A95ED00AA92ED016AA3
:10AE500097ED013A91ED00CAD4ED014A7BEEE23A5A
:10AE600036EEE19A32EE472A73EEE98A3AEE464A26
:10AE700039EE279A78EE838AB0EE428AA9EE6C8A80
:10AE8000DC44E24573EEC33AB0EE441AA8EEEC1A85
:10AE900076EEE77A33EEA97A7CEE643A77EEA17A21
:10AEA0003AEE066A7AEEC51A3CEE24AA74EECC4A53
:10AEB00039EE833A35EE6A5AF0EE639AF0EE48AA1C
:10AEC000E7EE2C9AA8EEAC4AE7EE2C4AE7EE6CAA25
:10AED000F0EE418AB0EE427AB0EE612A7BEE656A0E
:10AEE0007BEEA22A76EE4A5AA9EE2C7AA7EEAC2A7D
:10AEF000A7EEAC5AE7EEEC8A32EE83BA76EEC3BA2E
:10AF000035EEE09A75EEC07A36EE0A6A76EEE26ABF
:10AF100036EE0BAA76EE836A77EEA07A34EE423AEA
:10AF200077EE290A36EE4B6A7BEEA22A39EE000A4A
:10AF300073EEAA3A78EE244A37EE697A31EE055A72
:10AF400071EEA85A32EE044A85ED00AA82ED016A3C
:10AF50004D4441ED012A4A44C4ED006A81ED000AE6
:10AF6000C4ED017A494440ED010A4C4487ED007A72
:10AF7000C6ED003AC3ED004A80ED003A87ED014A84
:10AF8000484486ED015A4F44C3ED015A4E444B44A8
:10AF90003FF62EAF119B072B40F2C781029D149EF6
:10AFA000019B03980499059A083575190C330E9581
:10AFB000354608F108080EF10804EB18083008318E
:10AFC000083246442C1928186918AA18079305F165
:10AFD0000C030D960C940B900A91099208934FF074
:10AFE00001084FF0000E129B9E44139B03EBCE030F
:10AFF00003EBCE02109302EBCE0303EBCE010291E2
:10B0000001EBCE0101EBCE0505EBCE06D6ED007AC5
:10B010000F93AEEB8E03019106EB031303EBCE0708
:10B02000D3ED01AACDED067A019BD5ED007A97ED1F
:10B0300001BACDED057AD3ED007A029BCDED047A0D
:10B04000D3ED007A0F9BCDED037A07EBCE0CD3ED59
:10B05000007ADCED01BACDED027A0CEBCE01D2ED37
:10B06000007A109A009101EBCE00014691ED01DAD1
:10B07000CDED017A0099D2ED007A91ED01CA00EB95
:10B08000CE0000EBCE0494ED01EAD0ED01DACDED77
:10B09000007ADDE90776DDE90954DDE90B01DDE938
:10B0A0000D23C44602E000BFF304353F94ED009A3F
:10B0B00090ED00FA91ED006AD5ED007AD3ED006ACB
:10B0C00057ED014A92ED005A56ED013A96ED00AA6D
:10B0D00035EE060A73EEA65A39EE278A34EE8F7AD9
:10B0E00070EE082A75EE87EA35EE465A3EEEA26A01
:10B0F00073EEE63A06ED016AD1ED019AD2ED01FA5E
:10B10000D4ED016AD3ED011A95ED013AD0ED018A33
:10B1100097ED004A3FEEE96A35EE491A76EE660A87
:10B1200031EE271A3AEE612A75EE677A70EE830ADD
:10B130003FEEA95A74EECF9A77EE897A7AEE211A09
:10B14000B0EE42AA74EE68FAA0EEECAADC44E24546
:10B1500035EEC77AB0EE639A74EE285A38EEC44AD8
:10B16000F0EE698AA1EE6C9AE7EEAC8A36EE436A9D
:10B170007FEE644A36EE266AA0EEAC2AF0EE4A0A6A
:10B18000E7EEEC0AE7EEAC4AF0EE687AF0EE498AB8
:10B1900036EE833AE6EE6C8AE1EE2C3AB0EE6F1AA8
:10B1A000A6EE2C1A71EEE56AA6EE2C4A71EEA55AAF
:10B1B00075EE031A7EEEE22A37EE43FA75EEE1EA07
:10B1C000B0EE686A76EEC08A39EE044A7FEE86FAFF
:10B1D00076EEC86A33EE816A38EE888A73EEC13A39
:10B1E00037EE457A2CEE2E1A3FEE055A22EECC9A17
:10B1F0009DED03FA70EE266A33EE077AAFEE221A5F
:10B20000AFEE2E9A7AEE244A9DED01FA79EEA09ADD
:10B2100025EE4BAA72EE670A37EE822A6BEE087AA9
:10B22000AFEE08AAEFEE057A2DEEA63A9DED05FAEF
:10B2300067EE6D8AAFEE073AEFEE268A66EE6A2A6F
:10B240009DED00FA2AEEA00AEFEE202A6EEE02EA49
:10B25000DDED060A23EECE5AE0EEA3EA2BEEA98A34
:10B26000DDED023AAFEE060AA3EE848A24EE6B7A95
:10B270006DEE246A9DED044A2FEECD6AA0EE825A4F
:10B28000A3EEA97AE4EE2F6AA4EE246A75EEA15A21
:10B29000C6ED005A83ED001A83ED019A4E4447ED46
:10B2A000017A87ED00AA4B4480ED003AC0ED018A97
:10B2B0004F4482ED000A4844C2ED012AC5ED00EA80
:10B2C00085ED015A4A44C1ED006A81ED016A4D44A1
:10B2D00084ED008A84ED017A49444C443FF6E6AEA1
:10B2E0000E9B08330E930D9B08330D930C9B083374
:10B2F0000C930B9B08330B930A9B08330A93099B0F
:10B3000008330993089B08330893079B0833079376
:10B31000119B08F1010843457FF465AE129BDDF8EF
:10B3200044B0DB009BB2129330E517B0BDEC108B3C
:10B33000BDE8F08F30B5044683B000BF806841F0AF
:10B34000FBFE4CF2050301AA6946ADF800306068C7
:10B35000032300258DF8025059F06EFEA06841F0DD
:10B36000F1FE00BF9DF8060003B030BDF0B5BE4F42
:10B37000BE4885B0242200215EF0C1FF97F8F16538
:10B38000002E3AD1BA4C3546D4F8403D5BB39B6AA7
:10B390004BB3B848984783682BB30388DFF8CCC217
:10B3A000013B9BB26046664600213778032F06F1C9
:10B3B00006061BD001310629F7D1002201780229A7
:10B3C00000F1060000F0A5800132062AF6D1E16DF9
:10B3D000052908D0481C02FB01C2E06502200021BB
:10B3E000938010705180284605B0F0BD062303FB02
:10B3F00001414B8F013B9BB2DFE797F8F00507F562
:10B40000BF63C7F8F43510B9994C0025BCE741F08B
:10B41000A3FB0446C7F8000641F072FE054600286B
:10B42000F2D0013E022370B287F8F83543F048FBB2
:10B430000028E9D0C7F8FC050CB12023E3802046A2
:10B4400009213DF037FDD7F8F435894C986841F073
:10B4500079FED7F8F4351021586856F0DFF9864B9D
:10B46000D7F8F425C4F8602D93E803000123009079
:10B4700032208DF8041084F8643D00263EF068FA0E
