:020000040800F2
:10000000F8FF0120C17109085D72090881360508F1
:100010005D7209085D7209085D7209080000000040
:100020000000000000000000000000005D720908F0
:100030005D720908000000005D72090819030508D7
:100040005D7209085D7209085D7209085D72090830
:100050005D7209085D720908711F0408791F0408A0
:10006000811F0408891F0408911F0408C5060000A9
:10007000D9060000ED06000001070000150700008A
:10008000290700003D0700005D7209085D7209083C
:100090005D7209085D7209085D720908991F0408FC
:1000A0005D720908413604085D720908313604089A
:1000B0005136040861360408713604081116040824
:1000C0000516040845160408391604085D72090867
:1000D0005D7209083110000085110000D91200007E
:1000E000A11F04085D720908000000003D370408E4
:1000F000153704084D370408053704085107000078
:100100005D7209085D720908813604085D7209088C
:100110002D14000081150000913604087DC60808E2
:1001200065070000790700008D070000A1070000A7
:10013000B50700005D7209085D7209085D72090863
:1001400000000000000000000000000000000000AF
:10015000C9070000DD070000F1070000D516000008
:10016000791604086D1604085D7209085D720908A5
:100170005D7209085D7209085D72090800000000DF
:100180005D7209085D720908291800007D190000D8
:100190005D7209085D7209085D7209085D720908DF
:1001A0005D7209085D7209085D7209085D720908CF
:1001B0005D7209085D7209085D720908AD160408D0
:1001C000A11604085D7209085D7209085D720908CC
:1001D0005D720908E1B408085D7209085D720908DA
:1001E0005D7209085D7209085D7209085D7209088F
:1001F0005D7209085D7209085D7209085D7209087F
:100200005D7209085D7209085D7209085D7209086E
:100210005D3704086D3704087D3704085D720908EE
:100220005D7209085D7209085D720908000000002E
:100230005D7209085D720908000000005D7209081E
:100240005D7209085D7209085D7209085D7209082E
:100250005D7209085D7209085D7209085D7209081E
:100260005D7209085D7209085D7209085D7209080E
:100270005D7209085D720908D11A000000000000D3
:100280005D720908000000005D72090800000000AE
:08029000000000005D72090886
:020000040804EE
:100000004368426D30B49A61EFF31182502383F359
:1000100012884168D2B2856C0B68046D23EA05032F
:1000200023430B6082F31188436981681A68096869
:1000300022F00102D0E908541A60826A1D605C61F6
:100040005A60D0E90B429C60DA600023B0F86C2063
:1000500030BCCA620377704730B5FAB18E464FEABA
:10006000014C034600F1C005002419680C3353F815
:10007000042C43F8084C41EA0C0142EA0E02AB4260
:1000800043F80C1C43F8042CEFD1D0F8C03043EAFD
:100090000E03C0E93144C0F8C03030BD4FEA014E14
:1000A0008C46DEE710B40C4C6368002B11DD002099
:1000B00004F1080C0146DCF8AC3003F1C0025960D1
:1000C0000C339342FBD1013063680CF5867C83428C
:1000D000F1DC5DF8044B704704000020F0B5474C9C
:1000E00004EB401292F8543403B9F0BD4FF4B47CE1
:1000F000434B00264FEA401E0CFB004C9CF83A553F
:100100008CF83A6582F83A541D785A7895420DD0A9
:1001100002EB420C560003EBCC0C9CF804C00CF133
:10012000FF37012F5DD9BCF1030F55D004EB0E0052
:10013000A0F83814EFF31183902282F3128890F81C
:100140003A24DBB2B0F8381442EA4102002192B2FC
:1001500080F83A1483F311881309247883EA122370
:1001600083EA0201DCB11301C943D0F85024012411
:10017000D0F83C049BB201F00F01D2F8AC208440CF
:100180000B4302F1C000590013F4004F8BB202D1AF
:100190005168214351600C328242F4D1F0BD130109
:1001A000D0F83C44D0F8502401F00F0104F11000C5
:1001B0009BB20124D2F8AC200B43844002F1C00072
:1001C000590013F4004F8BB202D1516821435160A2
:1001D0000C329042F4D1F0BD571C07F00307AF4238
:1001E000A4D0324403EBC2030344597C00299DD0C0
:1001F00004EB0E03012283F83A2497E70400002061
:10020000A01A0024704700BF024B03EB401090F887
:100210005504704704000020704700BF0A4810F8DA
:100220004C1C81B101EB410100234438490010B45A
:100230001C4650F82320063302B114608B42F8D1DB
:100240005DF8044B70477047FC1000200A4810F816
:100250004C1C81B101EB410100234438490010B42A
:100260001C4650F82320063302B114609942F8D19D
:100270005DF8044B70477047FC1000200120704768
:10028000034B00EB400003EBC00010F8330C704749
:10029000FC1000202DE9F0431D4C14F84C3CABB38E
:1002A0000022A4F144034FF0500E1A4E4FF02C0CD4
:1002B000194F154607E053F8181B01320D6014F86A
:1002C0004C1C914222DD197C0029F4D05968FE2093
:1002D0004FEA9128A8F58018B8F1520F98BF17F887
:1002E0000800EFF311888EF31288D1F824900CFBEC
:1002F00000605FFA88F809F10109C0F88C9048693C
:1003000040F00100486188F31188D4E7BDE8F0832C
:10031000FC100020A01A0024088C090807EE900A9F
:10032000B8EE670A704700BFBCEEC00A10EE103A84
:1003300098B27047C2628161704700BF436A02464B
:100340001B681B6A5B689B7813F0010008BF50773D
:10035000704700BF0346012200205A77704700BF54
:1003600008B5D0E90B2183690B4483610AB10846C3
:100370009047002008BD00BF704700BF04307047A1
:100380000C4B93F8FC22D3F8F81202440844D2B282
:10039000C3F8F80283F8FC2293F8FC22120605D574
:1003A00093F8FC2282F0800283F8FC22024B0122A7
:1003B0001A707047A01A0024000000242DE9F84F9D
:1003C000154FD7F80053ED0A20D00026DFF84CA0D7
:1003D00007F54179B046AC19D7F8041310235246FB
:1003E0006410D1F828B04846C7F83083E102D847F6
:1003F0000F280BDD094B03F1100253F8041B0131E8
:1004000007D19342F9D12546B542E4DCE802BDE8C4
:10041000F88F661CF8E700BFA01A002440DE002415
:10042000184BD3F83813D3F83C238A1A322A15D83C
:10043000D3F850238A4200D37047D3F84023E2B167
:1004400010683231928810B44469C3F850132242C4
:100450005DF8044B18BF120482617047D3F8402343
:100460003AB193F84C031168C007928848BF120450
:100470008A610022C3F8502370473231C3F8501309
:10048000704700BFA01A0024064AD2F840333BB19F
:1004900092F84C131A68C9079B8848BF1B049361E4
:1004A00000207047A01A0024044B4FF4007C002069
:1004B000D3F86033A2F800C00B607047A01A002484
:1004C00000207047012070470120704700207047CE
:1004D0002DE9F0411C4D0FF043FF002607466968E7
:1004E0004FF48678002918DD00231C4608FB0352D0
:1004F000013392F805218B4244EA0204F6D10FF051
:100500002FFFC01BB0F5FA6FCCBF002304F001032E
:10051000B3B169681E460029E6DC0FF021FF26B161
:100520000A4B93F89023542A02D03046BDE8F0815C
:10053000B3F8982330460132A3F89823BDE8F08140
:100540003443E6B2EBE700BF04000020A01A002409
:100550002DE9F04FBD4D87B02B781BB9012007B0B6
:10056000BDE8F08F6B68BA4A002BD2F8387318DDFB
:1005700005F108040020B749D4F8F430BFF34F8FD9
:1005800003F59072C1F85C3220339342FAD1BFF385
:100590004F8FBFF36F8F01306B6804F586749842FC
:1005A000EADBAD4BAD4EA3FB0723AD4FDFF8C8A28E
:1005B0005B09A7F17C0BA6FB0326F60806EB860673
:1005C000A3EB4606F3B207EB8606059307F53873EF
:1005D000029300239946DBF864344B4540F30F81C6
:1005E000DAF81830DAF80480D3E93D540FF0B8FE99
:1005F0000122049002FA08F39A4901936118944B7E
:1006000005EB410193F8A40393F890331A46039342
:1006100005EB4003542A00F04181019A994240F2CF
:100620004481B3F800C01CEA020F00F04D81B3F81A
:1006300002C01CEA020F00F04A81B3F804C01CEAB1
:10064000020F00F04781B3F806C008331CEA020F1E
:10065000E4D10192A3EB050E99424FEA6E0E40F2EF
:100660002481A4EB0E04452C28BF452403EB44044D
:10067000A34280F01F8100259C46019AA846294686
:10068000019618881040884214D158881040814241
:1006900040F0D78098881040814240F0D480D888BC
:1006A00008331040814206D19C4207D91888104077
:1006B0008842EAD002339C4200F2A880B8F1110FC0
:1006C000019E40F2F780D8F1150200F1F3806649EF
:1006D000049C4B689E455E4BD3F8A80338BFC1F815
:1006E00004E0231A002B13DB604B03449C4200F20E
:1006F000F6805748C0F8A8334B68052B40F2ED80D0
:10070000053BDBB2524880F8A4334FF0FF334B6017
:1007100042B105FA02F2C8F11408012505FA08F8F9
:1007200048EA0205524BC5F3C43203EB8202506D16
:1007300005F01F0203EB8202516DC5F34412C5F3AD
:10074000842503EB820203EB850541EA0031536DFA
:1007500041EA03116B6D41EA032181EA112383EA27
:10076000131303F00F030F2B40F08880B1F5803F87
:1007700080F08480039B0909542B05D1344AB2F8D8
:1007800094330133A2F89433DBF86433B1F5606F2E
:1007900003F10103CBF8643300F0B380029B99812D
:1007A00097F85830059883420CD0B2683B689B1A82
:1007B0003B607B68326B9B1A7B600023B3603363C2
:1007C00087F858003B6801333B60B3680133B3607E
:1007D0004FF6FF73994205D17B6801337B60336B21
:1007E00001333363029B09F101095C375C36143332
:1007F000B9F1080F0AF1200A02937FF4ECAE01234D
:1008000001208BF8603407B0BDE8F08FA3EB0C0C2F
:10081000184833F8021C4FEA6C0C11400CF1010C23
:1008200080FB0C60A0EBEC704FF0010C0128B8BF0E
:1008300001208540804401380CFA00F09C460543B5
:100840001FE7043337E7063335E700BF0400002015
:10085000A01A002400ED00E01F85EB51CDCCCCCCDC
:1008600078110020C7FFFF7F0000002420A10700AF
:10087000088C0908565555553C040020039B542B01
:1008800033D0DBF864330133CBF86433DBF8603307
:100890004FF6FF710133CBF8603381E7204A99426C
:1008A000A2F89A03019A3FF6BCAE18B101381C4B6E
:1008B00083F8A403039B542B94D1194AB2F89633BE
:1008C0000133A2F896338DE702330192C2E6043376
:1008D0000192BFE606330192BCE6002312E70498BA
:1008E0000F4B0530C3F8A80306E70D4AB2F894335E
:1008F0000133A2F89433DBF864330133CBF864336B
:10090000C4E7074A537803EB430302EBC3034B44AA
:100910005B7C0D2B7FF442AF8023029A93773FE7F5
:10092000A01A002410B5044657F0FAF901462046F3
:1009300089B2BDE81040FFF7D1BB00BF00EB40001B
:1009400010B5084C04EBC00414ED0F7A54ED0E7A88
:10095000E7EE007AB0EE670A57F0E2F954F8443C4B
:10096000186010BDFC100020F8B5264B1A785B7893
:100970009A4242D1244E7368002B23DD002506F1F4
:100980000800224C2F46D0F8AC30BFF34F8F03F154
:10099000E002C4F8683220339342FAD1BFF34F8F9C
:1009A000BFF36F8F337813B1037F012B20D04269DF
:1009B0000135716800F586701368A94243F00103A0
:1009C0001360E0DC0FF0CCFC114BD3F86844002C32
:1009D0000DDD03F26C4303EBC4041968083333F8EC
:1009E000042CC8689C4242EA0002CA60F5D1F8BDF6
:1009F00080F8FC70FFF704FBD9E751F0D7F8002826
:100A0000B8D1F8BDA01A00240400002000ED00E0D9
:100A1000FC1000204FF0B042F8B5D2F88030D2F888
:100A200088502B4003EA0005C2F888507DB1084F7A
:100A30000126B5FA85F4C4F11F0407EB840306FA16
:100A400004F4D3F8AC0303689847A543F1D1F8BD8B
:100A5000A01A00240269C3682DE9F04712EA0309CD
:100A60002AD005460E464FF000474FF00008B9FA6D
:100A700089F327FA03F21B3BD24309EA02092A61F0
:100A8000042B16D8DFE803F03B30251A0300B36AC5
:100A9000002B3FD003F1FF3AC6F828801FFA8AFAEC
:100AA000746A34B123682046514698476468002C24
:100AB000F8D1B9F1000FDAD1BDE8F08770680028ED
:100AC000F7D0696B036889B29847B9F1000FCED1AE
:100AD000F2E7B0680028ECD0A96B036889B29847A8
:100AE000B9F1000FC3D1E7E7F0680028E1D0E96B66
:100AF000036889B29847B9F1000FB8D1DCE73069D3
:100B00000028D6D0296C036889B29847B9F1000F44
:100B1000ADD1D1E7E96A1FFA81FAC1E78069B43043
:100B200045F074BA10B590F828300446012B03D074
:100B300000230120637710BD406A03681A7B3AB92D
:100B400055F054F800F0010383F001006377F2E7F9
:100B50001B6A002BF4D0002010BD00BF38B5114D2A
:100B6000044694F82830012B05D000236377002336
:100B70000120236238BD606A03681A7B72B955F0A0
:100B800035F800F0010060770028F0D0D5F8383350
:100B9000226A9B1A002BE4DB002038BD1B6A002B65
:100BA000EDD0F3E7A01A002410B5FF22044690F818
:100BB0002810406A55F060FB0E4B2046D3F83833BE
:100BC00003F5FA732362FFF7C9FF94F82830012B6D
:100BD00000D010BD0022A021606A55F027FB94F8D8
:100BE0002830012BF5D1606A1822B021BDE81040F1
:100BF00055F01CBBA01A0024CB0700D5704710B5D8
:100C00000446FFF7D1FF94F82830012B00D010BD27
:100C100002480EF023FC636A988010BD00E1F505E0
:100C200038B504460D46FFF799FF062294F82810C0
:100C3000606A55F021FB012294F8283062779342D4
:100C400005D0064BD3F838330F33236238BDEA0A98
:100C5000D821606A55F0C6FAF3E700BFA01A002455
:100C600070B50F4D95F83B3403B970BDD5F83C64B1
:100C700004460C4BF60A9E60FFF770FF94F828308C
:100C8000012B07D0D5F838330022023385F83B24F6
:100C9000236270BD32461021606A55F0A3FAF1E775
:100CA000A01A0024000000248388002B48D02DE9DE
:100CB000F04F8DB004460026DFF8888006274FF0FD
:100CC00001090DF1070509E084F81D90D8F83833C3
:100CD0000136A2880F33B24223622ED92046FFF795
:100CE0003DFF94F828A0D4F824B0BAF1010F8DF894
:100CF0000770E9D1002302A9584602950B938DF89D
:100D000014A08DF828A0CDE9033ACDE90633CDE94A
:100D100008330EF09BF8DBF8000054F063FF94F802
:100D200028307204D821012B84F81DA04FEAD2226A
:100D3000CCD1606A55F056FAC8E70DB0BDE8F08F27
:100D4000704700BFA01A00242DE9F047404F1E460F
:100D500090B00C46BB6805469046B3EBD12F21D12D
:100D6000DFF8F090C4F30A0495F82830C4F5006069
:100D7000B04234BF87B2B7B2012B3BD0D9F8383379
:100D8000284602332B62FFF7E9FE38B195F8283088
:100D9000012B22D0384610B0BDE8F087002010B0FB
:100DA000BDE8F0874FEAD12AFFF7D8FE0028F5D03A
:100DB0004FF0FF33BB6095F82830012B42D0DFF8AD
:100DC00094902846D9F8383302332B62FFF7C6FED9
:100DD0000028E3D0C7F808A0C4E7686A54F006FF0B
:100DE000C0F3011001380228D4D82846FFF7DCFEF2
:100DF0003846D0E78DF80240240A8DF824300022CE
:100E00008DF8383003238DF8014001A96C6A8DF804
:100E10000030042320468DF8032002928DF8102024
:100E20000F92CDF804D00393CDE90786CDE90522D2
:100E3000CDE90A22CDE90C220EF008F8206854F022
:100E4000D1FE9BE752461321686A55F0CBF9B6E70D
:100E500000000024A01A0024436A2DE9F0473C4D0D
:100E6000044618680E46904654F0BCFE95F83B3494
:100E7000002B3AD0D5F84034DFF8E0A0DFF8E0905E
:100E80008AF82230C3F302238AF8213033684946B6
:100E9000304F606AC7F8AC3007F1AC02D8F80030C8
:100EA000C7F8B4300023C7F8BC300EF073FDD5F896
:100EB0004034D8F800201344C3F30A06C5F8403480
:100EC000012385F83B3406B3234BC7F8BC30637F5E
:100ED0000BB909F114094946606A22630DF0B6FFA7
:100EE000E36A6BB3206BBDE8F087A369DFF86CA001
:100EF000C5F84034C5F83C348AF84230C3F30223C5
:100F0000DFF860908AF84130C0E7D5F83C3407F14B
:100F1000D40207F1AC01606A4FEAD32CDB0CC7F8AE
:100F200008C08AF862308AF863C00EF033FDD5F845
:100F30004034D8F8002085F83B64C5F83C34C6E757
:100F4000636A186854F04EFE206BBDE8F08700BF5E
:100F5000A01A0024000000246103040840DE0024DD
:100F60000C0000245C00002433B910B51C46C36A91
:100F700020469847204610BD6EE700BF10B582B0EE
:100F80000C46019201A9049A8461C2626A460093E8
:100F9000FFF762FF02B010BD2DE9F843DDF82080B5
:100FA0000F4616460021202204461D4657F0AAFC93
:100FB000B8F1000F0CD0D8F80030B8F80A20E3815F
:100FC0001B0C2382D8F804306282E3821B0C23833B
:100FD000384655F0F5F9F30619D4431EB8B107EBBE
:100FE000000C01E0013B12D31CF801EDBEF12E0F05
:100FF000F8D1C01A03F10109421EB944032AA8BF5F
:101000000322082BA8BF082390461A4606E00828AA
:101010000246B9464FF00008A8BF08224FF020331F
:10102000394620462360636057F0F8FB04F108035B
:101030001748424649462081A072184657F0EEFBF9
:1010400004F1FF3C0346E21D1CF8011FA1F1610EF3
:101050002039BEF1190F98BF8CF800106245F3D10A
:10106000184604F10B0110F8013BA3F16102203B8B
:10107000192A98BF00F8013C8842F4D118236583EF
:101080002D0CE6722373099BA582E361BDE8F8830A
:10109000202020002DE9F04FDFF88C9487B0D9F89C
:1010A0003803C9F83C03002B00F0DA8013441546DE
:1010B00001F1200601F5FE77DFF870A403931FE02D
:1010C000002D63D0D9F86C23AA4200F0CD80D9F866
:1010D0006823AA4200F00281D9E9DC21AA424CD857
:1010E000A94200F2CF81691A18464FF023FF01355B
:1010F000039B06F5007607F500779D4200F0B0806F
:10110000D9F87843A6F12003AC42D9D82C1BD9F8E2
:101110008883E208D8F8301004F0070402328A42CB
:1011200003D3D8F838108A420DD9414610460593AA
:1011300004924FF0CFFE8046DDE90423002800F042
:10114000C181C9F8880398F80410002940F03F8154
:10115000D8F828B0BBF1000F00F0AD811846D8F8E0
:1011600030304FF40071D21AD8F80C3004EBC202C0
:1011700003EB42224346D847B9E7A942B3D9184600
:101180004FF40072002157F0BDFBB0E74FF400723E
:101190002946184657F0B6FB80220346D94886F800
:1011A0009E210C2286F8A221D9F86813D9F8602371
:1011B0008142C3F8C611C3F8CA2100F36881D24B3B
:1011C000013AD24C83FB0103C81784FB01C40B44D2
:1011D000C0EB6313C0EB2430CD4C84FB03C4C3EBE2
:1011E000831C86F8A1018010A1EB0C011C4420F0A7
:1011F0003F000131014386F8A011D917C1EBE4117A
:101200000B4486F89F31BF4B9A4200F34C81BE4B92
:10121000BE4883FB0213D11780FB02401344C1EB8D
:101220006313C1EB2031BA4880FB0340C3EB831446
:1012300086F8A5118910121B184421F03F010132D4
:101240000A4386F8A421DA17C2EBE010034486F8BB
:10125000A331552386F8DE31AA2386F8DF3146E72D
:10126000002007B0BDE8F08F4FF0FF320024A6F158
:101270001C00049383F8EC21214683F8ED2183F8C8
:10128000EE2183F8EF2152221A705A7061229A706F
:1012900083F8E7214122DA7083F8E621722283F88D
:1012A000E42183F8E521D9F88023C3F8E8214FF43D
:1012B000F07257F027FB049B5522C6F8D041C6F8C0
:1012C000D441C6F8D84183F8FE216FF0550283F867
:1012D000FC4183F8FD4183F8FF2108E78D4C002194
:1012E0004FF40072184657F00DFB03464FF0000C08
:1012F000022203CC46F8191CEB2146F81D0C0820ED
:1013000006F8201C582106F81F1C902106F81E1C08
:10131000F8211A7383F80BC006F8130C9A7383F83C
:101320000FC006F8102C06F80B1C83F82C20D9F8F7
:101330006813D9F8602383F819C0521A83F81BC0C8
:1013400083F81DC01A6283F81EC083F81FC083F89B
:101350002DC083F82EC083F82FC0D9E9DC12521AB1
:1013600080215A623F221A764FF0FF329A763E224F
:101370001A77012283F8302083F831C086F82010D4
:101380002921654B86F82210942186F8260086F8DC
:1013900023100E21614A86F824100D2186F82510AD
:1013A000552186F8DE11AA2186F8DF1103CBC6F895
:1013B0002B101988C6F827009B78A6F82F1086F8FE
:1013C000313003CAC6F83200C6F836108FE64FF443
:1013D00000721846002157F095FAD8F840200346CD
:1013E000002C76D1002A00F0A380D8F830301122EA
:1013F0004B49CDE90044FFF7CFFDD8F840301A6CD7
:10140000002A00F0A1801B6BCDE900441122454960
:1014100030464FF4E07BFFF7BFFD06F12003D8F81C
:101420004480B8F1000F3FF462AE03F120049B4406
:10143000049523464446984610E05CF81C1B0025A2
:10144000236BCDE900C5FFF7A7FDABEB0803A46C48
:1014500008F12008002C18BF1F2B51D92379A4466E
:1014600004F11C0E1122A8F12000002BE5D16279B5
:101470002569236B42F021022168CDE900E5FFF7E1
:101480008BFDE2E7A91A18464FF054FD2FE6FF2323
:10149000013A86F89F3186F8A13186F8A031194BC0
:1014A0009A427FF7B4AEFF2386F8A33186F8A531C0
:1014B00086F8A431CDE6594618464FF4007257F02D
:1014C00021FA14E6A6F1240343F804AF9F42FBD1AE
:1014D0000DE6002AD8F844800CBF01220222C2EB9C
:1014E0000414B8F1000F3FF402AE4246013C926C86
:1014F000002C01DD002AF9D190464FF4007B90E7E3
:10150000049DF4E5FF03FB008320088297554541C5
:1015100081808080BC090A08C8090A08D4090A0821
:10152000B4090A08B8090A08A01A0024DEADBEEF03
:1015300023460822D9F864134FF4F07BCDE9004428
:10154000FFF72AFD33466AE72346CDE900445DE70D
:1015500010B4294C94F88C346BB3D4F89424904292
:1015600035D0012B27D0D4F87025824237D0022BFA
:1015700021D0D4F84C26904233D0032B1BD0D4F882
:10158000282790422FD0042B15D0D4F8042890425D
:101590002BD0052B0FD0D4F8E028904227D0062B73
:1015A00009D0D4F8BC29904223D0072B03D0D4F81B
:1015B000982A824211D0DC22591C02FB034284F893
:1015C0008C14C2F8940418465DF8044B704700234D
:1015D000DBB25DF8044B184670470723F8E7012398
:1015E000F6E70223F4E70323F2E70423F0E70523F9
:1015F000EEE70623ECE700BFFC1000200020704758
:10160000704700BF014845F0CDBF00BFFC1E00245D
:10161000084810B4D0F85C34D0F8904499691A683E
:101620002CB1234600F25C405DF8044B18475DF88E
:10163000044B7047A01A0024014845F0B3BF00BF17
:10164000601F0024084810B4D0F8C034D0F8F44427
:1016500099691A682CB1234600F598605DF8044B2F
:1016600018475DF8044B7047A01A0024014845F064
:1016700099BF00BFC41F0024084810B4D0F8243517
:10168000D0F8584599691A682CB1234600F22450C5
:101690005DF8044B18475DF8044B7047A01A00240E
:1016A000014845F07FBF00BF28200024084810B43F
:1016B000D0F88835D0F8BC4599691A682CB1234612
:1016C00000F5B1605DF8044B18475DF8044B7047B6
:1016D000A01A00242DE9F04705466420C44C82B0CE
:1016E00005FB00F02618D6F85C04002800F0AC805A
:1016F000FF2A06F25C4700F0E48096F89DC4BCF136
:10170000200F40F0D4801FFA83FC002B00F05281A0
:1017100096F89C34012B00F0CA80012386F89C3493
:10172000D4F8D46505E0D4F8D4359B1B192B00F20E
:101730003081836913F40048F5D14FF0640A0A9BA5
:1017400000964FEA41090AFB054A38464946CAF85D
:1017500080342223CAF890848AF89D3440238AF882
:101760009E340A23CAF8A084AAF886C450F0F8FA76
:10177000002840F03982BAF886349BB2FF2B00F281
:101780002981BAF88634DAF85C149BB299484A6821
:10179000AAF88434DBB2024049EA03431343964A71
:1017A0001A434A604FF06408944AFF20DFF858A2B9
:1017B00008FB0548D8F85CE405E0D4F8D4359B1B59
:1017C0000A2B00F26F81DEF8183013F0040CF4D00D
:1017D000DEF82430D8F880140B70B8F88634B8F8E6
:1017E00084C4013B0CF1FF3C9BB21FFA8CFCA8F8AF
:1017F0008634D8F88034A8F884C40133C8F880341B
:10180000B8F886349BB2BCF1000F02D1002B40F037
:101810008181B8F886349BB2002BCBD13146384653
:1018200050F0DCFA0346002841D1D8F85C2420248B
:101830007348D461516801400120516088F89D448B
:1018400088F89C3488F89E3402B0BDE8F087D4F85C
:10185000D425A2EB0C020A2A00F2D8808B6913F07F
:101860002003F4D020231022CA61CB618B69980732
:1018700001D500238B628B69DA0703D48B6943F0AF
:1018800001038B614A6864235D4E002003FB05451C
:10189000324020264A60D5F8A03485F89C0443F0F5
:1018A0000403C5F8A03485F89D6485F89E04B4F857
:1018B000D835002001339BB2A4F8D83502B0BDE87A
:1018C000F08796F89D24202AF1D196F89C24012ACD
:1018D000EDD00122D4F8D4C586F89C2405E0D4F8D4
:1018E000D425A2EB0C02192A53D8866916F40046B7
:1018F000F5D14A0064214FF0220E1FFA83F801FB54
:1019000005410A9B81F89DE44FF0100EC1F8803428
:1019100081F89EE4C1F8A064A1F88684B1F8863409
:10192000C1F890649BB2FF2B49D8B1F88634314E90
:101930009BB2A1F88434DBB2416842EA03433140F0
:101940000B432D491943416064262C484FF0FF0892
:10195000DFF8B4E006FB0546B6F886349BB2002BF0
:1019600000F02A81D6F85C140BE08B6913F0200993
:1019700040F0A880D4F8D435A3EB0C030A2B00F276
:10198000BB808B695B0751D48B69DB063FF566AF83
:10199000EBE764232021002203FB0545D5F8A034A2
:1019A00085F89C240B43C5F8A03485F89D1485F870
:1019B0009E247CE74FF40073C6F8A03477E74368B1
:1019C0000C4E33400F4E13431E43FF23A1F88434C3
:1019D0004660B9E7DAF85C14FF230648AAF88434B5
:1019E0004B68084A034043EA09031A434A60D9E6B0
:1019F000A01A0024009800FC00240082009C00FC37
:101A000000E800FE0024FF810000FF016422202185
:101A100002FB0545D5F8A02485F89C340A43C5F897
:101A2000A02485F89D1485F89E3440E7496AD6F8CD
:101A300080341970B6F88634B6F88414013B013945
:101A40009BB289B2A6F88634D6F88034A6F88414FE
:101A50000133C6F88034B6F886349BB200297FF48F
:101A60007BAF002B3FF478AFD6F85C9405E0D4F858
:101A7000D435A3EB0C030A2B7BD8D9F8181011F03E
:101A80008001F4D0B6F886349BB2FF2B60D9D9F828
:101A90000430A6F884840340134343EA0E03C9F8D4
:101AA000043059E76423202203FB0545D5F8A03410
:101AB00085F89CC41343C5F8A03485F89D2485F8A7
:101AC0009EC4F4E68B695B0703D5B6F88434002B1B
:101AD000ACD12020464AC8614B68134000224B60BD
:101AE000642303FB0545C5F8A02485F89C2485F8EC
:101AF0009D0485F89E24DAE66423202203FB054535
:101B0000D5F8A03485F89C941343C5F8A03485F823
:101B10009D24CCE6D8F85CE404E0D4F8D4359B1BD3
:101B20000A2BBFD8DEF8183013F0800CF5D0B8F8C7
:101B300086349BB2FF2B2CD9DEF80430A8F884043D
:101B4000134043EA090343EA0A03CEF8043060E68F
:101B5000B6F88634D9F804109BB20140A6F8843454
:101B6000DBB242EA03430B4343F00073C9F804308D
:101B7000F2E66423202203FB0545D5F8A03485F85E
:101B80009C141343C5F8A03485F89D2485F89E1451
:101B90008DE6B8F88634DEF804C09BB20CEA020C7D
:101BA000A8F88434DBB249EA034343EA0C0343F068
:101BB0000073CEF804302CE66146384650F00EF93A
:101BC000034600287FF473AED6F85C24202408482E
:101BD000D461516801400120516086F89D4486F827
:101BE0009C3486F89E342FE68AF89C845FE600BF1A
:101BF00000E800FE114A037A0168D35C10B4CC58A7
:101C0000CA1824F00104CC501368DB07FCD4037D10
:101C10001F2B09D9203B20225DF8044B02FA03F365
:101C200043F01803CB60704720225DF8044B02FAA2
:101C300003F343F018038B60704700BF840A0A085F
:101C4000F8B507680646D7E90454A0612B7D1F2B21
:101C500049D9203B2022286802FA03F343F01803F5
:101C6000C360237D1F2B48D92022203B02FA03F3B7
:101C7000226843F01803D3606368002269680A6031
:101C80001A601A6842F010021A60BA69297A51F093
:101C9000F7FCFA69217A206851F0F2FC33682E686B
:101CA0001A6A5B6891685868184A024020680A43BB
:101CB00017495A602A7A8D5C725942F001027251BA
:101CC000227A895C425842F0010242509A6842F4FA
:101CD00040429A601A6842F001021A601A6842F49F
:101CE00000721A60F8BD2022286802FA03F343F05C
:101CF00018038360237D1F2BB6D8202202FA03F33A
:101D0000226843F018039360B6E700BF0000FFFFAE
:101D1000840A0A0810B1036882889A61704700BF7C
:101D200018B1838802681B049361704708B51D20B1
:101D30000DF03AFF08B183794BB11E200DF034FF4E
:101D400008B1837903B108BD5523C38008BD55236D
:101D5000C380F2E7D3B20F2B2AD84FF0000C10B497
:101D60006346144C04E001332A2B1DD014F803CF32
:101D70006045F8D194F801C08C45F4D10E4C03EBCA
:101D800043030E4902EB420C23445DF8044B01EB84
:101D90008C0201F5927093F8D63000EB8C00C2F8FB
:101DA0002C3182F82431704700205DF8044B7047D5
:101DB00000207047DC8C0908088C0908000000240A
:101DC00010B40C4C002304F2DC5C01E0152B0CD0A9
:101DD00003EB430201331CF802108142F6D1224486
:101DE0005DF8044B92F9DE0570474FF0FF305DF867
:101DF000044B7047A01A002430B40023114C124D3C
:101E000004E001331A2B1AD054F8085FA842F8D125
:101E100025798D42F5D10D4C02EB42050C4904EBBE
:101E2000C30301EB850201F5927093F8593100EB81
:101E30008500C2F82C3182F8243130BC7047002074
:101E400030BC70475C8D090800000140088C09080F
:101E500000000024F0B1002310B504460E4894F8A9
:101E600004E000F2DC5C01E0152B11D003EB43022F
:101E700001331CF802107145F6D1024461792068E3
:101E800092F9DE25D3B20F2B02D8BDE81040B3E79C
:101E9000002010BD00207047A01A00240138074B15
:101EA000074A00EBC00003EB8000D0F8E401904249
:101EB0000CBFA020A12050F061B800BF000000249A
:101EC0000000024001382DE9E84100EBC000134D4D
:101ED0001E46134B05EB800590460F46D5F8E401EE
:101EE00098420CBFA020A12050F048F8B5F9FA01A3
:101EF0004FEA9811C5F8F471C5F8FC614FF0BEFFC8
:101F0000B5F9FA31002B07DB03F01F0001225B0952
:101F10000449824041F82320BDE8E8810000002404
:101F20000000024000E100E0800AA0F58010522885
:101F300006D8044B1B5C0D2B02D8034AD0567047C1
:101F400000207047088C0908740A0A0870B1838859
:101F50004FF00042B3FA83F332FA03F306D04FF0A6
:101F6000B041D1F880201343C1F88030704700BFE2
:101F70000120FEF74FBD00BF0220FEF74BBD00BFA2
:101F80000420FEF747BD00BF0820FEF743BD00BF99
:101F90001020FEF73FBD00BF4FF47870FEF73ABD4A
:101FA0004FF47C40FEF736BD30B1036882881B6970
:101FB0001A4214BF01200020704700BF70B50C46C4
:101FC00086B00546164640B101680E4B0E4A0B44DA
:101FD0009B0A02EB4303B3F824024FF0CFFF04F057
:101FE0001303AA8801A90293C4F341132868C4F318
:101FF000810401920596CDE9033445F08DF906B0D0
:1020000070BD00BF0000FEA7088C090800B1D5E72D
:1020100070472DE9F84FC34F6423044603FB007358
:10202000D3F84464002E00F06D81D3F84CA4BAF1CB
:10203000000F04D09AF80630002B40F0638164232F
:1020400003FB0473D3F850541DB1AB79002B40F05F
:102050005981631CDBB2BAF1000F04D015228AF853
:1020600007308AF8062015B11622EB71AA714FF0DD
:102070006409308B4FF082FF294609FB04F9504672
:1020800053F0E0FD504607EB090898F8563498F8ED
:102090005424002B14BF3E211E21FFF7B7FF98F8F0
:1020A00056342846A04D002B98F855244D44DFF8AF
:1020B000989214BF3E211E21FFF7A8FF4C22002159
:1020C000284656F01FFCD8F84434984A5B6893427F
:1020D000C8F85C34DFF8748240F0168145F0D2FD18
:1020E000D9F82030C3F302139FED917A9FED915AF6
:1020F000B0EE084A4344F7EE003A4FF0000E40F2CB
:10210000145893F8383203F01F03D840642307EEC5
:10211000900A03FB0473F8EE677AB3F85894C7EE9D
:10212000275A07EE909A9FED847AF8EEE77AC7EE89
:10213000274ADFED827AB0EE007AE5EE877AA5EEE7
:10214000875A25EE844A37EE856A74EEE72AB9F598
:10215000C87F0EF1010CD5BF642332234FF4967073
:10216000782007EE90CAD8BF4FF4167A0344C8BF50
:102170004FF4827AB8EEE77AD8BF414607EE903A3C
:10218000C8BF4FF4FA7127EE257A01EB0A03F8EE87
:10219000E76A86EE873A73EE636AFCEEE67A17EE3C
:1021A000902A07EE90AAB8EEE73A07EE903AF8EEDA
:1021B000E77A23EE243AC3EE276A36EEC53A72EE8A
:1021C000E66AC3EE077A77EEE37AFCEEE77A17EE7B
:1021D000901AC6EE877A77EEE37AFCEEE77A17EE8E
:1021E000903A03F1020A0AEB010BF0EE466A07EEA1
:1021F00090BAF8EE677AE7EE276AF4EEE64AF1EE77
:1022000010FA00F388805FFA82FABAF10F0F00F239
:102210008480323807EE900AF8EEE77A77EEC47AD7
:10222000C7EE876AFCEEE67A17EE900A5FFA80FA4C
:10223000BAF10F0F71D81FFA81FABAF1FF0F6CD8FB
:102240001FFA83FABAF1FF0F67D812054AEA0E7334
:1022500002F07F620004134300F47F00384A034316
:1022600002EA01210B43642000FB04740027284686
:10227000C4F860340123C4F86474C4F86834C4F842
:102280006C74C4F87074C4F87874C4F87C7452F038
:102290007DF894F89D34202BD9B21AD194F89C344F
:1022A000012B16D0242384F89D34D4F85C341A68AA
:1022B00022F001021A601A6822F480521A601A6829
:1022C0001A601A6842F001021A6084F89D1484F8BA
:1022D0009C740021F07E4FF0D1FDF37E0124194D56
:1022E0005A0903F01F03002104FA03F345F82230D2
:1022F000B07E4FF0C3FDB37E5A0903F01F039C402C
:1023000045F82240BDE8F88F45F0BCFCD9F81C30F8
:10231000E8E6E6461BE7013165E7BCF10F0FF8D1AF
:102320000023A0E7A01A0024FC1E0024001C005873
:10233000286B6E4E00001643002474490000704262
:1023400000FFFF0000E100E000440258088C09088B
:102350002DE9F843B14C04EB0017D7F81C36002BDD
:1023600000F0BF8005460601B7F826064FF006FECE
:10237000B7F82636012103F01F025B09023B01FA80
:1023800002F2082B0FD8DFE813F008011001180142
:10239000200128010900300138014001A04BD96F0C
:1023A00021EA0202DA67A319013593F82006EDB29B
:1023B0000DF0FAFB074610B11223C5718371A31902
:1023C00093F821060DF0F0FB814610B11323C5717F
:1023D0008371A31993F822060DF0E6FB804610B135
:1023E0001423C5718371344448462E2194F8242661
:1023F000FFF70CFE94F825260E214046FFF706FE57
:1024000094F823262E213846FFF700FED4F81C3618
:1024100084491A688B4222F001021A6063D0824A12
:10242000934200F08F8002F58062934279D17C4A1A
:10243000D2F8901041F40041C2F89010D2F89010F8
:1024400021F40041C2F89010DA6842F00042DA60EC
:102450009A6822F4F0729A601A68D60741D47349D8
:102460009D68D1F83C24D1F8444444EA0200D1F8F4
:102470002C2410436E4A2A401043D1F83824986027
:10248000DD68D1F82804ED007BD50243D1F8300493
:10249000DE68B4F5800F42EA0002D1F83404654DDD
:1024A00042EA0002D1F8400405EA060542EA0002C9
:1024B000D1F8240400F4C02600F4006042EA0602C9
:1024C00042EA0502DA601A6822F4006242EA000277
:1024D0001A6002D1D1F848241A641A6D22F0010260
:1024E0001A65BDE8F8834E4AD2F8981041F480513D
:1024F000C2F89810D2F8981021F48051C2F89810C0
:102500004D4A9342A0D1464AD2F89C1041F0200196
:10251000C2F89C10D2F89C1021F02001C2F89C1047
:1025200092E7464A93421BD13D4AD2F8981041F4B3
:102530000051C2F89810D2F8981021F40051C2F856
:10254000981081E7364AD2F8901041F48041C2F8E1
:102550009010D2F8901021F48041C2F89010CFE78B
:10256000374A9342CCD12E4AD2F8981041F48011C8
:10257000C2F89810D2F8981021F48011C2F898107F
:1025800062E7B2F1806F80D1B0F5800F7FF47DAF4C
:102590001D6845F480551D6077E7214BD3F89810EE
:1025A00021EA0202C3F89820FDE61D4BD3F89010F3
:1025B00021EA0202C3F89020F5E6194BD3F89410F3
:1025C00021EA0202C3F89420EDE6154BD3F88010FF
:1025D00021EA0202C3F88020E5E6114BD3F884100B
:1025E00021EA0202C3F88420DDE60D4BD3F88C10FB
:1025F00021EA0202C3F88C20D5E6094BD3F88810F3
:1026000021EA0202C3F88820CDE6054BD3F89C10DE
:1026100021EA0202C3F89C20C5E600BFA01A0024EC
:1026200000440258003001400038004000000024FF
:10263000E0FFBF8FFFFF39D800140058003401407D
:102640000050014008B10022B8E470470E4B70B54D
:10265000D3F86464002E14DD0C4C002503E0B54271
:1026600004F120040DD0237F0135002BF7D0E06862
:1026700000220028F3D0217D2034FFF79FFCB542D3
:10268000F1D1012070BD00BFFC1000203C040020EF
:10269000F8B590F8EE311C09013C062C0FD81B4E02
:1026A000054603F00F0306EB4402B2F8680240FA55
:1026B00003F2D20703D595F8F971012F01D001205B
:1026C000F8BD07FA03F33444013B184054F0A4FB6F
:1026D00094F8782213180E4A02EBC30152F8332003
:1026E0008B8810691840EBD0002395F8EF2108463D
:1026F000022185F8F931FFF761FCD5F85021384601
:10270000136843F008031360F8BD00BF088C090884
:102710001C210024014B53F8200070475040005802
:10272000014B43F8201070475040005819481A4B8D
:1027300001681A4A41F4807130B4016082B0D3F864
:10274000F410FF24CA2041F48031C3F8F410D3F808
:10275000F41001F4803101915321019D54625062C3
:102760005162D3F8D030DB010CD40D4B00210D4A5F
:1027700043F8041B9342FBD1084B0B4A1A6502B085
:1027800030BC7047126D084B9A42EED102B030BC9B
:10279000704700BF004802580044025800400058EB
:1027A000544000586C40005831666542F0B504460C
:1027B000D0F85C01454B83B0A16804F5967204F132
:1027C000E0070E68C1B220F0FF0001921039A3FBB0
:1027D0000131090950F0A4FFD4F81C110023019A1B
:1027E000012984F8203118D0042916D0102958D096
:1027F000402912D0B1F5807F56D0B1F5806F53D00B
:10280000B1F5805F58D0B1F5803F4FF03C030CBF6D
:102810006FF0080C6FF4006C01E06FF0080C06F12B
:1028200018053046E95801EA0C01E950D4F81C11AA
:1028300050F016FCD4F81C31012B16D0042B14D008
:10284000102B0FD0402B10D0B3F5807F30D0B3F5D4
:10285000806F2DD0B3F5805F32D0B3F5803F06F1A5
:10286000540502D04FF4006100E008212B683A467D
:10287000D4F85C010B4340212B60C4F8E810C1B2CE
:10288000124B20F0FF001039A3FB0131090950F071
:10289000F7FED4F85C21136843F01003136003B013
:1028A000F0BD6FF4006CBAE76FF0080C0423B6E7D4
:1028B00006F11C050821D9E76FF4006C0423AEE78C
:1028C00006F11C054FF40061D0E700BFABAAAAAA2D
:1028D0002DE9F04FDFF848B185B09BF8004024B9EE
:1028E0000124204605B0BDE8F08F474BD3F838539C
:1028F0000DF036FD454A92F8B83B002B00F0BC8144
:10290000434B02F17C070BF5A7640026A3FB0513DC
:10291000404D5B09A5FB0315ED0805EB8505A3EB11
:102920004505D2F87C3BC31A0193EBB207EB850552
:10293000029302F557730093019A002A04DBD4F83E
:102940002431934200F37C814FF4B47303FB06B34C
:1029500093F85836002B00F0C080D4F85C11A368BF
:102960002D481A68CBB221F0FF01103BA0FB0303F6
:102970002A481B09C35C19444B68A1891FFA83FECE
:10298000D368CEF1160E23EA0103BEF1070FD36020
:1029900040F2A3801D4A0121D2F864338A460133F4
:1029A000C2F864330022D4F8643190469C46039305
:1029B0005CF8049B48461DE0DCF80090B8F1140F69
:1029C000A9EB000348462DDC13F1080948BF03F1C9
:1029D00017094FEA291308EB291803F1FF390131D0
:1029E00002FA03F30CF1040C0AFA09F28E4542EAEA
:1029F000030217D38E45DFD8C8F11503DCF80000B9
:102A00004FF01508E9E700BFA01A0024FC100020D1
:102A10001F85EB51CDCCCCCCABAAAAAA840A0A085C
:102A200004000020B8F1150F40F000819649C2F370
:102A30008423C2F3441001EB830301EB8000D3F83D
:102A40008032D0F880021B0243EA001302F01F001C
:102A5000C2F3C43201EB800001EB8202D0F8801295
:102A6000D2F880220B4343EA023383EA132282EA3C
:102A7000121202F00F020F2A40F0D880C3F30F1396
:102A80004FF6FF72934200F0D180B3F5606F00F013
:102A9000DC80009A938197F85820029882420CD0EB
:102AA000A9683A68521A3A607A68296B521A7A60B1
:102AB0000022AA602A6387F858003A6801323A6017
:102AC000AA680132AA604FF6FF72934205D17B6873
:102AD00001337B602B6B01332B63009B2046013657
:102AE0005C3714335C3504F5B4740093FFF75EFE75
:102AF000664B93F8B83BB3423FF71EAF63480121E2
:102B0000002280F86014C0F87C2B002B3FF4E8AE64
:102B10009BF81026DBF8540612F0020FDBF8402574
:102B200011680A6A0CBF024342EA8002012B0A6262
:102B30003FF4D6AE9BF87827DBF8BC0712F0020F03
:102B4000DBF8A82611680A6A0CBF024342EA800239
:102B5000022B0A623FF4C4AE9BF8E028DBF824099C
:102B600012F0020FDBF8102811680A6A0CBF02434A
:102B700042EA8002032B0A623FF4B2AE9BF8482A75
:102B8000DBF88C0A12F0020FDBF8782911680A6A68
:102B90000CBF024342EA8002042B0A623FF4A0AE5B
:102BA0009BF8B02BDBF8F40B12F0020FDBF8E02AF5
:102BB00011680A6A0CBF024342EA8002052B0A62CE
:102BC0003FF48EAE9BF8182DDBF85C0D12F0020F6F
:102BD000DBF8482C11680A6A0CBF024342EA800203
:102BE000062B0A623FF47CAE9BF8802EDBF8C40E05
:102BF00012F0020FDBF8B02D11680A6A0CBF024315
:102C000042EA8002082B0A627FF46AAE9BF8E83F32
:102C1000DBF8182F13F0020F1D4B1268D96A136AE4
:102C200014BF43EA81030B43136259E6174AD2F8F3
:102C300060330133C2F86033B6B14FF6FF732AE751
:102C40000024204605B0BDE8F08F12494A7802EB17
:102C5000420201EBC2023244527C0D2A7FF419AFCA
:102C6000802200998A7716E7039958220A4855F07E
:102C7000D5FD4FF6FF730EE704490122C1F87C3BF6
:102C800081F860242DE600BF088C0908FC100020A4
:102C900004100020A01A002404150020D0F85011C0
:102CA0002422F8B5C0F8D02104460A6800238068C1
:102CB00004F5A87522F001020A600B604B608B607E
:102CC00094F805C0C4F8D83184F8CC31C4F8D031B8
:102CD000C4F86831C4F8D431C4F87031C4F8643130
:102CE0004FEA8C23B44A03F48053C4F85401914250
:102CF000C4F858314FEA0C3303F40053C4F85C3184
:102D00004FEA0C2303F48063C4F8603100F0AE8115
:102D1000237913F0010002D00422C4F8642113F0D7
:102D2000020305D0D4F8642142F00802C4F86421FB
:102D30001CF0010F0DD048B1D4F8782142F0020206
:102D4000C4F878214FF48032C4F88021002B40F081
:102D500081819A4B03F12C0053F8042B944200F02C
:102D60003F819842F8D11CF0080F40F04F81D4F811
:102D7000D031002B00F09C8124232846C4F8D031A8
:102D80000B6823F001030B6048F05EF8012815D0B2
:102D9000D4F87831002B40F09181D4F85031284696
:102DA0005A6822F490425A609A6822F02A029A6085
:102DB0001A6842F001021A6050F0B0FD2379DA0778
:102DC0006DD5D4F82C21002A00F05F810023D4F8BF
:102DD000341104F13C06E2634FF48062C4F8B81089
:102DE0003046E264C4E91133C4E91433C4E918334A
:102DF000C4E91A334FF48033E3654FF48073A3655D
:102E000051F012FB304643F08BFDD4F8D431C4F8B6
:102E1000C861202B65673DD1E368626999B2CAB386
:102E2000B1FA81F04009A9B394F8CCC1BCF1010F0B
:102E300030D02227C4F8D80194F870C0C4F8D471F7
:102E40005F4FA4F8AC110121A7675E4F8C45C4F811
:102E5000A821E7675C4FC4F88C0084F8CC11C4F853
:102E600088700ED094F8717084F87010012FD4F827
:102E7000501100F02B814FF4006384F87000C4F807
:102E80009030102100222023C4F8D81184F8CC21DE
:102E9000C4F8D031E26B23795268C4F844219B070F
:102EA00040F18880D4F83021002A00F0E38000232C
:102EB000D4F8381104F1B406C4F8B420C4F8C03012
:102EC0004022C4F8D0303046C4E93233C4E9363346
:102ED000C4E938334FF48033C4F8D4304FF48063FE
:102EE000C4E92E12C4F8C43051F09EFA304643F0C3
:102EF00017FD002840F0B980D4F8B420334B344893
:102F00003449824218BF9A42C4F8C461C4F8EC50F4
:102F100000F160000CBF012300232F4C8A4208BF40
:102F200043F001033031A24208BF43F00103603493
:102F30008A4208BF43F001033031824208BF43F0A8
:102F4000010300F568708A4208BF43F0010301F5F0
:102F50005C71A24208BF43F0010304F568748A4221
:102F600008BF43F001033031824208BF43F0010340
:102F700060308A4208BF43F001033031A24208BFEB
:102F800043F001038A4208BF43F00103303182421B
:102F900008BF43F001038A4208BF43F001033BB975
:102FA0000E4BD31AB3FA83F35B09002B00F0A78012
:102FB00000235360F8BD00BF000C0058BC1C00206B
:102FC000D5830808098408080D8408081000024009
:102FD000280002404000024058000240B80402406D
:102FE000002C3FF4C0AE94F8F831002B3FF4BBAE98
:102FF000D4F878311CF0080F43F00803C4F8783196
:103000004FF40043C4F888313FF4B1AED4F8D03166
:10301000002B50D024232846C4F8D0310B6823F06D
:1030200001030B6047F010FF01283FF4C7AED4F84E
:103030007831002B46D1D4F8503128465A6822F412
:1030400090425A609A6822F022029A609A6842F08E
:103050000802ACE6D4F8783143F00103C4F87831C3
:103060004FF40033C4F87C3173E6FEE70423C4F860
:1030700074314DE6D4F8DC311A6842F080021A60EF
:103080001A6842F040021A60F8BDD4F8DC211168D9
:1030900041F480711160916841F001019160116803
:1030A00041F020011160116841F010011160F6E655
:1030B00084F8CC3160E684F8CC31ABE7284648F0A0
:1030C00099F96AE6284648F095F9B4E79BB22431AD
:1030D000304643F045FE00287FF4D3AED4F850319B
:1030E00084F8CC011A6842F480721A609A6842F03F
:1030F00001029A609A6842F040029A60CAE6536000
:10310000F8BD00BFF8B50446EFF31185502383F3F3
:103110001288D0F830311B6803F001031BB1EDB207
:1031200085F31188F8BDD0F8D021D0F8D4110A4326
:1031300002F02102212AF2D0D0E909218A424FD09F
:103140004BD800691A46431A9BB2A262002284F847
:10315000E021D4F8D021202AE1D1A2695118DED093
:10316000B3FA83F25209002BD9D094F8CC0101288C
:10317000D5D02120A4F8A6314FF0010CC4F8D821F5
:10318000C4F8D001D4F8C401C4F8A011A4F8A43143
:1031900084F8CCC170B31D4E90F834E0C6631C4E69
:1031A000E645026506641B4EC6640CD090F8356097
:1031B000D4F85071664580F834C015D04FF40063E0
:1031C00080F834204365102100222023C4F8D81150
:1031D00084F8CC21C4F8D031A1E7531A9BB2B4E7EC
:1031E000012380F8E0319AE707F1280243F0B8FDA7
:1031F0000028E8D1D4F8503100224021196284F827
:10320000CC219A6842F080029A6088E7AD83080872
:10321000D18308080D8408082DE9F8434D4C04EBD0
:103220008004D4F8C04B002C44D0D4F8E8511F4699
:10323000494B0646A1602046236090466B68C4F85F
:10324000DC31AB6B63616B6BA361EB8FE360AB8FC6
:103250002361424BC4F8E4310CF040FE6B68A88D4A
:10326000C4F85031002863D194F8EE010CF09CFCB6
:10327000022117F00802034694F8EC9184F8F91142
:103280001BD060B317F0510F4FF00B0206F101068F
:1032900014BF0A211A2117F0410FC671827114BFA1
:1032A0004023202394F8EF211943FEF787FED4F83A
:1032B0002C314BB32046BDE8F88318F0020F0ED036
:1032C00068B14FF00B0C3B0680F806C006F1010C0C
:1032D00080F807C02FD494F8EF21FEF76FFE484620
:1032E0000CF062FC0028E2D018F0010FDFD00C22B5
:1032F00001360221C671827194F8ED21FEF75EFE5F
:10330000D4F82C31002BD5D195F8321095F8300037
:1033100089094EF0B3FD95F830300122104903F0D1
:103320001F005B098240204641F82320BDE8F88356
:103330004EF024FE98E7D4F850714FF0010C202194
:103340003B6823F008033B6084F8F9C1FEF736FEC2
:10335000C5E700BFFC100020088F0908912604086B
:1033600000E100E0BFF34F8F0549064BCA6802F445
:10337000E0621343CB60BFF34F8F00BFFDE700BF98
:1033800000ED00E00400FA0519484FF6FF0C194A59
:1033900084B0C168184B01EA0C010A43C260D3F83B
:1033A000D020D3F8DC2042F00052C3F8DC20D3F860
:1033B000DC2002F000520192019AD3F8DC2042F0A6
:1033C0008042C3F8DC20D3F8DC2002F08042029275
:1033D000029AD3F8DC2042F00042C3F8DC20D3F894
:1033E000DC3003F000430393039B04B00CF06CBF8C
:1033F00000ED00E00005FA050044025808B51D483C
:103400000023C0F88430BFF34F8F436923F4803327
:103410004361BFF34F8FD0F8803043F6E074C3F3BD
:103420004E3CC3F3C90E4FEA4C1C0CEA0401734630
:1034300041EA8372013BC0F874225A1CF8D1ACF106
:10344000200C1CF1200FF0D1BFF34F8FBFF36F8F13
:10345000BFF34F8FBFF36F8F4369002223F4003314
:103460004361C0F85022BFF34F8FBFF36F8F72B626
:10347000FFF778FF00ED00E003689B0AA3F58013D7
:10348000522B57D870B53E4C14F803C0BCF10D0F49
:103490004FD840798508002951D04FEA900E4C242E
:1034A00038480CEB8C0304FB0C040CEB4303D4F8FE
:1034B000FC6902242B4404FA0EFEF46800EB830539
:1034C0004EEA0404A966AA67F460EFF3118450235E
:1034D00083F312882C2303FB0CF3C1184A6E52B3FA
:1034E000131DC1F88820284A2C21284D01FB0CF11E
:1034F00005EB010E14310A4452F8041B19B119608E
:1035000052F8043C04339645F6D10022E4B21A6026
:1035100084F311882C2303FB0C03D3F888302BB3DE
:103520004C2303FB0C00D0F8FC29D36843F00103C3
:10353000D36070BD7047144A24331344D4E7114854
:103540004C23022403FB0C0304FA05FED3F8FC69A8
:103550000CEB8C03F4680CEB430324EA0E042B44BD
:10356000F46000EB8304A166A267AEE74C2303FB83
:103570000C00D0F8FC29D36823F00103D36070BDA0
:10358000088C0908A01A0024041B0024281B00240E
:1035900003689B0AA3F58013522B00D97047144A85
:1035A000D35C0D2BFAD84FF04C0C10B4114C79B9F8
:1035B000417902220CFB03405DF8044B21FA02F32F
:1035C000D0F8FC199A40CB6823EA0203CB6070471D
:1035D000417902220CFB03405DF8044B21FA02F30F
:1035E000D0F8FC1902FA03F3CA681343CB607047A2
:1035F000088C0908A01A002403689B0AA3F580130D
:10360000522B10D8084AD25C0D2A0CD840790223DC
:1036100006494FF04C0CD8400CFB02128340D2F804
:10362000FC29DB4313617047088C0908A01A0024A9
:1036300001490248FDF70EBA041B002400000140B6
:1036400001490248FDF706BA041B002400000140AE
:1036500002494FF08040FDF7FDB900BF301B002448
:1036600001490248FDF7F6B95C1B00240004004044
:1036700001490248FDF7EEB9881B0024000800400C
:1036800001490248FDF7E6B9B41B0024000C0040D4
:103690002DE9F843194E3569F3681D4010D04FF0FD
:1036A0000047DFF85C80B5FA85F227FA02F31F2A9B
:1036B0006FEA030305EA0305336103D0002DF2D15D
:1036C000BDE8F883D8F86831A3B103F1FF390023CE
:1036D0001FFA89F9C8F86831D8F86441002CEDD098
:1036E00023682046494698476468002CF8D1002D8D
:1036F000D9D1E5E7F16A1FFA81F9EDE70010004042
:10370000A01A002401490248FDF7A4B9381C00247E
:103710000004014010B5064C064804F5CC71FDF7D5
:1037200099F904F5F8710448BDE81040FDF792B925
:10373000A01A002400040140001C00400149024876
:10374000FDF788B9641C00240018004001490248B4
:10375000FDF780B9BC1C002400200040014902484C
:10376000FDF778B9E81C00240040014001490248F7
:10377000FDF770B9141D00240044014001490248BE
:10378000FDF768B9401D0024004801402DE9F041D3
:103790004FF425728EB000217B4855F0B3F87B4B77
:1037A0007B4E4FF08041D3F8F02006F68415374663
:1037B00042F00102DFF8E08106F66814C3F8F02059
:1037C000D3F8F02002F001020092009AD3F8E8202A
:1037D00042F00102C3F8E820D3F8E82002F0010229
:1037E0000192019AD3F8E82042F00202C3F8E820DF
:1037F000D3F8E82002F002020292029AD3F8E820FD
:1038000042F00402C3F8E820D3F8E82002F00402F2
:103810000392039AD3F8E82042F00802C3F8E820A4
:10382000D3F8E82002F008020492049AD3F8E820C2
:1038300042F01002C3F8E820D3F8E82002F01002AA
:103840000592059AD3F8E82042F02002C3F8E82058
:10385000D3F8E82002F020020692069AD3F8F0206E
:1038600042F00202C3F8F020D3F8F02002F0020286
:103870000792079AD3F8E82042F04002C3F8E82004
:10388000D3F8E82002F040020892089AD3F8E82022
:1038900042F08002C3F8E820D3F8E82002F080026A
:1038A0000992099AD3F8E82042F48072C3F8E8201C
:1038B000D3F8E82002F480720A920A9AD3F8F02032
:1038C00042F48032C3F8F020D3F8F02002F48032C2
:1038D0000B920B9AD3F8F02042F40032C3F8F02098
:1038E000D3F8F02002F400320C920C9AD3F8F020B6
:1038F00042F48022C3F8F020D3F8F03003F48023A0
:103900000D930D9B4246002301E054F83320914271
:103910000BD00133112BF8D11C3700204EF02EFBB9
:10392000AF420CD057F81C1CECE71A4A1C3702EBCC
:10393000C303B3F8B80C4EF021FBAF42F2D14FF005
:103940008041154F154C3A46002301E054F83320CE
:1039500091420BD00133112BF8D11C3600204EF0D0
:103960000DFBAE420CD056F81C1CECE7094A1C3685
:1039700002EBC303B3F8B80C4EF000FBAE42F2D139
:103980000EB0BDE8F08100BF041B002400440258C3
:10399000548F0908088C090800000140BC980908E8
:1039A000800AA0F5801052280DD8074B1A5C0D2A0A
:1039B00009D8064B4C2101FB0233D3F8FC291368CC
:1039C00043F0010313607047088C0908A01A002413
:1039D0001F4B984210B50ED003F5806398420AD071
:1039E0001C4A03F58043984218BF904203D003F568
:1039F000806398421BD144F045F9174B1749DC69A5
:103A0000DA69C4F3022CC2F3022201EB0C0393F82F
:103A1000383203F01F03D8400F4B11491B69C3F321
:103A2000C03342EAC303CB5C03FB00F010BD44F09B
:103A300029F9094B0949DC69DA69C4F30214C2F3B4
:103A400002120B1993F8383203F01F03D840E3E752
:103A5000000001400040014000440258088C090861
:103A6000600A0A082DE9F04FB34B91B00024DFF84B
:103A7000F0820193B14BA3F63C5BB14E0025DFF819
:103A8000BC92B30AA3F58013522B57D81BF803300E
:103A90000D2B53D818F90370AA4B93F8823E012BD3
:103AA00040F01081012F3FD14FF0000A51463846B7
:103AB0000FF04EFC0FF0D4FC90F800C0BCF1000FEA
:103AC00018BFBCF1540F14BF4FF0010C4FF0000CA5
:103AD00040F0F4800AF1040A1FFA8AFABAF1100FD2
:103AE000E4D1002C00F0B580934A00210DE01BF8D2
:103AF00003300D2B10D818F90330BB420FD0013121
:103B000002F58672A14280F2A080906803689B0A49
:103B1000A3F58013522BEAD90023BB42EFD143799E
:103B200099F805009842EAD10135082D14D059F8CA
:103B30001C6FB30AA3F58013522BA7D9814B93F8BE
:103B4000823E012BF0D001220027022BACD1002AAB
:103B5000AAD00135082DEAD1019B013403F5867303
:103B6000042C019389D1784F0026DFF8F8B1774B08
:103B7000D3F86434B34265DDD7F80C80B8F1000F98
:103B800060D0734BB8F804105D68D8F800003B7C37
:103B9000002DDFF8D4C10193B1FA81F38444C3F15D
:103BA0001F0902934FEA9C2C40F3A980624A00242B
:103BB00005E0013402F58672AC4200F09D80136886
:103BC0006345F6D14FF486735B4A03FB0424019BE3
:103BD0000322C7F8049001363B744FEA4903C7F843
:103BE0000C8002FA03FCBC6188F80620012288F8E8
:103BF000076002FA03F5A36C43EA0C03A364236D88
:103C00002B432365524B1B78002B60D0636D02FA67
:103C100009F943EA0903636581611FFA89F1D4F860
:103C2000AC00FCF719FA20462037FCF7E9F901232C
:103C3000082E0BF1180B07F8043C07F8033C0BF8AF
:103C4000073C94D111B0BDE8F08FBCF1000F7FF4B8
:103C50006BAFD9F8080000223E4B04E001320C3370
:103C6000102A00F02A8359688842F7D152B23046B0
:103C700099F80510FEF7C0F8374A406800235168EC
:103C80000133884217D0102B02F12402F7D14FF0F4
:103C9000FF3303EBC303314A02EB830393F8003293
:103CA000002B7FF441AF254BC5EBC50503EB850524
:103CB000019B9D6050E7DBB2013BEAE7002C7FF4FB
:103CC00013AF31E7B7F1080218BF01223DE7029DAB
:103CD0004FEA014C02FA09F1C5F12F0589B202FA47
:103CE00005F51A46636D2B436365C0F818C0D4F818
:103CF000AC00FCF7B1F996E7032C00F3E9804FF430
:103D00008673134A03FB05231869002800F0C1825B
:103D10005422C3F808C00CF1010C0E4C83F810219A
:103D200083F811C16B1C0A4A53600022054B93F8BB
:103D3000993E039383681EE00C0000204499090813
:103D400000040140A01A00243C040020FC100020C4
:103D50000400002024010024E401002400000024C9
:103D6000740A0A08B81000200000FEA701320C34C3
:103D7000102A00F0A28261688B42F7D1417952B2D9
:103D80000068FEF739F84FF48672B14BDFF804A3F0
:103D900002FB0532D0E90141C2E907410022514648
:103DA0004B6801329C4217D0102A01F12401F7D14F
:103DB000A84BA94693F8DC21002A00F05C82A648B3
:103DC000A649A74AA74BC0F8101CC0F8082CC0F899
:103DD000183C11B0BDE8F08FD2B24FF48671013AB1
:103DE00001FB05F39B4902EBC202049301EB820243
:103DF0009749194492F80032B1F810010593002B4D
:103E0000DDD1049CA2F80002974BA210086903FBC5
:103E100002F2964B0068C2EBC20C02EBC20203EB4B
:103E20004C1C03F5607303EB4212D8F80030C1F864
:103E3000B4C0C1F8FC203322CB60C1F8B8208C227A
:103E4000C1F80021FFF7C4FD894B1C19039B062B09
:103E500000F00E82072B874B874908BF1946874B16
:103E6000874A18BF1A464FF48673B0FBF2F2B0FBD4
:103E7000F1F1013A7648013903FB050392B2A3F848
:103E8000BC10A3F87420226600220393A4F85820E3
:103E90006266E265049A02F1580100F108021144D9
:103EA0001A6910684FF058FA039B1A691068039258
:103EB000036843F08003036053790C2B0DD8DFE8CF
:103EC00003F06F0C0C0C670C0C0C5E0C0C0C55000A
:103ED00003236C4A82F8983E71E74FF486735C4A7C
:103EE00003FB052359694FF0600C02680023CDF8ED
:103EF00020C04FF4807C0A9322F00102CDF838C034
:103F00004FF0010C0D930F930223CDF824C04FF016
:103F10000A0CCDE90BC3026008AA4FF0A1F84C4B84
:103F20004FF4867202FB0532039B52691968002325
:103F3000012A3DD0042A3BD0102A00F0AF81402A4C
:103F400036D0B2F5807F00F0AC81B2F5806F00F022
:103F5000A881B2F5805F00F0A981B2F5803F4FF0F3
:103F60003C030CBF08224FF4006222E04FF486733A
:103F7000374A4FF4805103FB05235961B3E74FF4EF
:103F80008673334A4FF4807103FB05235961AAE716
:103F90004FF486732E4A102103FB05235961A2E7D3
:103FA0004FF486732A4A012103FB052359619AE7DE
:103FB000082201F1180050F803C042EA0C02C25076
:103FC000039B1879002840F03E81214B4FF4867204
:103FD00002FB053200231069D1690068026842F0D3
:103FE00001020260DAF804200133914200F02781D7
:103FF000102B0AF1240AF5D14FF0FF33154A03EBD9
:10400000C30302EB8303D3F8E4011F4B98420CBFB8
:10401000A020A1204DF0B2FF0D4A4FF4867303FBA0
:1040200005231A6951790C2900F20681174B03EB1D
:104030004103B3F81CCED2F800E04FF48673044A73
:104040001349704603FB0523A3F818C000232AE098
:104050000400002000000024FC10002075DA040891
:1040600071DA04087DDA04086B4CA407602301248C
:104070000C0000201055220044950800D0DD0600F9
:1040800040771B00A01A002400000240088C090899
:1040900068150020E4010024904200F005810133FE
:1040A000042B00F0078151F83320002AF4D1844A10
:1040B00086461046D2F868240132C0F8682400EB26
:1040C000C302DB00C2F86CE4194405982346902231
:1040D000B1F804E0DFF804A24CEA0E0CA1F804C029
:1040E0007849FDF7EFFE4FF48673774A4FF4403E70
:1040F00040214FF4805C03FB05250023E86902683A
:1041000042F010020260026842F014020260C4E948
:104110001F33C4E92733C4E929334FF480632A6A83
:10412000C4F898E0C4F88430A167C4F89420D5F8A6
:10413000B820C4F89020C2B220F0FF00103AAAFBC9
:104140000231EA68049B1832C4F888C04FF4804CEE
:104150000909226703F170025C4B1A44D5F8B430A8
:10416000C4F88CC063674FF08BFAE869049B4FF486
:104170000031D0F800E04FF4006C03F1B802534B6B
:10418000C4F820E0D0F814E01A440023C4F824E076
:10419000D0F804E0C4F828E0D0F808E0C4F82CE037
:1041A000D0F80CE0C4F8C830C4F830E0C4E93033CB
:1041B000C4E93933C4E93B332B6AC4F8E0100393F4
:1041C0004FF48063C4F8CC30039BC4F8DC30D5F8DE
:1041D0000031C4F8D830C3B220F0FF00103BAAFB76
:1041E0000331EB68C4F8D0C010330909C4F8B83003
:1041F000D5F8FC3003934FF48043C4F8D430039BCC
:10420000C4F8BC304FF03CFAEB69B8F804101A68F7
:10421000D8F8000062635A69A2635A68E2639A6838
:104220002264DA6862641A6842F010021A601A683E
:1042300042F014021A60CAE44FF0000CFBE6DBB255
:104240000593013BDAE607910BF0AEFC0799069067
:1042500048B1039B0221DA79FDF7B0FE069B542298
:10426000DA80039B19684B6C43F400434B64ACE663
:104270001749184AF7E5144A4FF4867808FB0928CD
:1042800098F8111198F8102183F8DD1183F8DC21DA
:1042900095E50223104A82F8983E90E54FF40062BB
:1042A00087E60822042384E6DB000DE74FF4006272
:1042B00004237EE600239B88FFDE00235B68FFDE8D
:1042C000FC10002001000000040000200C00002071
:1042D000882A1100A0BB0D00A01A0024ABAAAAAA2C
:1042E0002DE9F04F00228FB02F2107460FF010F973
:1042F000D0B1B04C06464379D0F80080A4F83834E9
:10430000FDF7A8FD80B1456875B1DFF8E0B2002285
:1043100059464B68013224319D4210D0102AF8D101
:10432000A54B93F8DC211AB100200FB0BDE8F08F47
:104330002F21104683F8DD2183F8DC11F5E7D2B296
:10434000DFF874A2013A02EBC2020AEB820292F891
:104350000092B9F1000FE7D12F2183684046C4F8DD
:10436000EC83A2F800120393FFF732FB934A9042CA
:1043700080F0FF8001234A46029340460192FFF7F6
:1043800027FB029B019A8E49C4F8F023B0FBF3F29D
:10439000120A0020A1FB02328A4BC4F8FC03110967
:1043A000C4F8F4031209A3FB0131C4F8F8234A0846
:1043B000A4F89C2E5200A4F89A2E94F8292402F016
:1043C000FF01002A00F0E38002227F49D4F8EC03C9
:1043D00084F8292443F05EFF0122384684F834240F
:1043E00084F82A2484F82B2484F82C2484F82D249F
:1043F00084F82E2484F82F2484F8302484F831247F
:1044000084F8322484F8332484F829240BF0CCFB7C
:10441000C4F8A00E28B12F21C1804E21F279FDF7FA
:10442000CDFD6A4A0021039BC4F8B01EC4F8A83E23
:10443000C4F8C01EC4F8C81EC4F8D01EC4F8D41EE8
:10444000D2F8D800C4F8A45E40F00100C2F8D80049
:10445000D2F8D80000F0010005900598D2F8D800F5
:1044600040F00200C2F8D800D2F8D82002F00202D0
:104470000692069A4022C4F8AC2E4FF48062C4F82B
:10448000B42E4FF48052C4F8B82E4FF48042C4F8D2
:10449000BC2E4FF40032C4F8C42E0322C4F8CC2E34
:1044A00094F838240C2A75D8494901EB4202B2F835
:1044B000387EB846083747485946002204EB870C37
:1044C000CCF8EC03A0F6B820C4F8DC0E4868013242
:1044D0002431854264D0102AF8D14FF0FF3202EB2C
:1044E000C2020AEB820A3C4ADAF8E40190420CBFAD
:1044F000A020A1204DF042FD0022DBF80410013283
:104500000BF1240B8D4248D0102AF6D104EB87071B
:104510004846434660223149FDF7D4FCD7F8EC0306
:1045200042F0FEF900287FF4FFAE60210C90B379D1
:10453000079159000D90DB00089001F002010B90EB
:1045400003F00803B4F838242548CDE9091307A976
:104550004DF05CF900287FF4E7AEB379B4F8381475
:104560009B071F481FD546F021FCB0FA80F0400998
:10457000DBE64046FFF72CFA1A4A1B490244A1FB2E
:104580000232920D013A92B2531C0293F5E684F87E
:10459000281419E788460F468CE75FFA82F9B5E7D9
:1045A000D2B2013A9BE743F0EBFDB0FA80F040094C
:1045B000BBE600BFA01A002400000024006CDC024F
:1045C000598B4F01ABAAAAAA901E0024004402589E
:1045D000088C090844290024000002409D010000C5
:1045E0008C1E002400366E01819F5E16E4010024BB
:1045F000830AA3F58013522B00D970472DE9F041AF
:1046000015460F4AD65C0D2E17D80E4C4FF04C08AD
:10461000013908FB064789B2C7F8081AFFF7D8F92D
:1046200007F52061B0FBF5F2013AD7F8FC09C7F8AD
:10463000002ABDE8F04143F02DBEBDE8F08100BF87
:10464000088C0908A01A0024830AA3F58013522BB2
:104650006BD82DE9F0411646794A84B0D75C0D2F0E
:1046600060D8DFF804824C25044605FB0785D5F8A1
:10467000FC39834256D00139C5F8FC0989B2C5F826
:10468000081AFFF7A5F90023B0FBF6F2C5F80C3ABB
:10469000013AC5F8043AC5F8103A95F8393AC5F820
:1046A000002A03F0FF02002B40D04C23654903FB96
:1046B000078503FB07110223D5F8FC0985F8393A71
:1046C000043143F0E7FD012385F8443A85F83A3A8E
:1046D00085F83B3A85F83C3A85F83D3A85F83E3A0C
:1046E00085F83F3A85F8403A85F8413A85F8423AEC
:1046F00085F8433A85F8393A534B9C4219D0B4F1C6
:10470000804F16D0A3F57C439C4212D003F5806302
:104710009C420ED003F580639C426CD003F5784335
:104720009C4268D004B0BDE8F081704785F8382A13
:10473000BBE74C234FF48051002203FB0783009119
:1047400093F8381A03920129CDE90122EAD0022117
:10475000D3F8FC09012483F8391A3C4985682940BB
:10476000816083F8394A83F8382A4C22002302FBFF
:1047700007820293CDE9003392F8383A012BD1D069
:10478000D2F8FC390221304882F8391A83425A683B
:1047900099682CD000F58060834228D022F0700206
:1047A0002B485A602B4A934218BFB3F1804F0CBF7D
:1047B00001220022834208BF42F0010200F580601E
:1047C000834208BF42F0010212B9234A934202D148
:1047D00021F0800199604C230121002203FB07870F
:1047E00087F8391A87F8382A04B0BDE8F0811B48E9
:1047F00010405860ECE700214FF48053CDE90031C0
:104800004C2303FB078393F8382A012ACDE90211D0
:1048100088D0D3F8FC09022283F8392A0B4A85682C
:104820002A4082600E4A83F8381A0121944283F8A4
:10483000391A9AD00B4B9C427FF474AF95E700BFB6
:10484000088C09089C240024000001408800CEFF49
:104850000008004000040040001800408FFF0FFFD8
:1048600000040140000C0040A01A00242DE9F04F84
:104870000546086889B00C464FEA902CBDF8488080
:10488000ACF5801C9DF84CA0BCF1520F69D8DFF844
:10489000EC9019F80C700D2F63D807EBC706DFF802
:1048A000E0B0194607EB4606FFF7CEFE23680BEB98
:1048B00086066179A279BAF1000F55D194469B0A18
:1048C000A3F58013522B25D819F803000D2821D801
:1048D00000EBC0030A4601A9CDF8088000EB4300B5
:1048E0004FEA4C034FEACC0C03F002030BEB8000C1
:1048F00003930CF008034FF4807C0493602301932E
:104900004FF40073CDE906C3002305934CF07EFFFE
:104910006179A2799307304629D546F047FA154BBD
:104920004C2202FB073797F8393A012B10D10223AA
:10493000D7F8FC2987F8393A0F4B91680B40062BC2
:1049400006D0B3F5803F03D0136843F00103136032
:104950002168637901F1340269600021D018286070
:10496000D15009B0BDE8F08F82F0010CA7E743F009
:1049700007FCD4E7A01A002407000100088C0908EE
:104980009C24002470B504460068830AA3F58013B4
:10499000522B03D82B4DEE5C0D2E00D970BDFFF7C6
:1049A00053FE294B4C2202FB063696F8393A012B6E
:1049B00013D021680023254A254801E050F8332010
:1049C00091421CD00133112BF8D1012100204DF070
:1049D00055FA204B01221A6070BD0223D6F8FC293B
:1049E00086F8393A1C4B91680B40062BE1D0B3F5A1
:1049F000803FDED0136843F001031360D9E705EB75
:104A0000C3030121134D93F8BA4C20464DF036FAFA
:104A100004F01F03012162091B2C01FA03F345F87E
:104A2000223006D119204DF029FA4FF000732B6087
:104A300070BD2E2CB2D12C204DF020FA4FF48053B3
:104A40006B6070BD088C0908A01A002400000140AA
:104A5000BC98090800E100E0070001002DE9F043DF
:104A6000BDB0BFF35F8FA34A0020516A03460446DE
:104A700021F4803151620146C2F89400C2F89830A6
:104A80000133C2F89C10112BC2F8A010F6D10523F7
:104A9000C2F89430536A43F480335362BFF34F8FAC
:104AA000BFF36F8F9448954A9549121A53F0B6FE9A
:104AB0009448954A9549121A53F0B0FE944AD36827
:104AC000042B00F0FD8005D8012B00F08183022B20
:104AD00000F07783874A00238E4C0120D2F888109B
:104AE0008D4E41F470018D4DC2F888102060236115
:104AF000216841F080012160216801432160216823
:104B000041F480312160216841F480512160A3612A
:104B1000E3612362A362E36223636363A363E363EA
:104B200023646364216821F4802121607C49236629
:104B3000C1F808014FF000614FF6FF00794B91601A
:104B4000D16801400B43D36043F07AF8A369024671
:104B50000F20C3F30323A169334493F8383203F0E1
:104B60001F0322FA03F3C5F8743441F0E3F96E4AE7
:104B7000D36813F0040FD36840F0A4806B4B00217E
:104B8000694A0391D96A21F00101D962DB6A03F015
:104B900001030393936943F440439361936903F4DE
:104BA00040430393039B93699B04FCD54C22002153
:104BB0000DA85F4C53F0A6FE5E4A42F20303126852
:104BC000B3EB124F4FF00003079304F1140318BF27
:104BD0001C46E268002A4FD0544B5349D86A20F053
:104BE0000100D862DB6A03F0010307938B6923F4A9
:104BF000404313438B618B6903F440430793079B46
:104C0000494A93699F04FCD5424B4FF440314A48CE
:104C10004FF00108D3F8E020002742F08002C3F8EB
:104C2000E020D3F8E03003F080030693069B0323D3
:104C3000816108A908930B93CDE9098742F06CFBC9
:104C400002230DA8CDF834801E97CDE91633A37842
:104C50001893A3881993A3791A93E3791B93237A62
:104C60001C9323691D934FF480330E9342F02AFD69
:104C700003283BD098B1FEE72B4A2C4B916941F4B5
:104C800040419161926902F440420792DA6A42F02F
:104C90000102DA62DB6A03F001030793AFE7274BF7
:104CA0001A6812F00E0F4DD11A6822F00F0242F06E
:104CB00002021A601B6803F00F03022B42D0FEE7CA
:104CC000D46007E723F007031D4C43F00203D360D1
:104CD000D4F8D41506E0D4F8D4355B1AB3F57A7F4E
:104CE0003FF64CAF53689804F5D547E772B6FEF728
:104CF00039FB00BF00ED00E000000000703C000048
:104D000048970A0800000020040000209DF80A08C7
:104D10005040005800440258088C09080000002444
:104D2000008000510003FA050048025800040058B2
:104D30004C0400240010005C001C025800200052AB
:104D4000A01A00246E4A936903F070033F2B05D824
:104D5000936923F0700343F040039361684AD36979
:104D600003F070033F2B05D8D36923F0700343F0A1
:104D70004003D361624AD36903F4E063B3F5806F03
:104D800005D2D36923F4E06343F48063D3615C4AC2
:104D9000136A03F070033F2B05D8136A23F07003E6
:104DA00043F040031362564B9A69140705D49A697D
:104DB00022F00F0242F008029A61514A936923F4EB
:104DC00070639361136898017FF579AF136941F2BD
:104DD00088304C4C23F0070343F003031361D4F8ED
:104DE000D41505E0D4F8D4355B1A834200F2A181D2
:104DF000136903F03803182BF4D1936903F00F0300
:104E0000082B05D9936923F00F0343F0080393613E
:104E10003D4A136803F00F03022B0BD9136823F0EC
:104E20000F0343F002031360136803F00F03022B18
:104E30007FF445AF324A936903F07003402B05D9E4
:104E4000936923F0700343F0400393612C4AD369C4
:104E500003F07003402B05D9D36923F0700343F0AE
:104E60004003D361264AD36903F4E063B3F5806F4E
:104E700005D9D36923F4E06343F48063D361204A06
:104E8000136A03F07003402B00F24B811C4F42F079
:104E9000D7FE0346D5F87804BA69B969C2F303228C
:104EA000164496F8382202F01F02D340C5F8743435
:104EB00041F040F8002840F03D81102314901690F6
:104EC0000DA80D9342F0FEFB002840F029813B68BD
:104ED0000E4943F080033B60D7F8F43043F00203FF
:104EE000C7F8F430D7F8F43003F002030293029BC2
:104EF0000A6A074B42F001020A62D4F8D4150CE0AA
:104F000000440258A01A0024002000520004005857
:104F100000E20400013B3FF4E9AED4F8D42591420D
:104F2000F8D0D4F8D425D4F8D4359B1A0A2BFAD962
:104F30004FF48023B14C0DA84FF000080D934FF4AF
:104F40004013032602272E934EF016FDD4F8EC30C2
:104F50000DA843F00203C4F8EC30D4F8EC3003F0B1
:104F600002030193019BD4F8943043F00203C4F888
:104F70009430D4F8943023F00203C4F89430A04B5A
:104F80001A6841F20303B3EB124F9E4B9E4A38BF9F
:104F90001A469E4B5A601A6822F47C5242F4005220
:104FA0001A601A6842F060021A600D96CDE92A88EC
:104FB0004EF0E2FC4FF4E0430DA8CDF8E0800D93F5
:104FC000CDE924884EF0D8FC18230DA8CDF8B48084
:104FD0000D93CDF8C8804EF0CFFC4FF400230DA800
:104FE0000D934FF4003335934EF0C6FCD4F8E03007
:104FF00008A9874843F00103C4F8E030D4F8E03052
:10500000CDF8308003F001030593059B4FF48073C6
:10501000CDE90A86CDE9083742F07EF9236908A96F
:105020007C4823F0FE7343F088732361D4F8E030AA
:1050300043F00403C4F8E030D4F8E030099703F0FB
:1050400004030B96CDF8288004934FF40073049A60
:105050000893CDF8308042F05FF9236923F07E4356
:1050600043F0FC43236142F0EBFD6B4B6B4A41463E
:10507000C5F874041846D21A53F044FC6848694ACB
:105080006949121A53F0CAFBBFF35F8F674D46465A
:10509000674C01276B6A23F480336B62C5F89480F8
:1050A00023E0002A44D0D4F80080637A103414F846
:1050B000061C1B0643EA017343EA420314F8052C5D
:1050C00043EA824314F8042C43EA424314F8032CC5
:1050D000C5F89860013643EA0243C5F89C80032E68
:1050E00043F00103C5F8A03025D06368227A002B75
:1050F000D7D0D4F80080002AD7D128F01F09A3EB1D
:105100000903202B38BF20231846994653F080FB13
:10511000431E07FA03F2914518BF0346DAB2C4E70B
:10512000FEE7136A23F0700343F040031362ADE619
:10513000FEE7C4E5C3E50523C5F894306B6A43F484
:1051400080336B62BFF34F8FBFF36F8FBFF34F8F0F
:10515000BFF36F8F0022C5F85022BFF34F8FBFF30C
:105160006F8F6B6943F400336B61BFF34F8FBFF3F5
:105170006F8FC5F88420BFF34F8FD5F8805043F66A
:10518000E0762A49C5F34E34C5F3C905640104EA43
:1051900006002B4640EA8372013BC1F86022F9D237
:1051A000203C14F1200FF2D1BFF34F8F4B6943F431
:1051B00080334B61BFF34F8FBFF36F8F3DB0BDE8BE
:1051C000F08304210320FDF7ABFA72B6FEF7CAF8AC
:1051D00002200A4B1749D060D3F8F4200243C3F8E9
:1051E000F420D3F8F43003400D930D9AD1F8003831
:1051F00083F30888D1F804389847FEE70044025842
:105200000010005C7FBB22307FBB22000084004086
:10521000000002580008025800E1002480E1002448
:1052200040DE002400E10024A1F80A0800ED00E0BF
:105230007C0400240090F01F0548D0F8043323B10B
:10524000DB6A13B100F5417018470248704700BF90
:10525000A01A00245C9A090830B5114C4FF0000CDC
:10526000234693F800E00633864515D00CF1010C77
:10527000BCF1060FF5D10B4DD5F8403F052B0AD0F8
:105280000CFB034C0133C5F8403F8CF80000ACF830
:105290000210ACF8042030BD062303FB0C4CF4E7ED
:1052A000BC290024A01A002410B5174CD4F8443FA0
:1052B0001B883BB9002384F84C3F84F8FC32C4F8C7
:1052C000F83210BDD4F8402F002AF3DD012A08D0AF
:1052D000D4F8483F59880123A4F84E1F84F8503F62
:1052E000E8E7D4F8481F8A8849880132521A9A425E
:1052F000F1D10022D4F8043304F541701B69C4F8DD
:1053000030239847D6E700BFA01A00240748D0F8FA
:10531000003313B190F8503F0BB100207047D0F824
:10532000043300F541705B68184700BFA01A0024E1
:10533000174B10B4174C93F8FC222244C0E9002408
:1053400093F8FC0293F84C2F824217D893F8FC0292
:10535000824206D300235DF8044B1846C1E90033AE
:10536000704793F8FC32002A5DF8044BC3F18003C8
:105370000CBF012002204A600B60704793F8FC428A
:1053800000230120121B5DF8044BC1E90023704784
:10539000A01A002400E100240F4B93F8FC2293F89C
:1053A0004C0F93F8FC22904293F8FC220FD89042C5
:1053B00004D3D3F8F83200201844704793F8FC2245
:1053C000D3F8F832C2F18002104418447047801AB2
:1053D000D3F8F83218447047A01A002410B51B4CBB
:1053E00084B01B4B94F8FC220393134494F84C1F95
:1053F000029394F8FC32994294F8FC3214D8994202
:105400000AD294F8FC320191C3F180030093C9B928
:1054100001223F2B0ED868B994F8FC02401AB0FA6A
:1054200080F0400904B010BD0022CB1A0192012285
:105430000093EEE76946002302A850F081FE94F83D
:105440004C1FE9E70B440222E3E700BFA01A002447
:1054500000E100242DE9F043164685B000293BD039
:10546000451E284CDFF8A4804FF000096F180DE0AE
:1054700094F8FC3208468B4294F8FC321CD9C3F1F4
:10548000800318443F281AD8AF4225D094F84C0F17
:1054900015F8013F411C08F80030C9B20B0684F82A
:1054A0004C1FE5D5002094F8FC3284F84C9F01464F
:1054B0008B4294F8FC32E2D8C01A3F28E4D994F821
:1054C000FC328B42E0D0104B1B78002BDCD000204C
:1054D000FFF784FFAF42D9D1694602A8FFF728FF42
:1054E000DDE9003213443F2B00D910B905B0BDE807
:1054F000F0830246334602A850F022FE05B0BDE814
:10550000F08300BFA01A00240000002400E1002462
:1055100030B585B0694602A8FFF70AFF58B9094CB3
:1055200004F54175D4F8043328465B689847002891
:10553000F8D005B030BD0246012302A850F000FEAD
:10554000EDE700BFA01A002470B5114C16460A46BC
:1055500082B0D4F8003381190546994294F84C1F63
:1055600088BF1E1A94F8FC32994203D00192FFF7CB
:10557000CFFF019A002033462946C4F83003D4F8FF
:105580000403846A0348A44602B0BDE87040604743
:10559000A01A0024A41D00248C461346014662462E
:1055A0001846D1E738B5244C002204F61C70134687
:1055B000C4F8002302461178063202292BD00133A9
:1055C000062BF8D10022D4F80433C4F8482FF3B1E5
:1055D000DA6AE2B119489047D4F8483FC4F8440F5A
:1055E000A3B159889A884368521A02FB0333C4F85E
:1055F0000033FAF7E3FE94F8FC32054694F84C2F9A
:105600009A4201D0FFF784FFC4F8F85238BD0C4B22
:10561000C4F8443F38BD03EB4303D4F8042300EB44
:105620004303C4F8483F12B1D26A002AD2D1044AD7
:105630001046C4F8442FD4E7A01A0024A41D002467
:105640005C9A090810B50A4CD4F804335B6A13B1AC
:1056500004F541709847D4F8F832D4F8442F013B50
:105660005288134452421340C4F8F83210BD00BFB0
:10567000A01A00242DE9F043384E93B0FFF714FE32
:10568000FFF790FF96F8FC3296F84C2F9A4201D023
:10569000FFF73EFF0025D6F80073C6F8F85297B121
:1056A0006C46DFF8BC802A4641462046203501F092
:1056B00029FF204650F084FE012201462046FFF7D4
:1056C000C9FEAF42EFD896F8FC3296F84C2F9A42BA
:1056D00001D0FFF71DFFD6F8443F9B7B012B36D04E
:1056E00096F8FC3296F84C2F9A4201D0FFF710FF43
:1056F0000020C6F8F8026FB380466C46DFF8609071
:10570000054601E0AF421CD92A46494609A801F0E6
:10571000F9FE21220021204653F0F4F820222146F0
:105720002846FFF711FF2022064609A9204620350A
:1057300053F015FA08B9202EE4D0AF4208F1010861
:10574000E2D8B8FA88F0400913B0BDE8F083FFF75B
:1057500079FFC5E7012013B0BDE8F083A01A00244B
:10576000E0090A08F0B583B047F080F8214B292200
:1057700003F58054A3F8DA26A3F8E226D4F80C2225
:1057800012B10022C4F80C22D4F8142212B1002263
:10579000C4F81422184E0027012506F2AC4283F803
:1057A000547F84F8F051C4F808224CF019FD06F536
:1057B00099630DF10600ADF80670C4F80C32D6F806
:1057C000F43498470D4BC4F8140293F84131AB42BE
:1057D00002D0284603B0F0BD06F5A066D4F830022A
:1057E000C4F82C624EF0A8FD054B384683F82370B0
:1057F000F0E700BFA01A002400000024982B00242A
:1058000000ED00E00A4B93F8200518B9094B93F816
:1058100044017047084AD1680329F7D105494FF080
:10582000010C81F844C10021D16083F82015704734
:1058300000000024982B0024504000580321044607
