:020000040800F2
:10000000F0FF01200D370508D5BF040871B10108C4
:100010008537050885370508853705080000000085
:10002000000000000000000000000000D9BF04082C
:10003000DDBF040800000000E1BF0408ED9A0108DC
:10004000853705088537050885370508853705088C
:100050008537050885370508E1B30008E9B30008CE
:10006000F1B30008F9B3000801B4000821B1000899
:1000700035B1000849B100085DB1000871B1000850
:1000800085B1000899B10008853705080000000017
:1000900000000000000000000000000009B400089B
:1000A000B9D5000851D50008C9D5000841D50008C8
:1000B00079D5000889D5000899D50008EDAB00086E
:1000C00091BE0008F5AB000895BE0008853705080D
:1000D00085370508119A01081D9A010800000000E3
:1000E00011B400088537050861C604080000000047
:1000F000000000000000000000000000ADB100089A
:100100000000000085370508A9D5000885370508D7
:1001100000000000000000000000000000000000DF
:10012000C1B10008D5B10008E9B10008FDB100086F
:1001300011B20008000000000000000000000000F4
:10014000000000000000000000000000E5BF0408FF
:1001500025B2000839B200084DB20008299A0108FA
:10016000FDAB000899BE0008000000000000000080
:10017000000000000000000000000000000000007F
:1001800000000000853705080000000000000000A6
:080190008537050885370508D5
:080198006032050001000000C7
:1001A000220201001C010000FC4E0020E04D002056
:1001B00000000000A9A50008DC4D00201F020B0074
:1001C00016000000345000201C50002000000000E9
:1001D000D18D0008185000201840010038000000A0
:1001E0008850002050500020000000004DA500085D
:1001F0004C5000201B02010010000000D4500020D1
:10020000C450002000000000BD8D0008C050002038
:100210002802040004000000EC500020E8500020F8
:1002200000000000818D0008E45000202702040037
:1002300004000000F8500020F450002000000000EE
:10024000758D0008F05000201C0202001C00000008
:100250001C5100200051002000000000EDA4000807
:10026000FC500020001201000A000000485100204C
:100270003C51002000000000C18C000838510020D3
:100280001A0201003C000000945100205851002047
:10029000000000008DA40008545100202E0201002F
:1002A00004000000D0400020D451002000000000D5
:1002B000B16D0108D051002004000800800000004A
:1002C00038420020DC510020000000000000000047
:1002D000D8510020081203000F000000D042002077
:1002E0006052002000000000658C00085C52002075
:1002F0000A9001002400000074490020745200207C
:1003000000000000C5F60208705200200312010030
:100310003D000000BC4900209C520020000000006D
:100320000854060898520020010201000A0000004B
:10033000244D0020E052002000000000D98C00086D
:10034000DC5200200C02010004000000E442002006
:10035000F052002000000000F58C0008EC52002054
:10036000FD170100A0000000344D0020F8520020CD
:100370000000000011F40308F452002013100100E3
:1003800004000000D44D00209C5300200000000019
:100390004854060898530020F5C10100740000007D
:1003A000AC4C0020A45300200000000001F703081B
:1003B000A05300200202010003000000A84C00200E
:1003C0001C540020000000008D8E000818540020EE
:1003D000F62101000C0000000849002024540020F0
:1003E000000000004C5406082054002012120100A6
:1003F000040000009C67002034540020000000002E
:10040000AD8D0008305400201102010008000000EA
:10041000A06700203C540020000000008D8D0008E3
:1004200038540020F8310100060000006843002025
:10043000485400200000000058540608445400208E
:10044000021001000C00000034430020545400202E
:10045000000000006054060850540020FE01010016
:1004600014000000A8670020645400200000000071
:100470003D8C0008605400200612030012000000AA
:10048000204300207C540020000000003594000828
:1004900078540020F701010006000000C842002047
:1004A00094540020000000006C5406089054002072
:1004B0001A0001000E000000B8420020A0540020E5
:1004C00000000000725406089C5400201410010023
:1004D00005000000D5400020B454002000000000BA
:1004E000E9F10208B0540020FD01010021000000E4
:1004F00046400020C054002000000000876D010825
:10050000BC5400201D0202000600000040400020F4
:10051000E85400200000000000000000E454002027
:10052000F901010004000000BC670020F454002021
:10053000000000003D6D0108F05400201230010061
:10054000100000002C400020FC540020000000009F
:1005500080540608F8540020FA010100040000004D
:10056000E04200201067002000000000E98C000835
:100570000C6700200530010008000000C02F00209B
:10058000186700200000000090540608146700203F
:100590001302010004000000F03000202467002056
:1005A0000000000098540608206700200620010083
:1005B000280000000C3100203067002000000000FF
:1005C0000D8D00082C670020160215003F0000006A
:1005D000343000205C67002000000000F58D00082A
:1005E000586700200E02010002000000DCAD002070
:1005F00010B20020000000009C5406080CB200203D
:100600002F2001002200000018B20020D4AE0020EC
:10061000000000009E54060814B2002021020100D0
:10062000F0000000E4AB002044AF00200000000018
:1006300095F603083CB200202C00040010000000D6
:10064000D4AB0020D8B100200000000055F3020810
:1006500040B2002025201E002C010000A8AA002086
:10066000ACB00020000000000000000044B20020F8
:100670002B0012002400000058A20020E8B1002046
:100680000000000065F3020848B2002027000100C6
:100690000400000008A2002050B20020000000006A
:1006A000C05406084CB200200C6004007800000022
:1006B000889D002058B2002000000000E956020882
:1006C00054B20020031101000A000000FCA1002028
:1006D000D4B2002000000000A5620408D0B20020BF
:1006E000292014007800000084A1002034B00020EC
:1006F0000000000000000000E0B200200120010026
:100700000C00000078A10020E8B2002000000000EA
:10071000C4540608E4B200202320010010000000A9
:1007200068A10020F8B2002000000000B1F6020825
:10073000F4B20020284001001600000050A1002063
:100740000CB3002000000000C9F7020808B3002025
:100750000B3001001A00000034A1002028B3002053
:1007600000000000D054060824B300200E800400CE
:1007700090020000009E002048B30020000000000E
:10078000FDF1020844B300201E4001004D000000AE
:10079000E4A00020DCB5002000000000EA540608B8
:1007A000D8B500200D1001004C00000094A00020DE
:1007B000F8AE0020000000008D7A01082CB6002061
:1007C0001F50010024000000D8BB0020C8C7002033
:1007D0000000000038550608C4C70020384001005A
:1007E0000600000054B70020F0C700200000000001
:1007F0005C550608ECC700203750010028000000B7
:100800000CBE0020FCC70020000000006255060856
:10081000F8C700201B3001001000000060C300205A
:1008200028C8002000000000D9EC030824C80020DC
:10083000163001000800000074C300203CC80020EE
:10084000000000008A55060838C80020101001007A
:100850000200000094C1002048C8002000000000F1
:100860009255060844C80020190001000500000048
:1008700078C7002050C800200000000094550608EA
:100880004CC80020206201000C00000058BC002071
:100890005CC80020000000009A55060858C80020D7
:1008A0002D020100010000007CCA002088CA00203F
:1008B000000000000000000084CA0020290201009E
:1008C000400000007CC8002090CA0020000000000A
:1008D000A65506088CCA0020010101000400000092
:1008E0003CCA0020D4CA0020000000000000000024
:1008F000D0CA0020000101000400000038CA002016
:10090000DCCA002000000000E6550608D8CA002016
:10091000020101000300000034CA0020E4CA0020E4
:1009200000000000D9560208E0CA0020263001006D
:1009300008000000F0C90020ECCA00200000000000
:1009400059620408E8CA00202A12010008000000C9
:10095000E8C90020F8CA002000000000EA55060897
:10096000F4CA00200502010004000000F4CB0020BE
:10097000DCDE002000000000F2550608D8DE002072
:100980002C12010006000000B8CB002004DF00207C
:1009900000000000F655060800DF002023320100A9
:1009A000140000007CE0002038EE00200000000071
:1009B000FC55060834EE0020090201000100000089
:1009C000AC3E0120D43E0120000000001056060875
:0409D000D03E0120F4
:1009D40012010002000000408304205700020102BB
:1009E40003010000040309041A03000000000000CE
:1009F40000000000000000000000000000000000F3
:100A040000000100D8000000000000000500000004
:100A14000600000002000000000000008005002025
:100A2400286700200200000001000000D18A0008AD
:100A34007C0500200000000001000000010000000F
:100A4400B18A0008DC010020000000000000000062
:100A54000000000000000000000000000000000092
:100A64000000000001000000000000000000000081
:100A74000000000000000000010000000000000071
:100A84000000000000000000000000000100000061
:100A9400000000000300000000000000050000004A
:100AA400FFFFFFFF05000000E98B0008158C00081C
:100AB4002D8C0008318C0008C59F0008358C000877
:100AC400398C00082468050881960408316B0408F1
:100AD40005BD0408000000000000000081BE0408F9
:100AE400C1BE040800000000000000000000000077
:100AF400716B04087D890008898900087D9D0008C0
:100B0400559D000895890008999D0008B59D000829
:100B1400FF0000000060024010600240000000007E
:100B24000000000000000000000B000000000000B6
:100B34000000000000000000006002402860024045
:100B4400010000000000000000000000060C00008E
:100B540000000000000000000000000000600240EF
:100B6400406002400200000000000000000000009D
:100B7400100D000000000000000000000000000054
:100B840000600240586002400300000000000000C2
:100B940000000000160E000000000000000000002D
:100BA4000000000000600240706002400400000089
:100BB4000000000000000000200F00000000000002
:100BC4000000000000000000006002408860024055
:100BD40005000000000000000000000026100000D6
:100BE400000000000000000000000000006002405F
:100BF400A0600240060000000000000000000000A9
:100C0400301100000000000000000000000000009F
:100C140000600240B86002400700000000000000CD
:100C240000000000362F000000000000000000005B
:100C34000000000000640240106402400000000054
:100C44000000000000000000003800000000000068
:100C5400000000000000000000640240286402401C
:100C64000100000000000000000000000639000040
:100C740000000000000000000000000000640240CA
:100C84004064024002000000000000000000000078
:100C9400103A000000000000000000000000000006
:100CA4000064024058640240030000000000000099
:100CB40000000000163B00000000000000000000DF
:100CC4000000000000640240706402400400000060
:100CD4000000000000000000203C000000000000B4
:100CE400000000000000000000640240886402402C
:100CF4000500000000000000000000002644000081
:100D04000000000000000000000000000064024039
:100D1400A064024006000000000000000000000083
:100D2400304500000000000000000000000000004A
:100D340000640240B86402400700000000000000A4
:100D44000000000036460000000000000000000023
:100D54000000000000000401000002000100000285
:100D640010000000070000001F0000001C0000002D
:100D74001F0000001E0000001F0000001E000000F5
:100D84001F0000001F0000001E0000001F000000E4
:100D94001E0000001F0000000068214C0101FF003C
:100DA40088670508BC670508F0670508FFFFFFFFB3
:100DB400080000000600000005000000AD6B0408F8
:100DC400B16B0408B56B0408C16B0408C56B040857
:100DD400B96B0408BD6B0408FFFF0000FFFFFFFFB1
:100DE40001000000FFFFFFFF0001010100000000FF
:100DF40094F9050800000802050303000000000040
:100E04009CF9050801000802050403000000000025
:100E1400A4F905080000080205030300000000000F
:100E2400ACF90508010008020504030000000000F5
:100E3400943806080200FE010110030000000000BF
:100E440084E8050803001402000300000000000009
:100E5400B4F9050804001F0202000B0000000000A2
:100E6400BCF9050805001F0202010B000000000088
:100E7400FFFFFFFF010102007D00000030FA0508BA
:100E8400D4FD05080000000051ED0108A086010012
:100E94000400000030FA0508A03106080000000034
:100EA40041970108E80300000400000050E505082C
:100EB4000000000000000000295F02087D0000001F
:100EC400FF00000040E905080000000000000000E9
:100ED400ED7C02087D000000FF000000A44106082C
:100EE4000000000000000000593203087D000000EB
:100EF400FF00000080FE0508000000000000000064
:100F040021790108E80300000300000034EB050820
:100F14000000000000000000D95A03081027000058
:100F240003000000B0F905080000000031F40208D5
:100F340025C601085F760000050000005C00060875
:100F44000000000000000000B9780108102700002C
:100F540002000000A83106080000000000000000A4
:100F6400CD6F0108E803000005000000B431060855
:100F7400000000000000000039590208204E000063
:100F840003000000C4310608000000000000000057
:100F940019730208204E000003000000D431060833
:100FA400000000000000000059B90108400D0300D2
:100FB400030000000CFB0508000000000000000016
:100FC400A9C301081027000002000000F4FD050871
:100FD40000000000000000009D2F040810270000FE
:100FE40003000000E43106080000000000000000D7
:100FF400C59C01081027000003000000F03106081A
:10100400000000000000000051BD0108A8610000BC
:1010140002000000E8E905080000000000000000EC
:10102400BDA50108A86100000200000090E70508C2
:101034000000000000000000C57001081027000037
:101044000200000064000608000000000000000028
:10105400F97A0108A00F000002000000F831060828
:101064000000000000000000814504081A4100004F
:101074000200000014FB05080000000045F403080A
:1010840025530408854501000200000050E70508C7
:101094000000000000000000E96E040810270000B2
:1010A40002000000E0FD0508000000000000000050
:1010B40025A1030850C30000020000000432060802
:1010C400000000000000000035730408400D030018
:1010D400010000000C3206080000000000000000BF
:1010E400C51A040850C300000300000018320608A3
:1010F40000000000000000003570020840420F00AC
:101104000100000024320608000000000000000076
:101114008198010850C30000010000003032060825
:101124000000000000000000C19A0408102700001D
:1011340002000000A86100000000803F00000000E1
:1011440000000000000000000000803F00000000DC
:1011540000000000000000000000803F00000000CC
:101164000000000000000000FFFFFFFF8DED0108FC
:10117400000000000000000000000000C9AB0108EE
:10118400000000000000000000000000010000005A
:10119400FFFFFF7F0000008000000000F0DE002061
:1011A4000800000000000000E0DE0020080000004D
:1011B4007EFF7EFFE2FFE2FFFFFFFFFF01F11F3F23
:1011C4006DC30108000000000000000000000000E2
:1011D4000000FA430000FA430000803F00000000D2
:1011E40000000000000000000000000000000000FB
:1011F40000000000000000000000000000000000EB
:101204000000803F0400000000FF00000000000018
:1012140000000000719103080000000000000000BD
:1012240070A505080100E001F5AF03080000000007
:10123400000000001CBF05080000000000000000C2
:101244000000000038AA05080000000000000000AB
:1012540000000000F0AA05080000000000000000E3
:10126400000000009CAA050839E303080000000000
:10127400000000009CA90508597204080000000041
:101284000000000010A90508B1A90308000000002F
:1012940000000000C8A8050801000000FA000000D2
:1012A4000100000001000000000000000000000038
:1012B40071A903081DF60020012D202D2D202D2DB0
:1012C4002D2D202D2D2D0000000000000000000019
:1012D400000000000000000001010000D4EF002025
:1012E40088136F1701000000D6EF002088136F17D2
:1012F40000000000D8EF002088136F1701000000E1
:10130400DAEF002088136F17000000002191030812
:10131400000000000000000030A6050855F600207B
:101324000100000084A60508DDEF00200100000094
:1013340090A6050884F000200200000098A6050885
:10134400499103080000000000000000A4A605085D
:10135400000000000000000000000000F8A60508DE
:1013640000000000000000000000000068A705085D
:10137400D2EF002002000000B0A7050854FB0020B3
:10138400E0150C1700000000C01200002AFC002029
:10139400000000000000000028FC00200000000005
:1013A4000000000026FC00200000000000000000F7
:1013B40024FC0020000000000000000022FC0020AB
:1013C400000000000000000020FC002000000000DD
:1013D40000000000500B002000000000000000008E
:1013E400DCEF002003000000A0A7050800000000B7
:1013F4000000000000000000BCA705082EFC00202F
:10140400E0150C170000000030FC00200200000072
:10141400B0A705082D202D2D202D2D2D2D202D2D6F
:101424002D2D00000000000000000000000000005E
:1014340000000000000000000000000000000000A8
:10144400F4A7050832FC00209CFF2C0100000000DA
:101454002EFB0020E0150C170000000090FA00207D
:1014640002000000B0A705082D202D2D202D2D2DC4
:101474002D202D2D2D2D0000000000000000000067
:101484000000000000000000000000000000000058
:10149400000000002CA8050874EE002005140100CB
:1014A40073EE00200AFF010072EE002000FF01002D
:1014B40071EE002000FF010070EE002000FF01002B
:1014C4006FEE002000FF01006EEE002000FF01001F
:1014D4006DEE002000FF01006CEE002000FF010013
:1014E400B9880308FD8803080000000038AB05082C
:1014F40090EE0020053201008EEE0020E803D007B4
:10150400010000008CEE0020E803D0070100000079
:101514008AEE0020E803D0070100000088EE0020D6
:10152400030F010086EE00201900F4010100000001
:1015340084EE00200500F4010100000082EE00208A
:10154400003C010080EE00200000B80B0100000008
:101554007EEE00200200FF00010000007CEE00206F
:101564003200C409010000007AEE0020000064008B
:101574000100000078EE00200200000080790508D8
:1015840076EE00201400E80301000000C4EE002001
:1015940000C80100C3EE002000500100C2EE00208C
:1015A400005A0100C0EE0020020000004C7505083E
:1015B4000C3D0608143D06087AF400200100C40915
:1015C4000000000078F400200100C40900000000BD
:1015D40076F400200100C4090000000074F4002027
:1015E4000100C4090000000070F400200100C409D7
:1015F4000000000072F400200100C4090000000093
:101604006EF400200100C409000000006CF4002006
:101614000100C40900000000B3EF002000C801006D
:10162400B2EF002000C80100B0EF00200000FFFF6F
:101634000A000000AEEF00200100C8000100000015
:10164400ACEF00203200307532000000AAEF002019
:10165400E2FF140005000000A8EF00207EFF140044
:1016640005000000A6EF002005002C010500000085
:10167400A4EF0020055A0500B9EF002000FF010087
:10168400B7EF002002000000780D0020B5EF002025
:1016940003000000E0AB0508B8EF002000FF0100E4
:1016A400B6EF002002000000780D0020B4EF002007
:1016B40003000000E0AB050894F00020FF7F010068
:1016C40090F0002000000000FFFFFFFF0100000079
:1016D4008CF0002000000000FFFFFFFF010000006D
:1016E40088F0002000000000FFFFFFFF0100000061
:1016F400418903089989030800000000F0AB05083C
:1017040066EE0020EE02CA080100000065EE00202B
:1017140000C801006400000064EE002001C801005C
:101724006400000063EE00200200000084760508D7
:10173400D0EF00200000803E05000000CEEF002026
:1017440080C1803E05000000CCEF00200083007DB6
:1017540005000000CAEF002080C1803E05000000A3
:10176400C8EF002000FF0100C6EF00206400F40170
:1017740001000000C4EF00206400F4010100000037
:10178400C2EF00206400F40101000000C0EF00205B
:10179400040000003C790508BFEF002002000000AF
:1017A40030790508FDEE00200D00000000750508E5
:1017B400FAEE002000640100F8EE00203200102749
:1017C4000A000000F7EE00200D0000000075050877
:1017D400F6EE00200D00000000750508F5EE00206F
:1017E4000200000038750508000000000000000039
:1017F40000000000FCAC050862EE00205900000067
:10180400C876050860EE00200300000034AD05082A
:1018140061EE00200400000050790508F3EE00207A
:101824000300000044AD0508F2EE002003000000B0
:1018340044AD0508E6EE0020000A0100E4EE0020B5
:101844000000E80301000000E2EE00200000E803CD
:1018540001000000E0EE0020000A0100DEEE00209E
:101864000000E80301000000DCEE00200000E803B3
:1018740001000000D4EE0020C800E80301000000CD
:10188400DAEE00201400FA0001000000D8EE002077
:101894000100E80301000000D6EE0020000501006D
:1018A400D2EE00200200000008760508D0EE0020E9
:1018B4000000F40101000000CEEE00200000F4015D
:1018C40001000000CCEE00200000F4010100000043
:1018D400CAEE00200000F40101000000C8EE002060
:1018E4000000E80301000000C6EE00200000E80349
:1018F40001000000AFEE002019640100AEEE0020EC
:1019040002000000FC750508A3EE0020006401003D
:10191400A2EE002000640100AAEE00200064010091
:101924000A000000A9EE0020006401000A00000083
:10193400A8EE0020006401000A000000ADEE0020C3
:1019440000FF01000A000000ACEE002000FF0100CF
:101954000A000000ABEE002000FF01000A000000B6
:10196400A7EE002001FF01000A000000A6EE0020FF
:1019740001FF01000A000000A5EE002001FF0100A4
:101984000A000000F0EE00200000F4010100000055
:10199400EEEE00200000E80301000000ECEE002061
:1019A4000000E80301000000EAEE00200000E80364
:1019B40001000000E8EE00200000E8030100000040
:1019C4001AF60020E803D0070A00000018F60020E9
:1019D4000064010016F60020E803D0070A000000A6
:1019E40014F60020006401000A00000013F6002031
:1019F400009601000AF6002000C8010009F6002044
:101A04000064010008F600200064010007F60020CD
:101A14000064010006F600200064010005F60020C1
:101A2400FF08010004F6002001640100AD8A0308E8
:101A3400F18A03080000000054AD05080DF60020EB
:101A4400013201000CF6002001000000D0750508E9
:101A54000BF6002004000000D875050803F60020EA
:101A64000096010002F600200064010001F6002047
:101A740000FA01006400000000F600200AFA0100E8
:101A8400FFF500200AC80100FEF5002000640100F3
:101A9400FDF5002000640100FCF500200A5A010055
:101AA400FBF5002000C80100FAF5002000C8010081
:101AB40010F600200032010012F60020001401008C
:101AC40011F60020005F01000FF600200400000062
:101AD400CC7405080EF60020006401000A00000022
:101AE4009DEE00200AC805000A0000009CEE0020BC
:101AF40001000000247A05089FEE00200AC80500B2
:101B04000A0000009EEE002001000000247A05086F
:101B140094EE002000C805000A0000009BEE00209F
:101B240000C805000A00000095EE002000C805006A
:101B34000A00000096EE002000C805000A0000001C
:101B440099EE002000C805000A0000009AEE00206B
:101B540000C805000A00000098EE002000C8050037
:101B64000A00000097EE002000C805000A000000EB
:101B740093EE00200200000098740508F8F5002098
:101B84000000D00701000000F3F5002000C80100A8
:101B9400F2F5002000C80100F1F5002000C80100A2
:101BA400F6F500200000D00701000000F0F5002049
:101BB40000C80100EFF5002000C80100EEF5002088
:101BC40000C80100F4F500200000D0070100000067
:101BD400EDF5002000C80100ECF5002000C801006C
:101BE400EBF5002000C80100B4490608000000001D
:101BF400000004FC0020C04906080708000000009B
:101C0400A8130020C8490608070800000000A01314
:101C14000020D0490608070800000000981300209F
:101C2400D84906080808000000008C130020E04989
:101C3400060807080000000084130020E84906088D
:101C44000708000000007C130020F049060807087C
:101C54000000000074130020F8490608080800007A
:101C6400000068130020004A060807100000000066
:101C740060130020084A06080710000000005813EB
:101C84000020104A0608071000000000501300202E
:101C9400184A060808100000000044130020B83A4F
:101CA4000608010000000000000000000000000021
:101CB400100000000000000000000000E58D030893
:101CC400F58D030855960308C4AD050803EF0020FD
:101CD400005A010002EF002000C8010000EF0020BC
:101CE400E803D0070100000000000000000000002D
:101CF4008DAC030860AE0508BEEF002003000000B1
:101D040088740508BDEF002000030100BCEF00202B
:101D140000030100898E0308DD8E03080000000023
:101D2400B4AE0508318F0308718F0308000000006A
:101D34005CAF0508718E030845B10308000000007C
:101D4400DCAF0508BAEF0020010301002592030867
:101D54004D920308000000006CB30508ED870308EA
:101D64000D88030800000000ECB30508F18F030898
:101D740051900308000000005CB40508958D030829
:101D840031DC03080000000014B505081DAB03088E
:101D9400B587030800000000BCB50508ED8C0308F6
:101DA400000000000000000058B60508AD8B0308D1
:101DB400198C030800000000BCB60508358B030825
:101DC400718B03080000000074B7050829EB0308B1
:101DD400798A03080000000000B80508E9F500202E
:101DE40003000000F4FB00207D8C0308B98C030879
:101DF40000000000E0B8050871EB0308D9AE030841
:101E04000000000050B90508F1890308B5AD0308C6
:101E1400000000003CBB0508CDEA030875AD0308CB
:101E240000000000B0130020EAF5002003000000C9
:101E3400B0FB0020118E0308418E0308000000004F
:101E440048BC0508F5A003080000000000000000DD
:101E5400ACBC0508B98F030861B103080000000099
:101E640048BD05080000000000000000000000005C
:101E7400E4BD050841EA030841AD03080000000081
:101E840064BE0508000001FFFFFFFFFFFCFFFFFF2A
:101E940001FD00000000803FFF010101AA55070178
:101EA40000001401FF00000009024300020100C009
:101EB400320904000001020201000524001001059A
:101EC40024010001042402020524060001070582FE
:101ED400030800FF09040100020A000000070501CD
:101EE400024000000705810240000000090264006E
:101EF400030100C0320904000001030000000921AD
:101F0400110100012236000705830309000A080BAA
:101F1400010202020100090401000102020100059C
:101F240024001001052401000204240202052406F1
:101F34000102070582030800FF09040200020A00E7
:101F4400000007050102400000070581024000006F
:101F540009022000010104C032090400000208063D
:101F640050050705810240000007050102400000FA
:101F740012010002EF020140830456320002010202
:101F840003010000120100020202004083044057D2
:101F9400000201020301000004030904010101AA73
:101FA40055050100000801010100000005010905B3
:101FB400A101A100050109300931093209330935AC
:101FC4000934093609371581257F7508950881027A
:101FD40005091901290815002501950875018102D3
:101FE400C0C0000009022200010100E0320904001F
:101FF400000103010200092111010001223600073A
:1020040005830309000AAA550902000000AA550322
:10201400009F000001000000AA550B010000AA5512
:1020240005010000FFFFFF00F401000000000000B4
:10203400000000000000000001000000116A040814
:10204400000000000000000000000000010000008B
:102054000000000000000000010203040102030468
:102064000607080919910408B9910408F58B0408B6
:10207400516A040839950408356A04081D6A04087D
:10208400616A0408716A040800000000000000008E
:1020940035960408D96A040819950408000000005C
:1020A400096B040869960408458B04081D8B040811
:1020B4000000000000000000FD6A04087D6B0408B5
:1020C400A16B040805BC040821BC04083DBC040839
:1020D40059BC040875BC040889950408B56A040849
:1020E4000593040800000000816A0408618904085B
:1020F400058A0408F58A04080000000000000000B6
:10210400A96A0408000000000000000001020304A2
:1021140006070809C70000000500000006000000CB
:10212400EC18002000000000000000000000000087
:10213400000000000000000000000000000000009B
:10214400000000000000000000000000000000008B
:10215400000000000000000000000000000000007B
:10216400000000000000000000000000000000006B
:10217400000000000000000000000000000000005B
:042184000000000057
:10800000074BD0F8E4105B68D0F8F0205B1A9A4276
:10801000B8BFC0F8F030012380F81C310020704751
:10802000001000E0B74B00EB800270B503EBC20418
:1080300053F832205268B2F814C01CF0010F4FEA16
:1080400080016AD15FFA8CFE1EF0020F3DD0BFF3B3
:108050005F8F257F012D5FFA85FC00F0CC80148BAB
:10806000BFF35F8F0C1803EBC404257F022D00F0D3
:10807000E3800C1803EBC404257F032D06D1A47FF5
:1080800024B193F87940002C40F0E5809488A4B2A4
:1080900044F48064948093F978C001EB000E03EB04
:1080A000CE0E9EF81CE00EF1010EE6450CD1002428
:1080B00083F8794093F87A40002C40F0B680084469
:1080C00003EBC00300225A7670BD1EF0040F5BD193
:1080D0001EF0400E00F0C880158A93F978C0666AD9
:1080E000EDB206F80C505FFA8CFE267F0EF101040B
:1080F00064B2E51CAE4283F87840A44600F02A81C1
:108100000D1803EBC5052D7FAC42C6D10EF1020C54
:108110004FFA8CFC83F878C0BFE7B2F800C02CF4AB
:10812000006C4FEA0C4C4FEA1C4CA2F800C0B2F8AD
:1081300000C01FFA8CFC4CF4806CA2F800C0A57F34
:108140004FF0000C83F878C0002D46D093F879509A
:10815000002D3FD0012483F879400C1803EBC404B0
:10816000247F022C04D11488A4B244F40064148047
:108170000C1803EBC404A47E44F0010414820844E8
:1081800003EBC0031B7F70BDA57F4FF0010C83F88C
:108190007AC0002D6FD093F87950002D70D10C1853
:1081A00003EBC404647F002C00F0AE80148893F8C5
:1081B00078C0A4B244F400740CF1010C14804FFA9E
:1081C0008CF483F87840B2F800C01CF4807FFAD1B8
:1081D000A44662E7E47EFF2CBCD00C1803EBC40479
:1081E000A57E05F0FE051582E27EFF2AC7D0FF229C
:1081F00083F87820C3E7A47F002C3FF430AF93F8D6
:108200007940002C3FF42BAF148824F480642404BC
:10821000240C1480BFF35F8F148B148883F87AC00A
:10822000A4B244F40074148030E7948824F44074B9
:108230002404240C948042E7A47F002C3FF419AF5F
:1082400093F87940002C3FF414AF148824F4806430
:108250002404240C1480948824F480642404240CC2
:10826000948093F978C018E71FFA8CF52D0631D465
:1082700093F978C011E793F87940002C8FD095E7F7
:10828000257F022D15884AD925F480652D042D0CF3
:108290001580158A666A93F978C0EDB206F80C501D
:1082A000666A1488A4B244F4007414805FFA8CFCEB
:1082B000158A0CF1010464B2EDB2355595880CF1C4
:1082C000020CADB24FFA8CF445F4806583F8784027
:1082D000958078E793F978506E1C42D0266A765DD7
:1082E0001682247F05F1010C4FFA8CFC644583F85B
:1082F00078C07FF4D2AE948824F480642404240CE3
:108300009480CAE6501900201488A4B244F4807402
:108310001480012483F8794093F9784053E7ADB293
:1083200045F400751580158A666A93F978C0EDB238
:1083300006F80C505FFA8CFC666A158A0CF1010491
:1083400064B2EDB20CF1030C35554FFA8CF483F89E
:10835000784038E7958825F480652D042D0C9580AC
:10836000CEE6E57E1582A57F83F878E01DB9247FEF
:10837000002C7FF404AF948824F480642404240C3B
:108380009480FCE61B4B01681B4A03F5727C03E0FA
:1083900063452CD053F82C2F9142F9D170B593F846
:1083A00004E0427996450AD0634505D053F82C2F56
:1083B0009142F4D06345F9D14FF0FF3070BD9E4635
:1083C0008468DEF80C50A5424FF0000208D001325C
:1083D000032A0EF10C0EE7D0DEF80C50A542F6D1C0
:1083E000DEF81050C668B542F1D150B270BD4FF002
:1083F000FF307047B44F05080000014030B5EAB1C6
:108400008E464FEA014C034600F1C005002419686E
:108410009A6841EA0C0142EA0E029A60C3E900142C
:108420000C33AB42F3D1D0F8C030C0F8C44043EABB
:108430000E03C0F8C030C0F8C84030BD4FEA014E4E
:108440008C46E0E783691969B3F80CC00A6830B458
:108450009C6822F0010224680A60A28992B222EA92
:108460000C02A281027D04681F2A06D96568203AA1
:1084700008209040284246D0FEE72568082090401A
:108480002842F9D1202000FA02F2A260274A92F88D
:108490007B20002A35D01A7E012A39D0D3F8F42067
:1084A0000132C3F8F420EFF31181502282F31288D5
:1084B00058685C6C026822EA04029C6C2243C9B2D0
:1084C000026081F31188D3E90C401A6999681D6C28
:1084D000096814605061D3E90E4054609060002434
:1084E000B3F8A800D5604C62C8621068012420432C
:1084F00010601C7683F8F1408A899B8913439BB2F4
:108500008B8130BC7047202000FA02F2E260BDE7A8
:10851000002283F8F120D3F8F8000A68013022F035
:108520000102C3F8F8000A60EBE700BF5019002011
:1085300010B40C4CE36F002B11DD002004F1800C13
:108540000146DCF8A03003F1C00259600C339342BD
:10855000FBD1E36F013083420CF5807CF1DC5DF8E8
:10856000044B704750190020704700BF024B03EBCB
:10857000401090F89D047047501900204368B0F8EF
:10858000502010B41A83EFF31182502383F3128822
:108590004168446C0B6823EA0403C46C2343D2B2E1
:1085A0000B6082F31188D0E9074182680369126881
:1085B0001C605961D0E909415C60C46A9960B0F8F7
:1085C0006010DC600023D1625DF8044B03767047D5
:1085D00010B4037D01681F2B09D94C68203B202271
:1085E00002FA03F31C4215D15DF8044B70470C6886
:1085F000202202FA03F31C42F6D00D4A4068002400
:1086000082F8804502685DF8044B22F001020260A6
:108610008B607047064A4068002482F880450268F3
:108620005DF8044B22F001020260CB60704700BF8E
:10863000501900200C2911D8DFE801F02310101088
:1086400019101010111010100700838B23F4006311
:108650001B041B0C43EA022292B282837047838B75
:1086600023F008031B041B0C1A4382837047038BFF
:1086700023F400631B041B0C43EA022292B2028320
:108680007047038B23F008031B041B0C1A4302835F
:10869000704700BF704700BF0B4890F8B81589B10C
:1086A00001EB4101002310B4490000F5B8601C46FD
:1086B00050F82320063302B114608B42F8D15DF8E4
:1086C000044B7047704700BF501900200B4890F8CA
:1086D000B81589B101EB4101002310B4490000F540
:1086E000B8601C4650F82320063302B1146099424A
:1086F000F8D15DF8044B7047704700BF5019002057
:1087000001207047034B00EB400003EBC00090F8E2
:10871000D10570475019002007EE900AB8EE670A9D
:10872000704700BFBCEEC00A10EE103A98B2704716
:1087300008B51D2010F0A6FE08B183794BB11E20AC
:1087400010F0A0FE08B1837903B108BD5523C380A2
:1087500008BD5523C380F2E710B50C2937D8DFE8F0
:1087600001F09736363666363636373636360700F7
:10877000038C5488B2F80CE023F480531B041B0CC8
:108780000384038CB0F804C0818B21F4E6414EEAE7
:10879000040E0904148823F40053090C41EA04214F
:1087A0001B04754C1B0C43EA0E33A0421FFA8CFCD1
:1087B0009BB289B200F0AE8004F58064A04200F064
:1087C000A9809268A0F804C081830264038410BD6C
:1087D000038CB2F80CC0548823F480731B041B0C68
:1087E0000384038CB0F804E0818B23F400731B0432
:1087F0004CEA040C21F073011B0C43EA0C2309041E
:10880000B2F800C0090C41EA0C0C5B4988421FFA1F
:108810008EFE9BB268D001F58061884264D0926878
:10882000A0F804E0A0F81CC0C263038410BD038C50
:10883000B2F80CC0548823F010031B041B0C0384F3
:10884000038CB0F804E0018B23F020031B044CEAF6
:10885000040C21F4E6411B0C43EA0C130904B2F8A2
:1088600000C0090C41EA0C211FFA81FC42498842F0
:108870001FFA8EFE9BB269D001F58061884265D0F7
:108880009268A0F804E0A0F818C08263038410BDC9
:10889000038C5488B2F80CE023F001031B041B0C7A
:1088A0000384038CB0F804C0018B21F073014EEAFD
:1088B000040E0904148823F00203090C1B0421434D
:1088C0002D4C1B0C43EA0E03A0421FFA8CFC9BB2FA
:1088D00028D004F58064A04224D09268A0F804C097
:1088E00001834263038410BDD189548A23F4006359
:1088F00043EA0121138A2EF4405E23434EEA031E0D
:1089000094884FF6FF330B4043EA04231FFA8EFE90
:108910009BB284E7148A2CF4804C4CEA841C1FFA26
:108920008CFC4EE7D489B2F810E023F0080323430F
:10893000548A2CF4407C4EEA040E948823F00403FD
:108940004CEA0E0C1FFA8CFC2343C6E7D189548AEB
:1089500023F0800343EA0111138A2EF4406E23436F
:108960004EEA830E94884FF6BF730B4043EA04131C
:108970001FFA8EFE9BB283E70000014012230148DC
:108980000B80704798010020042301480B8070473A
:10899000AC0100202048D0F8E837D0F8EC2730B5FB
:1089A0009B184FF01A040C8001D11C4830BD1B4AA3
:1089B000D0F8EA174FF0000E10467546B3F1204F7D
:1089C0004FEA137C0CF130040EF1020E2ABF0CF1B9
:1089D000370C847080F802C0BEF1100FC5704FEAEA
:1089E000031300F10200E9D100200446B1F1204F49
:1089F0004FEA117303F1300C00F102002ABF373344
:108A000082F812C093740828D4744FEA011102F15D
:108A10000202EBD1014830BD00F0FF1FB001002081
:108A200082B01F4B002201920193019B1D4A043327
:108A30000193019B1968936803F00C03042B07D082
:108A4000082B0AD0184B194AC3F8802602B0704789
:108A5000154BC3F8801602B070475368506813F482
:108A6000800F00F03F00536813D1C3F388130F4900
:108A7000B1FBF0F101FB03F30A4A0B495268C2F360
:108A8000014201325200B3FBF2F3C1F8803602B06A
:108A90007047C3F38813B1FBF0F101FB03F3EBE77D
:108AA0005028004000380240501900200024F400F3
:108AB0000123437700207047D0E90B2108B5836973
:108AC0000B4483610AB108469047002008BD00BFEF
:108AD000436A1B681B6A5B685B78024613F00100FF
:108AE00008BF5077704700BFC2628161704700BF06
:108AF000704700BF043070470D4B93F88826D3F8B9
:108B000084160244D2B283F8882693F88826084453
:108B10001206C3F8840605D593F8882682F08002F1
:108B200083F88826034B012283F83220704700BF68
:108B300050190020980100202DE9F047144FD7F874
:108B40008C56ED0A1ED00026B04607F2C469D7F84D
:108B500090361048D3F828A0C7F8BC86AC1964102A
:108B600010234A46E102D0470F280BDD0A4B03F1E0
:108B7000100C53F8041B013107D16345F9D1254688
:108B8000B542E4DCE802BDE8F087661CF8E700BF08
:108B900050190020E01F00201420002010B5114CB7
:108BA000D4F8D426D4F8D836D31A322B12D8D4F825
:108BB000DC36934200D310BDD4F8E03633B11968E7
:108BC0009B884869034214BF4B830B833232C4F83D
:108BD000DC2610BD0021084610F092FD0023C4F8E9
:108BE000DC3610BD50190020094A92F8EC36D2F854
:108BF000E02603F001031AB123B9136892881A839F
:108C000000207047136892885A830020704700BF85
:108C1000501900204FF40070034B1060D3F8F83661
:108C20000B600020704700BF5019002000207047E3
:108C3000012070470120704700207047012142F257
:108C40000102002342F2011C017202804FF47F41B5
:108C5000FF22A0F804C043818381C3810182827412
:108C6000704700BF154BFF224FF0FF3CF0B5C270BC
:108C70000271027242724273827303F10C076646FC
:108C8000172516244FF0150E002202EB82028118E0
:108C90009F4200F802E04C708D70CE7081F804C0E5
:108CA0000BD093F9062093F807E01C7A5D7A93F9CC
:108CB0000A6093F90BC00633E7E7F0BDA853050837
:108CC0004FF0000C01210222032380F805C08171BE
:108CD000C2710372704700BF002302220370437009
:108CE0008370C370027170471022022302704370B8
:108CF000704700BF4FF0010C2C210222002380F8A6
:108D000000C041708270C370704700BF4FF4F072B2
:108D100002804FF4FA6240F22E4C0621028440F2A7
:108D20002622A0F81EC081704FF47A7C4FF4F561C2
:108D3000828342F224520023A0F822C0818442F2AE
:108D4000267C0E2102810222A0F80AC080F826109B
:108D500040F2012C40F2034143718371427443821B
:108D600040F205620723A0F814C0C1820283837613
:108D7000704700BF0023037043708370C370704757
:108D80000023037043708370C37070470123002277
:108D90004FF02A0C3E2180F800C041708270C270F2
:108DA000037143718371C371704700BFFF23282192
:108DB0002922017042708370C3707047002306211E
:108DC0004FF47A72C0E9012301700373704700BF4A
:108DD0000023411CFF2200F8132001F81320013367
:108DE0000B2BF8D1027042708270C2708272C27214
:108DF000704700BF4FF0130C80F800C04FF0030C19
:108E000080F801C04FF0FF0C80F802C04FF0240C36
:108E100080F803C04FF0250C80F806C04FF0260CF8
:108E200080F809C04FF0270C80F80CC04FF0230CDD
:108E300080F80FC04FF02A0C80F812C04FF0100CD1
:108E4000022180F815C04FF0120C00230122817519
:108E500080F818C041764FF0180C1F210271437141
:108E6000C27103728272C372427383730274437459
:108E7000C2740375C375837680F81BC0027743778D
:108E80008177C27780F82030704700BF03230370DA
:108E9000704700BF704700BFD0ED007AD0ED016A87
:108EA00030EE677AE6EE877AB0EE670AC0ED007AB8
:108EB000704700BFD0ED017AD0ED026A30EE677ADC
:108EC00090ED000AE6EE877A37EEC07AC0ED017ABF
:108ED000A6EE870A80ED000A704700BF90ED017A88
:108EE000D0ED036AD0ED027A30EE470AA6EE807A22
:108EF00090ED000A80ED017A37EE676AE6EE867A39
:108F000037EEC07AC0ED027AA6EE870A80ED000A3D
:108F1000704700BFD0ED056AD0ED017A90ED007A80
:108F200090ED066AD0ED025A90ED035A80ED050AE5
:108F300066EEA77AC0ED066AE7EE007A90ED077A52
:108F4000E5EE867A90ED086AD0ED045A80ED087A55
:108F5000E5EE477AE5EEC67AB0EE670AC0ED077A2D
:108F6000704700BF164BD0F8E0105A6810B50446A1
:108F7000D0F8D80071B1131A99420BDC94F8D030B4
:108F8000C4F8D820012B10D0D4F8D4300133C4F861
:108F9000D43010BDD4F8E430C4F8D8200344C4F869
:108FA000DC3094F8D030012BEED104F1E801201D23
:108FB0000FF088FED4F8D4300133C4F8D43010BD9B
:108FC000001000E070B5224A224C234B94B00546B5
:108FD000CDE90042214A0992A4F108020A922A7FAF
:108FE0000493201D0023CDE905039A42CDE90E33F9
:108FF0000B931093139314BF0520042011936B6AF5
:109000000C9002200122029018688DF80C200E4668
:1090100007928DF820208DF834208DF8482049F0F3
:10902000A7F92B7F93B1330E04F8073C063C320CB2
:10903000330A22706370A670686A69460FF042FEB8
:109040006B6A186849F094F914B070BD073CEEE7FC
:1090500078200020D4010020D18A0008B18A0008BD
:1090600010B5044694B05022064968464BF0DAFE2B
:10907000606A69460FF026FE636A186849F078F95D
:1090800014B010BDBC5305082DE9F0410446406AF8
:1090900000681E460F46904649F06AF9237F002B70
:1090A0003FD02A4DA0690523EB67030E85F84530B4
:1090B00005F146039870020C000A58701A703B685C
:1090C000C5F888300020D8F80030C5F89030012E5F
:1090D0002363C5F8A0002BD0022E20D1D8F804209D
:1090E000C5F89800796885F89400C5F89C10134479
:1090F0001749C5F8A4200120236385F8A800C5F806
:10910000AC10144B617F606A03F11402002914BF94
:10911000194611460FF0D6FDE36A8BB1206BBDE80E
:10912000F0810A4DA0690423EB6705F14503C1E70F
:10913000074B85F89460C5E92630C5F8A400E0E740
:10914000636A186849F014F9E8E700BF9801002045
:10915000B98A0008E401002000B583B08161019262
:10916000049A0093C26201236A4601A9FFF78CFFAB
:1091700003B05DF804FB00BF0C4AF8B513685569ED
:109180002B4003EA000555617DB1094F0126B5FA70
:1091900085F4C4F11F0407EB840306FA04F4D3F842
:1091A0002C0703689847A543F1D1F8BD003C014066
:1091B00050190020038A2DE9F047B0F80C901FFAEF
:1091C00089F919EA03092BD005460E464FF00047EE
:1091D0004FF00008B9FA89F327FA03F2D24391B2AB
:1091E0001B3B298209EA0209042B16D8DFE803F0A9
:1091F000352C231A0300B36A002B37D003F1FF3A52
:109200001FFA8AFAC6F82880746A34B123682046A7
:10921000514698476468002CF8D1B9F1000FD9D1B4
:10922000BDE8F0877068696B036889B29847B9F147
:10923000000FCFD1F4E7B068A96B036889B29847F3
:10924000B9F1000FC6D1EBE7F068E96B036889B2AA
:109250009847B9F1000FBDD1E2E73069296C036886
:1092600089B29847B9F1000FB4D1D9E7E96A1FFA7A
:1092700081FAC9E7F0B5836993F8DC20012A8BB045
:10928000054627D0023A012A2FD893F84C21D3F86B
:109290009C10174C62F07F030B708669D6F8A030E3
:1092A0005F1C0FCCEC46ACE80F00D6F89C30CDE943
:1092B00000370FCCACE80F0094E803008CE8030003
:1092C000694606F110000FF0FDFCAB6919690A6AE6
:1092D000002AFCD1D3F8A0305A8852BAEA819A8881
:1092E00052BA2A82DB885BBA6B8201200BB0F0BDD8
:1092F0000C540508F0B590F8DC30D0F8A060012BD4
:109300008BB004464BD015D8D0F89C304FF0FF32CC
:109310001A605A609A60DA60D0F8E0300522B3F53E
:109320007A7FC0F8F02054D8032380F8DC30012085
:109330000BB0F0BD023B012BF9D890F84D31D0F8BD
:109340009C203A4D63F07F031370D0F8A0305F1C6F
:109350000FCDEC46ACE80F00D4F89C30CDE90037D7
:109360000FCDACE80F0095E803008CE803006946D8
:1093700004F110000FF0A6FC2269136A002BFCD147
:1093800073885BBAA4F8D030B3885BBAA4F8D23043
:10939000F38801205BBAA4F8D4300BB0F0BD90F88C
:1093A0004C2190F84D319B1A5B100133DBB206EB78
:1093B000430236F813305BBAA0F8D03053885BBA5A
:1093C000A0F8D23093885BBAA0F8D43001200BB05B
:1093D000F0BD03691A7B2AB35B691BB390F8983020
:1093E00003B390F84C31D0F89C20C4F8A40063F08B
:1093F0007F03137090F84C1190F84D31D0F8A020F5
:109400000B48C4F804015B1A07330121C4F8FC308F
:10941000D4F89C3084F800110A44C4E93D3284F841
:10942000DC1084E7022384F8DC3080E70C54050864
:1094300001800008114A002330B50360838002F1E7
:109440000C054FF448744FF0290E4FF0280C03EB35
:10945000430300EB430100F813C081F801E0D37827
:109460008B70AA428C8008D092F9063092F807C01F
:1094700092F808E054890632E9E730BD3454050813
:109480002DE9F0430446406A344D006895B00E461D
:109490009146984648F06CFF314B0193314B049351
:1094A00005F1CC030093217F0223029305F1C4024E
:1094B000012300278DF80C3005920697002936D03D
:1094C0008DF834308DF84830CDE90977330ECDE989
:1094D0000E77CDE9107785F8C5300523CDF82C90AF
:1094E0008DF82070CDF830801397C6350793330C74
:1094F0001D4F2B70330A6B70AE70D7F87007656A1A
:109500000FF072FB637FA88033BB05A928460FF0DC
:10951000D9FB636A186848F02BFFD7F874070FF07F
:1095200063FB636A9880404615B0BDE8F0838DF810
:1095300034308DF848300423CDE90911CDE90E11FE
:10954000CDE91011CDF82C908DF82010CDF8308099
:109550001391C5350793CAE76946D7E798010020FC
:10956000BC200020D18A0008501900202DE9F041CC
:109570002F4F07EB401898F89C340BB9BDE8F081E9
:109580008C2303FB00730E4693F87A2788F8822415
:10959000002183F87A17044645010FF0CDFAC0BBCD
:1095A0003D442448A5F8806400EB44100FF00EFA07
:1095B00097F87B30D5F89824A3B1D5F88414D2F865
:1095C000A03001248C4003F1C001420010F4004F90
:1095D00090B202D15A6822435A600C339942F4D1B6
:1095E000BDE8F081D5F88444D2F8A03004F110022F
:1095F0000124944003F1C001420010F4004F90B2E6
:1096000002D15A6822435A600C339942F4D1BDE822
:10961000F08197F8383C03EB430307EBC303234483
:1096200093F8E56B002EBBD0012388F88234B7E7AE
:1096300050190020D01D002070B5214C94F8392C11
:1096400094F8383C9A4236D194F83A3CE3B194F815
:109650003B5C1C4B002040F20D3CB5B19A689989E7
:1096600051601668196846F001061660A1F848C0F6
:109670008A8992B242F480728A8194F83A2C01303D
:10968000824203F11803E8DC70BD1A68118821F0EA
:1096900080010904090C11809988D162118889B26E
:1096A00041F0800111805562998A9689314389B2CF
:1096B00091819D82E1E746F055FB0028C4D170BD41
:1096C000501900208C2500202DE9F0411D4D95F802
:1096D000392C95F8383C9A422ED1EE6F002E12DDCF
:1096E000002495F87B701848A046013417B1037E1A
:1096F000012B1CD002691368B44243F0010300F54A
:1097000080701360F1D110F0A3FAD5F8FC4C002C56
:109710000BDD0E4A02EBC404116893888889083275
:1097200003439BB294428B81F6D1BDE8F08180F86F
:10973000F080FEF723FFDDE746F014FB0028CCD1D4
:10974000BDE8F08150190020D019002050260020DB
:109750002DE9F84F037D02681F2B044608D9506895
:10976000A3F120052021A940014206D1BDE8F88FD0
:109770001068202199400142F8D04C494C4D49686D
:10978000C5F8201D95F83B1CA66901BB8C2101FB87
:109790000651D1F88007D1F8F8C70768DCF8000057
:1097A000B1F884E720F00100CCF80000B98989B253
:1097B00021EA0E01B98195F87B10E9B91F2B68D910
:1097C000A3F1200120238B40D360BDE8F88F8C21CA
:1097D00001FB0651D1F880170F690868396821F03C
:1097E00001013960818921F480710904090C8181AA
:1097F00095F87B100029E1D08C2706FB07F705EBD5
:10980000070B2C49DBF8F897DBF8803707F11808CD
:109810004846D3F800A0884441F098FED5F8283D8A
:10982000244901228BF8CC27002B38D0BAF800301D
:109830009BB243F08003AAF8003074374FF0FF3337
:109840003944CAF82C30504642F0F0F88C2303FB20
:10985000065600234146C6F89C37484641F00CFFA7
:10986000D6F8F83716225A601A6842F001021A60D8
:10987000D6F88027B6F88437126891890B439BB2DB
:1098800093810A49237D49682268C5F8241D1F2B4E
:1098900096D8202101FA03F39360BDE8F88F10F009
:1098A000D7F90449C5F8280DC0E700BF001000E053
:1098B00050190020C8200020F8B5164D1648174F43
:1098C00000214FF4DC724BF010FB05F274664FF090
:1098D000804105F5CB643A46002301E054F833207B
:1098E00091420BD001330A2BF8D100201C3545F0F2
:1098F00099FAB5420CD055F81C1CECE7084A02EB6B
:10990000C3031C3593F80C0B45F08CFAB542F2D129
:10991000F8BD00BF645405087C260020000001400B
:10992000B44F05082DE9F04110F092F91E4F1F4E7B
:1099300005464FF00008FC6F002C29DD00231A4675
:1099400007EB0321013391F871119C4242EA0102B5
:10995000F6D142EA0804E4B290467368C3F3080300
:109960009BB9EFF3118383B910F04EF9431BB3F5A4
:10997000FA6F02DCB8F1000FDDD11CB197F8E43EBC
:10998000542B09D02046BDE8F08110F0CDF8EDE76A
:1099900044464FF00008E0E7B7F8EC3E0133A7F883
:1099A000EC3E2046BDE8F0815019002000ED00E0BB
:1099B0002DE9F04F2DED028BC54F83B097F87B302A
:1099C00001932BB9012003B0BDEC028BBDE8F08FF1
:1099D000D7F8D436DFF80C9308EE103A07F6F863A0
:1099E00007F5906A00934FF0000BD9F8F0315B4512
:1099F00040F3E980DAF81830DAF80450D3E93A8411
:109A0000AD0010F025F905F1085505EB481597F85C
:109A1000E48E864604F1806119F8F80C3939B8F102
:109A2000540F05EB811105EB801301D1A7F8EE0E61
:109A3000994240F22D811A68002A00F022811A6CA6
:109A4000002A00F03281D3F88020002A00F02F8114
:109A5000D3F8C02003F58073002AE9D15D1B994239
:109A60004FEAA51540F21481611B45294FF000040F
:109A700028BF452103EB81119C46204626460DE078
:109A80001A6C002A40F0A880D3F88020002A40F009
:109A9000CE80D3F8C02003F580732AB9994206D945
:109AA0001A68002AECD04033994200F29980112EB6
:109AB000344640F2F180D6F1150200F1ED8085497F
:109AC000D1F8D0309D4259F8F43C38BFC1F8D0509D
:109AD000AEEB0301002918DB03F5F42303F59073C3
:109AE0009E4588BF0EF1050349F8F43C794B79494E
:109AF000D3F8D030052B86BF053BDBB2002309F835
:109B0000F83C4FF0FF33C1F8D03042B100FA02F216
:109B1000C4F11404012000FA04F444EA02006E4A7D
:109B2000C0F3C43302EB8303D3F8581B00F01F03C8
:109B300002EB8303D3F8583B43EA0133C0F34411EB
:109B400002EB8101C0F3842002EB8000D1F8582B96
:109B500043EA0213D0F8582B43EA022383EA132284
:109B600082EA121202F00F020F2A7BD1B3F5803F76
:109B700078D2B8F1540F4FEA131304D1B7F8E82E96
:109B80000132A7F8E82ED7F8002FB3F5606F02F185
:109B90000102C7F8002F00F0A780009A0199938175
:109BA0004E4B5C2018EE102A00FB0B300EF05AFFD3
:109BB000009B0BF1010B1433BBF1080F0AF1200AD3
:109BC00000937FF412AF0123012087F8FC3F03B01C
:109BD000BDEC028BBDE8F08F803399427FF667AF12
:109BE000A3EB0C029211541C3D4A82FB04C2A2EB6F
:109BF000E472012AB8BF0122904001241644013AC0
:109C000004FA02F210431C46226892B1226C002A28
:109C10004FD0D4F88020002A4DD0D4F8C02004F5CD
:109C200080743AB1A142EFD89C46234636E7C03350
:109C30003AE74034A142F7D9E31A9B115A1C284B4A
:109C400083FB02C3A3EBE273012BB8BF012398404F
:109C50001E440122013B02FA03F3184323469C46AB
:109C600023461BE7B8F1540F27D0D7F8003F013344
:109C7000C7F8003FD7F8FC3E0133C7F8FC3E00218F
:109C80008EE740335D1B99424FEAA5153FF6ECAED7
:109C900010B1013809F8F80CB8F1540F88D1B7F8B1
:109CA000EA3E0133A7F8EA3E82E78033D6E6C033C6
:109CB000D4E68034BEE7C034BCE7B7F8E83E0133F1
:109CC000A7F8E83ED7F8003F0133C7F8003FD1E7D7
:109CD0005019002098010020B44F05085829002091
:109CE00056555555482A002097F8382C02EB420269
:109CF00007EBC2025A4492F8E52B0D2A7FF44DAFD0
:109D0000009A0199802393774AE700BF10B5044673
:109D10004AF010FB81B22046BDE8104026E400BFA7
:109D200038B50B4D00EB400005F5B86303EBC003FD
:109D300093ED027AD3ED037AE7EE007AC4002C4467
:109D4000B0EE670A4AF0F6FAD4F8C035186038BDAC
:109D5000501900200A4608B5054920B9054841F0C8
:109D600029FF034808BD044841F024FF004808BD0E
:109D70003C2C0020B0C60508D8C6050810B5044C18
:109D800004480A46214641F015FF204610BD00BF99
:109D90003C2C002000C7050810B5044C04480A46B6
:109DA000214641F007FF204610BD00BF3C2C00209B
:109DB00014C7050810B5044C04480A46214641F072
:109DC000F9FE204610BD00BF3C2C002020C705082E
:109DD00038B590F82830012B044604D0407F40B1BC
:109DE0000023637738BD406A03681A7B92B9637FAA
:109DF0000BB9012038BD0A4D0A49022305F53D7211
:109E00000EF090FF95F8F53203F0010383F00100A6
:109E10006377E7E71B6A002BE9D0002038BD00BF5D
:109E2000482A00206C02002010B504462046FFF7A7
:109E3000CFFF0028FAD0012010BD00BFF0B511F00F
:109E4000010583B00AD190F82860012E044607D09E
:109E5000C368B3F1807F01D90123237703B0F0BD3C
:109E60000A4B476AD3F870070EF0BEFEE368B8806D
:109E7000B3F1807FF2D9B7218DF8041026773346ED
:109E80002A46384601A90EF04DFFE7E75019002099
:109E90002DE9F047089F88461546002120220446F8
:109EA0001E464BF022F84FB13B68E3811B0C238226
:109EB0007B687A89E3821B0C62822383404648F0E8
:109EC00025FDEB0619D4431EB8B108EB000701E0ED
:109ED000013B12D317F801CDBCF12E0FF8D1C01AF7
:109EE000421E032AA8BF0322082B03F1010AA8BFC0
:109EF00008239146C2441A4606E008280246C24694
:109F0000A8BF08224FF000094FF0203341462360DC
:109F1000636004F1080720464AF084FF174B238151
:109F20005146BB704A4638464AF07CFF611EE31D2D
:109F300011F801CFACF1610EBEF1190F9CBFACF16D
:109F4000200C81F800C08B42F2D1384604F10B019D
:109F500010F8013BA3F16102192A9CBF203B00F8D5
:109F6000013C8842F4D118232373330CA382E57299
:109F7000099B6683E361BDE8F08700BF20202000D5
:109F800008B542F015FC0C4B93F87D1529220129E8
:109F9000A3F85623A3F85E2301D0012008BD07488B
:109FA000C3F8800500F120014C3047F0AFFA044BB4
:109FB000002083F8230008BD482A002070020020FA
:109FC00000ED00E02DE9F04FDFF88894D9F8D406D1
:109FD000C9F8D80687B0002B00F0DA8001F5FE78CA
:109FE0001344DFF874B40393164601F12007C24608
:109FF00021E0002E64D0D9F80437B34200F0CC80C1
:10A00000D9F80037B34200F0FF80D9F80837D9F803
:10A010000C17B3424BD8B14200F29981711A204615
:10A0200044F09EFB039B01369E4207F500770AF53C
:10A03000007A00F0AD80D9F81057B542A7F120049E
:10A04000D7D8751BD9F8208705F00702EB080492D2
:10A05000D8F830200233934203D3D8F83820934203
:10A060000BD941461846059344F04AFB059B8046B0
:10A07000002800F08C81C9F8200798F80420002AF5
:10A0800040F03481D8F82850002D00F07981D8F8BC
:10A0900030209B1A049A02EBC303D8F80C20204608
:10A0A00002EB43224FF400714346A847BAE7B1429E
:10A0B000B4D920464FF4007200214AF016FFB1E7F0
:10A0C0004FF40072314620464AF00FFF802387F894
:10A0D0009E310C2387F8A231D9F80037D44AD9F839
:10A0E000F816C4F8C6319342C4F8CA1100F334819B
:10A0F000D04AD14C82FB03021A44D817C0EB62123B
:10A1000084FB0254CD4D85FB03C5C0EB2530C2EB6B
:10A11000821587F8A1015B1B801020F03F000133FE
:10A120000343144487F8A031D317C3EBE41422444B
:10A13000BF4B87F89F214A1E9A4200F31981BD4BFD
:10A14000BD4883FB02311144D317C3EB611180FB7F
:10A150000140BA4C84FB0254C3EB2433C1EB81149D
:10A1600087F8A531121B9B1023F03F0301321343E4
:10A17000084487F8A431CB17C3EBE010014487F8FB
:10A18000A311552387F8DE31AA2387F8DF3149E789
:10A19000002007B0BDE8F08F4FF0FF3384F8EC31BA
:10A1A00084F8ED3184F8EE3184F8EF31D9F81837BE
:10A1B000C4F8E8315223237063706123A37084F8DC
:10A1C000E73141230025E37084F8E631722384F8F7
:10A1D000E43184F8E5314FF4F0722946A7F11C0010
:10A1E0004AF083FE5523C7F8D051C7F8D451C7F8B9
:10A1F000D85184F8FE316FF0550384F8FC5184F88F
:10A20000FD5184F8FF310DE700214FF40072204624
:10A210004AF06BFE8A4A03CA47F81D0CEB2007F888
:10A22000200C582007F81F0C902047F8191C07F83D
:10A230001E0C002302220821F820E372227307F883
:10A24000131CA273E37307F8102C07F80B0CD9F852
:10A25000000784F82C20D9F8F8266376121A2262B7
:10A26000D9F80807D9F80C27E376121A3F20207690
:10A270004FF0FF30A0763E20207701206377A37750
:10A28000E37784F82D3084F82E3084F82F30626222
:10A2900084F8300084F8313087F82610802187F860
:10A2A0002010292187F82210942187F823100E21ED
:10A2B00087F824100D21634A87F82510552187F867
:10A2C000DE11AA2187F8DF1103CA5F4BC7F8270008
:10A2D000C7F82B1003CB1388A7F82F309378C7F853
:10A2E0003200C7F8361087F831309BE64FF4007221
:10A2F000002120464AF0F9FD049B002B4ED1D8F8EE
:10A300004030002B00F0AA80049AD8F830304F4932
:10A31000CDE9002220461122FFF7BAFDD8F84030DF
:10A320001A6C002A00F0AD80049A1B6BCDE9002264
:10A33000474911223846FFF7ABFDD8F8448007F1B2
:10A3400020044FF4E075B8F1000F3FD16AE6F11A2E
:10A35000204644F005FA65E6FF2387F89F3187F829
:10A36000A13187F8A031324B4A1E9A427FF7E7AEFF
:10A37000FF2387F8A33187F8A53187F8A43100E7D8
:10A38000294620464FF400724AF0AFFD4AE6A7F195
:10A39000240343F804BF9A45FBD143E6D8F8403084
:10A3A000049AD8F84480002B0CBF01230223C3EB8E
:10A3B00002154346002B3FF435AE013D9B6CF9D1AD
:10A3C00098464FF40075002B3FF42CAE2544203402
:10A3D000234620354446049698460EE05CF81C1B44
:10A3E000236BCDF800C000260196FFF751FDA46C49
:10A3F00008F12008CCB1A84517D02379A44604F170
:10A400001C0E1122A8F12000002BE7D162792669E9
:10A41000236B216842F02102CDE900E6FFF738FD09
:10A42000A46C08F12008002CE5D1049EFAE500BFD9
:10A43000FF03FB008320088281808080975545417F
:10A4400038C7050844C7050850C7050830C70508C0
:10A4500034C7050850190020DEADBEEF049BD9F8C3
:10A46000FC16CDE9003320460822FFF711FDD8F88D
:10A470004480B8F1000F3FF4D5AD3C464FF4F07581
:10A48000A4E7049BCDE9003352E700BF144B154904
:10A4900010B5044618681B79206284F82430152210
:10A4A00004F125004AF072FD0F4B93F884254FF01C
:10A4B000010E84F83AE012B984F83B2010BD03F590
:10A4C000B16CBCE80F0020606160A260E360BCE892
:10A4D0000F0084F83BE020616161A261E36110BD7F
:10A4E0005CC7050864C70508482A002070B5044603
:10A4F00084B000256E46304602212570ADF800502C
:10A50000ADF80250ADF8045005F036F996E80300B6
:10A510000222ADF80C100123A060627041F20141EB
:10A52000BDF80C20618040F21120E080A281A3736D
:10A53000194602A8ADF80850ADF80A50ADF80C5015
:10A5400005F01AF9E57304B070BD00BF10B5002125
:10A55000382204464AF0C9FC0D490E4A0E482061D3
:10A56000C4E905120D480E4AE061012341F61E615F
:10A570004FF0090CE18484F808C0A37384F82130FB
:10A58000A26221460748BDE810402DF039BC00BF4B
:10A590001A046C07001975036400DC0543080E00FB
:10A5A0001E7D010170C705082DE9F043002483B02A
:10A5B0000646048021463046013434F0C7F8082CA2
:10A5C000F8D10023DFF8688086F8EA30C6F8EC306E
:10A5D000C6F8F030C6F8F430C6F8F8301F46FC363E
:10A5E00099463A46414601A805F028F83546032425
:10A5F00001AA12F8013B6BB1013C05F8013BF8D10F
:10A600000137082F85F8009006F10406E9D103B060
:10A61000BDE8F083284622462021254401374AF030
:10A6200064FC082F85F8009006F10406D9D1EEE706
:10A630007CC7050858B183884FF00042B3FA83F312
:10A6400032FA03F303D002490A6813430B607047E0
:10A65000003C0140274A92F83A3C7BB3D2F83C1CBC
:10A66000884237D0012B29D0D2F8541C814235D0F2
:10A67000022B23D0D2F86C1C884231D0032B1DD082
:10A68000D2F8841C88422DD0042B17D0D2F89C1C01
:10A69000884229D0052B11D0D2F8B41C884225D08D
:10A6A000062B0BD0D2F8CC1C884221D0072B05D02A
:10A6B000D2F8E41C814208BF07230CD003EB43010E
:10A6C00002EBC10103F1010CC1F83C0C82F83ACC59
:10A6D000184670470023DBB2184670470123FAE79B
:10A6E0000223F8E70323F6E70423F4E70523F2E760
:10A6F0000623F0E750190020F8B52B4F8C2505FBF9
:10A70000007595F8873703B9F8BD04460E460EF07C
:10A7100013FA38BB8C2505FB04752448A5F8786727
:10A7200004EB8404C4EBC40400EB84000EF04EF987
:10A7300097F83B3C024623BB1D4BD5F80008D3F8E5
:10A74000A83501219847D5F8FC17B5F884478A8ABF
:10A75000D5F8F83722438A8258601A6842F001021D
:10A760001A60F8BD97F8383C03EB430307EBC303CB
:10A77000234493F8E56B002ECCD0012385F87A377B
:10A78000C8E7D5F88037D5F8FC175B790869084920
:10A7900003F0FC031844D1F8A83504219847D5F8F4
:10A7A000FC3780009881F8BD50190020C820002097
:10A7B000482A0020F8B5D0F880508668044628461C
:10A7C000376840F0C3FE002284F85420384671797F
:10A7D000FDF730FF717904F16002FDF7BDFF71797B
:10A7E0000822FDF727FF4023636204F11801284681
:10A7F00040F042FF2B6843F010032B60F8BD00BF10
:10A800002DE9F04F6A4F2DED028B97F87B4085B014
:10A8100034B90124204605B0BDEC028BBDE8F08FB1
:10A82000D7F8D43608EE103A0FF012FA614A0290C7
:10A8300092F8E035002B00F0B58107F5EF65A2F145
:10A84000F00A07F6F86B00260FE02846FFF7B2FF84
:10A85000584B93F8E03501369E4205F18C050AF11C
:10A860005C0A0BF1140B80F2A980D7F8283D029AFC
:10A87000D31A03D4AA6D9342C0F27D818C2303FBCB
:10A88000067393F8CC3703F0FF020192002BDCD063
:10A89000AB68A9891A68D5F880305B681FFA83FE17
:10A8A0009389CEF1160E9BB223EA0103BEF1070F86
:10A8B0009381CAD9D7F8003F0133C7F8003FD5F8D4
:10A8C000883003939C46002201215CF8044B90469B
:10A8D00089461BE0DCF80000B8F1140FA0EB04037C
:10A8E0001DDC13F1080448BF03F11704231108EB22
:10A8F00024180446581E013102FA03F38E4509FA62
:10A9000000F242EA03020CF1040C08D38E45E1D8B0
:10A91000C8F11503DCF800404FF01508EAE7B8F17C
:10A92000150F39D12448C2F38423C2F3441100EB3C
:10A93000830300EB8101D3F8D83BD1F8D81B1B026D
:10A9400043EA011302F01F0100EB8101C2F3C4329C
:10A9500000EB8202D1F8D81BD2F8D82B0B4343EA84
:10A96000023383EA132282EA121202F00F020F2A44
:10A9700012D1C3F30F134FF6FF7293420CD0B3F50D
:10A98000606F00F0FF80ABF80C30019918EE102AD0
:10A9900050460EF067F858E7D7F8FC3E0133C7F889
:10A9A000FC3E002E00F0E08000230193EDE700BFA5
:10A9B00050190020482A0020B44F05080122002128
:10A9C00087F8FC2FC7F8281D002B3FF422AF97F81B
:10A9D0008817890700F1BE80D7F880170868497981
:10A9E0008A40018C92B289B221EA02010184018C71
:10A9F00089B20A43012B02843FF40BAF97F8142865
:10AA000012F0020FD7F80C2810685479018C0CBF93
:10AA100001220422A24092B289B221EA02010184F9
:10AA2000018C89B20A43022B02843FF4F2AE97F8FC
:10AA3000A02812F0020FD7F8982810685479018CDA
:10AA40000CBF01220422A24092B289B221EA020183
:10AA50000184018C89B20A43032B02843FF4D9AEEE
:10AA600097F82C2912F0020FD7F82429106854798E
:10AA7000018C0CBF01220422A24092B289B221EAC9
:10AA800002010184018C89B20A43042B02843FF441
:10AA9000C0AE97F8B82912F0020FD7F8B0291068A5
:10AAA0005479018C0CBF01220422A24092B289B2D7
:10AAB00021EA02010184018C89B20A43052B028438
:10AAC0003FF4A7AE97F8442A12F0020FD7F83C2AB9
:10AAD00010685479018C0CBF01220422A24092B26A
:10AAE00089B221EA02010184018C89B20A43062B52
:10AAF00002843FF48EAE97F8D02A12F0020FD7F8F6
:10AB0000C82A10685479018C0CBF01220422A2408B
:10AB100092B289B221EA02010184018C89B20A430E
:10AB2000082B02847FF475AED7F8542B97F85C3B62
:10AB3000116850790A8C9B074CBF04230123834082
:10AB40009BB292B222EA03020A840A8C92B21343A5
:10AB50000B845EE6D7F8802710685479018C0422B4
:10AB6000A24089B292B23FE70399114858224AF0B5
:10AB700059F9019609E70024204605B0BDEC028B87
:10AB8000BDE8F08F97F8382C02EB420207EBC202C7
:10AB9000324492F8E52B0D2A7FF4F5AE80238BF832
:10ABA0001E30F2E6012287F8FC2FC7F8283D31E677
:10ABB000F428002043680B4A23F0407323F4807389
:10ABC00043F48073436083681A4042F0020282605B
:10ABD000C36A0139CAB223F4700141EA0251C16269
:10ABE000704700BFFDF7FFC0704700BF0020FDF7B2
:10ABF00019BA00BF0120FDF715BA00BF0220FDF70A
:10AC000011BA00BF10B1036882881A83704700BF71
:10AC100010B1036882885A83704700BF10B404697A
:10AC20008269E468416814604024D4604469002368
:10AC30000C31C2E90433C2E90633C2E90833C2E980
:10AC40000A33C2E90C3393609363516084B1C269E3
:10AC5000E0689363C2E90233C2E90433C2E9063310
:10AC6000C2E90833C2E90A33C2E90C33C2E9000180
:10AC70005DF8044B704700BF436800221A60037DF3
:10AC80001F2B08D9203B2022016802FA03F343F06E
:10AC90001803CB6070472022016802FA03F343F0E7
:10ACA00018038B60704700BF0268136A11B1D9693D
:10ACB00001B3143330B49C681D689169DDB14FF461
:10ACC000806088618D60104640690C6180B1596870
:10ACD000D369D9B10A464FF480619A6099612243E1
:10ACE00012F0010F14BF00224FF400521A621C61CF
:10ACF00030BC704770478D61064D4FF0FF0C85F8F2
:10AD000040C105F5A07500688D60DDE7024A9A60D4
:10AD10009961E4E798010020303000200168F8B51F
:10AD2000D1E9042304465568002B49D09861107D71
:10AD30005E681F2831D81768202202FA00F040F020
:10AD40001800B8601A7D1F2A32D91868203A2023CB
:10AD500003FA02F242F01802C26000232B60336053
:10AD60003368896943F010033360284640F084FC5F
:10AD700023683046D96940F07FFC2B68226843F095
:10AD800001032B603368526843F0010333609388FA
:10AD90009BB243F003039380F8BD1768203820224C
:10ADA00002FA00F040F01800F8601A7D1F2ACCD893
:10ADB0001868202303FA02F242F018028260CCE7FE
:10ADC000137D90611F2B1CD81068202202FA03F318
:10ADD00043F01803836000232B602B68896943F0DC
:10ADE00010032B60284640F047FC2B68226843F094
:10ADF000010352682B6093889BB243F00203938057
:10AE0000F8BD1068203B202202FA03F343F0180338
:10AE1000C360E0E72DE9F041794E074601253C6823
:10AE200097F888806368B8881A8884F8245022F0DC
:10AE300040021204120C1A80228982421AD0B0F504
:10AE4000807F0246A8BF4FF48072022A1988B8BFDB
:10AE50000222002A92FAA2F2B2FA82F289B208BF62
:10AE60004FF0FF32013A21F0380141EAC20292B2BA
:10AE70001A802081397BA27A8A420CD01A8822F06B
:10AE800003021204120C1A801A8892B2002900F0F0
:10AE900092801A80A1721A8892B242F040021A80FF
:10AEA000226A9168002900F0A1804FF0000C143252
:10AEB000E64652F8100C8E4400EA060120B1B1F1CA
:10AEC000805F23D0616909B352F8140C143200EA90
:10AED000060110B1B1F1805F18D052F80C1C0CF1D2
:10AEE000010C0029E5D1227B82B1B8F1000F0DD011
:10AEF000BCF1010F6DD8BEF1070F6AD80CEB8C01C5
:10AF00008900226A11440A7B002A62D0226A926870
:10AF10004FF00008002A51D0B8F1000F02D098F885
:10AF20000C2022B1BA6812B1116892884A83226A51
:10AF3000D2F800E0226A5168226A9268501E9AB1E3
:10AF4000BEF1000F23D01EF801CB1A899207FCD561
:10AF5000A3F80CC01A89D207FCD59A8992B209B11C
:10AF600001F8012B0138EBD2236A1B7BE3B9236A7A
:10AF70001B697BB1236AD7F894001B6998470128A5
:10AF80000DD0022806D100232362BDE8F0814FF0E6
:10AF9000FF0CDAE7D4F82080236A14332362236A93
:10AFA0009B685BB16368B7E7BB68002BDFD01A68AA
:10AFB0009B881383DBE742F003026AE7236A1B687E
:10AFC000DBB1236AD3E9007222620022C3E90022C6
:10AFD00025E700213846FFF767FEBB6813B11A6802
:10AFE0009B8853833846BDE8F04197E6227B002AD0
:10AFF0008CD0B8F1000F84D188E72362C5E700BF89
:10B000000000FFFF10B40C4C002304F2EC5C01E0E4
:10B01000152B0CD003EB430201331CF802108142C4
:10B02000F6D122445DF8044B92F9EE0570474FF0DB
:10B03000FF305DF8044B7047482A002070B502EBE2
:10B040004202104C4FEA820E4FF0000C22460EF1E5
:10B050000805634604E00133172B11D012F81CCF0A
:10B060006045F8D192F801C08C45F4D15659002EB4
:10B07000F1D0C3EBC3030EEB8303181D204470BD56
:10B08000002070BD0C5C050830B502EB4202104D8B
:10B09000104C4FEA820C0CF10C0E2A46002304E0FF
:10B0A0000133172B11D052F82C4FA042F8D114794C
:10B0B0008C42F5D152F80E40002CF1D02C2000FB30
:10B0C00003C303F10800284430BD002030BD00BF99
:10B0D000B44F050800000140F0B110B504460F4818
:10B0E00094F804E0002300F2EC5C01E0152B11D091
:10B0F00003EB430201331CF802107145F6D1024400
:10B10000617992F9EE252068D3B2022B02D8BDE80E
:10B110001040B9E7002010BD00207047482A0020E9
:10B120000348D0F8543113B100F5A27018477047A6
:10B13000980100200348D0F8783113B100F5B470BD
:10B1400018477047980100200348D0F89C3113B18C
:10B1500000F5C67018477047980100200348D0F8E2
:10B16000C03113B100F5D87018477047980100201E
:10B170000348D0F8E43113B100F5EA70184770477E
:10B18000980100200348D0F8083213B100F5FC7094
:10B1900018477047980100200348D0F82C3213B1AB
:10B1A00000F5077018477047980100200348D0F851
:10B1B000503213B100F51070184770479801002005
:10B1C0000348D0F8743213B100F51970184770476E
:10B1D000980100200348D0F8983213B100F522708E
:10B1E00018477047980100200348D0F8BC3213B1CB
:10B1F00000F52B7018477047980100200348D0F8DD
:10B20000E03213B100F53470184770479801002000
:10B210000348D0F8043313B100F53D701847704768
:10B22000980100200348D0F8283313B100F5467088
:10B2300018477047980100200348D0F84C3313B1E9
:10B2400000F54F7018477047980100200348D0F868
:10B25000703313B100F558701847704798010020FB
:10B26000094B0A4A013800EBC00003EB8000116B68
:10B27000D0F84431064883420CBF4FF400134FF41A
:10B2800080030B431363704798010020003802408D
:10B290000060024070B501383C4C3D4D00EBC00CE5
:10B2A00004EB8C0C9646DCF844613A4AAE420CBF83
:10B2B0004FF400154FF48005166B35431563CCF839
:10B2C0005411CCF85C313449DCF848318B424FEAF8
:10B2D000C0023ED001F580618B423AD0A1F57A716F
:10B2E0008B4247D001F580618B4243D0A1F57A7142
:10B2F0008B4241D001F580618B423DD0A1F57A713E
:10B300008B4235D001F580618B4231D0A1F57A7145
:10B310008B4233D001F580618B422FD0A1F57A7139
:10B320008B422DD001F580618B4229D0A1F57A7135
:10B330008B4227D001F580618B4223D0A1F57A7131
:10B340008B4221D0154D01F580618B4218BF00253D
:10B3500000E0134D104404EB8003CEF38711C3F8D3
:10B36000645193F85901BDE87040002245F04EB990
:10B370000C4DEFE70C4DEDE70C4DEBE70C4DE9E71D
:10B380000C4DE7E70C4DE5E7044DE3E7980100209D
:10B390000060024000380240106002400080002837
:10B3A000208000100080001800880010008020100D
:10B3B00020800020008800200080202060B182884A
:10B3C0004FF00043B2FA82F2D34005D0034A11682D
:10B3D00021EA030111605361704700BF003C014046
:10B3E0000120FDF7C9BE00BF0220FDF7C5BE00BFAA
:10B3F0000420FDF7C1BE00BF0820FDF7BDBE00BFA1
:10B400001020FDF7B9BE00BF4FF47870FDF7B4BE51
:10B410004FF47C40FDF7B0BE30B50C4683B0054616
:10B4200018B3036803F13F4303F57E039B0A104AF8
:10B43000134493F8DC0E43F0F5FCA988009104F066
:10B440000303C4F381028DF8043028688DF80520C9
:10B45000C4F300136946C4F341148DF806308DF827
:10B4600007403FF0DBFF03B030BD4FF0FF33DEE7B6
:10B47000B44F050800B1CFE7704700BF2DE9F8438E
:10B480002A4B03610D46044623200FF0A7FB6B787F
:10B4900083B1042B12D022691370236902221A701F
:10B4A000EB783BB104F11008A97840460DF0C6FBDB
:10B4B000074638B900273846BDE8F88323690122DA
:10B4C0001A70EAE7E8780DF0DDFFA0612B78013310
:10B4D000DBB210B1C371222383710921FFF7CAFFC8
:10B4E000A069FFF78FFB124AD2F8D436632BFBD941
:10B4F0001048DFF84890104E0DF076FBA08202E075
:10B5000059F8046B56B14046B04703460028F7D0BF
:10B51000206984F8D83046F02FFFCCE7E8780DF0AA
:10B52000B1FF0EF00FF83746C5E700BF74300020BA
:10B530005019002040420F00918104089C5E0508CC
:10B5400038B50C4BD3F8545605440446A87D0DF08D
:10B5500099FF68B12E2201348271C4710121FFF775
:10B5600089FFA87D0DF08EFF10B1036882885A8391
:10B5700038BD00BF482A002070B5044690F821016C
:10B5800082B008B902B070BD0DF07CFF05460028FE
:10B5900056D083882C4AB3FA83F32621202BC1800E
:10B5A000E260C3F11F01EDD0284B294A03EB810370
:10B5B0000A440C34C3F82C4792F8F06EFFF7FEFEF5
:10B5C0000021FFF729FFA9882868B1FA81F100F16D
:10B5D0003F40C1F11F0100F57E00C9B2C0F38720D2
:10B5E00040F0DCF8AA884FF00043B2FA82F2D34070
:10B5F0004FF400610122684600938DF80620ADF8F3
:10B60000041044F0CFFF134B334493F85826F02A2C
:10B610000CD8AA884FF00043B2FA82F2D340B1D0DE
:10B620000D490A6813430B6002B070BD0B49F0224C
:10B63000885D83F858260321002244F0E7FFE8E7FD
:10B64000014BE3609EE700BF658F000850190020A2
:10B65000B44F0508482A0020003C014010C80508E6
:10B660000E4B70B5D3F8F061002E14DD0C4C0025A4
:10B6700003E0B54204F120040DD0237F0135002BF7
:10B68000F7D0E0680028F4D0217DFFF7C5FEB54271
:10B6900004F12004F1D1012070BD00BF482A002030
:10B6A000D01D002070B50C4682B015460646002815
:10B6B00039D0036803F13F4303F57E039B0A1B4A1D
:10B6C000134493F8DC0E43F0ADFBB2880092B2FA5B
:10B6D00082F304F003028DF80420C4F38102306881
:10B6E0008DF80520C3F11F03C4F30012C4F3411405
:10B6F0008DF80740C3F3CC0400EB840403F0070388
:10B700008DF806209B00226A0F269D4006FA03F35F
:10B7100022EA03032362226A1543694625623FF049
:10B720007DFE02B070BD4FF0FF33C8E7B44F05088F
:10B7300000B1B7E7704700BF2DE9F043774D05EB47
:10B74000001683B0D6F86036002B00F093800446D4
:10B750004FEA001896F8680643F064FB96F86836DE
:10B76000590903F01F0203294FF0010303FA02F302
:10B7700000F09880042900F0858002297DD005EB37
:10B780000803013493F864060DF07CFEE4B28146B0
:10B7900010B112238371C47105EB080393F8650699
:10B7A0000DF070FE074610B11323C471837105EBD1
:10B7B000080393F866060DF065FE064610B11423E3
:10B7C000C47183714544484695F8672601924A2121
:10B7D000FFF7AEFF019A38462A21FFF7A9FF019A29
:10B7E0000A213046FFF7A4FFD5F860264C4B9A4259
:10B7F0005DD04C4B9A424AD04B4B9A4262D04B4B55
:10B800009A426AD04A4B9A4272D04A4B9A427AD0B4
:10B8100049499088B1F88643B1F88433B1F88E5322
:10B820002343B1F888432343B1F88A4320F003004F
:10B830002343B1F88C430004000C2343B1F8904338
:10B8400090802B4310882343B1F89243B1F89413AE
:10B8500000F44150234303439BB21380938B23F4A2
:10B8600000631B041B0C9383118213889BB243F06B
:10B870004003138003B0BDE8F083304A516A0B43A4
:10B8800053627CE72D4A11690B43136177E703F597
:10B890000033196A41F480411962196A21F4804128
:10B8A0001962B5E7254A116A0B43136267E703F58E
:10B8B0008433596A41F480515962596A21F48051A4
:10B8C0005962A5E703F5FE33196A41F40041196294
:10B8D000196A21F4004119629AE703F58233596A23
:10B8E00041F400515962596A21F4005159628FE7BD
:10B8F00003F56843596A41F480115962596A21F489
:10B900008011596284E703F56443596A41F40011D8
:10B910005962596A21F40011596279E7482A0020D6
:10B920000030014000380040003C0040003401403D
:10B9300000500140005401409801002000380240AE
:10B94000431C00F0A8802DE9F04F00EB8003C44FAA
