:020000040800F2
:100000000000011059B00508C97905088D220408BF
:10001000F9B00508F9B00508F9B0050800000000BE
:10002000000000000000000000000000D579050875
:10003000D179050800000000CD790508D5F1040844
:10004000F9B00508F9B00508F9B00508F9B00508D8
:10005000F9B00508F9B00508CDFE0408DDFE040876
:10006000F9B00508D9FE0408D5FE04086D9105080D
:100070005D9105084D9105083D91050829910508F8
:100080001591050801910508F9B00508F9B00508B2
:10009000F9B00508F9B00508F9B00508D1FE040863
:1000A000A99205088192050859920508D192050880
:1000B00045920508319205081D920508F9B005081A
:1000C000F9B00508F9B00508F9B00508F9B0050858
:1000D000F9B00508B9960508AD960508A19605087A
:1000E000C9FE0408F9B00508CD9C0508CD910508A6
:1000F000A59105087D910508F5910508ED90050885
:10010000F9B00508F9B0050809920508F9B0050825
:100110009596050889960508F9B00508F9B005080F
:10012000D9900508C5900508B19005089D9005086F
:1001300089900508F9B00508F9B00508F9B0050877
:10014000F9B00508F9B00508F9B0050821810508DE
:1001500075900508619005084D9005087D96050885
:10016000F9B00508F9B00508F9B00508F9B00508B7
:10017000F9B00508F9B00508F9B00508F9B00508A7
:08018000F9B00508F9B005080B
:1001900009284FF0010307D903EB83035B00B0FB91
:1001A000F3F2092AF8D883B3F0B4DFF864C000256D
:1001B0000EE00A2A1E460F462346B4BF30245724B9
:1001C0002244092E01F1010105F101053A700FD910
:1001D000ACFB0324E408B0FBF3F203FB1200002D98
:1001E000E7D1002AE5DC092B06D8303201F8012BD3
:1001F0000023F0BC0B707047ACFB0436B0FBF4F28C
:10020000234604FB1200F408EBE700230B70704751
:10021000CDCCCCCCF0B40D6800240CE0BCF1050FC3
:1002200018D8A0F137030A2B14D104EB840415F875
:10023000010B03EB4404A0F13003DEB2092EA0F160
:100240006107A0F1410CF0D9052FE7D8A0F15703C1
:100250000A2BEAD00D601460F0BC704771EEC11A31
:1002600061EE801A81EEA00A30EE010A704700BFED
:1002700000B583B00268074B8188CDF80120322297
:100280001B68ADF805108DF800206846984703B04C
:100290005DF804FBE81D0020204B2DE9F0415D686E
:1002A000064600F10708002406E01B683946984717
:1002B0003C444645A4B215D016F8017BA7F17D0356
:1002C000012B28462B684FF07D01EED81B6898471C
:1002D0002B6887F020011B6828469847E8E7E3B2BF
:1002E00003EB1424FF2CFAD8C4F1FF04E4B2A4F108
:1002F0007D03012B2B6805D9214628461B68BDE8E4
:10030000F041184728461B687D2198472B6884F0E8
:10031000200128461B68BDE8F0411847E81D002071
:100320000A4AD36930B41C6855695D60198100259B
:10033000611C19609D812070D36951691A685A60E7
:100340004FF6F67230BC19609A817047E81D0020A4
:10035000084B242203F12101016010B483F820200E
:1003600002683233541C5421C0E9004311705DF817
:10037000044B7047E81D0020F8B5CE1E0F4606441A
:100380000239421E04464FF6FF7312F8015F5B1BF1
:10039000B2429BB2F9D1C5194354064E1B0A05F867
:1003A000013C14F8011B706B4EF0C2FFA542F8D15E
:1003B000F8B2F8BDE81D002010B582B00B4660F021
:1003C0005F001A0E08211C14ADF802308DF80100F0
:1003D000002368468DF804408DF805208DF8001044
:1003E000ADF80630FFF7C8FF02B010BD30B50622E9
:1003F00083B060F05F030D460024114668468DF817
:100400000130ADF802508DF80020ADF80440FFF740
:10041000B3FF03B030BD00BF284A116821F040434C
:1004200023F07F03002B0CBF012002204B075368F1
:1004300048BF0430D90744BF0A3080B29A0744BF8E
:10044000143080B2D90544BF283080B25A0744BF67
:10045000643080B2190744BFC83080B29A0644BFE6
:1004600000F5C87080B2D90644BF00F57A7080B23A
:10047000DA040FD500F5FA5080B2990403D500F5DF
:100480001C50103080B29A050AD5A0F5C7404038FC
:1004900080B2704719050AD500F5FA6080B2ECE722
:1004A0005B0503D500F59C40203080B270475A06AA
:1004B00044BF00F57A6080B2DFE700BF00000010A3
:1004C000022805D0A0F10100B0FA80F04009704781
:1004D000054B93F8403023B9044B1868C0F38000F3
:1004E0007047102037F002BCE81D0020000000100B
:1004F00030B405460C482C6800F123039C424FF0B1
:10050000000205D913F8011BA34282EA0102F9D1C6
:10051000631C2B6022702A6804496A60806F29601E
:10052000521A30BC4EF0E2BEE81D0020081E00202A
:10053000014B93F87C007047E81D0020F0B4434D58
:10054000434BC5F88030C823013885F8843005F165
:10055000850205F1BF014D2428E0DCB25BB2002B1F
:1005600034DB6300DCB25BB2002B36DB6400E3B249
:1005700064B2002C38DB5C00E3B264B2002C3ADBDE
:100580005C00E3B264B2002C3CDB5C00E3B264B21A
:10059000002C3EDB5C00E3B264B2002C4FEA430364
:1005A000B8BF83F0D5038A42DCB238D010F8013FDF
:1005B00002F8013B634013F0800F4FEA4303CCD0B5
:1005C00083F0D50463B2002BE4B2CADA640084F08D
:1005D000D50463B2002BE4B2C8DA630083F0D5031C
:1005E0005CB2002CDBB2C6DA5B0083F0D5035CB2F0
:1005F000002CDBB2C4DA5B0083F0D5035CB2002CC4
:10060000DBB2C2DA5B0083F0D5035CB2002CDBB254
:10061000C0DA5B0083F0D5035CB2DBB2BDE70D4E00
:1006200085F8BF40A6F144070FCF0FC60FCF0FC606
:100630000FCF0FC697E80F00402785F8C04086E827
:100640000F0085F80471F0BC704700BFE81D002062
:10065000C83E7BEAAC1E002008B52DED048B9FED53
:10066000158AF0EE418AB0EE619AB0EE481AF7EEC4
:10067000001AB0EEC00AF0EE429AFFF7EFFDF0EE7E
:10068000480AB7EE001A56F0F7F9B0EE691AF0EE24
:10069000490AB0EE682AF0EE481A56F0CDF9B0EEED
:1006A000681AF0EE480ABDEC048BBDE8084056F02D
:1006B000E3B900BF0000000038B504460D460A4605
:1006C0000068FF2160F00BFA21682944216038BDE1
:1006D000026810B57F21541C046011700268002468
:1006E000511C01600E211470FFF7E6FF012010BDC0
:1006F00030B53E4C94F80531012B85B001D005B0E2
:1007000030BD94F80601022826D0A0F10100B0FA0D
:1007100080F0400948B36368002BF0D1D4F8082179
:10072000002AECD094F8485094F8411092F9040053
:10073000002D14BF08220022002908BF42F0010248
:1007400003254FF46141CDE9015200911A46202161
:100750002DF0D4FB6060D2E794F840305BBB244BB3
:100760001868C0F380000028D5D16268002AC6D07E
:10077000D4F81031934223D0D4F81C319A4228D0B7
:10078000D4F828319A4226D0D4F834319A4216D07F
:10079000D4F840319A4220D0D4F84C319A421ED03D
:1007A000D4F858319A421CD0D4F864319A421AD005
:1007B00000236360A3E7102037F098FAAAE703202C
:1007C00000EB4000002104EB8003D162C3E9441137
:1007D000EEE70120F4E70220F2E70420F0E705202D
:1007E000EEE70620ECE70720EAE700BFE81D00205F
:1007F0000000001070B51D4E1D4D96F87401632267
:10080000002156F049F9B6F8983104461948333BAF
:1008100080FB0320DB17C3EB20100922002156F0D8
:100820003BF9AA68C0F10903642000FB0344A4B2A9
:10083000910744BF04F57A74A4B22B68D20744BF71
:1008400004F5FA64A4B25B0701D4204670BD1520FC
:1008500037F04CFA0028F8D06B6813F4016F04BF2E
:1008600004F57A64A4B2204670BD00BFE81D0020E4
:10087000000000101F85EB5110B5044CA36843F035
:100880008003A3602FF012FE608210BD00000010F4
:1008900038B5074CB4F80E522FF008FE854204DD3F
:1008A000044BB4F80E225A8238BDBDE83840E3E765
:1008B000E81D00200000001008B5FFF7E9FF002048
:1008C00008BD00BF70B5214D95F82632EA181C46C8
:1008D00092F828228AB11E4E09225C1CA6FB041342
:1008E0005B0803EBC303E31AE918DCB291F82812A2
:1008F00009B1013AF1D185F8264202681549561C22
:1009000006600C2616700268561C066000261670DB
:100910000268561C066003EB430603EB8603147063
:1009200019440D2255F086F895F82612084B4A1CFA
:10093000A3FB02035B08294403EBC3030120D31A82
:1009400081F8280285F8263270BD00BFE81D00201E
:10095000398EE3381C2000202DE9F047734C82B01B
:10096000E269D2E900239B1A002B00AF40F39D807F
:10097000002384F8BC326E4B236103F18002A3F1A3
:100980001406C4E9AB33C4E9052603F5C075E56177
:10099000C4F84024C4F844240025421800F1010999
:1009A000C4E9029203785909012940F0858003F0D7
:1009B0000F0813F0100310D1002D00F0968094F86A
:1009C0005114013101F00F0141457ED0184608371E
:1009D00084F8BC32BD46BDE8F087831CA360C31C0D
:1009E0004278D4F810A0A3608078C6F800A00AEB83
:1009F00002037360424084F85024D4E90292002537
:100A000084F8BC123081B581A2EB0902D5B2A3EB08
:100A10000A0A5FFA8AFAEB1D03F4FC73AA45ADEBF0
:100A2000030D67D25246494668465FF025FE09EB42
:100A30000A03524630466946A36054F0FBFF23691F
:100A4000306894F850248342C6E9003009D001335D
:100A5000336013F8011C984282EA0102F7D184F84E
:100A60005024A3681B78934232D12369E169C6E917
:100A7000003063694B600023A0690B818B813A1DB4
:100A800084F8BC327B6039F0E3FD013046D07B68EE
:100A90000BB100209847E3696269196801200837A3
:100AA000C3E90021BD46BDE8F08794F8BC52002D93
:100AB0003FF461AFA66970E700210846FFF730FCFC
:100AC00001200837BD46BDE8F087D6E900A39BE7C3
:100AD0000023B6F9081084F8BC320120FFF720FC8F
:100AE00001200837BD46BDE8F08728460837BD46D7
:100AF000BDE8F0872A46494668465FF0BDFD09EB30
:100B0000050330462A466946A36054F093FF00204F
:100B1000083784F85184BD46BDE8F087E269136860
:100B20000221581C10601970B1E700BFE81D0020B9
:100B3000A82000202DE9F04F304D314EB5F9521468
:100B4000B5F858C4B5F8547486FB0146CC17C4EB0D
:100B5000A604A4B2A44583B016469A464BD1B5F874
:100B60005A34BB4205F58C6B33D003680190591C95
:100B7000342201601A7003680022591C01601A7047
:100B8000214654F087FF0198394654F083FF0198BD
:100B900047F6FF7154F07EFF019847F6FF7154F05D
:100BA00079FF019847F6FF7154F074FF019847F6FA
:100BB000FF7154F06FFF01980221FFF77DFD0120C6
:100BC000CBE9006AA5F85844A5F85A7403B0BDE80B
:100BD000F08FD5F86034D5F86414B2EB03086AEBF3
:100BE0000109084A00234B4508BF4245BDD30020F8
:100BF00003B0BDE8F08F05F58C6BB6E7E81D00206B
:100C00006766666680841E00604A53692DE9F0417C
:100C1000064613F0800000F09A80906810F0020001
:100C200000F095805A4F97F87411052940F293808F
:100C3000632900F28E800024DFF860C189B2254666
:100C4000ACFB0132D20802EB8203A1EB4303E0B21A
:100C50008E469BB280008340BEF1090F91B245EAF7
:100C6000030504F10104EBD8EDB2D7F88031494A0D
:100C700082FB0312D917C1EB623189B2002900F05F
:100C800082804FF0000CDFF814E16446AEFB0132C5
:100C9000D20802EB8203A1EB43035FFA8CF0884693
:100CA0009BB280008340B8F1090F91B244EA03047B
:100CB0000CF1010CEAD8E4B2B7F8903136494FF4A0
:100CC000F36213FB02F381FB0312D917C1EBA211EC
:100CD00089B242F20F73994240D8C9B10027DFF8B8
:100CE000BCE0BC46AEFB0132D20802EB8203A1EBB2
:100CF0004303F8B288469BB280008340B8F1090FE5
:100D000091B24CEA030C07F10107EBD81FFA8CF102
:100D100033681722581C30601A7033680022581C40
:100D200030601A70304654F0B5FE4FF0FF31304657
:100D300054F098FE33685A1C32601D7033685A1C98
:100D4000326030461C700621FFF7B6FC0120BDE87A
:100D5000F081992589E70020BDE8F0810020DFF8C7
:100D60003CC00146ACFB0372D20802EB8207A3EB46
:100D700047039BB283400430102841EA030193B239
:100D8000F0D189B2C4E70C4696E700BF000000101E
:100D9000E81D002089B5F814D34D6210CDCCCCCC21
:100DA0002DE9F04FC14A5369804613F0800083B0AB
:100DB00000F06F81906810F0020000F06A81DFF8A7
:100DC0000CB39BF87431052B40F26881DBF8783165
:100DD000B74D0093002BB8BF5B42A5FB0342B5485B
:100DE000B549920D00FB0233C3EB03139B0085FB57
:100DF000034502EB8202DC1702EB8202C4EBA5542E
:100E000000FB043304EB8204A4B281FB0321DB1753
:100E1000C3EBA111BCB10025A84F2E46A7FB04329D
:100E2000D20802EB8203A4EB4303E8B2A4469BB2D0
:100E300080008340BCF1090F94B246EA030605F135
:100E40000105EBD8340489B2B9B100259B4F2E4679
:100E5000A7FB0132D20802EB8203A1EB4303E8B205
:100E60008C469BB280008340BCF1090F91B246EAE8
:100E7000030605F10105EBD83443DBF87CE18C4D2A
:100E80008C4E8D498EEAEE70A0EBEE70A5FB003221
:100E9000920D06FB0200C0EB0010830085FB03509F
:100EA00002EB8202DD1702EB8202C5EBA05506FBC6
:100EB000053305EB8205ADB281FB0321DB17C3EBE4
:100EC000A111C5B10020DFF8F4C10646ACFB053224
:100ED000D20802EB8203A5EB4303C7B2A9469BB23B
:100EE000BF00BB40B9F1090F95B246EA030600F115
:100EF0000100EBD8350489B2C1B10020DFF8BCC1D4
:100F00000646ACFB0132D20802EB8203A1EB43039D
:100F1000C7B289469BB2BF00BB40B9F1090F91B27D
:100F200046EA030600F10100EBD83543DBF88031D7
:100F3000624A0193002B1846B8BF5842A2FB00300A
:100F40005F4E6049030AA6FB0363DB0901FB03F163
:100F5000C1EBD00189B2B9B1002691463746A9FB51
:100F60000132D20802EB8203A1EB4303F0B28C46BC
:100F70009BB280008340BCF1090F91B247EA03079E
:100F800006F10106EBD8B9B2BBF89271DFB10026C9
:100F9000DFF828A1B446AAFB0732D20802EB82038D
:100FA000A7EB43035FFA86F938469BB24FEA8909FB
:100FB00003FA09F3092897B24CEA030C06F101067B
:100FC000E9D81FFA8CF7BBF898313C4AA2FB03061C
:100FD000F608632E28BF6326092B63D900209346A9
:100FE0008146ABFB0632D20802EB8203A6EB430339
:100FF0005FFA80FAB4469BB24FEA8A0A03FA0AF310
:10100000BCF1090F96B249EA030900F10100E8D8E2
:101010005FFA89F9009B019A002BCCBF3923382352
:101020001616BEF1000F26F07F0635DD264A334343
:10103000964543F00206C8BF43F00606D8F80030D4
:101040001622581CC8F800001A70D8F80030002288
:10105000581CC8F800001A70404654F01BFD214689
:10106000404654F0FFFC2946404654F0FBFC404605
:10107000394654F00FFDD8F800305A1CC8F800204B
:1010800083F80090D8F800305A1CC8F800200120DE
:101090001E7003B0BDE8F08F1E43CFE7002003B001
:1010A000BDE8F08F4FF00009B4E700BF000000106A
:1010B0006BCA5F6B806967FFD34D6210CDCCCCCC1F
:1010C000C55A7C0AA0860100FFC99A3BE81D002092
:1010D00070B504462DED028B00200D4636F05EFF04
:1010E00000284DD0284ED6E90601201A65EB0101F3
:1010F00059F08CFD9FED250A07EE900A27EE800A35
:1011000040F2DC53BCEEC00A10EE102A9A4231D8ED
:101110001F4CB8EEC08A2FF0C9F9B4F80E32DFEDDB
:101120001D0A07EE900A01EE903AB8EEE71AF8EEC3
:10113000611AB0EE480AFFF791F894F820329FED5B
:10114000161ADFED140AFDEEC07A01EE903A17EEA2
:10115000903AB0EE480AF8EE611A7382FFF77EF813
:10116000BDEC028BFCEEC07A002017EE903A86F8B8
:10117000213070BDFFF78CFBBDEC028B012070BDF0
:10118000BDEC028B042070BD000000106F12833A8A
:10119000E81D00200080BB440000000038B5044674
:1011A00000200D4636F0FAFE50B32FF07FF9FFF71E
:1011B00063FB144BD3E90601201A65EB010159F0DA
:1011C00025FDDFED117A114A07EE100A67EE277A46
:1011D000B2F81432FCEEE77A17EE900A98420AD879
:1011E000181A41F2873398428CBF0020012082F800
:1011F0006804002038BD002382F86834012038BD1F
:10120000042038BD000000106F12833AE81D002052
:1012100038B5002036F0C2FE48B10E4CB4F80E527C
:101220002FF044F985420CDD0124204638BD0446E8
:101230002FF03CF9FFF720FB074B83F821402046B5
:1012400038BD054B94F8202283F821200224204643
:1012500038BD00BFE81D00200000001003687E229A
:10126000591C10B501601A7003680022591C0160F6
:101270001A704FF6FF71044654F0E6FB0D4B93F8DD
:10128000463083B126F07CFE0146204654F0DCFB5C
:10129000204647F6FF7154F0D7FB20460821FFF7A0
:1012A0000BFA012010BD26F081FE0146204654F0C5
:1012B000CBFBEDE7E81D002038B52DED028B2F4D5F
:1012C00008EE100A0DF064FE05F26C4494EDCE0AAF
:1012D00090ED027AD4ED2A7A95F8793430EE470A07
:1012E00020EE270A002B43D0B5F8BE315A4207EE54
:1012F000903A00EE902AB8EE671AF8EEE00A55F040
:10130000BBFBDFED1F6A9FED1F7AD4EDD10A84EDA0
:101310003A0AF8EEC87A67EEA67A70EE606A27EEAF
:10132000877AB1EE476AB4EEE66AF1EE10FA22DA95
:10133000B4EEE67AF1EE10FA0DD984EDD10A5CF044
:10134000EDF8114947F6FF7255F0A6FBBDEC028B94
:10135000A5F80C0E38BD9FED0D7AB0EE601AA7EE21
:10136000871AE7EEC70A55F087FB84EDD10AE6E756
:10137000B5F8BA31BAE79FED067AEEE7E81D00202E
:10138000BD3786350C22C4425A80FFFF8F2AF543B1
:101390000C22444470B52DED028B284C82B008EE2F
:1013A000100A2FF083F8B4F8DA31B4F8106EC01ACE
:1013B000F61A04F26C4393EDD10A05B28DED010AE1
:1013C0000DF0E6FDB8EEC81ADFED1D7AD0ED050A86
:1013D0009DED010A36B221EE271A07EE906AB8EEAB
:1013E000E72A07EE905A04F5BD60F8EEE71A0021EF
:1013F0008DED001A55F02CFEBDEEC00A9DED001AD1
:1014000010EE103A1BB207EE903A04F62C60B8EEDC
:10141000E70AF1EE000AA4F8023E52F00BFBBDEE23
:10142000C00A324610EE103A294618B255F034FB85
:10143000A4F8020E02B0BDEC028B70BDE81D0020C6
:10144000BD37863570B52C4C2C4ED4E90632C01A07
:101450002DED028B61EB020159F0D8FB9FED288A3C
:10146000B6F8185207EE900A27EE888A36F0C2FDC9
:10147000E8BBBCEEC88A18EE103A9D4203D2BDEC20
:10148000028B012070BDB4F9123001EE903AB6F82B
:10149000103207EE905AB8EEC88A01EE103AF8EE14
:1014A000670AF8EEE11AB8EE411AB0EE480AFEF704
:1014B000D5FE96F8203201EE103AB4F90E30FDEE6A
:1014C000C07A01EE903A17EE903AB0EE480AB8EEC4
:1014D000411AF8EEE11A6382FEF7C0FEBDEC028B02
:1014E000FCEEC07A17EE903A84F8213070BDBDEC66
:1014F000028B032070BD00BF00000010E81D00201B
:101500006F12833A2DE9F041264E274DD6E9063277
:10151000C01A61EB020159F079FBDFED247AB5F8CE
:101520001232B5F81A2207EE100A67EE277AFCEE9F
:10153000E77A17EE904A234493422CD8B5F81672F6
:10154000B5F81082A74204D2A6F812800120BDE8A7
:10155000F0812EF0ABFFB5F80E3207EE908A98427C
:10156000B8BF1846F8EE671A07EE907A83B201EE1C
:10157000103AF8EE670A07EE904AB8EE411AB8EE54
:10158000E70AFEF76BFEBDEEC00A002010EE103A2F
:101590007382BDE8F08136F02DFD0028CED0032007
:1015A000BDE8F08100000010E81D00206F12833AB2
:1015B00070B504460D46FFF76BF9124B124ED3E996
:1015C0000601201A65EB010159F020FBDFED0F7ACF
:1015D000B6F81A3207EE100A67EE277AFCEEE77AC1
:1015E00017EE904A9C4206D8B6F81202A0422CBFD1
:1015F0000020012070BD36F0FDFC0028F4D003204F
:1016000070BD00BF00000010E81D00206F12833A7B
:101610002DE9F84305462DED048B00200F4636F0EA
:10162000BDFC002800F096806A4C9FED6B7AD4EDEB
:101630000C7AF0EEE76AF4EEC76AF1EE10FA5EDDBE
:1016400094ED0E7A654E94ED0D8A87EE279A2EF072
:10165000F7FA96F8213207EE903A9FED617AF8EEAC
:10166000E77AF0EE408A27EE870A55F005FBB6F8D8
:101670000A3207EE903AF8EEE77AB4EEE78AF1EE36
:1016800010FA6CDC4FF00009B6F8088207EE908A79
:10169000F8EEE77AF4EEC97AF1EE10FA40F18280C2
:1016A000B5EEC08AF1EE10FA7CDD1EF02FFB0028AB
:1016B00071D0B6F9903198456DDB4FF00109FFF715
:1016C000E7F8B9F1000F5FD0D4E90601281A67EBFB
:1016D000010159F09BFADFED437AB6F80C4207EEB0
:1016E000100A67EE277ABDEC048BFCEEE77A17EE62
:1016F000903A9C422CBF00200120BDE8F883374E71
:1017000094ED0D8A2EF09CFA96F821329FED347AF2
:1017100007EE903AF8EEE77AF0EE408A27EE870A75
:1017200055F0AAFAB6F80A3207EE903AF8EEE77AE0
:10173000B4EEE78AF1EE10FA1BDDF4EEC08AF1EEAA
:1017400010FA2BDB1EF0E2FAB6F8088218B34FF05D
:1017500001092BE0BDEC048B0420BDE8F883F4EE16
:10176000C08AF1EE10FAACBF4FF001094FF000094A
:101770008AE71EF0CBFAB6F8083218B1B6F9902114
:10178000934223DBFFF784F8BDEC048B0020C4E90F
:101790000657BDE8F883FFF77BF895E7B6F80882AF
:1017A0004FF000091EF0B2FA002888D0B6F9903147
:1017B000434584DDFFF76CF8B9F1000F84D1B5EE35
:1017C000C08AF1EE10FA3FF77FAFDDE7FFF760F870
:1017D000F5E700BF00000010F366DF3FE81D0020C2
:1017E00035FA8E3C6F12833A4309012200F01F0044
:1017F000023B02FA00F0032B07D8DFE803F0020CEB
:1018000011070A4B5A6C104358647047074B5A6BC8
:10181000104358637047054B1A6C104318647047A7
:10182000024B1A6B10431863704700BF0038024028
:10183000064B41F2340241F238019A585B5A516921
:101840000B4214BF53831383704700BFE81D002071
:1018500080F0010101484EF0DFBA00BF1C2E0020CD
:101860000B68144A30B40568CC682A402343D1E998
:10187000054513432343D1E907242B4313434A6A05
:101880004D6B234313438C6BCA6A2B43234343F4AE
:101890000033036044690B6B0D6924F007041343A4
:1018A0002343D1E9014243614560846030BCC2609A
:1018B000704700BF3F801CF030B403681A6853794A
:1018C0007BB159B2002920DB174C0120651803F0C9
:1018D0001F03490900FA03F3302085F8000344F898
:1018E000213093797BB15AB2002A15DB0E480121D1
:1018F000841803F01F03520901FA03F3302184F81E
:10190000001340F8223030BC7047084903F00F0341
:10191000194430230B76E4E7044A03F00F031A441A
:101920003023137630BC704700E100E0FCEC00E0AF
:10193000094A00230133092B02F1140209D012F8DD
:10194000141C8142F6D1054803EB830300EB8300AE
:1019500070470020704700BF2C0C0608140C0608C6
:101960002DE9F047041E0D4612DB092C26DC824AC5
:101970000B468248A0FB0410C00800EB8000A4EBDB
:1019800040000021125C1A7059702846BDE8F087AB
:1019900064422D23092C01F8013B24D8764A774B69
:1019A000A3FB0403DB0803EB8303A4EB4303002046
:1019B000D35C48700B702846BDE8F0876F4B632CF2
:1019C000A3FB04264FEAD60621DC6B4A0B466B4983
:1019D000A1FB0601C90801EB8101A6EB4101515CA5
:1019E00003F8011BC5E7654A632CA2FB04364FEAE6
:1019F000D60637D8604A614BA3FB0603DB0803EB2E
:101A00008303A6EB4303D35C01F8013BC7E7A3FBC9
:101A10000627B4F57A7F4FEAD7070DD2564A0B4610
:101A20005649A1FB0701C90801EB8101A7EB410160
:101A3000515C03F8011BCAE7A3FB072842F20F72AF
:101A400094424FEAD80836D84B4A0B464B49A1FB83
:101A50000801C90801EB8101A8EB4101515C03F8C1
:101A6000011BDDE7A2FB0637B4F57A7F4FEAD70703
:101A70000CD2414A414BA3FB0703DB0803EB830372
:101A8000A7EB4303D35C01F8013BB4E7A2FB0738A3
:101A900042F20F739C424FEAD80821D8364A374B9E
:101AA000A3FB0803DB0803EB8303A8EB4303D35C2E
:101AB00001F8013BDEE7324AA3FB080994424FEAF2
:101AC000D90921D82C4A0B462C49A1FB0901C90888
:101AD00001EB8101A9EB4101515C03F8011BB5E762
:101AE000274BA2FB08099C424FEAD90921D8224A78
:101AF000224BA3FB0903DB0803EB8303A9EB43039E
:101B0000D35C01F8013BCAE71E4AA3FB09039442D8
:101B10004FEAD30A21D80B461849174AA1FB0A01FC
:101B2000C90801EB8101AAEB4101515C03F8011BDB
:101B3000CAE7144BA2FB09029C424FEAD20A13D80F
:101B40000E4B0D4AA3FB0A03DB0803EB8303AAEB4E
:101B50004303D35C01F8013BCAE70A22BAFBF2F067
:101B600053F0C2FC0346D7E70A22BAFBF2F053F067
:101B7000BBFC0146E4E700BF5C910608CDCCCCCCB1
:101B80009F8601003F420F002DE9F04788B0541CAA
:101B900003941478002C00F0408100250746884605
:101BA0001E46A9460BE0791C02D021463846C047A4
:101BB000039A0135531C03931478002C58D0252C1C
:101BC000F1D1931CCDE9033950782D2800F0C8805D
:101BD0004FF0000A302800F0AB80A0F13003DBB2F8
:101BE000092B4FF0000440F2AF806C284ED07828CB
:101BF00038D8572840D9A0F15803202B32D8DFE835
:101C000013F0F400310031003100310031003100B7
:101C10003100310031003100DA0000013100C10033
:101C20003100310031003100310031003100E3007A
:101C30003100310031003100BB00310021003100A2
:101C40003100F40056F8040B05A9FEF7A1FA05AB24
:101C5000CDE90043049B42464FF0FF31384653F034
:101C6000D3FF0544039A531C03931478002CA6D188
:101C7000284608B0BDE8F0870028F9D02528F1D122
:101C80007B1C95D025213846C04791E7039B5A1C01
:101C90000392197878298DD8572967D9A1F158036B
:101CA000202B87D801A050F823F000BFD31D0008D7
:101CB000B51B0008B51B0008B51B0008B51B0008C4
:101CC000B51B0008B51B0008B51B0008B51B0008B4
:101CD000B51B0008B51B0008B71D00080F1E000843
:101CE000B51B0008851D0008B51B0008B51B0008C2
:101CF000B51B0008B51B0008B51B0008B51B000884
:101D0000B51B0008CB1D0008B51B0008B51B00085B
:101D1000B51B0008B51B0008791D0008B51B00089D
:101D2000451C0008B51B0008B51B0008D31D0008A2
:101D3000039B5A1C03921878A0F13003DBB2092BE5
:101D40004FF001043FF651AF04AA03A9FEF762FA6F
:101D5000BAF1000F3FF449AF049B5B42049344E7A0
:101D6000D31C039390784FF0010A33E700293FF426
:101D70007FAF252984D01DE756F8042B049BCDE9BD
:101D8000009268E7073626F00706F6E8020158F0E9
:101D900025FE00EE100A05A853F03CFB05ABCDE98B
:101DA00000434246049B4FF0FF31384653F02CFF6E
:101DB000039A0544FEE67A1C3FF4FAAE56F8041B7B
:101DC0003846C9B2C047F3E6039A56F8043B1D6093
:101DD000F0E6A1F15802B2FA82F256F8040B520969
:101DE00005AB102153F0DCFB31E7A0F15802B2FA49
:101DF00082F256F8040B520905AB102153F0D0FBC8
:101E000025E756F8040B05A953F086FB1FE756F8A3
:101E1000040B05A953F080FB19E7254628E700BF0E
:101E200082B000230193019A0C490D4B51F8641CB8
:101E300042F020020192019A60F38A120192019A03
:101E40000A610A69019203E00A690192013B02D02A
:101E5000019A9206F8D4002002B07047E02E0020CC
:101E6000400D030010B58021044655F0B5FD204615
:101E7000002155F0B1FD2046BDE8104055F0E0BD11
:101E8000037870B433B30246C0F10105531912F858
:101E9000014FDBB2002CF9D101335B00DAB20F4CF9
:101EA0000B80032384F8842584F88535017879B183
:101EB000022300265A1CE51854FA82F285F884158C
:101EC00082F8846510F8011F0233DBB20029F1D1DA
:101ED00070BC704702221346E1E700BFE02E0020ED
:101EE0002DE9F04F2DED108B034693B00433119381
:101EF000DFEDC1AA109002230F928B460E93894604
:101F0000109C4FEADB0504EB451202EB0511A5EB33
:101F100085034FEAC5084FEA051E05EB850A0091C7
:101F200001EBC30308F104000EF104012E46204426
:101F300005EB450521444FEACA040D9602942C0195
:101F4000C6EBC60C0394EC000D9D04944FEACC0440
:101F500005946C010194119D009C03EB46174FEA18
:101F6000CB0A02EBC6064FF0000C55ED011A11ED3D
:101F7000012AD6ED005AD7ED004A92ED003AD4ED91
:101F8000003A10ED015A93ED004A72EE238A34EEC6
:101F9000248A71EE836A35EE257A36EEA86A77EEEA
:101FA000087A35EE655A76EE275A36EE676A45EDC1
:101FB000015A82ED006A90ED00AAD6ED012A93ED58
:101FC000016AD7ED019A94ED010AD1ED005AD5EDE1
:101FD000007A92ED019A34EE644A76EE690A7AEE5E
:101FE000624A35EEC01A31EEC33A72EE633A34EE0D
:101FF000A02A77EEC91A74EEE04A75EE805A75EEA3
:10200000440AB0EE410A35EE045AA2EE2A0ADC4434
:10201000E145A2EE6A1AB0EE434AB0EE432AA0EEC2
:10202000AA2AA0EEEA4AB0EE613AF0EE610AE4EEC6
:10203000AA0AA4EEEA3AF0EE634AE5EE6A3AE5EE61
:102040002A4A7AEE222A36EE296A77EE897A72EEE9
:10205000861A37EE487A32EEC66A76EEE86AB0EE55
:10206000635A77EEA53A77EEE57A73EEA18A36EEFB
:10207000868A73EEE13A76EEC66A77EEC71A72EE9A
:10208000002A77EE277A74EE015A30EEE46A33EED6
:10209000457A32EE402A34EE414A74EEA04A35EEDB
:1020A000035AC5ED008AC2ED013A554401ED018A9B
:1020B0005244C4ED006AC1ED001AC4ED017A5144E6
:1020C00040ED012A544487ED002AC6ED005A83ED05
:1020D000004A80ED006AC7ED014A504486ED017A5E
:1020E000574483ED015A564453443FF63EAF0D9B8F
:1020F000072B40F2A3810198109D059B049A039938
:10210000029C0830281808330A902846C318083261
:1021100082180593034608F108080EF10C0E0C33E3
:1021200008340831069202464544724404194118A5
:1021300004934B460995D1460894079103924FF0BA
:1021400001084FF0000E9A460E9B9E440F9B03EB36
:10215000CE0303EBCE0202EBCE0000EBCE0404EB89
:10216000CE0505EBCE060C9306EBCE07AEEB8E0349
:102170000B9207EB031202EBCE0C0CEBCE03029298
:1021800003EBCE0201931346D3ED01DA019BD0EDB0
:10219000007A93ED01DA029BCDED027A93ED01CA4C
:1021A0000B9BDCED01CAD3ED007A0C9BCDED017ADF
:1021B00002EBCE0202EBCE01009201EBCE02D3ED98
:1021C000007A92ED01FA009AD1ED01EA92ED01EA6E
:1021D000D7ED00BA96ED00BA95ED00AAD4ED009ABD
:1021E000CDED007ADDE90376DDE90554DDE907018F
:1021F000DDE90923C44601E0F304353F91ED006AAF
:1022000056ED01FAD0ED002AD4ED005AD5ED006A62
:1022100093ED007A57ED017A92ED002A96ED008A4F
:102220007FEE870A32EE061A37EEA24A75EEA64A0C
:1022300070EE841A31EE245A32EE462A31EE856A67
:1022400075EEE65A06ED016AD4ED018A92ED019A27
:1022500091ED013A95ED016A97ED000AD0ED016A22
:10226000D3ED013A3FEEC77A77EEE27A78EEC6FA1E
:1022700079EE432A39EE033A30EE669A38EE866AF2
:1022800070EE266A78EE638A32EEEF0A72EEAF2ABB
:1022900078EE233A30EEC44A32EE258AF0EE490A4F
:1022A00072EE655AE2EEAA0ADC44E245A2EEEA9A30
:1022B000B0EE682AF0EE472AE5EEAA2AA5EEEA7A01
:1022C000A0EE2A2A73EE065AE0EE6A8AF0EE67FA6A
:1022D00033EEA60AE8EE6A7A71EE644A31EEC55A28
:1022E00033EE463A70EE651A73EEE63A34EE036A60
:1022F00072EEA06A34EE434A72EEE00A33EEE43A3C
:10230000E8EE2AFA74EEA33A65EE6D2A77EE094AF2
:1023100037EE499A38EEE77A77EEA88A6DEEA17A21
:102320009DED018AE9EE857AE9EEA12A26EE6C5A46
:102330006CEE831A32EE6F1AA8EE035AE8EE061A14
:102340002EEEA33A24EE6E6A9DED008A3FEE822ABD
:10235000ABEE043AABEE236A2CEE014A66EECC3AC1
:10236000A8EE264AE8EE013A6FEE026A20EECF1A96
:10237000EBEEA06AABEE821A64EECE0A2EEE072ACE
:102380009DED028AEAEE070AAAEE242A2DEE287AAB
:1023900069EE4D4AA8EE097AE8EE284A70EE255A11
:1023A000C6ED005AC3ED007AC3ED012A4E4447ED55
:1023B000011A87ED005A4B4480ED003A80ED016A26
:1023C0004F4482ED004AC2ED013A4844C5ED006A2F
:1023D00085ED011A4A4481ED002A4D44C1ED010A00
:1023E00084ED007AC4ED014A49444C443FF606AFFF
:1023F0000A9B08330A93099B08330993089B083307
:102400000893079B08330793069B08330693059BA5
:1024100008330593049B08330493039B0833039309
:102420000D9B08F1010843457FF48EAE0E9BDDF84D
:1024300034B0DB009BB2D1460E9361E513B0BDEC26
:10244000108BBDE8F08F00BF0023034A4260036099
:102450008360C360704700BF83F9223E034B64284A
:10246000B8BF6420C3F8FC03704700BF0000002021
:10247000034B64281B6CB8BF6420D860704700BF52
:10248000000000102DE9F04790B0DDE918480E4635
:102490000746914601A83C2200219A461A9D5EF00B
:1024A0001EFB2E4B8DF80460CDF834800293002E75
:1024B00050D0B31E012B4FD9042E14BF0023032389
:1024C000DFF89C808DF80530D8F8C43603941C449E
:1024D0000123CDE9055704948DF83130B9F1000F8F
:1024E00006D05246494607A85EF0C6F88DF830A0DF
:1024F00098F8CAE60023BEF1010F0E931CD801AC78
:102500000FCC98F8C9C6CCEB0C1508EB850505F285
:10251000CC650FC50FCC0FC50FCC0FC594E80700D5
:10252000BCFA8CFC0EF1010E4FEA5C1C85E807003A
:1025300088F8CAE688F8C9C63B6843B153464A469C
:102540003146384610B0BDE8F04729F075B910B0F3
:10255000BDE8F0870523B3E70223B1E76435002027
:10256000E02E0020F0B4244B93F8C05782B03DB960
:102570000023036043608360284602B0F0BC7047CC
:102580004C68D3F8C87701940C68D3F8CC679FEDFA
:102590001B6AE71B019CA41B07EE904A03F26C44E4
:1025A000D4EDD66A07EE107A66EE866AB8EEC77A80
:1025B000F8EEE77A27EE067A67EEA67A012A80ED32
:1025C000007AC0ED017A0DD08A68D3F8D037D21ADC
:1025D00007EE902AF8EEE77AC0ED027A284602B0BC
:1025E000F0BC7047D1ED027AF8EEE77AC0ED027ADE
:1025F000284602B0F0BC7047E81D00202C7D8E3FBD
:1026000070B51F4E96F8C0372DED028B04460D466F
:102610007BB3D6F8CC17D6F8D027D6F8C8370360E6
:10262000C0E9011206F26C4393EDD68ADFED158AFC
:1026300095ED000A80EE280A5AF070FF23681844CE
:10264000206028EE288A95ED010A80EE080A5AF0EB
:1026500065FF63681844606095ED020A5AF05EFFFA
:10266000BDEC028BA3680246134496F8C007A36032
:1026700070BDC0E900338360B7EE008AD6E700BFC3
:10268000E81D00202C7D8E3F00230360704700BFB3
:102690000023094980ED010A0122816202708360F2
:1026A000C3604361036183634363C363C3620363C2
:1026B00003648361436470470000204170B590F962
:1026C0001030144D03EB83030446806805EB83054B
:1026D00013468207D5F8085782B00E460AD532460F
:1026E0002846002157F09CFBA3689B070BD50120CF
:1026F00002B070BD606901934CF098FE08204CF068
:1027000053FD019BEBE720464DF01EFD012002B07A
:1027100070BD00BF0000002030B4174B1749C3F84C
:102720006C1703F5F16500211224154A154883F84A
:10273000504783F8481742F6F82403F5EA61C3F8D6
:102740007C570025C1E90245C3F8700730BC012061
:10275000C3F88827C3F88C27C3F89027C3F89427B9
:10276000C3F89827C3F89C27C3F8A027C3F8A42769
:10277000C3F8A827704700BFE02E0020454202089A
:10278000E003E00351420208074B0849D3F87C27D5
:10279000C3F86C17931E4FF47871223223F8021F8E
:1027A0009342FBD1704700BFE02E0020253902087C
:1027B00070B5244E244BC6F86C3711244FF478754D
:1027C00006F5F6634FF4787086F850474FF4787446
:1027D000C3E90045C3E90245C3E90445C3E9064529
:1027E000C3E90845C3E90A45C3E90C45C3E90E45F9
:1027F0001649C6F8F00784B006F5EA6241F60B24E4
:1028000000254020C2E90245C6F870172BF090FD64
:10281000B0B196F8FB370E4A90F904000092012BF4
:102820000CBF082200220323CDE901324021094ACE
:1028300000232BF063FBC6F81408003818BF0120F2
:1028400004B070BDE02E0020554402084D4502083A
:10285000A0680600A951020870B40F4B0F4CA342A8
:1028600003D315E00C33A34212D25A790F2AF9D1BF
:102870001A79824201D00028F4D1DD798D42F1D15C
:102880001D682E799642EDD12A689A42EAD100E07D
:102890000025284670BC7047B4F7060880F8060883
:1028A000F8B504460F46164625218C2200681D46C1
:1028B0004DF0B6FD3A46206826214DF0B1FD45F0B9
:1028C0008002272120684DF0ABFD0A204CF050FC1F
:1028D00020682B46324649214EF002FB0120F8BD0C
:1028E000642828BF64201C4B00EB800070B54500B5
:1028F000A3FB05235E095B0918BF002422D0013425
:102900009F204EF043F8E3B29E42F8D80A2E00D141
:1029100070BD1248A0FB05300009C6EB8613C6EB5C
:10292000830366381844C0B24EF030F8092E06F121
:102930000104EDD001349A20E4B24EF027F80A2CBD
:10294000F8D170BD0548A0FB053000096638C0B25B
:102950004EF01CF80124EDE71F85EB51CDCCCCCC1B
:10296000F0B41C4F97F81838072B30D80C2404FB10
:102970000374013304F50264DBB254F8042CD1076C
:102980000ED502420CD094F900601349002291F94F
:102990000050B54201F10C010ED00132082AF6D1E7
:1029A0000133DBB2092B04F10C04E6D1082387F8CC
:1029B00018380020F0BC7047084987F8183802EB37
:1029C000420201EB8202F0BCD2F8100170470020F5
:1029D000F0E700BFE02E0020F41E0020E81D0020DC
:1029E0000144884218D030B4441E4D1E002041F2EC
:1029F000210114F8012F082380EA022010F4004F6F
:102A000081EA40020ABF400090B280B2013BF5D19A
:102A1000AC42EED130BC704700207047D0ED017A57
:102A2000F5EE407AF1EE10FA05D19FED0C7AF0EE5A
:102A3000477A80ED017A30EEA77AD0ED007AC0EDCA
:102A4000020AC0EE876A30EE670AC0ED036AE6EE5E
:102A5000807AB0EE670AC0ED007A704783F9223EB3
:102A6000D0ED015A037830EE605AF0EE407A65EE10
:102A7000255A002B47D190ED0C7A37EE607AD0EDD5
:102A80000A4AC0ED0C0AF5EEC04AF1EE10FAC7EEA4
:102A9000016A3DDC90ED037A26EE877A90ED056AB7
:102AA000D0ED0B6A27EE866A67EE222A76EE267A4A
:102AB00077EEA57A77EEA27AF4EEE17AF1EE10FAEB
:102AC00048D4F4EEC27AF1EE10FA8CBFB0EE420AAE
:102AD000B0EE670A70EE677AD0ED044A90ED027AA4
:102AE000C0ED0D6A67EEA47AC0ED0E5AE5EE077AE6
:102AF000C0ED0F2AE1EE276A80ED106A80ED110A21
:102B0000C0ED0B6A704700239FED147A0370B6E79F
:102B100090ED076A90ED034AB5EE406AF1EE10FAC7
:102B200005D19FED0F7A87EE246A80ED076A31EEBA
:102B3000066A90ED067A80ED081AC1EE064A76EE36
:102B4000C76AC0ED094AA4EEA67A80ED067A24EEA3
:102B5000077AA3E7B0EE610ABCE700BF00000000FF
:102B600083F9223E70B4344890F88038A3F13001E4
:102B7000092957D800F50864224600F68F0012F89C
:102B8000015FA5F13001092904D88242F7D1002064
:102B900070BC7047141B022C4ADD2848002101E05C
:102BA00010F8013B01EB810103EB4103161A303BA6
:102BB000022E044603F0FF01F2DC214B03FB01F17E
:102BC000A2424FF000030DD903EB830314F8016B0D
:102BD0005B00303B3344A24203F0FF03F4D11948B9
:102BE00000FB03F32E2D06D01748A0FB032301EBB7
:102BF000930070BC7047013204200024157804EB68
:102C00008404303D6400092D00F1FF30A4B202D8E5
:102C10002C44A4B2013210F0FF00EFD1642202FB79
:102C20000433E1E700211D4600F508620B46D9E7B1
:102C3000064C0021C4E700BFE02E002061370020D1
:102C40008096980040420F00ABAAAAAA60370020E5
:102C500080EAE073A3EBE0738B420ADB00280ADD15
:102C6000431A4FF4FA72501A02FB03F393FBF0F08D
:102C7000704700207047FDD000F5FA734FF4FA70EA
:102C8000411A00FB03F090FBF1F0A0F5FA707047D9
:102C9000084B03F509600DC8824202DB114602466B
:102CA0000846984204DD9A42B8BF1A46104670475B
:102CB000704700BFE02E002030B4144AD2F89C08C0
:102CC000D2F8A038D2F8A448D2F8A818D2F8AC2884
:102CD000834202DB1D46034628468A4202DB154634
:102CE0000A4629468842A8BF08469342B8BF134601
:102CF000A04202DC224604461046834203DAA34285
:102D0000B8BF2346184630BC704700BFE02E0020F5
:102D10000B6810B414681B1B036054684B681B1BC2
:102D200043608B6892685DF8044B9B1A8360704720
:102D30002DE9F041804684B00846164652F0B4FDB5
:102D40004FF47A72002304460D4657F0A5FFB6F9FA
:102D500000C00746294620464FF47A723C240023DF
:102D60000CFB047757F098FF002594B24FF47A7368
:102D7000C3FB07452B46224601A852F0E1FC404B1D
:102D800093F8B238012B2FD0022B10D19DF806708A
:102D9000FB1E082B0BD83B1F062B1BD9BDF80400CC
:102DA000394652F063FC032F36D00B2F41D0224618
:102DB0002B46404652F0C4FC04B0BDE8F081032F1E
:102DC00055D00A2FF3D19DF80870B7FA87F77F091D
:102DD000002FECD033882B4A3C33A4184FF000026C
:102DE000338042EB0505E2E79DF80670FB1E072BDA
:102DF000DDD83B1F052BEDD9BDF80400394652F054
:102E000035FC9DF807309842D9D0033F18BF012701
:102E1000002FDFD1CBE707380E28FCDC9DF8073008
:102E2000834212D0CCBF01270027002FD2D1BEE7AA
:102E300007380728FCDC9DF8073083420ED0B4BF6A
:102E400001270027002FC5D1B1E79DF80870012F99
:102E500094BF00270127002FBCD1A8E79DF8087078
:102E6000012F8CBF00270127002FB3D19FE79DF8CA
:102E70000870003F18BF0127002FABD197E700BFB4
:102E8000E02E002080EE360038B504460D460C22B8
:102E9000252100684DF0C4FA20680A2226214DF051
:102EA000BFFA2A46206863214DF0BAFA20688122D1
:102EB00027214DF0B5FA012038BD00BFF8B5104EFE
:102EC000044686F8BA2815460F468C22252100684C
:102ED0004DF0A6FA3A46206826214DF0A1FA45F0B9
:102EE0008002206827214DF09BFA4CF0FFF8012367
:102EF00006F6B802C2E9020186F8B9381846F8BDEC
:102F0000E02E0020074BD3F8D028D3F8C818D3F808
:102F1000CC08C3F8C8085242C3F8CC18C3F8D0286C
:102F2000704700BFE02E002030B50468E46985B02A
:102F30002CB10DF10F050095A04705B030BD20461E
:102F400005B030BD38B50A4C0A4D2321D5F8D40858
:102F500050F0AEF914F8011F0029F7D1064850F0DF
:102F6000E1F995F8D83813B1012385F8D93838BD7F
:102F700084910608E02E0020909106082DE9F04F7C
:102F800089B0CDE90621DFF8B080074699460026D2
:102F9000069B002B07DBB34205D00136042EF7D188
:102FA00009B0BDE8F08FFA2303FB06FB079B03EB98
:102FB0000B0A204B00249B44B9F1000F33464246D4
:102FC000384601DBA14530D13BF814503AF81410D3
:102FD000009415F4006FA1EB050114BF4FF0560EDD
:102FE0004FF0480E05F01F0CB1FA81F1C5F34415FE
:102FF0004909CDE901C5CDF80CE0059148F0A0FAEA
:103000003AF814300599009413F4006F03F01F028E
:1030100014BF56204820C3F34413CDE90123039085
:1030200033464246384648F0A7FA01347D2CC3D1D6
:10303000B3E700BFBC370020A09106082DE9F04F90
:103040003B4C3C4B94F8D45D3B4ADFF8F480894616
:10305000002D08BF1A4694F9D51D8BB00746374896
:1030600046F0EAFF04F634044D460026B9F1000F9D
:103070003ED022782B789A426A683BD0D5E902CEBE
:103080000021A87D0790B5F914000690B5F912004B
:103090000590B5F910000093CDE903E0CDE9012CCE
:1030A000334642463846099148F04AFA0999A37DC9
:1030B0006268B4F914B0B4F912A0B4F910E0D4E91C
:1030C000020C079314F8183B0093CDE90120334616
:1030D000CDE905ABCDE903CE42460136384648F08E
:1030E0004BFA3C2E05F11805C0D10BB0BDE8F08FAE
:1030F0004946DCE76168D5F808C0914202D0D5F8AE
:103100000CE0BDE7A168D5F80CE06145B8D1E168F5
:103110007145B5D1206929698842B1D16069696971
:1031200020F07F4021F07F418842A9D10121A8E70A
:10313000E81D0020BC910608D0960608C09106083C
:10314000D09106081D4A2DE97003546C1C4E002CCA
:10315000D6F8F03303600EDD4832002306F57C75A7
:1031600001E09C4207D052F8041BA94203F101037D
:10317000F7D1012200E00022D6F8FC33836002710F
:10318000104A96F8003443711346F3E80289D3E9F4
:103190000045D6F8203452F8042CD6F81814816271
:1031A0005B0943EAC2635209C0E90489C0E90645E4
:1031B000C0E90832BDE87003704700BF000000108E
:1031C0000000002028040020014B986A704700BFCF
:1031D00000000020014BD3F80001704700000020E0
:1031E000014B186F704700BF000000200C4608B567
:1031F00005462AF059FE20462AF056FE0020FEF72A
:1032000027FB03E020464CF06DF8E0B928464CF06F
:1032100069F80028F6D00120FEF71AFB28464CF08A
:1032200059F8064620464CF059F80028FAD03146A5
:1032300020464CF07DF80020FEF70AFB20464CF0BB
:1032400051F80028E2D00120FEF702FB20464CF0A6
:1032500041F8064628464CF041F80028FAD02846A6
:1032600031464CF065F80020FEF7F2FACEE700BFD9
:1032700010B4414A92F8D130D2F8B800023BD2E9FA
:103280002C14062B74D8DFE803F05A5C6050065506
:10329000040064424942404280EAE073A3EBE073D9
:1032A00006EE903A84EAE473A3EBE47307EE103A77
:1032B000F8EEE66A9FED316AB8EEC77A26EE866AC6
:1032C00081EAE173A3EBE17307EE903AB4EEC76ACB
:1032D000F1EE10FAF8EEE77A04DDB4EEE76AF1EE0B
:1032E00010FA34DC9FED256A27EE066AB4EEE76A31
:1032F000F1EE10FA04DDF4EEC66AF1EE10FA2DD408
:103300009FED1E6A67EE867AB4EEE77AF1EE10FA68
:103310002BD5F4EEE76AF1EE10FA26D50029CCBFE2
:10332000042005205DF8044B70474B424042214683
:103330001C46B1E7634240420C461946ACE749429D
:10334000AAE74B4261421C46A6E76442A4E7002874
:10335000CCBF002001205DF8044B7047002CCCBF8F
:10336000022003205DF8044B70474FF0FF30D9E78F
:1033700023460C4619468FE700000010ABAA2A3FEF
:1033800070B5284CDFED286A94F8FD3794F8C42C0A
:10339000D4F8E85C07EE103A94F8FE3707EE903A5E
:1033A000B8EEC77AF8EEE77A27EE267A67EEA67AC5
:1033B00004EB4206BDEEC77A0132FDEEE77A02F079
:1033C0000F01B6F8C83C84F8C41C17EE102A17EE9B
:1033D000901AC31A2B448A42C4F8E83C82B0A6F87B
:1033E000C80C4FEA131312DC17EE101A17EE902ACE
:1033F00098B240F2FF350023009553F02BFB2A468C
:10340000002153F049FBA4F8EC0C02B070BD9BB254
:103410009942D4BF581A00208242A6BF101A80B227
:103420000020E6E7E02E002014AE2341064B93F87F
:103430007D1403F5EE6203F5EB63002918BF134614
:1034400093ED020A704700BFE81D0020F8B51F4D3C
:103450001F4FB5F81E62B5F810327B820C460EBBCA
:10346000D7E90631C01A64EB010157F0CFFBDFED5D
:10347000197AB5F81232B5F81612B5F81A2207EE15
:10348000100A67EE277A0B44FCEEE77A17EE904AB3
:103490002344934213D8B5F81C02844294BF002001
:1034A0000120F8BDFFF7C2FF07EE906AF8EEE77A59
:1034B000B4EEE70AF1EE10FAD2DB0120F8BD34F0E9
:1034C00099FD0028E7D00320F8BD00BFE81D0020CB
:1034D000000000106F12833A2DE9F04F2DED028BA2
:1034E00087B00446324D039310460E46B0EE408A34
:1034F000174656F0DFFDD5F8F0BC9DF848A0DBF884
:1035000000308BF80B604FF0000820448BF80A0065
:10351000CDF8008058463246D3F814B09DF84C9050
:103520003B462146D8479FED230A039B019328EE93
:10353000000A5346FDEEC07ACDF8008017EE901ACF
:10354000424604A81CF05AFAD5F8F43C13B11B7893
:103550004B452AD0D5F8003D13B11B784B4524D0FC
:10356000D5F80C3D13B11B784B451ED0D5F8183D4E
:10357000CBB11B78A3EB0909B9FA89F94FEA5919BC
:10358000384656F097FD01340444E1B2D5F8F00C0A
:10359000CDF8009004AB32464CF0FEFC07B0BDEC19
:1035A000028BBDE8F08F9946EAE74FF00109E7E7A3
:1035B000E02E00200000C84230B41C7884B1012CF9
:1035C0000CD1B3F902408AB1157B94FBF5F4047079
:1035D000B3F90430527B93FBF2F30B7030BC7047AD
:1035E0009A780270DB780B7030BC7047054A82FB1A
:1035F0000452E417C4EB62040470B3F904301222DD
:10360000E9E700BFABAAAA2A30B41C784CB1012C60
:1036100005D1B3F90220B3F9043002600B6030BC6D
:1036200070479C7852B1157BDB7815FB04F404607D
:10363000527B03FB02F330BC0B60704704EB440485
:10364000A400DB7804601222F3E700BF30B583B03A
:103650000C46054601920FF099F8019B2246294637
:103660004CF050FD094A92F9243D02EB430101332D
:103670005BB2352BC8BF0023012081F8285D81F89B
:10368000294D82F8243D03B030BD00BFE02E00205C
:103690000F4B93F8DC2E012A12D910B582B0042208
:1036A0000C888B788DF804000DEB02017420ADF8C6
:1036B00005408DF807302AF051FF012002B010BDFF
:1036C00001D00020704793F8DD3E622BE5D8F8E783
:1036D000E02E0020F8B5214D1D260C46074685F842
:1036E000046F28F061FC002028F0DEFB082028F0A1
:1036F000DBFB0E2028F0D8FB304628F0D5FB042059
:1037000028F0D2FB042028F0CFFB002028F0CCFBCF
:10371000302028F0C9FB002028F0C6FB204628F006
:10372000C3FB002028F0C0FB28F01CFC05F6087045
:1037300028F018FB00B9F8BD95F8083F63B995F873
:10374000093F302B00D03BB995F80A3F23B995F8D3
:103750000B3F3B700120F8BD0120F8BDE02E00209A
:103760002DE9F04FDFF80C832DED028B00220023B2
:10377000C8E94623002389B008F590711A4601F87C
:1037800033200133122BFAD1B74CB84DDFF8E89251
:103790009FEDB78A04F54076A5F590770DE007EB2D
:1037A000C3032278D3F8203102B16BB900232B6018
:1037B0001834A64205F1080541D094F90130002BD8
:1037C000EDDA2378002BF1D02B79DA07F0D4A16859
:1037D000207927F05BFA21698246207B27F056FA90
:1037E000A2788346282AE1D8DFE812F039009A014E
:1037F0008C01930170017901830134002E0137019E
:1038000048015002500155015F01670152006800F4
:1038100073007A0088009600AF00C000D000D60088
:10382000EE00F400FA00000109011F01AF01B80128
:10383000CF01DC01FF010E021E024002A10197F838
:10384000303213B197F832329BB909B0BDEC028B1C
:10385000BDE8F08FBAF1000FA8D00028A6D0237DD4
:1038600001222A60DA07A3D52B7943F001032B71DB
:103870009EE797F83122D7F8340240214CF0D0FD72
:10388000002387F8323209B0BDEC028BBDE8F08F1F
:1038900000FB0AF047F6FF72494653F0FDF88246F6
:1038A000227DC5F800A0D30782D5BAF1000F3FF4FE
:1038B0007FAF2B7943F001032B7179E70028EFD01C
:1038C0009AFBF0F047F6FF72494653F0E5F882465E
:1038D000E6E75FFA8AF0594627F0B2F9DA46DFE701
:1038E0005FFA8AF21046039227F0C4F9039A0BEBB1
:1038F000000A5146104627F0A3F9D1E75FFA8AF291
:103900001046039227F0B6F9039AA0EB0B0A514632
:10391000104627F095F9C3E75FFA8AF0072800F20E
:10392000BA815FFA8BF3003B97F8312218BF01236D
:1039300001215B42534001FA00F003405A40DA464D
:1039400087F8312287F83212AAE7D8F81831227D99
:1039500043F00103C8F8183101232B60D3077FF52A
:1039600027AF2B7943F001032B7121E7D8F81821F9
:10397000237DC8F80CA242F00202C8F81821D8072B
:103980004FF001022A603FF56FAF11E7D8F8183108
:10399000227D43F00403DDE7D8F8142292453FF47A
:1039A00005AFD7F8200204A94BF024FB002849D02A
:1039B00050469DF81220012153F06EF88246C8F857
:1039C000140287F826026BE7D8F81831227D43F0FD
:1039D0000803BFE7D8F81831227D43F01003B9E798
:1039E000D8F81831227D43F02003B3E7D8F8182126
:1039F000C8F824A242F04002C8F8182150E7D8F8CD
:103A0000282292453FF4D2AED7F8200204A94BF009
:103A1000F1FAB8B150460522012153F03DF8824633
:103A2000C8F8280287F824023AE7D8F82C229245F1
:103A30003FF4BCAED7F8200204A94BF0DBFA002813
:103A400040F02B812860B3E6BAF1000F7FF407AF96
:103A500000287FF404AF2860AAE6BAEB000A18BF7A
:103A60004FF0010A1CE700BFF83D0020F84000209D
:103A700035FA8E3C000000100080FFFFBAF1000F05
:103A80003FF4EDAE00283FF4EAAE8FE6BAFA8AFAC8
:103A90004FEA5A1A04E7BAF1000F7FF4E0AE0028AB
:103AA00040F00681D5F800A0FAE6504447F6FF72D0
:103AB000494652F0F1FF8246F2E6AAEB000047F6D3
:103AC000FF72494652F0E8FF8246E9E640F234527E
:103AD0009245CCBF4FF0000A4FF0010AE0E6AAF28F
:103AE0003553B3F5A77F2CBF4FF0000A4FF0010A02
:103AF000D6E640F282629245D4BF4FF0000A4FF002
:103B0000010ACDE68245D4BF4FF0000A4FF0010A0A
:103B1000C6E68245ACBF4FF0000A4FF0010ABFE68F
:103B2000AAEB000ABAFA8AFA4FEA5A1AB8E600284B
:103B30003FF4B6AE9AFBF0F047F6FF720BFB10A015
:103B4000494652F0A9FF8246AAE6D8F81821C8F8DB
:103B500030A242F08002C8F81821A1E607EE90AA30
:103B6000B8EEE70A002820EE080A08BF4FF4FA7BF7
:103B700053F0FCF807EE90BAF8EEE77A27EE800AE9
:103B8000FDEEC07A17EE90AA8AE607EE90AAB8EE8C
:103B9000E70A002820EE080A08BF4FF4FA7B53F02A
:103BA0006BF8E7E707EE90AAF8EEE78A002868EEE0
:103BB000888A08BF4FF4FA7BB0EE680A53F0D6F853
:103BC000F0EE407AB0EE680AF0EE678A53F054F8EF
:103BD000C8EE807A07EE10BAB8EEC77A67EE877A39
:103BE000FDEEE77A17EE90AA5AE650465A460021B3
:103BF00052F052FF4FF47A71002300915A46194651
:103C000052F028FF82464BE650464FF47A7200216C
:103C100052F042FF0023CDF800B019464FF47A72FB
:103C200052F018FF82463BE60AF1FF3011220021D4
:103C300052F032FF08EBC00A58464FF0010B4FF428
:103C4000FA624FF47A718AF820B152F025FFD8F861
:103C50001821217DC5F800B042F48072C907CAF866
:103C60002401C8F818213FF5FFADA1E5642000FB51
:103C70000AF052F029FF104B83FB0032C317C3EB4D
:103C8000621A0FFA8AF02CF0B1FE09E65AEA000334
:103C90003FF4E5AD8AE5DA4602E650460822012106
:103CA00052F0FAFE8246C8F82C0287F82502F7E5A2
:103CB000C5F800A07CE500BF1F85EB51164991F8BF
:103CC000802832B3F0B4064600200346074602E0DF
:103CD00092F88028DAB100EB80002E2A4FEA4000EB
:103CE00004D10133CA18324482F88078CA18A0F18E
:103CF000300592F88028A2F13004092C98BF5019A1
:103D00000E2B03F1010301EB0302E1D90020F0BC0B
:103D100070470020704700BFE02E002070B5174D9F
:103D2000D5F8382213791E3B012B064603D91046DD
:103D300000214BF0FDFA002E09DD114C264414F849
:103D4000011BD5F838024BF0F3FAA642F7D195F8EB
:103D50008F326BB90B4AB5F89832D2F8C426C5F841
:103D6000902201330022A5F89832C5F8942270BD44
:103D7000D5F8380200214BF0DBFAEBE7D83F002002
:103D800014420020E02E0020036813F0400004D00D
:103D900013F4057F14BF0120002070472DE9F04384
:103DA000244D254C85B005F1280980460F4616465E
:103DB000C4F88097C4F87C57FEF7E6FC1F4BC4F8A4
:103DC0007037122284F8502704F5EA6142F6F8228F
:103DD00000234020C1E902232AF0AAFA044610B3C6
:103DE000FFF7D2FF98F800203F78034694F90400CB
:103DF00000961C1E14BF03210121002A0CBF0722BC
:103E00000622012F0CBF082300231A43CDE901121B
:103E10004B460B4A40212AF071F8A5F52A752CB9BA
:103E2000003818BF012005B0BDE8F083C5F81003C5
:103E3000F6E700BF80420020E02E0020993A0208F9
:103E4000554A02080348044A00F2FB7100F2FA7076
:103E5000A4E700BFE02E0020400D03000348044A01
:103E600000F2FB7100F2FA7098E700BFE02E00202C
:103E7000A086010070B5C44CD4F8146384B02EB190
:103E80003046FFF781FF002840F06D8194F8200351
:103E9000FCF716FB94F81833834205461CD0002823
:103EA00000F08081C6B1B94B96F9040093F8412027
:103EB000B2FA82F252094FF4165100230225CDE9DD
:103EC000015200911A4604212AF018F8C4F81C0384
:103ED00010B1012384F8183394F82103FCF7F0FAA9
:103EE00094F82233834205461ED0002800F0188142
:103EF000D4F82433C3B1A54A93F9040092F84820BA
:103F0000002A18BF08224FF4964100230325CDE96B
:103F1000015200911A46082129F0F0FFC4F8280345
:103F200010B1012384F82233FCF7E2FBD4F82C53C0
:103F30002DB12846FFF728FF002840F0FA8094F8BA
:103F40003803FCF7BDFA94F830338342064631D08B
:103F5000002800F030818D4E96F84B30012B00F098
:103F60003881022B0CBF8A4A8A4AC4F834230DB325
:103F70002A7A002A00F02A81022A00F02E81012AE2
:103F800040F03981824BC4F834334FF4966395F98D
:103F90000400009300250221019102952B462A4638
:103FA000102129F0ABFFB06720B1012384F8395309
:103FB00084F8303394F83A03FCF782FA94F83B33F0
:103FC0008342054636D0002800F0A180D4F83C3367
:103FD000D3B11A7A002A00F0F6806F4901EB820211
:103FE000D2F8B42093F90400009200230321019138
:103FF00002931A464FF4807129F080FFC4F8400301
:1040000010B1012384F83B33604A644BB2F870105E
:1040100092F8725092F87300A3F87E1792F8741019
:1040200092F8752083F8825783F8860783F88717FC
:1040300083F8882794F84403FCF742FA94F8453350
:104040008342054627D058B34FF4FA70FEF706FABC
:10405000D4F84833FBB11A6802F41072B2F5107F3D
:1040600019D093F9040003214FF4E132002308250D
:10407000CDE9011500924FF400711A4629F03EFF78
:10408000C4F8500338B1414901220023486384F841
:10409000452384F84C3394F854536DB104B070BD8B
:1040A000D4F8500329F00EFFC4F8505384F8455358
:1040B00094F85453002DF1D1D4F85833002BEDD09F
:1040C000032293F90400CDE901251A7A324B03EB60
:1040D00082034FF40021D3F8B43000932A462B46D4
:1040E00029F00CFFC4F85C030028D7D02C4BC4F88F
:1040F0006453D3F8C43684F8685303F51C53103363
:104100000122C4F8603384F8542304B070BDD4F89D
:10411000400329F0D7FEC4F8405384F83B5389E7A5
:10412000D4F8280329F0CEFEC4F8285384F822538B
:10413000FAE694F83033002B7FF43CAFD4F8103318
:10414000002B3FF437AF114A92F84B1093670129C7
:104150004AD002290CBF0E4B0E4BC4F83433012356
:1041600084F8303326E794F81833002B7FF4B4AE8C
:10417000D4F81033002B3FF4AFAE0122C4F81C3347
:1041800084F81823A8E600BFD83F0020E81D0020CF
:104190006407002070070020140C060800000020AF
:1041A000E02E0020D4F81C0329F08CFEC4F81C5328
:1041B00084F8185390E6134DA86F29F083FEAE677C
:1041C00084F83063F6E64FF461420BE74FF4964310
:1041D000DDE60D4AC4F83423C9E64BB90A4BC4F8EE
:1041E00034334FF41663D2E6074BC4F83433B6E7E2
:1041F0004FF41663CBE6054B03EB8202D2F8B430E2
:10420000C5E600BFE81D002058070020140C060872
:1042100008490138002310F8012F222A04D0013365
:104220000F2B01F8012FF6D1034A1344002283F823
:104230004E207047351E0020E81D002010B5084CA8
:1042400082B00223C4F86C33019055F033FF01991A
:10425000C2B2D4F85C0302B0BDE810404BF046B8DF
:10426000D83F002070B5254C064604F14E0055F0AD
:1042700021FF94F84E502B2D38D0302D27D0382DDB
:104280002ED01F49002301E011F8015F0C464DB309
:104290000133102BF8D1324606F11005134612F8FF
:1042A000011B222926D0AA42F8D1002820DDC0F126
:1042B00001001918621C013301E08B4218D013F879
:1042C000014D12F8010D8442F7D0002070BD94F822
:1042D0004F20A2F13101012903460DD9362A0BD016
:1042E0000138CEE7002BF0D04C1ED4E70538C8E7E4
:1042F000012070BD013BD8E7981EC2E7E81D0020F1
:10430000361E00202DE9F04F2DED028B87B0884638
:1043100000AF164620B10378303B012B40F2878175
:10432000DFF83893DFEDC68A9FEDC68A98F8003033
:10433000002B3CD036B1C44B3268D3F8C4369A4215
:1043400040F2BB83C14C94F87053002D40F0BA8208
:1043500094F87303BE4B03EB4003B3F8F83063BB30
:10436000012384F87333BB4B5A6911061DD59A6833
:10437000920740F17F83B84AB2F8903112684FF447
:10438000F36113FB01F389FB0301DB17C3EB61133B
:1043900010203021C7F81330082338747974BB74A7
:1043A00038180024904788F80040002EBED11C37F2
:1043B000BD46BDEC028BBDE8F08F0130C0B2B3F555
:1043C0008A6F84F8730300F0888127D8B3F5806F73
:1043D00000F02A826BD9B3F5866F00F00A824ED9BD
:1043E000B3F5886FE1D1DFF870A29AF84530002B61
:1043F000DBD0984ADAF80030B2F95822C7F8132017
:1044000010204021042238747974BA7438180024BA
:10441000984788F80040002E88D1C8E7B3F5006FB0
:1044200000F0368140F28880B3F5046F00F0188107
:104430006CD9B3F5116F00F01B82B3F5206FB4D1C6
:10444000844BD3F854329A06AFD5D4EDEB7A824B35
:1044500067EEA87A1B68FCEEE77A102117EE902A27
:104460000024C7F813200A2239747C74BA747818AF
:10447000984788F80040002E7FF458AF97E7B3F5CF
:10448000826F00F0E481B3F5846F8ED1714B5A696D
:1044900012068AD59A68950740F1C782D4F8082495
:1044A0006D4BC7F8132010202021042242E0B3F501
:1044B000007F00F07A8169D9B3F5047F7FF475AF8E
:1044C000644B5B699D077FF570AFDFF88CA19AF8AC
:1044D0004630002B40F0B18294F88233012B0CBFA0
:1044E000B4F89033B4F89233C7F813301022022195
:1044F000DAF800303A747A74B974B818002498471E
:1045000088F80040002E7FF411AF50E7B3F5026F3A
:1045100060D1504B5A6911067FF547AF9A689207F0
:1045200040F19B824C4BD3F88021C7F81320102018
:10453000202108221B6866E7B3F5E26F00F01881BE
:1045400050D9B3F5E46F7FF430AFDFF80CA19AF8DF
:104550004530002B7FF429AF3E4B93ED380A20EE17
:10456000080A58F0DBFF102420210722C7F81300A7
:104570003C743819DAF800307974BA74002498471A
:1045800088F80040002E7FF4D1AE10E7B3F5807FAD
:1045900000F0C580B3F5887F7FF407AF2D4BD3F8CB
:1045A00054325B077FF501AFDFF8ACA09AF87D14B9
:1045B0000AF5EB620AF5EE63002908BF134693ED96
:1045C000050A58F0ABFFDAF80020C7F813001023F3
:1045D000012165E1B3F5036F3FF4C5AE002E7FF412
:1045E000A5AEE4E6B3F5C06F00F08880B3F5E06FE8
:1045F0007FF4DBAE184D95F84540002C7FF4D5AE26
:10460000144B93ED360A20EE080A58F087FF10216C
:1046100007222B68C7F813007C743974BA747818B1
:10462000984788F80040002E7FF480AEBFE6013046
:104630000621FCF791F9054B83F8700370E600BF83
:10464000B80C473E0000C842E02E0020D83F0020B2
:10465000140C060800000010E81D00201F85EB5117
:10466000954B964AB3F95C32126803EB83035B0007
:104670001020C7F813304021082338747974BB74B4
:104680003818904788F80050002E7FF44FAE8EE621
:10469000894B5A6915067FF588AE9A68940740F1F0
:1046A0000782C30700F1F081DFF810A2DAF8782161
:1046B00082EAE273A3EBE27303EB5303A9FB031358
:1046C000DB08002AB8BF43F08043C7F8133010213D
:1046D000DAF8003000240822C6E6774B5A6915063E
:1046E0007FF563AE9A68940740F1C981734BB3F9C3
:1046F0009221C7F8132010205021D6E6DFF8BCA184
:104700009AF84930002B40F05C8123F0D7FB00245D
:10471000DAF80030C7F8130010210622A4E6664B31
:10472000D3F8543259077FF540AEDFF890A19AF8DC
:104730007D14DAF800200AF5EE630AF5EB6A002929
:1047400008BF5346D3ED027AFCEEE77A102117EE4C
:10475000900A00240123C7F8130039747C74BB74D9
:104760007818904788F80040002E7FF4DFAD1EE6F1
:10477000524D95F84540002C7FF417AE4E4B93ED0B
:10478000370A20EE080A58F0C9FE10230721C7F89F
:1047900013002A683B747B74B974F818904788F842
:1047A0000040002E7FF4C2AD01E6434B5B69180563
:1047B0007FF5FBAD94F88033002B3FF4F6AD3F4915
:1047C0003F4AB1F952347D7482FB0302DB17C3EB1D
:1047D000A2031BB210240220B8740A68C7F8133071
:1047E0003C743819904788F80050002E7FF49EAD35
:1047F000DDE5324B93F84520002A3FF4D6AD2E4A32
:104800001B68B2F95A22C7F81320102230213A74DB
:1048100004227974BA7407F11000984788F80050A0
:10482000002E7FF483ADC2E5FBF7F6FD234BC7F8FE
:104830001300102104221B687D743974BA7478182F
:10484000984788F80050002E7FF470ADAFE51A4B02
:104850005A6915067FF5A9AD9A68940740F105815C
:10486000FBF7C8FF154AC7F813001023042116E010
:10487000114B5B6999077FF598AD94F874334BB190
:1048800094F88223012A0CBFB4F89023B4F8922341
:10489000B2FBF3F3094AC7F8133009211023126859
:1048A0003B747B74B974F8180024904788F8004072
:1048B000002E7FF43BAD7AE500000010E81D0020DB
:1048C00067666666DFF83CA207F108033B61DAF829
:1048D0001C9007F10E037B61D9F80020DAF8143040
:1048E0009A426E4694F8713300F0828007F1090213
:1048F0003A615A1C84F8712303F00F030522D9F89A
:1049000004B03B7294461346D9F80010ABEB010B90
:10491000D01D5FFA8BFB20F00700DC45ADEB000DEE
:1049200040F2D4805A4668465BF0A6FED9F80030C3
:104930005B44C9F800305A46694607F1100051F04F
:1049400079F8DAF81C20DAF81430D9F80000117A76
:10495000C9F80400C21A4A40D2B28342C9F80030F2
:1049600084F872230AD00133C9F8003013F8011C0F
:10497000984282EA0102F6D184F872233B69591CFD
:1049800039611A70D7E90432D21A012A08DD0021F0
:104990005A1C3A611970D7E90432D21A012AF7DC9D
:1049A00007F10800FBF764FC002500231C37B5461F
:1049B00084F8705388F80030BD46BDEC028BBDE82A
:1049C000F08F4F4A526912057FF5EFAC94F88023BF
:1049D000002A3FF4EAAC012B00F08F80D4F8943326
:1049E000C7F813301021DAF80030002406223BE526
:1049F000B9F90C20591C03F00F0343F01003002AEF
:104A0000B8BF43F0200307F109023A613B72D9E9CC
:104A1000003B0422ABEB030384F8711307F10A0196
:104A20007B723961134694466EE71B6818077FF561
:104A300035AD002E7FF47AACB9E494F87433002BD2
:104A40003FF452AD94F88223012A0CBFB4F89023AE
:104A5000B4F89223B2FBF3F346E51B681B077FF51E
:104A600061AD002E7FF462ACA1E41B6818077FF5EE
:104A7000F7AE9AE41B681B077FF57DAC95E41B68D5
:104A800018077FF533AE90E4DFF878A0DAF87C21E0
:104A900082EAE273A3EBE27303EB5303A9FB031374
:104AA000DB08002AACBF43F0004343F040430CE670
:104AB0001B6819077FF5F5AD77E400231C3788F8EC
:104AC0000030BD46BDEC028BBDE8F08F6846C7E9FB
:104AD00000325BF0D1FDD9F800107A683B681144D0
:104AE000C9F8001007F110001A46694650F0A2FFFD
:104AF00007F10800FBF7BCFB57E7DAF854346FE71F
:104B000000000010E81D00202DE9F041DFF82881A9
:104B100098F80531012B82B002D002B0BDE8F081D7
:104B2000D8F804000028F8D0404B414CD3F8C436E4
:104B3000404E01330025019304F20C478DF80350D9
:104B40000AE01B2B84F8145448D00D2B5CD00123B1
:104B500086F88937D8F8040003685B68984700280E
:104B600049D0002D47D1D8F804000368DB68984786
:104B700083B27E2B4BD096F88927002AEAD194F88D
:104B80001424002ADDD17D2B4BD094F818242AB1AF
:104B900080F02003D8B284F81854034694F8132404
:104BA000062A0BD8B4F816C4A11863440132A4F83D
:104BB000163481F80C0484F81324CBE7B4F81624D7
:104BC0001344C3F3072252FA83F30122A4F81634E4
:104BD000FF2B08BF3D4686F88927BBE7D8F80400BD
:104BE00003685B6898470028B1D101238DF8033032
:104BF00086F88937AEE7284601AA0DF10301FFF7D1
:104C000081FB02B0BDE8F081A4F81654A2E70123AD
:104C10008DF8035084F8135486F8895784F81434B7
:104C200098E7012384F8183494E700BFE02E0020B1
:104C3000D83F002000000020E81D0020054B93F81D
:104C400005210AB1002070470222186083F805216F
:104C500001207047E81D0020F0B5224C224DC4F819
:104C60007C5785B0FDF790FD12232049204A84F837
:104C7000503742F6F82604F5EA6300274020C3E9DE
:104C80000267C4F87017C4F8742729F051FB30B3D9
:104C900094F8FB3794F8FA1790F90400154A022BA0
:104CA00014BF08230023002908BF43F00103032495
:104CB0004FF4E131CDE9014300910023402129F077
:104CC0001DF9A5F21C45C5F84004014620B10A486B
:104CD000FFF7B4FF85F84404081E18BF012005B093
:104CE000F0BD00BFE02E0020F44300203D4C020840
:104CF000D95C0208B54F0208A943020810B50C4C54
:104D000094F805310BB1002010BD202029F010FBD4
:104D1000C4F8080150B1202129F000FB054B84F8AC
:104D200006010120236084F8050110BD012010BD9B
:104D3000E81D0020990200082DE9F041484BDFF8FA
:104D40002C8193F8763098F8620498F86364012B0C
:104D500098F854340CBF43F0020303F0FD03FE281F
:104D6000C6B088F854345DD0012E59D93D4B354634
:104D7000334403E0013D012DCEB251D013F8012D93
:104D8000EEB2711E002AF5D0D8F86834B8F8641471
:104D900098F86474B8F866C46C46C3F317231A1203
:104DA00022721A14E371627298F8683420702A46ED
:104DB00061800DF10A002B49A3716670A4F804C04C
:104DC0000A355BF059FC17F00103B8F8601404EBE6
:104DD000050213D16155090A517009273B44033379
:104DE0001E4414FA86F614F8011BD8F840034AF062
:104DF0009FFAA642F7D146B0BDE8F0811A4B615543
:104E0000090A1D685868517099681B7B9373C2F832
:104E10000250C2F80600C2F80A100D230927DDE788
:104E20003546B1E76C46D8F86834B8F8667498F837
:104E300068542070C3F3172332460A4963710DF199
:104E400006006780667025715BF016FCB31DB8F82C
:104E50006024E2542344120A5A7005270023BDE758
:104E6000E81D0020444400204E450020D83F00208B
:104E70002DE9F04F0468DFB0D3001B1905900192B3
:104E80000391036002D3436801334360019BC4F381
:104E9000C504002B00F0CD80059B2833049303E06C
:104EA000019B002B00F0C580019BC4F14002DDE9AD
:104EB00003109A4228BF1A469B1A01930B462044BE
:104EC0001344144403935BF0D7FB402CE8D1059ABC
:104ED0001EAE0EAB92F82B5092F82A4092F82900A1
:104EE00092F828101D705C709870D97004339E423F
:104EF00002F10402EED1059B9A680692DA680792E5
:104F00001A6908925A6909929A690A92DA690B92A7
:104F10000DF1740A1A6A5B6A0C920D9352460DAB3E
:104F200053F8041F42F8041F1DA99942F8D14EAF4F
:104F30003246916B134652F8040F5C6A1D684FEAC3
:104F4000F14383EA714383EA91234FEAB0412C4451
:104F500081EAF011234481EAD0010B449742D363E4
:104F6000E7D1354B009306F1FC030293DDE90869B4
:104F7000DDE90657DDE90BECDDF834800A9C2F4BA8
:104F80000BE0B1463E462F461546009AE046F446F1
:104F9000A6461C4652F8043F00924FEAF4212CEA40
:104FA000040081EAB41104EA0E0281EA746142400D
:104FB0005AF8040F0A4487EA060B4FEA7531024497
:104FC00081EAB5010BEA050B07EA060081EAB55153
:104FD0008BEA00000844029942441A44514502EB0E
:104FE00009030244CDD1069911440A460799294480
:104FF0000D46089939440F46099931440E460A99DD
:1050000019440B9B23441C460C9B734418460D9B70
:10501000634488461946059BC3E90740C3E9035723
:10502000C3E905689A605962019B0024002B7FF454
:105030003BAF5FB0BDE8F08F380D0608982F8A426D
:10504000F0B5066893B0F70804460D468023472262
:1050500000210DF10100C7F1770707F03F078DF838
:1050600000305BF03CFD12AB3B44606803F8406CE1
:1050700007F10902370A03F8417C370C360E4FEA74
:10508000102C03F8427C03F8436C070C03F8440C23
:10509000060E6946204603F845CC03F8467C03F823
:1050A000476CFFF7E5FEE37A2B70A37A6B70637AA7
:1050B000AB70237AEB70E37B2B71A37B6B7113B026
:1050C000F0BD00BF2DE9F04FA94C94F85474A3B083
:1050D00017F002079DF8B0C0009159D1D4F85824B8
:1050E0001AB11278D20700F135813E46BA46DFF890
:1050F000A892009903F10C05FD224D4484F8622426
:1051000015F8012D5FFA83FE002A40F01C81013B57
:10511000012BF5D1934600911A46009984F8632437
:1051200084F8670484F86814BAF1000F00F018815D
:1051300094F84EE48DF815200EF10108FD250A21A2
:10514000012784F84E848DF81450019184F866E4A8
:10515000A4F8647488460825D4F8687400998DF81A
:1051600018E0C7F317274FEA272E8DF819008DF89E
:105170001A10381494F864148DF81B7000278DF8F9
:105180001CE08DF81D008DF816108DF8177036E0B4
:10519000531E009984F863244FF0FE0A4FF006086E
:1051A0001FFA83FB84F8670484F8681484F862A407
:1051B000CDF8048013460425002604F58C6994F884
:1051C0004EE48DF814A00EF101014FF0000A8DF8A5
:1051D000152084F866E484F84E14A4F864A4002F23
:1051E00000F0BC80D4F8687400998DF816E0C7F31D
:1051F00017278DF817008DF818108DF819700DF11C
:10520000150005444FF6FF7101E010F8012F4A40E8
:1052100082EA0212D2B2170987EA112141EA022179
:10522000854281EAC201F0D1524D0BF10D02914449
:10523000284610F8012B4A4082EA0212D2B217091E
:1052400087EA112181EA022181EAC202484517B2A8
:1052500091B2EED18CEA070C8CEA0C1C5FFA8CFC44
:105260004FEA1C1282EA1121234481EA0C2181EACF
:10527000CC0C83F86CC494F863342344CCF3072239
:1052800083F86D24A4F860C4BAF1000F09D194F832
:10529000637408EB06000230384480B223B0BDE8E6
:1052A000F08FD4F8581494F863740029F1D00B7877
:1052B000DB07EED54B7884F87635CB68DFF8DC90E9
:1052C00003938868BDF80C30C4F87705A9F804305A
:1052D000D1E90232013342F10002C1E90232264A29
:1052E0000A920023CDE90833244A254B0B930C92F4
:1052F000244B254A0D930E92244B254A02900F937E
:1053000008A8244B1092103120221193FFF7B0FD12
:10531000019A08A805A9FFF7ABFD3A46294608A857
:10532000FFF7A6FDE91908A80222FFF7A1FD09F180
:10533000FF3108A80722FFF79BFD09F1060108A825
:10534000FFF77EFEA3E70EF1FF35009172461FFACC
:1053500085FBE2E60D264FF0010AC8E6BA46FBE6F9
:105360004FF00A08CDF8048008254FF0FD0A26E723
:10537000D83F00204444002067E6096A72F36E3C7F
:1053800085AE67BB3AF54FA57F520E518C68059BE1
:10539000ABD9831F19CDE05B384400204F45002076
:1053A00070B5A04C94F8875594B0262D28BF2625BB
:1053B000262200210AA85BF092FB2A460AA804F5DF
:1053C000B2615BF059F99DF84850012D02D00020E0
:1053D00014B070BD944B1B685B0746D49DF84C30ED
:1053E0002BB1BDF8463023F00402102A21D094F8E6
:1053F0008C2594F88B358DF8112003228DF8103010
:10540000ADF8122099230499009300202F2504233E
:10541000C4F86C1484F86A04FA2184F86B0401203F
:1054200084F86954FFF74EFEFFF786FC012014B0A4
:1054300070BD9DF84A20032A38D0022A02D1142BCD
:1054400000F0A18094F88C3594F88B258DF81130FC
:1054500002238DF81020ADF812309923009304999F
:1054600000202F2504230322D2E794F88C2594F8FA
:105470008B358DF81030ADF812508DF81120049A4C
:10548000C4F86C24002199232F20009303220423C5
:1054900084F86A1484F86B1484F86904FA212846A5
:1054A000FFF710FEFFF748FC284691E7D4F8A8263E
:1054B000BDF8440090425ED10130142BC4F8A80618
:1054C00008BF04259FED596ADDED0E6A9DED0F7A48
:1054D000DDED107ADFED565AD4F8AC368DF8105069
:1054E00066EE866A27EE067A67EEA57AFDEEE66A34
:1054F000BDEEC77AFDEEE77A8342D4BFA523002331
:105500000025C0B204A98DF82630CDED056A8DEDD9
:10551000067ACDED077A0895ADF8245008F0FAFA2E
:10552000D4F8A836D4F8AC26934237DB414B93F835
:10553000D41D002956D094F88C2594F88B358DF81D
:1055400009208DF80830ADF80A500298C4F86C04B0
:10555000992300932F2604230322FA21012084F8A3
:105560006A5484F86B5484F86964FFF7ABFDFFF765
:10557000E3FB01202CE794F88C358DF8113094F87A
:105580008B250D2365E7D4F8A806BDF84430984272
:10559000F1D10130C4F8A806042593E794F88B15DF
:1055A00094F88C25ADF808308DF80B208DF80C5050
:1055B0008DF80A10DDE90201E623C4F86C0484F8D2
:1055C00070140093282605230422FA21012084F870
:1055D0006A5484F86B5484F86964FFF773FDFFF72D
:1055E000ABFBC6E794F88C3594F88B258DF8093021
:1055F00005238DF80820ADF80A30029884F86A1463
:10560000992300932F250423032284F86B14C4F8F4
:105610006C04FA21012084F86954FFF753FDFFF769
:105620008BFBA6E7D83F0020000000108096184BA7
:105630000000C842E81D00202DE9F047DFF89C82F9
:1056400098F8B0368AB0002B15BF012600264FF01F
:1056500001154FF4803522F07BFD012800F0F98020
:10566000032800F0A4800228984C18BF4FF00114C2
:1056700021F028FF012800F0A280032800F0FE801E
:10568000022808BF44F0040421F000FF012800F0C4
:10569000A180032800F00B81022808BF44F0080411
:1056A00021F0BCFE012800F0A080032800F0FA8061
:1056B000022808BF44F0100421F098FE012800F0F1
:1056C0009F80032800F0E980022808BF44F02004EE
:1056D00021F074FE012800F09E80032800F0D8809D
:1056E000022808BF44F0400421F0B4FE012800F075
:1056F0009D80032800F0C780022808BF44F480740E
:1057000098F8B736002B40F09C80714FB7F86002D4
:1057100000EB800040004FF47A72002151F0BCF998
:105720007F6917F0020745F0807544F0807446F0F9
:1057300080761FFA80F940F0928022F011FC002858
:1057400040F0BA8007464FF0FF3A64204FF0000C5B
:10575000CDE90254CDE907CC0496ADF818A08DF838
:105760002600ADF81AC0ADF824C0ADF81490ADF81D
:10577000167002AD0FCD574C0FC495E80F0007C44B
:1057800024F8023B1E0C1F23267001201A467C259C
:10579000FA2188F86AC488F86BC488F8690400950F
:1057A000FFF790FC0AB0BDE8F047FFF7C5BA21F05B
:1057B00089FE0128454C45F002057FF45EAF21F0DB
:1057C00065FE012845F0040544F0040446F0040693
:1057D0007FF45FAF21F022FE012845F0080544F078
:1057E000080446F008067FF460AF21F0FFFD0128B1
:1057F00045F0100544F0100446F010067FF461AF48
:1058000021F0DCFD012845F0200544F0200446F09D
:1058100020067FF462AF21F01DFE012845F040050F
:1058200044F0400446F040067FF463AF98F8B73682
:1058300045F4807544F4807446F48076002B3FF480
:1058400064AF98F8B836002B3FF45FAF46F480366B
:105850005BE71E4C45F0020546F0020608E722F021
:10586000A5FB00EB80004700BFB222F079FB40BBF4
:105870004FF0FF3A22F022FB40B267E745F0040503
:1058800044F0040400E745F4807544F4807437E77D
:1058900045F0400544F0400426E745F0200544F07B
:1058A000200415E745F0100544F0100404E745F026
:1058B000080544F00804F3E6074B6420B3F952A44A
:1058C00044E7054BB3F952A4D4E700BF030001003D
:1058D0000000001044440020E81D0020D83F0020B4
:1058E0002DE9F047B34C2DED028BD4F8342394F816
:1058F000B936D55CEA0784B01ED4AB074CD42E076A
:1059000000F12F81A80600F1FD80690700F19A805F
:10591000EB0667D494F8B926A74B0132A3FB021318
:10592000DB0803EB8303A2EB430384F8B93604B02E
:10593000BDEC028BBDE8F08702A8FAF709FD029BD7
:105940009E4F9F4E591C412202911A70B7F95A225C
:1059500086FB0231D217C2EBA10189B202A850F036
:1059600099F8B7F9582286FB0231D217C2EBA10190
:1059700089B202A850F08EF8B7F95C3286FB032199
:10598000DB17C3EBA10189B202A850F083F802A88B
:10599000FAF7AEFDAB07B2D502AE3046FAF7D8FC47
:1059A000864BDFF82482D3F8540210F0800000F018
:1059B000138198F87331002B00F05581012B00F012
:1059C0005A81022B14BF00270327B8F990317D4A72
:1059D00082FB0312DB17C3EB6213D8E95E095FFA9F
:1059E00083FAFCE002A8FAF7B3FC029B4E22591C92
:1059F00002911A70029B94F8FC26591C02911A70AD
:105A0000029B94F8FD26591C02911A70029B94F88F
:105A10000127591C02911A70029B94F80027591C07
:105A200002911A70029B94F8FE26591C02911A707A
:105A3000029B94F8FF26591C029102A81A70FAF7EB
:105A400057FD67E7DFF8749102AE3046FAF780FC45
:105A5000D9F80430DA0540F1EB804FF00008D9F8AE
:105A6000007094F8CC36C7F380070BB147F00207FB
:105A7000029B5322591C02911A7022F097FA00EBF4
:105A80008000410089B2304650F004F84E4B4FF68A
:105A9000FF72D3F85404002150F0FEFF81B230466B
:105AA0004FF0F8FF494B4A4AB3F8EC3C0299C3EB7C
:105AB000C3135B0082FB03021A44DB17C3EB6223B0
:105AC0004A1C02920B70D9F8543213F020030BD009
:105AD000D4EDEB6A9FED3F7AC6EE877AFCEEE77A6B
