:020000040800F2
:10000000F0FF0120814C050891D20408B9B2010823
:10001000F94C0508F94C0508F94C050800000000EA
:1000200000000000000000000000000095D204085D
:1000300099D20408000000009DD204086D9C0108BC
:10004000F94C0508F94C0508F94C0508F94C050868
:10005000F94C0508F94C0508DDB30008E5B30008C4
:10006000EDB30008F5B30008FDB300081DB10008AA
:1000700031B1000845B1000859B100086DB1000860
:1000800081B1000895B10008F94C05080000000096
:1000900000000000000000000000000005B400089F
:1000A00061D60008F9D5000871D60008E9D5000826
:1000B00021D6000831D6000841D60008E9AB000877
:1000C0008DBE0008F1AB000891BE0008F94C050890
:1000D000F94C0508919B01089D9B01080000000058
:1000E0000DB40008F94C0508D13D050800000000DA
:1000F000000000000000000000000000A9B100089E
:1001000000000000F94C050851D60008F94C05081C
:1001100000000000000000000000000000000000DF
:10012000BDB10008D1B10008E5B10008F9B100087F
:100130000DB20008000000000000000000000000F8
:1001400000000000000000000000000081230508FE
:1001500021B2000835B2000849B20008A99B010885
:10016000F9AB000895BE0008000000000000000088
:10017000000000000000000000000000000000007F
:1001800000000000F94C050800000000000000001D
:08019000F94C0508F94C0508C3
:08019800D4470500010000003E
:1001A000220201001C0100004C4F0020304E0020B4
:1001B00000000000A5A500082C4E00201F020B0027
:1001C00016000000845000206C5000200000000049
:1001D000058E00086850002018400100380000001B
:1001E000D8500020A05000200000000049A50008C1
:1001F0009C5000201B020100100000002451002030
:100200001451002000000000F18D00081051002062
:1002100028020400040000003C5100203851002056
:1002200000000000C18D00083451002027020400A6
:10023000040000004851002044510020000000004C
:10024000B58D0008405100201C0202001C00000077
:100250006C5100205051002000000000C1A4000893
:100260004C510020001201000A00000098510020AB
:100270008C51002000000000F98C000888510020FB
:100280001A0201003C000000E4510020A8510020A7
:100290000000000061A40008A45100202E0201000B
:1002A0000400000020410020245200200000000033
:1002B000196F01082052002004000800800000008F
:1002C000884200202C5200200000000000000000A6
:1002D00028520020081203000F00000020430020D5
:1002E000B0520020000000009D8C0008AC5200209D
:1002F0000A90010024000000C4490020C4520020DC
:100300000000000075F80208C0520020031201002E
:100310003D0000000C4A0020EC52002000000000CC
:100320007C6C0608E8520020010201000A0000006F
:10033000744D00203053002000000000118D000893
:100340002C5300200C020100040000003443002064
:1003500040530020000000002D8D00083C53002079
:10036000FD170100A0000000844D0020485300202C
:1003700000000000E9F503084453002013100100B9
:1003800004000000244E0020EC5300200000000078
:10039000BC6C0608E8530020F5C1010074000000A1
:1003A000FC4C0020F453002000000000D9F80308A2
:1003B000F05300200202010003000000F84C00206E
:1003C0006C54002000000000B18E0008685400202A
:1003D000F62101000C000000584900207454002050
:1003E00000000000C06C06087054002012120100CA
:1003F0000400000004680020845400200000000075
:10040000E58D000880540020110201000800000062
:10041000086800208C54002000000000CD8D0008EA
:1004200088540020F831010006000000B843002085
:100430009854002000000000CC6C06089454002062
:10044000021001000C00000084430020A45400208E
:1004500000000000D46C0608A0540020FE0101003A
:100460001400000010680020B454002000000000B8
:10047000718C0008B0540020061203001200000026
:1004800070430020CC5400200000000009940008B4
:10049000C8540020F70101000600000018430020A6
:1004A000E454002000000000E06C0608E054002046
:1004B0001A0001000E00000008430020F054002044
:1004C00000000000E66C0608EC5400201410010047
:1004D0000500000025410020045500200000000018
:1004E00099F3020800550020FD01010021000000E1
:1004F000964000201055002000000000EF6E01081B
:100500000C5500201D020200060000009040002053
:100510003855002000000000000000003455002085
:10052000F901010004000000246800204455002067
:1005300000000000A56E01084055002012300100A7
:10054000100000007C4000204C55002000000000FE
:10055000F46C060848550020FA0101000400000070
:10056000304300206067002000000000218D00085B
:100570005C6700200530010008000000E02F00202B
:100580006867002000000000046D06086467002012
:1005900013020100040000001031002074670020E5
:1005A000000000000C6D0608706700200A020100C0
:1005B00014000000243900208067002000000000A3
:1005C000218A00087C670020062001002800000026
:1005D0002C3100209867002000000000458D0008A5
:1005E00094670020160215003F00000054300020E0
:1005F000C467002000000000298E0008C0670020AA
:100600000E0201000200000084AE0020B8B20020FB
:1006100000000000106D0608B4B200202F20010079
:1006200022000000C0B200207CAF002000000000CB
:10063000126D0608BCB2002021020100F00000008B
:100640008CAC0020ECAF0020000000006DF8030827
:10065000E4B200202C000400100000007CAC00205C
:1006600080B200200000000005F50208E8B200207A
:1006700025201E002C01000050AB002054B10020AA
:100680000000000000000000ECB200202B0012006F
:1006900024000000C0A2002090B200200000000052
:1006A00015F50208F0B20020270001000400000048
:1006B00070A20020F8B2002000000000346D06088F
:1006C000F4B200200C60040078000000F09D0020CF
:1006D00000B3002000000000BD570208FCB200205B
:1006E000031101000A00000064A200207CB3002076
:1006F000000000008564040878B30020292014005D
:1007000078000000ECA10020DCB000200000000018
:100710000000000088B30020012001000C00000050
:10072000E0A1002090B3002000000000386D060812
:100730008CB300202320010010000000D0A1002075
:10074000A0B300200000000061F802089CB3002064
:100750002840010016000000B8A10020B4B300201A
:100760000000000095F90208B0B300200B30010032
:100770001A0000009CA10020D0B30020000000005F
:10078000446D0608CCB300200E80040090020000E7
:10079000689E0020F0B3002000000000ADF30208C6
:1007A000ECB300201E4001004D0000004CA10020D1
:1007B00084B60020000000005E6D060880B60020B0
:1007C0000D1001004C000000FCA00020A0AF002094
:1007D00000000000317C0108D4B600201F50010049
:1007E0002400000084BC002078C800200000000025
:1007F000AC6D060874C800203840010006000000F7
:1008000000B80020A0C8002000000000D06D06083D
:100810009CC800203750010028000000B8BE00200E
:10082000ACC8002000000000D66D0608A8C8002053
:100830001B3001001000000010C40020D8C80020A8
:1008400000000000B9EE0308D4C8002016300100F3
:100850000800000024C40020ECC8002000000000B4
:10086000FE6D0608E8C8002010100100020000001C
:1008700044C20020F8C8002000000000066E0608F0
:10088000F4C80020190001000500000028C800205D
:1008900000C9002000000000086E0608FCC8002007
:1008A000206201000C00000004BD00200CC90020E3
:1008B000000000000E6E060808C900202D0201008D
:1008C000010000002CCB002038CB002000000000ED
:1008D0000000000034CB002029020100400000008D
:1008E0002CC9002040CB0020000000001A6E060832
:1008F0003CCB00200101010004000000ECCA0020F4
:1009000084CB0020000000000000000080CB00200D
:100910000001010004000000E8CA00208CCB002088
:10092000000000005A6E060888CB0020020101007A
:1009300003000000E4CA002094CB00200000000067
:10094000AD57020890CB00202630010008000000BF
:10095000A0CA00209CCB00200000000039640408DD
:1009600098CB00202A1201000800000098CA00203D
:10097000A8CB0020000000005E6E0608A4CB00207B
:100980000502010004000000A4CC00208CDF002040
:1009900000000000666E060888DF00202C120100AF
:1009A0000600000068CC0020B4DF0020000000003A
:1009B0006A6E0608B0DF0020233201001400000038
:1009C0002CE10020E8EE002000000000706E060818
:1009D000E4EE00200902010001000000642F012064
:1009E0008C2F012000000000846E0608882F012053
:1009F000120100020000004083042057000201029F
:100A000003010000040309041A03000000000000B1
:100A100000000000000000000000000000000000D6
:100A200000000100D80000000000000005000000E8
:100A30000600000002000000000000008005002009
:100A4000786700200200000001000000058B00080C
:100A50007C050020000000000100000001000000F3
:100A6000E58A0008DC010020000000000000000012
:100A70000000000000000000000000000000000076
:100A80000000000001000000000000000000000065
:100A90000000000000000000010000000000000055
:100AA0000000000000000000000000000100000045
:100AB000000000000300000000000000050000002E
:100AC000FFFFFFFF050000001D8C0008498C000897
:100AD000618C0008658C0008999F0008698C0008EB
:100AE0006D8C0008C87D0508C922050865CD04087D
:100AF000512105080000000000000000F11E05085B
:100B00002D1F05080000000000000000000000008C
:100B1000A5CD04087D89000889890008519D000839
:100B2000299D0008958900086D9D0008899D000891
:100B3000FF00000000600240106002400000000062
:100B40000000000000000000000B0000000000009A
:100B50000000000000000000006002402860024029
:100B6000010000000000000000000000060C000072
:100B700000000000000000000000000000600240D3
:100B80004060024002000000000000000000000081
:100B9000100D000000000000000000000000000038
:100BA00000600240586002400300000000000000A6
:100BB00000000000160E0000000000000000000011
:100BC000000000000060024070600240040000006D
:100BD0000000000000000000200F000000000000E6
:100BE0000000000000000000006002408860024039
:100BF00005000000000000000000000026100000BA
:100C00000000000000000000000000000060024042
:100C1000A06002400600000000000000000000008C
:100C20003011000000000000000000000000000083
:100C300000600240B86002400700000000000000B1
:100C400000000000362F000000000000000000003F
:100C50000000000000640240106402400000000038
:100C6000000000000000000000380000000000004C
:100C70000000000000000000006402402864024000
:100C80000100000000000000000000000639000024
:100C900000000000000000000000000000640240AE
:100CA000406402400200000000000000000000005C
:100CB000103A0000000000000000000000000000EA
:100CC000006402405864024003000000000000007D
:100CD00000000000163B00000000000000000000C3
:100CE0000000000000640240706402400400000044
:100CF0000000000000000000203C00000000000098
:100D0000000000000000000000640240886402400F
:100D10000500000000000000000000002644000064
:100D2000000000000000000000000000006402401D
:100D3000A064024006000000000000000000000067
:100D4000304500000000000000000000000000002E
:100D500000640240B8640240070000000000000088
:100D60000000000036460000000000000000000007
:100D70000000000000000401000002000100000269
:100D800010000000070000001F0000001C00000011
:100D90001F0000001E0000001F0000001E000000D9
:100DA0001F0000001F0000001E0000001F000000C8
:100DB0001E0000001F0000000068214C0101FF0020
:100DC0002C7D0508607D0508947D0508FFFFFFFF69
:100DD000080000000600000005000000E5CD040842
:100DE000E9CD0408EDCD0408F9CD0408FDCD0408D3
:100DF000F1CD0408F5CD0408FFFF0000FFFFFFFF61
:100E000001000000FFFFFFFF0001010100000000E2
:100E1000541106080000080205030300000000004A
:100E20005C11060801000802050403000000000030
:100E3000641106080000080205030300000000001A
:100E40006C11060801000802050403000000000000
:100E5000085106080200FE01011003000000000016
:100E60004400060803001402000300000000000014
:100E70007411060804001F0202000B0000000000AD
:100E80007C11060805001F0202010B000000000093
:100E9000FFFFFFFF010102007D000000F0110608C6
:100EA0009415060800000000FDED0108A086010071
:100EB00004000000F01106080C4A060800000000BB
:100EC000C1980108E803000004000000ECFC0508DC
:100ED0000000000000000000FD5F02087D0000002F
:100EE000FF000000000106080000000000000000F4
:100EF0009D7E02087D000000FF000000185A0608D1
:100F00000000000000000000253403087D00000000
:100F1000FF0000004016060800000000000000006E
:100F2000C57A0108E803000003000000F402060887
:100F30000000000000000000A55C0308102700006E
:100F4000030000007011060800000000E1F502082F
:100F50006DC701085F760000050000001C18060838
:100F600000000000000000005D7A0108102700006A
:100F700002000000144A0608000000000000000003
:100F800031710108E803000005000000204A06084E
:100F900000000000000000000D5A0208204E000072
:100FA00003000000304A06080000000000000000B6
:100FB000ED730208204E000003000000404A0608BE
:100FC0000000000000000000A9BA0108400D030065
:100FD00003000000CC120608000000000000000022
:100FE000F1C401081027000002000000B415060833
:100FF00000000000000000007D3104081027000000
:1010000003000000504A0608000000000000000035
:10101000459E010810270000030000005C4A0608F6
:1010200000000000000000009DBE0108A861000053
:1010300002000000A80106080000000000000000F7
:1010400031A70108A86100000200000050FF050858
:1010500000000000000000006D7201081027000071
:101060000200000024180608000000000000000034
:10107000797C0108A00F000002000000644A060805
:101080000000000000000000694704081A41000049
:1010900002000000D4120608000000001DF603083C
:1010A0000D550408854501000200000010FF0508E9
:1010B00000000000000000004D6F04081027000031
:1010C00002000000A015060800000000000000005B
:1010D000F9A2030850C3000002000000704A06088D
:1010E000000000000000000095730408400D03009C
:1010F00001000000784A060800000000000000001F
:101100005D710108400D030002000000804A0608DE
:101110000000000000000000A51C040850C30000EF
:10112000030000008C4A06080000000000000000D8
:101130000971020840420F0001000000984A0608A9
:101140000000000000000000019A010850C30000E8
:1011500001000000A44A0608000000000000000092
:1011600035AB04081027000002000000A861000051
:101170000000803F000000000000000000000000B0
:101180000000803F000000000000000000000000A0
:101190000000803F00000000000000000000000090
:1011A000FFFFFFFF39EE0108000000000000000013
:1011B000000000003DAD010800000000000000003C
:1011C0000000000001000000FFFFFF7F0000008022
:1011D00000000000A0DF0020080000000000000068
:1011E00090DF0020080000007EFF7EFFE2FFE2FFAC
:1011F000FFFFFFFF01F11F3FB9C40108000000001D
:1012000000000000000000000000FA430000FA4364
:101210000000803F0000000000000000000000000F
:1012200000000000000000000000000000000000BE
:1012300000000000000000000000803F04000000EB
:1012400000FF0000000000000000000041930308C0
:10125000000000000000000084BB05080100E00160
:10126000C9B10308000000000000000030D50508E7
:101270000000000000000000000000004CC0050855
:1012800000000000000000000000000004C105088C
:10129000000000000000000000000000B0C00508D1
:1012A00011E503080000000000000000B0BF0508C1
:1012B000B9720408000000000000000024BF050807
:1012C00085AB03080000000000000000DCBE05083C
:1012D00001000000FA000000010000000100000011
:1012E000000000000000000045AB0308C9F6002024
:1012F000012D202D2D202D2D2D2D202D2D2D0000CB
:1013000000000000000000000000000000000000DD
:101310000101000084F0002088136F170100000015
:1013200086F0002088136F170000000088F000206E
:1013300088136F17010000008AF0002088136F17D0
:1013400000000000F192030800000000000000000F
:1013500044BC050801F700200100000098BC050806
:101360008DF0002001000000A4BC050834F100202D
:1013700002000000ACBC050819930308000000003F
:1013800000000000B8BC05080000000000000000DC
:10139000000000000CBD0508000000000000000077
:1013A000000000007CBD050882F000200200000063
:1013B000C4BD050800FC0020E0150C17000000006B
:1013C000C0120000D6FC0020000000000000000059
:1013D000D4FC00200000000000000000D2FC00202F
:1013E0000000000000000000D0FC00200000000011
:1013F00000000000CEFC0020000000000000000003
:10140000CCFC00200000000000000000680B002061
:1014100000000000000000008CF00020030000002D
:10142000B4BD05080000000000000000000000003E
:10143000D0BD0508DAFC0020E0150C170000000004
:10144000DCFC002002000000C4BD05082D202D2D6D
:10145000202D2D2D2D202D2D2D2D000000000000E4
:10146000000000000000000000000000000000007C
:10147000000000000000000008BE0508DEFC00209F
:101480009CFF2C0100000000DAFB0020E0150C1787
:10149000000000003CFB002002000000C4BD050865
:1014A0002D202D2D202D2D2D2D202D2D2D2D0000ED
:1014B000000000000000000000000000000000002C
:1014C00000000000000000000000000040BE050811
:1014D00024EF00200514010023EF00200AFF010083
:1014E00022EF002000FF010021EF002000FF01009B
:1014F00020EF002000FF01001FEF002000FF01008F
:101500001EEF002000FF01001DEF002000FF010082
:101510001CEF002000FF0100898A0308CD8A030820
:10152000000000004CC1050840EF0020053201001A
:101530003EEF0020E803D007010000003CEF002050
:10154000E803D007010000003AEF0020E803D007CD
:101550000100000038EF0020030F010036EF0020EB
:101560001900F4010100000034EF00200500F4012F
:101570000100000032EF0020003C010030EF0020AD
:101580000000B80B010000002EEF00200200FF0059
:10159000010000002CEF00203200C409010000000F
:1015A0002AEF0020000064000100000028EF002066
:1015B00002000000408F050826EF00201400E80319
:1015C0000100000074EF002000C8010073EF00204C
:1015D0000050010072EF0020005A010070EF00205F
:1015E00002000000008B0508805506088855060893
:1015F0002AF500200100C4090000000028F50020A1
:101600000100C4090000000026F500200100C40903
:101610000000000024F500200100C40900000000C3
:1016200020F500200100C4090000000022F5002080
:101630000100C409000000001EF500200100C409DB
:10164000000000001CF500200100C409000000009B
:1016500063F0002000C8010062F0002000C8010013
:1016600060F000200000FFFF0A0000005EF0002094
:101670000100C800010000005CF00020320030755D
:10168000320000005AF00020E2FF140005000000C4
:1016900058F000207EFF14000500000056F00020E6
:1016A00005002C010500000054F00020055A05003B
:1016B00069F0002000FF010067F000200200000038
:1016C000900D002065F0002003000000F4C1050823
:1016D00068F0002000FF010066F00020020000001A
:1016E000900D002064F0002003000000F4C1050804
:1016F00044F10020FF7F010040F1002000000000C5
:10170000FFFFFFFF010000003CF10020000000008F
:10171000FFFFFFFF0100000038F100200000000083
:10172000FFFFFFFF01000000118B0308698B030816
:101730000000000004C2050816EF0020EE02CA08EF
:101740000100000015EF002000C801006400000047
:1017500014EF002001C801006400000013EF002016
:1017600002000000448C050880F000200000803E4C
:10177000050000007EF0002080C1803E05000000D2
:101780007CF000200083007D050000007AF000203E
:1017900080C1803E0500000078F0002000FF0100BD
:1017A00076F000206400F4010100000074F00020D5
:1017B0006400F4010100000072F000206400F401F4
:1017C0000100000070F0002004000000FC8E0508FD
:1017D0006FF0002002000000F08E0508ADEF002041
:1017E0000D000000B48A0508AAEF00200064010083
:1017F000A8EF0020320010270A000000A7EF002009
:101800000D000000B48A0508A6EF00200D000000BE
:10181000B48A0508A5EF002002000000EC8A050844
:1018200000000000000000000000000010C30508D8
:1018300012EF002059000000888C050810EF0020EE
:101840000300000048C3050811EF00200400000059
:10185000108F0508A3EF00200300000058C30508FF
:10186000A2EF00200300000058C3050896EF0020F7
:10187000000A010094EF00200000E80301000000CE
:1018800092EF00200000E8030100000090EF00202C
:10189000000A01008EEF00200000E80301000000B4
:1018A0008CEF00200000E8030100000084EF00201E
:1018B000C800E803010000008AEF00201400FA00CD
:1018C0000100000088EF00200100E8030100000093
:1018D00086EF00200005010082EF002002000000DA
:1018E000BC8B050880EF00200000F401010000001F
:1018F0007EEF00200000F401010000007CEF0020DA
:101900000000F401010000007AEF00200000F40163
:101910000100000078EF00200000E8030100000053
:1019200076EF00200000E803010000005FEF0020D8
:10193000196401005EEF002002000000B08B050872
:1019400053EF00200064010052EF0020006401000A
:101950005AEF0020006401000A00000059EF002047
:10196000006401000A00000058EF0020006401003C
:101970000A0000005DEF002000FF01000A000000E7
:101980005CEF002000FF01000A0000005BEF002078
:1019900000FF01000A00000057EF002001FF0100D6
:1019A0000A00000056EF002001FF01000A000000BD
:1019B00055EF002001FF01000A000000A0EF002009
:1019C0000000F401010000009EEF00200000E80389
:1019D000010000009CEF00200000E803010000006F
:1019E0009AEF00200000E8030100000098EF0020BB
:1019F0000000E80301000000C6F60020E803D0075D
:101A00000A000000C4F6002000640100C2F60020B5
:101A1000E803D0070A000000C0F6002000640100BF
:101A20000A000000BFF6002000960100B6F6002074
:101A300000C80100B5F6002000640100B4F60020E3
:101A400000640100B3F6002000640100B2F600203B
:101A500000640100B1F60020FF080100B0F600208C
:101A6000016401007D8C0308C18C030800000000A4
:101A700068C30508B9F6002001320100B8F600205D
:101A800001000000848B0508B7F600200400000068
:101A90008C8B0508AFF6002000960100AEF6002002
:101AA00000640100ADF6002000FA010064000000AF
:101AB000ACF600200AFA0100ABF600200AC80100CB
:101AC000AAF6002000640100A9F6002000640100CD
:101AD000A8F600200A5A0100A7F6002000C801005D
:101AE000A6F6002000C80100BCF60020003201006C
:101AF000BEF6002000140100BDF60020005F0100CA
:101B0000BBF6002004000000808A0508BAF6002019
:101B1000006401000A0000004DEF00200AC8050023
:101B20000A0000004CEF002001000000E48F0508CF
:101B30004FEF00200AC805000A0000004EEF002009
:101B400001000000E48F050844EF002000C80500F4
:101B50000A0000004BEF002000C805000A0000004A
:101B600045EF002000C805000A00000046EF0020F5
:101B700000C805000A00000049EF002000C8050069
:101B80000A0000004AEF002000C805000A0000001B
:101B900048EF002000C805000A00000047EF0020C1
:101BA00000C805000A00000043EF0020020000000A
:101BB0004C8A0508A4F600200000D00701000000B0
:101BC0009FF6002000C801009EF6002000C801001A
:101BD0009DF6002000C80100A2F600200000D007FA
:101BE000010000009CF6002000C801009BF60020C8
:101BF00000C801009AF6002000C80100A0F60020ED
:101C00000000D0070100000099F6002000C8010084
:101C100098F6002000C8010097F6002000C80100D7
:101C200028620608000000000000B0FC00203462BA
:101C30000608070800000000C01300203C620608E8
:101C4000070800000000B8130020446206080708D7
:101C500000000000B01300204C62060808080000D5
:101C60000000A413002054620608070800000000CA
:101C70009C1300205C620608070800000000941313
:101C80000020646206080708000000008C13002092
:101C90006C620608080800000000801300207462CF
:101CA0000608071000000000781300207C62060878
:101CB000071000000000701300208462060807105F
:101CC00000000000681300208C6206080810000065
:101CD00000005C1300202C530608010000000000E7
:101CE00000000000000000001000000000000000E4
:101CF00000000000B58F0308C58F0308259803086E
:101D0000D8C30508B3EF0020005A0100B2EF00204D
:101D100000C80100B0EF0020E803D0070100000078
:101D2000000000000000000061AE030874C4050854
:101D30006EF00020030000003C8A05086DF00020D2
:101D4000000301006CF0002000030100599003081B
:101D5000AD90030800000000C8C405080191030805
:101D6000419103080000000070C505084190030878
:101D700019B3030800000000F0C505086AF0002050
:101D800001030100F59303081D94030800000000FF
:101D900080C90508BD890308DD890308000000002B
:101DA00000CA0508C1910308219203080000000041
:101DB00070CA0508658F030809DE030800000000EB
:101DC00028CB0508F1AC0308858903080000000052
:101DD000D0CB0508BD8E0308000000000000000005
:101DE0006CCC05087D8D0308E98D03080000000018
:101DF000D0CC0508058D0308418D030800000000C4
:101E000088CD050805ED0308498C03080000000093
:101E100014CE050895F6002003000000A0FC002069
:101E20004D8E0308898E030800000000F4CE0508DB
:101E30004DED0308ADB003080000000064CF0508B5
:101E4000C18B030889AF03080000000050D10508CA
:101E5000A9EC030849AF030800000000C8130020E4
:101E600096F60020030000005CFC0020E18F0308D0
:101E700011900308000000005CD20508C9A2030805
:101E80000000000000000000C0D20508899103088E
:101E900035B30308000000005CD305080000000013
:101EA0000000000000000000F8D305081DEC030846
:101EB00015AF03080000000078D40508000001FFFA
:101EC000FFFFFFFFFCFFFFFF01FD00000000803F60
:101ED000FF010101AA55070100001401FF000000E5
:101EE00009024300020100C032090400000102029D
:101EF0000100052400100105240100010424020250
:101F00000524060001070582030800FF09040100FB
:101F1000020A0000000705010240000007058102D7
:101F20004000000009026400030100C032090400FF
:101F30000001030000000921110100012236000701
:101F400005830309000A080B0102020201000904CB
:101F50000100010202010005240010010524010016
:101F60000204240202052406010207058203080078
:101F7000FF09040200020A000000070501024000F8
:101F80000007058102400000010101AA550501007A
:101F900000080000A4000000000000000000010193
:101FA0000100000005010905A101A100050109309A
:101FB00009310932093309350934093609371581E0
:101FC000257F750895088102050919012908150062
:101FD0002501950875018102C0C000000902220098
:101FE000010100E03209040000010301020009219F
:101FF000110100012236000705830309000A0000D1
:102000001201000202020040830440570002010254
:102010000301AA550902000000AA5503009F000011
:1020200001000000AA550B010000AA55050100009F
:10203000FFFFFF00F40100000000000000000000AE
:102040000000000001000000B16C04080000000066
:10205000000000000000000001000000000000007F
:10206000000000000102030401020304060708093E
:1020700009022000010104C0320904000002080620
:1020800050050705810240000007050102400000DD
:1020900012010002EF0201408304563200020102E5
:1020A000030100000403090489A2040829A3040809
:1020B000659D0408F16C04089DA60408D56C04080D
:1020C000BD6C0408016D0408116D040800000000D7
:1020D0000000000099A70408796D04087DA6040893
:1020E000000000003DCD0408CDA7040881170508B5
:1020F00021D1040800000000000000009D6D0408CC
:10210000B1CD0408D9CD040861D1040845D1040833
:102110007DD1040899D10408B5D10408EDA60408BE
:10212000556D040875A4040800000000216D040822
:102130007D9C04081D9D040815CD040800000000C6
:1021400000000000496D04080000000000000000CD
:102150000102030406070809C7000000050000008B
:102160000600000010190020000000000000000020
:10217000000000000000000000000000000000005F
:10218000000000000000000000000000000000004F
:10219000000000000000000000000000000000003F
:1021A000000000000000000000000000000000002F
:1021B000000000000000000000000000000000001F
:0821C000000000000000000017
:10800000074BD0F8E4105B68D0F8F0205B1A9A4276
:10801000B8BFC0F8F030012380F81C310020704751
:10802000001000E0B74B00EB800270B503EBC20418
:1080300053F832205268B2F814C01CF0010F4FEA16
:1080400080016AD15FFA8CFE1EF0020F3DD0BFF3B3
:108050005F8F257F012D5FFA85FC00F0CC80148BAB
:10806000BFF35F8F0C1803EBC404257F022D00F0D3
:10807000E3800C1803EBC404257F032D06D1A47FF5
:1080800024B193F87940002C40F0E5809488A4B2A4
:1080900044F48064948093F978C001EB000E03EB04
:1080A000CE0E9EF81CE00EF1010EE6450CD1002428
:1080B00083F8794093F87A40002C40F0B680084469
:1080C00003EBC00300225A7670BD1EF0040F5BD193
:1080D0001EF0400E00F0C880158A93F978C0666AD9
:1080E000EDB206F80C505FFA8CFE267F0EF101040B
:1080F00064B2E51CAE4283F87840A44600F02A81C1
:108100000D1803EBC5052D7FAC42C6D10EF1020C54
:108110004FFA8CFC83F878C0BFE7B2F800C02CF4AB
:10812000006C4FEA0C4C4FEA1C4CA2F800C0B2F8AD
:1081300000C01FFA8CFC4CF4806CA2F800C0A57F34
:108140004FF0000C83F878C0002D46D093F879509A
:10815000002D3FD0012483F879400C1803EBC404B0
:10816000247F022C04D11488A4B244F40064148047
:108170000C1803EBC404A47E44F0010414820844E8
:1081800003EBC0031B7F70BDA57F4FF0010C83F88C
:108190007AC0002D6FD093F87950002D70D10C1853
:1081A00003EBC404647F002C00F0AE80148893F8C5
:1081B00078C0A4B244F400740CF1010C14804FFA9E
:1081C0008CF483F87840B2F800C01CF4807FFAD1B8
:1081D000A44662E7E47EFF2CBCD00C1803EBC40479
:1081E000A57E05F0FE051582E27EFF2AC7D0FF229C
:1081F00083F87820C3E7A47F002C3FF430AF93F8D6
:108200007940002C3FF42BAF148824F480642404BC
:10821000240C1480BFF35F8F148B148883F87AC00A
:10822000A4B244F40074148030E7948824F44074B9
:108230002404240C948042E7A47F002C3FF419AF5F
:1082400093F87940002C3FF414AF148824F4806430
:108250002404240C1480948824F480642404240CC2
:10826000948093F978C018E71FFA8CF52D0631D465
:1082700093F978C011E793F87940002C8FD095E7F7
:10828000257F022D15884AD925F480652D042D0CF3
:108290001580158A666A93F978C0EDB206F80C501D
:1082A000666A1488A4B244F4007414805FFA8CFCEB
:1082B000158A0CF1010464B2EDB2355595880CF1C4
:1082C000020CADB24FFA8CF445F4806583F8784027
:1082D000958078E793F978506E1C42D0266A765DD7
:1082E0001682247F05F1010C4FFA8CFC644583F85B
:1082F00078C07FF4D2AE948824F480642404240CE3
:108300009480CAE6701900201488A4B244F48074E2
:108310001480012483F8794093F9784053E7ADB293
:1083200045F400751580158A666A93F978C0EDB238
:1083300006F80C505FFA8CFC666A158A0CF1010491
:1083400064B2EDB20CF1030C35554FFA8CF483F89E
:10835000784038E7958825F480652D042D0C9580AC
:10836000CEE6E57E1582A57F83F878E01DB9247FEF
:10837000002C7FF404AF948824F480642404240C3B
:108380009480FCE61B4B01681B4A03F5727C03E0FA
:1083900063452CD053F82C2F9142F9D170B593F846
:1083A00004E0427996450AD0634505D053F82C2F56
:1083B0009142F4D06345F9D14FF0FF3070BD9E4635
:1083C0008468DEF80C50A5424FF0000208D001325C
:1083D000032A0EF10C0EE7D0DEF80C50A542F6D1C0
:1083E000DEF81050C668B542F1D150B270BD4FF002
:1083F000FF307047546505080000014030B5EAB110
:108400008E464FEA014C034600F1C005002419686E
:108410009A6841EA0C0142EA0E029A60C3E900142C
:108420000C33AB42F3D1D0F8C030C0F8C44043EABB
:108430000E03C0F8C030C0F8C84030BD4FEA014E4E
:108440008C46E0E783691969B3F80CC00A6830B458
:108450009C6822F0010224680A60A28992B222EA92
:108460000C02A281027D04681F2A06D96568203AA1
:1084700008209040284246D0FEE72568082090401A
:108480002842F9D1202000FA02F2A260274A92F88D
:108490007B20002A35D01A7E012A39D0D3F8F42067
:1084A0000132C3F8F420EFF31181502282F31288D5
:1084B00058685C6C026822EA04029C6C2243C9B2D0
:1084C000026081F31188D3E90C401A6999681D6C28
:1084D000096814605061D3E90E4054609060002434
:1084E000B3F8A800D5604C62C8621068012420432C
:1084F00010601C7683F8F1408A899B8913439BB2F4
:108500008B8130BC7047202000FA02F2E260BDE7A8
:10851000002283F8F120D3F8F8000A68013022F035
:108520000102C3F8F8000A60EBE700BF70190020F1
:1085300010B40C4CE36F002B11DD002004F1800C13
:108540000146DCF8A03003F1C00259600C339342BD
:10855000FBD1E36F013083420CF5807CF1DC5DF8E8
:10856000044B704770190020704700BF024B03EBAB
:10857000401090F89D047047701900204368B0F8CF
:10858000502010B41A83EFF31182502383F3128822
:108590004168446C0B6823EA0403C46C2343D2B2E1
:1085A0000B6082F31188D0E9074182680369126881
:1085B0001C605961D0E909415C60C46A9960B0F8F7
:1085C0006010DC600023D1625DF8044B03767047D5
:1085D00010B4037D01681F2B09D94C68203B202271
:1085E00002FA03F31C4215D15DF8044B70470C6886
:1085F000202202FA03F31C42F6D00D4A4068002400
:1086000082F8804502685DF8044B22F001020260A6
:108610008B607047064A4068002482F880450268F3
:108620005DF8044B22F001020260CB60704700BF8E
:10863000701900200C2911D8DFE801F02310101068
:1086400019101010111010100700838B23F4006311
:108650001B041B0C43EA022292B282837047838B75
:1086600023F008031B041B0C1A4382837047038BFF
:1086700023F400631B041B0C43EA022292B2028320
:108680007047038B23F008031B041B0C1A4302835F
:10869000704700BF704700BF0B4890F8B81589B10C
:1086A00001EB4101002310B4490000F5B8601C46FD
:1086B00050F82320063302B114608B42F8D15DF8E4
:1086C000044B7047704700BF701900200B4890F8AA
:1086D000B81589B101EB4101002310B4490000F540
:1086E000B8601C4650F82320063302B1146099424A
:1086F000F8D15DF8044B7047704700BF7019002037
:1087000001207047034B00EB400003EBC00090F8E2
:10871000D10570477019002007EE900AB8EE670A7D
:10872000704700BFBCEEC00A10EE103A98B2704716
:1087300008B51D2010F066FF08B183794BB11E20EB
:1087400010F060FF08B1837903B108BD5523C380E1
:1087500008BD5523C380F2E710B50C2937D8DFE8F0
:1087600001F09736363666363636373636360700F7
:10877000038C5488B2F80CE023F480531B041B0CC8
:108780000384038CB0F804C0818B21F4E6414EEAE7
:10879000040E0904148823F40053090C41EA04214F
:1087A0001B04754C1B0C43EA0E33A0421FFA8CFCD1
:1087B0009BB289B200F0AE8004F58064A04200F064
:1087C000A9809268A0F804C081830264038410BD6C
:1087D000038CB2F80CC0548823F480731B041B0C68
:1087E0000384038CB0F804E0818B23F400731B0432
:1087F0004CEA040C21F073011B0C43EA0C2309041E
:10880000B2F800C0090C41EA0C0C5B4988421FFA1F
:108810008EFE9BB268D001F58061884264D0926878
:10882000A0F804E0A0F81CC0C263038410BD038C50
:10883000B2F80CC0548823F010031B041B0C0384F3
:10884000038CB0F804E0018B23F020031B044CEAF6
:10885000040C21F4E6411B0C43EA0C130904B2F8A2
:1088600000C0090C41EA0C211FFA81FC42498842F0
:108870001FFA8EFE9BB269D001F58061884265D0F7
:108880009268A0F804E0A0F818C08263038410BDC9
:10889000038C5488B2F80CE023F001031B041B0C7A
:1088A0000384038CB0F804C0018B21F073014EEAFD
:1088B000040E0904148823F00203090C1B0421434D
:1088C0002D4C1B0C43EA0E03A0421FFA8CFC9BB2FA
:1088D00028D004F58064A04224D09268A0F804C097
:1088E00001834263038410BDD189548A23F4006359
:1088F00043EA0121138A2EF4405E23434EEA031E0D
:1089000094884FF6FF330B4043EA04231FFA8EFE90
:108910009BB284E7148A2CF4804C4CEA841C1FFA26
:108920008CFC4EE7D489B2F810E023F0080323430F
:10893000548A2CF4407C4EEA040E948823F00403FD
:108940004CEA0E0C1FFA8CFC2343C6E7D189548AEB
:1089500023F0800343EA0111138A2EF4406E23436F
:108960004EEA830E94884FF6BF730B4043EA04131C
:108970001FFA8EFE9BB283E70000014012230148DC
:108980000B80704798010020042301480B8070473A
:10899000AC0100202048D0F8E837D0F8EC2730B5FB
:1089A0009B184FF01A040C8001D11C4830BD1B4AA3
:1089B000D0F8EA174FF0000E10467546B3F1204F7D
:1089C0004FEA137C0CF130040EF1020E2ABF0CF1B9
:1089D000370C847080F802C0BEF1100FC5704FEAEA
:1089E000031300F10200E9D100200446B1F1204F49
:1089F0004FEA117303F1300C00F102002ABF373344
:108A000082F812C093740828D4744FEA011102F15D
:108A10000202EBD1014830BD00F0FF1FB001002081
:108A2000B42282802A224FF4A57C4FF4EB7102819C
:108A30004FF487720023A0F802C0C1804FF4E17C9C
:108A40009621828144220370A0F80AC0C18102826B
:108A50004382704782B01F4B002201920193019B19
:108A60001D4A04330193019B1968936803F00C03BA
:108A7000042B07D0082B0AD0184B194AC3F88026BC
:108A800002B07047154BC3F8801602B070475368A8
:108A9000506813F4800F00F03F00536813D1C3F304
:108AA00088130F49B1FBF0F101FB03F30A4A0B49AC
:108AB0005268C2F3014201325200B3FBF2F3C1F833
:108AC000803602B07047C3F38813B1FBF0F101FBAD
:108AD00003F3EBE7502800400038024070190020F3
:108AE0000024F4000123437700207047D0E90B21D4
:108AF00008B583690B4483610AB10846904700209A
:108B000008BD00BF436A1B681B6A5B685B7802464E
:108B100013F0010008BF5077704700BFC262816147
:108B2000704700BF704700BF043070470D4B93F88B
:108B30008826D3F884160244D2B283F8882693F8A4
:108B4000882608441206C3F8840605D593F88826BB
:108B500082F0800283F88826034B012283F83220BA
:108B6000704700BF70190020980100202DE9F047E0
:108B7000144FD7F88C56ED0A1ED00026B04607F2E7
:108B8000C469D7F890361048D3F828A0C7F8BC8637
:108B9000AC19641010234A46E102D0470F280BDDC0
:108BA0000A4B03F1100C53F8041B013107D1634544
:108BB000F9D12546B542E4DCE802BDE8F087661C41
:108BC000F8E700BF701900200020002034200020AA
:108BD00010B5114CD4F8D426D4F8D836D31A322B89
:108BE00012D8D4F8DC36934200D310BDD4F8E03666
:108BF00033B119689B884869034214BF4B830B83C8
:108C00003232C4F8DC2610BD0021084610F038FED0
:108C10000023C4F8DC3610BD70190020094A92F810
:108C2000EC36D2F8E02603F001031AB123B9136839
:108C300092881A8300207047136892885A83002014
:108C4000704700BF701900204FF40070034B106094
:108C5000D3F8F8360B600020704700BF7019002071
:108C600000207047012070470120704700207047A6
:108C700041F201020121028041F20112002342F27D
:108C8000011C017282804FF60171FF22A0F802C020
:108C900043818381C381018282747047154BFF2217
:108CA0004FF0FF3CF0B5C270027102724272427323
:108CB000827303F10C076646172516244FF0150E34
:108CC000002202EB820281189F4200F802E04C7001
:108CD0008D70CE7081F804C00BD093F9062093F804
:108CE00007E01C7A5D7A93F90A6093F90BC00633AA
:108CF000E7E7F0BD486905084FF0000C01210222AA
:108D0000032380F805C08171C2710372704700BFF0
:108D100000230222037043708370C3700271704796
:108D20002222022302704370704700BF4FF0010CF3
:108D30002C210222002380F800C041708270C37091
:108D4000704700BF4FF4F07202804FF4FA6240F2B5
:108D50002E41028440F226224FF0060CC18382830A
:108D60004FF47A7141F6181280F802C041844FF432
:108D7000F56C42F21A01028124220023A0F824C0DB
:108D800041814FF00E0C01210273022280F826C0AF
:108D9000417140F2012C40F20341837142744382DD
:108DA00040F205620723A0F814C0C18202838376D3
:108DB000704700BF0023037043708370C370704717
:108DC0000023037043708370C37070470123002237
:108DD0002521017042708270C270037143718371EA
:108DE000C3717047FF23037043708370C370704773
:108DF000002306214FF47A72C0E901230170037346
:108E0000704700BF0023411CFF2200F8132001F827
:108E1000132001330B2BF8D1027042708270C270A4
:108E20008272C272704700BF4FF0120C80F800C00F
:108E30004FF0030C80F801C04FF0FF0C80F802C027
:108E40004FF0180C80F803C04FF0190C80F806C0E2
:108E50004FF01A0C80F809C04FF0200C80F80CC0BD
:108E60004FF0240C80F80FC04FF0210C022180F845
:108E700012C04FF0130C012300224173C17480F81B
:108E800015C081754FF02A0C1F2103714371C37106
:108E900003728372C3728273037442740275C37562
:108EA00080F818C043768276C176037742777047A0
:108EB00003230370704700BF704700BFD0ED007AF6
:108EC000D0ED016A30EE677AE6EE877AB0EE670A97
:108ED000C0ED007A704700BFD0ED017AD0ED026A94
:108EE00030EE677A90ED000AE6EE877A37EEC07AC8
:108EF000C0ED017AA6EE870A80ED000A704700BF38
:108F000090ED017AD0ED036AD0ED027A30EE470A97
:108F1000A6EE807A90ED000A80ED017A37EE676A5E
:108F2000E6EE867A37EEC07AC0ED027AA6EE870AC0
:108F300080ED000A704700BF164BD0F8E0105A6869
:108F400010B50446D0F8D80071B1131A99420BDC61
:108F500094F8D030C4F8D820012B10D0D4F8D430F5
:108F60000133C4F8D43010BDD4F8E430C4F8D820AC
:108F70000344C4F8DC3094F8D030012BEED104F176
:108F8000E801201D0FF05EFFD4F8D4300133C4F89F
:108F9000D43010BD001000E070B5224A224C234BA3
:108FA00094B00546CDE90042214A0992A4F1080295
:108FB0000A922A7F0493201D0023CDE905039A42DB
:108FC000CDE90E330B931093139314BF05200420A7
:108FD00011936B6A0C9002200122029018688DF8A0
:108FE0000C200E4607928DF820208DF834208DF845
:108FF00048204AF041FC2B7F93B1330E04F8073C24
:10900000063C320C330A22706370A670686A6946A7
:109010000FF018FF6B6A18684AF02EFC14B070BD90
:10902000073CEEE798200020D4010020058B0008C3
:10903000E58A000810B5044694B0502206496846F7
:109040004DF0C0F9606A69460FF0FCFE636A18686B
:109050004AF012FC14B010BD5C6905082DE9F0411E
:109060000446406A00681E460F4690464AF004FCDB
:10907000237F002B3FD02A4DA0690523EB67030E09
:1090800085F8453005F146039870020C000A5870C7
:109090001A703B68C5F888300020D8F80030C5F851
:1090A0009030012E2363C5F8A0002BD0022E20D1D2
:1090B000D8F80420C5F89800796885F89400C5F8B8
:1090C0009C1013441749C5F8A4200120236385F898
:1090D000A800C5F8AC10144B617F606A03F114025C
:1090E000002914BF194611460FF0ACFEE36A8BB19C
:1090F000206BBDE8F0810A4DA0690423EB6705F100
:109100004503C1E7074B85F89460C5E92630C5F8EB
:10911000A400E0E7636A18684AF0AEFBE8E700BF26
:1091200098010020ED8A0008E401002000B583B01A
:1091300081610192049A0093C26201236A4601A9E7
:10914000FFF78CFF03B05DF804FB00BF0C4AF8B5D5
:10915000136855692B4003EA000555617DB1094F3D
:109160000126B5FA85F4C4F11F0407EB840306FA5F
:1091700004F4D3F82C0703689847A543F1D1F8BD50
:10918000003C014070190020038A2DE9F047B0F837
:109190000C901FFA89F919EA03092BD005460E46EF
:1091A0004FF000474FF00008B9FA89F327FA03F2AD
:1091B000D24391B21B3B298209EA0209042B16D83B
:1091C000DFE803F0352C231A0300B36A002B37D0F5
:1091D00003F1FF3A1FFA8AFAC6F82880746A34B19C
:1091E00023682046514698476468002CF8D1B9F1AD
:1091F000000FD9D1BDE8F0877068696B036889B248
:109200009847B9F1000FCFD1F4E7B068A96B0368B4
:1092100089B29847B9F1000FC6D1EBE7F068E96B66
:10922000036889B29847B9F1000FBDD1E2E7306910
:10923000296C036889B29847B9F1000FB4D1D9E716
:10924000E96A1FFA81FAC9E7F0B5836993F8DC206F
:10925000012A8BB0054627D0023A012A2FD893F86D
:109260004C21D3F89C10174C62F07F030B70866979
:10927000D6F8A0305F1C0FCCEC46ACE80F00D6F857
:109280009C30CDE900370FCCACE80F0094E8030028
:109290008CE80300694606F110000FF0D3FDAB69BE
:1092A00019690A6A002AFCD1D3F8A0305A8852BA48
:1092B000EA819A8852BA2A82DB885BBA6B820120E3
:1092C0000BB0F0BDAC690508F0B590F8DC30D0F813
:1092D000A060012B8BB004464BD015D8D0F89C3041
:1092E0004FF0FF321A605A609A60DA60D0F8E030CE
:1092F0000522B3F57A7FC0F8F02054D8032380F814
:10930000DC3001200BB0F0BD023B012BF9D890F806
:109310004D31D0F89C203A4D63F07F031370D0F8A4
:10932000A0305F1C0FCDEC46ACE80F00D4F89C30A9
:10933000CDE900370FCDACE80F0095E803008CE8CD
:109340000300694604F110000FF07CFD2269136AE6
:10935000002BFCD173885BBAA4F8D030B3885BBA19
:10936000A4F8D230F38801205BBAA4F8D4300BB053
:10937000F0BD90F84C2190F84D319B1A5B100133F1
:10938000DBB206EB430236F813305BBAA0F8D030FC
:1093900053885BBAA0F8D23093885BBAA0F8D43077
:1093A00001200BB0F0BD03691A7B2AB35B691BB3C4
:1093B00090F8983003B390F84C31D0F89C20C4F862
:1093C000A40063F07F03137090F84C1190F84D31B6
:1093D000D0F8A0200B48C4F804015B1A0733012120
:1093E000C4F8FC30D4F89C3084F800110A44C4E975
:1093F0003D3284F8DC1084E7022384F8DC3080E717
:10940000AC69050801800008114A002330B50360EB
:10941000838002F10C054FF448744FF0290E4FF091
:10942000280C03EB430300EB430100F813C081F861
:1094300001E0D3788B70AA428C8008D092F9063074
:1094400092F807C092F808E054890632E9E730BD87
:10945000D46905082DE9F0430446406A344D00689C
:1094600095B00E46914698464AF006FA314B019364
:10947000314B049305F1CC030093217F0223029327
:1094800005F1C402012300278DF80C3005920697E0
:10949000002936D08DF834308DF84830CDE9097781
:1094A000330ECDE90E77CDE9107785F8C530052369
:1094B000CDF82C908DF82070CDF830801397C635FC
:1094C0000793330C1D4F2B70330A6B70AE70D7F8B7
:1094D0007007656A0FF048FC637FA88033BB05A95D
:1094E00028460FF0AFFC636A18684AF0C5F9D7F850
:1094F00074070FF039FC636A9880404615B0BDE8E8
:10950000F0838DF834308DF848300423CDE909110B
:10951000CDE90E11CDE91011CDF82C908DF8201069
:10952000CDF830801391C5350793CAE76946D7E770
:1095300098010020DC200020058B00087019002015
:109540002DE9F0412F4F07EB401898F89C340BB9E8
:10955000BDE8F0818C2303FB00730E4693F87A2755
:1095600088F88224002183F87A17044645010FF019
:10957000A3FBC0BB3D442448A5F8806400EB441025
:109580000FF0E4FA97F87B30D5F89824A3B1D5F81A
:109590008414D2F8A03001248C4003F1C0014200B1
:1095A00010F4004F90B202D15A6822435A600C3333
:1095B0009942F4D1BDE8F081D5F88444D2F8A030C6
:1095C00004F110020124944003F1C001420010F4A0
:1095D000004F90B202D15A6822435A600C3399422C
:1095E000F4D1BDE8F08197F8383C03EB430307EB77
:1095F000C303234493F8E56B002EBBD0012388F806
:109600008234B7E770190020F01D002070B5214C9E
:1096100094F8392C94F8383C9A4236D194F83A3C74
:10962000E3B194F83B5C1C4B002040F20D3CB5B11B
:109630009A68998951601668196846F001061660A3
:10964000A1F848C08A8992B242F480728A8194F863
:109650003A2C0130824203F11803E8DC70BD1A682D
:10966000118821F080010904090C11809988D162C8
:10967000118889B241F0800111805562998A9689DA
:10968000314389B291819D82E1E747F0CDF800280E
:10969000C4D170BD70190020AC2500202DE9F04127
:1096A0001D4D95F8392C95F8383C9A422ED1EE6F25
:1096B000002E12DD002495F87B701848A046013476
:1096C00017B1037E012B1CD002691368B44243F02A
:1096D000010300F580701360F1D110F079FBD5F82B
:1096E000FC4C002C0BDD0E4A02EBC404116893887D
:1096F0008889083203439BB294428B81F6D1BDE83E
:10970000F08180F8F080FEF739FFDDE747F08CF854
:109710000028CCD1BDE8F08170190020F01900209C
:10972000702600202DE9F84F037D02681F2B0446A8
:1097300008D95068A3F120052021A940014206D193
:10974000BDE8F88F1068202199400142F8D04C49BB
:109750004C4D4968C5F8201D95F83B1CA66901BB16
:109760008C2101FB0651D1F88007D1F8F8C70768B2
:10977000DCF80000B1F884E720F00100CCF800002C
:10978000B98989B221EA0E01B98195F87B10E9B94E
:109790001F2B68D9A3F1200120238B40D360BDE8A3
:1097A000F88F8C2101FB0651D1F880170F690868EA
:1097B000396821F001013960818921F4807109043F
:1097C000090C818195F87B100029E1D08C2706FBDC
:1097D00007F705EB070B2C49DBF8F897DBF8803728
:1097E00007F118084846D3F800A0884442F0E6FE86
:1097F000D5F8283D244901228BF8CC27002B38D0FE
:10980000BAF800309BB243F08003AAF800307437F6
:109810004FF0FF333944CAF82C30504643F03EF93C
:109820008C2303FB065600234146C6F89C37484666
:1098300042F05AFFD6F8F83716225A601A6842F0FA
:1098400001021A60D6F88027B6F884371268918929
:109850000B439BB293810A49237D49682268C5F86E
:10986000241D1F2B96D8202101FA03F39360BDE835
:10987000F88F10F0ADFA0449C5F8280DC0E700BF15
:10988000001000E070190020E8200020F8B5164D07
:109890001648174F00214FF4DC724CF0F6FD05F22C
:1098A00074664FF0804105F5CB643A46002301E031
:1098B00054F8332091420BD001330A2BF8D1002009
:1098C0001C3546F027F8B5420CD055F81C1CECE7C7
:1098D000084A02EBC3031C3593F80C0B46F01AF848
:1098E000B542F2D1F8BD00BF046A05089C260020ED
:1098F00000000140546505082DE9F04110F068FAB8
:109900001E4F1F4E05464FF00008FC6F002C29DD4E
:1099100000231A4607EB0321013391F871119C4291
:1099200042EA0102F6D142EA0804E4B290467368C2
:10993000C3F308039BB9EFF3118383B910F024FA42
:10994000431BB3F5FA6F02DCB8F1000FDDD11CB197
:1099500097F8E43E542B09D02046BDE8F08110F082
:10996000A3F9EDE744464FF00008E0E7B7F8EC3E16
:109970000133A7F8EC3E2046BDE8F08170190020C5
:1099800000ED00E02DE9F04F2DED028BC54F83B0C7
:1099900097F87B3001932BB9012003B0BDEC028B0B
:1099A000BDE8F08FD7F8D436DFF80C9308EE103A04
:1099B00007F6F86307F5906A00934FF0000BD9F8AB
:1099C000F0315B4540F3E980DAF81830DAF80450FA
:1099D000D3E93A84AD0010F0FBF905F1085505EB29
:1099E000481597F8E48E864604F1806119F8F80C62
:1099F0003939B8F1540F05EB811105EB801301D112
:109A0000A7F8EE0E994240F22D811A68002A00F064
:109A100022811A6C002A00F03281D3F88020002ABB
:109A200000F02F81D3F8C02003F58073002AE9D11C
:109A30005D1B99424FEAA51540F21481611B45292F
:109A40004FF0000428BF452103EB81119C462046BE
:109A500026460DE01A6C002A40F0A880D3F880203A
:109A6000002A40F0CE80D3F8C02003F580732AB9D5
:109A7000994206D91A68002AECD04033994200F284
:109A80009980112E344640F2F180D6F1150200F192
:109A9000ED808549D1F8D0309D4259F8F43C38BF6B
:109AA000C1F8D050AEEB0301002918DB03F5F42315
:109AB00003F590739E4588BF0EF1050349F8F43C09
:109AC000794B7949D3F8D030052B86BF053BDBB203
:109AD000002309F8F83C4FF0FF33C1F8D03042B111
:109AE00000FA02F2C4F11404012000FA04F444EA7A
:109AF00002006E4AC0F3C43302EB8303D3F8581B51
:109B000000F01F0302EB8303D3F8583B43EA013311
:109B1000C0F3441102EB8101C0F3842002EB80000A
:109B2000D1F8582B43EA0213D0F8582B43EA02230A
:109B300083EA132282EA121202F00F020F2A7BD16B
:109B4000B3F5803F78D2B8F1540F4FEA131304D124
:109B5000B7F8E82E0132A7F8E82ED7F8002FB3F5B2
:109B6000606F02F10102C7F8002F00F0A780009A91
:109B7000019993814E4B5C2018EE102A00FB0B30AC
:109B80000FF030F8009B0BF1010B1433BBF1080F01
:109B90000AF1200A00937FF412AF0123012087F815
:109BA000FC3F03B0BDEC028BBDE8F08F80339942DF
:109BB0007FF667AFA3EB0C029211541C3D4A82FB67
:109BC00004C2A2EBE472012AB8BF01229040012432
:109BD0001644013A04FA02F210431C46226892B17C
:109BE000226C002A4FD0D4F88020002A4DD0D4F81F
:109BF000C02004F580743AB1A142EFD89C462346B8
:109C000036E7C0333AE74034A142F7D9E31A9B1153
:109C10005A1C284B83FB02C3A3EBE273012BB8BF92
:109C2000012398401E440122013B02FA03F318432A
:109C300023469C4623461BE7B8F1540F27D0D7F89C
:109C4000003F0133C7F8003FD7F8FC3E0133C7F8A7
:109C5000FC3E00218EE740335D1B99424FEAA5157B
:109C60003FF6ECAE10B1013809F8F80CB8F1540F1A
:109C700088D1B7F8EA3E0133A7F8EA3E82E780339D
:109C8000D6E6C033D4E68034BEE7C034BCE7B7F8CC
:109C9000E83E0133A7F8E83ED7F8003F0133C7F8A4
:109CA000003FD1E770190020980100205465050895
:109CB0007829002056555555682A002097F8382CE9
:109CC00002EB420207EBC2025A4492F8E52B0D2A3E
:109CD0007FF44DAF009A0199802393774AE700BF44
:109CE00010B504464BF0F6FD81B22046BDE81040A9
:109CF00026E400BF38B50B4D00EB400005F5B86316
:109D000003EBC00393ED027AD3ED037AE7EE007A1A
:109D1000C4002C44B0EE670A4BF0DCFDD4F8C0352B
:109D2000186038BD701900200A4608B5054920B9E9
:109D3000054842F077FF034808BD044842F072FF2F
:109D4000004808BD5C2C002050DE050878DE0508C0
:109D500010B5044C04480A46214642F063FF2046F1
:109D600010BD00BF5C2C0020A0DE050810B5044C1F
:109D700004480A46214642F055FF204610BD00BF68
:109D80005C2C0020B4DE050810B5044C04480A46DB
:109D9000214642F047FF204610BD00BF5C2C00204A
:109DA000C0DE050838B590F82830012B044604D0F1
:109DB000407F40B10023637738BD406A03681A7B57
:109DC00092B9637F0BB9012038BD0A4D0A490223BD
:109DD00005F53D720FF066F895F8F53203F00103D2
:109DE00083F001006377E7E71B6A002BE9D00020CE
:109DF00038BD00BF682A00206C02002010B5044660
:109E00002046FFF7CFFF0028FAD0012010BD00BF89
:109E1000F0B511F0010583B00AD190F82860012E49
:109E2000044607D0C368B3F1807F01D901232377AB
:109E300003B0F0BD0A4B476AD3F870070EF094FFE9
:109E4000E368B880B3F1807FF2D9B7218DF80410B0
:109E5000267733462A46384601A90FF023F8E7E76C
:109E6000701900202DE9F047089F8846154600210B
:109E7000202204461E464CF008FB4FB13B68E381AC
:109E80001B0C23827B687A89E3821B0C628223830A
:109E9000404649F0F5FFEB0619D4431EB8B108EB74
:109EA000000701E0013B12D317F801CDBCF12E0FE2
:109EB000F8D1C01A421E032AA8BF0322082B03F1BF
:109EC000010AA8BF08239146C2441A4606E00828A2
:109ED0000246C246A8BF08224FF000094FF02033C7
:109EE00041462360636004F1080720464CF06AFA9B
:109EF000174B23815146BB704A4638464CF062FAF4
:109F0000611EE31D11F801CFACF1610EBEF1190F16
:109F10009CBFACF1200C81F800C08B42F2D13846D6
:109F200004F10B0110F8013BA3F16102192A9CBF57
:109F3000203B00F8013C8842F4D118232373330CF2
:109F4000A382E572099B6683E361BDE8F08700BFE9
:109F50002020200008B543F0A3F90C4B93F87D15A1
:109F600029220129A3F85623A3F85E2301D001205A
:109F700008BD0748C3F8800500F120014C3048F0C7
:109F800031FD044B002083F8230008BD682A00201F
:109F90007002002000ED00E02DE9F04FDFF888941A
:109FA000D9F8D406C9F8D80687B0002B00F0DA80BB
:109FB00001F5FE781344DFF874B40393164601F1FB
:109FC0002007C24621E0002E64D0D9F80437B342FE
:109FD00000F0CC80D9F80037B34200F0FF80D9F808
:109FE0000837D9F80C17B3424BD8B14200F2998127
:109FF000711A204645F02CF9039B01369E4207F565
:10A0000000770AF5007A00F0AD80D9F81057B54214
:10A01000A7F12004D7D8751BD9F8208705F00702CF
:10A02000EB080492D8F830200233934203D3D8F8D7
:10A03000382093420BD941461846059345F0D8F88D
:10A04000059B8046002800F08C81C9F8200798F80D
:10A050000420002A40F03481D8F82850002D00F068
:10A060007981D8F830209B1A049A02EBC303D8F800
:10A070000C20204602EB43224FF400714346A847D0
:10A08000BAE7B142B4D920464FF4007200214CF037
:10A09000FCF9B1E74FF40072314620464CF0F5F977
:10A0A000802387F89E310C2387F8A231D9F8003736
:10A0B000D44AD9F8F816C4F8C6319342C4F8CA1184
:10A0C00000F33481D04AD14C82FB03021A44D817E2
:10A0D000C0EB621284FB0254CD4D85FB03C5C0EB7F
:10A0E0002530C2EB821587F8A1015B1B801020F0A0
:10A0F0003F0001330343144487F8A031D317C3EB67
:10A10000E4142244BF4B87F89F214A1E9A4200F371
:10A110001981BD4BBD4883FB02311144D317C3EBFA
:10A12000611180FB0140BA4C84FB0254C3EB243321
:10A13000C1EB811487F8A531121B9B1023F03F035C
:10A1400001321343084487F8A431CB17C3EBE01066
:10A15000014487F8A311552387F8DE31AA2387F835
:10A16000DF3149E7002007B0BDE8F08F4FF0FF3343
:10A1700084F8EC3184F8ED3184F8EE3184F8EF3175
:10A18000D9F81837C4F8E83152232370637061237B
:10A19000A37084F8E73141230025E37084F8E631A9
:10A1A000722384F8E43184F8E5314FF4F0722946E3
:10A1B000A7F11C004CF069F95523C7F8D051C7F836
:10A1C000D451C7F8D85184F8FE316FF0550384F8A4
:10A1D000FC5184F8FD5184F8FF310DE700214FF464
:10A1E000007220464CF051F98A4A03CA47F81D0C08
:10A1F000EB2007F8200C582007F81F0C902047F898
:10A20000191C07F81E0C002302220821F820E37213
:10A21000227307F8131CA273E37307F8102C07F8D6
:10A220000B0CD9F8000784F82C20D9F8F8266376AF
:10A23000121A2262D9F80807D9F80C27E376121A05
:10A240003F2020764FF0FF30A0763E20207701207F
:10A250006377A377E37784F82D3084F82E3084F881
:10A260002F30626284F8300084F8313087F826108D
:10A27000802187F82010292187F82210942187F85F
:10A2800023100E2187F824100D21634A87F825102A
:10A29000552187F8DE11AA2187F8DF1103CA5F4B29
:10A2A000C7F82700C7F82B1003CB1388A7F82F3067
:10A2B0009378C7F83200C7F8361087F831309BE63C
:10A2C0004FF40072002120464CF0DFF8049B002B75
:10A2D0004ED1D8F84030002B00F0AA80049AD8F86C
:10A2E00030304F49CDE9002220461122FFF7BAFD58
:10A2F000D8F840301A6C002A00F0AD80049A1B6B2D
:10A30000CDE90022474911223846FFF7ABFDD8F8C6
:10A31000448007F120044FF4E075B8F1000F3FD1FD
:10A320006AE6F11A204644F093FF65E6FF2387F8BA
:10A330009F3187F8A13187F8A031324B4A1E9A42EB
:10A340007FF7E7AEFF2387F8A33187F8A53187F8B9
:10A35000A43100E7294620464FF400724CF095F8EE
:10A360004AE6A7F1240343F804BF9A45FBD143E62C
:10A37000D8F84030049AD8F84480002B0CBF012351
:10A380000223C3EB02154346002B3FF435AE013DDB
:10A390009B6CF9D198464FF40075002B3FF42CAE1E
:10A3A00025442034234620354446049698460EE042
:10A3B0005CF81C1B236BCDF800C000260196FFF74C
:10A3C00051FDA46C08F12008CCB1A84517D0237921
:10A3D000A44604F11C0E1122A8F12000002BE7D1A5
:10A3E00062792669236B216842F02102CDE900E6FB
:10A3F000FFF738FDA46C08F12008002CE5D1049E7D
:10A40000FAE500BFFF03FB00832008828180808083
:10A4100097554541D8DE0508E4DE0508F0DE05085D
:10A42000D0DE0508D4DE050870190020DEADBEEFD1
:10A43000049BD9F8FC16CDE9003320460822FFF72B
:10A4400011FDD8F84480B8F1000F3FF4D5AD3C467B
:10A450004FF4F075A4E7049BCDE9003352E700BF49
:10A46000144B154910B5044618681B79206284F80E
:10A470002430152204F125004CF058F80F4B93F8C6
:10A4800084254FF0010E84F83AE012B984F83B209D
:10A4900010BD03F5B16CBCE80F0020606160A260E4
:10A4A000E360BCE80F0084F83BE020616161A261D9
:10A4B000E36110BDFCDE050804DF0508682A002002
:10A4C0002DE9F041044686B0002502AE3046032156
:10A4D0002570ADF80850ADF80A50ADF80C5005F0F5
:10A4E00013FA96E80300ADF81410BDF81430A381F8
:10A4F00041F2014301274FF002086E46638040F2AB
:10A5000023330490A060E3803946304684F801800C
:10A51000A773ADF80050ADF80250ADF8045005F047
:10A52000F3F94FF48073A38284F80F80278296E8B2
:10A530000300ADF81410BDF81430C4F8160063839E
:10A5400006B0BDE8F08100BF10B5002138220446F6
:10A550004BF09BFF0D490E4A0E482061C4E90512DD
:10A560000D480E4AE061012341F61E614FF0090CCF
:10A57000E18484F808C0A37384F82130A2622146E4
:10A580000748BDE810402DF021BD00BF1A046C073C
:10A59000001975036400DC0543080E001E7D0101EF
:10A5A0000CDF05082DE9F043002483B00646048043
:10A5B00021463046013434F0B7F9082CF8D1002395
:10A5C000DFF8688086F8EA30C6F8EC30C6F8F0307C
:10A5D000C6F8F430C6F8F8301F46FC3699463A46BD
:10A5E000414601A805F0F2F83546032401AA12F805
:10A5F000013B6BB1013C05F8013BF8D10137082F55
:10A6000085F8009006F10406E9D103B0BDE8F083B7
:10A61000284622462021254401374BF036FF082FDB
:10A6200085F8009006F10406D9D1EEE718DF050899
:10A6300058B183884FF00042B3FA83F332FA03F340
:10A6400003D002490A6813430B607047003C014085
:10A65000274A92F83A3C7BB3D2F83C1C884237D068
:10A66000012B29D0D2F8541C814235D0022B23D0A3
:10A67000D2F86C1C884231D0032B1DD0D2F8841C38
:10A6800088422DD0042B17D0D2F89C1C884229D0A8
:10A69000052B11D0D2F8B41C884225D0062B0BD044
:10A6A000D2F8CC1C884221D0072B05D0D2F8E41C6C
:10A6B000814208BF07230CD003EB430102EBC10129
:10A6C00003F1010CC1F83C0C82F83ACC18467047F3
:10A6D0000023DBB2184670470123FAE70223F8E7AC
:10A6E0000323F6E70423F4E70523F2E70623F0E764
:10A6F00070190020F8B52B4F8C2505FB007595F8D7
:10A70000873703B9F8BD04460E460EF0D5FA38BBBC
:10A710008C2505FB04752448A5F8786704EB8404B0
:10A72000C4EBC40400EB84000EF010FA97F83B3C35
:10A73000024623BB1D4BD5F80008D3F8A8350121EC
:10A740009847D5F8FC17B5F884478A8AD5F8F837C2
:10A7500022438A8258601A6842F001021A60F8BDEA
:10A7600097F8383C03EB430307EBC303234493F808
:10A77000E56B002ECCD0012385F87A37C8E7D5F8F1
:10A780008037D5F8FC175B790869084903F0FC03AA
:10A790001844D1F8A83504219847D5F8FC37800033
:10A7A0009881F8BD70190020E8200020682A002058
:10A7B000F8B5D0F88050866804462846376841F0DE
:10A7C000FDFE002284F8542038467179FDF732FFEF
:10A7D000717904F16002FDF7BFFF71790822FDF77E
:10A7E00029FF4023636204F11801284641F07CFFF1
:10A7F0002B6843F010032B60F8BD00BF2DE9F04F2C
:10A800006A4F2DED028B97F87B4085B034B9012457
:10A81000204605B0BDEC028BBDE8F08FD7F8D436EA
:10A8200008EE103A0FF0D4FA614A029092F8E0353F
:10A83000002B00F0B58107F5EF65A2F1F00A07F6ED
:10A84000F86B00260FE02846FFF7B2FF584B93F84D
:10A85000E03501369E4205F18C050AF15C0A0BF1E8
:10A86000140B80F2A980D7F8283D029AD31A03D49A
:10A87000AA6D9342C0F27D818C2303FB067393F88B
:10A88000CC3703F0FF020192002BDCD0AB68A98922
:10A890001A68D5F880305B681FFA83FE9389CEF181
:10A8A000160E9BB223EA0103BEF1070F9381CAD9AA
:10A8B000D7F8003F0133C7F8003FD5F8883003933D
:10A8C0009C46002201215CF8044B904689461BE01F
:10A8D000DCF80000B8F1140FA0EB04031DDC13F149
:10A8E000080448BF03F11704231108EB2418044699
:10A8F000581E013102FA03F38E4509FA00F242EACA
:10A9000003020CF1040C08D38E45E1D8C8F11503FD
:10A91000DCF800404FF01508EAE7B8F1150F39D11F
:10A920002448C2F38423C2F3441100EB830300EBF9
:10A930008101D3F8D83BD1F8D81B1B0243EA01139D
:10A9400002F01F0100EB8101C2F3C43200EB82026E
:10A95000D1F8D81BD2F8D82B0B4343EA023383EA51
:10A96000132282EA121202F00F020F2A12D1C3F34D
:10A970000F134FF6FF7293420CD0B3F5606F00F0E7
:10A98000FF80ABF80C30019918EE102A50460EF0FB
:10A9900029F958E7D7F8FC3E0133C7F8FC3E002EF2
:10A9A00000F0E08000230193EDE700BF7019002064
:10A9B000682A0020546505080122002187F8FC2F31
:10A9C000C7F8281D002B3FF422AF97F88817890796
:10A9D00000F1BE80D7F88017086849798A40018C59
:10A9E00092B289B221EA02010184018C89B20A4340
:10A9F000012B02843FF40BAF97F8142812F0020FDA
:10AA0000D7F80C2810685479018C0CBF012204225D
:10AA1000A24092B289B221EA02010184018C89B27A
:10AA20000A43022B02843FF4F2AE97F8A02812F0FA
:10AA3000020FD7F8982810685479018C0CBF0122B6
:10AA40000422A24092B289B221EA02010184018C5F
:10AA500089B20A43032B02843FF4D9AE97F82C291C
:10AA600012F0020FD7F8242910685479018C0CBF1A
:10AA700001220422A24092B289B221EA0201018499
:10AA8000018C89B20A43042B02843FF4C0AE97F8CC
:10AA9000B82912F0020FD7F8B02910685479018C48
:10AAA0000CBF01220422A24092B289B221EA020123
:10AAB0000184018C89B20A43052B02843FF4A7AEBE
:10AAC00097F8442A12F0020FD7F83C2A10685479FC
:10AAD000018C0CBF01220422A24092B289B221EA69
:10AAE00002010184018C89B20A43062B02843FF4DF
:10AAF0008EAE97F8D02A12F0020FD7F8C82A106845
:10AB00005479018C0CBF01220422A24092B289B276
:10AB100021EA02010184018C89B20A43082B0284D4
:10AB20007FF475AED7F8542B97F85C3B11685079D9
:10AB30000A8C9B074CBF0423012383409BB292B233
:10AB400022EA03020A840A8C92B213430B845EE663
:10AB5000D7F8802710685479018C0422A24089B26A
:10AB600092B23FE70399114858224BF02BFC019613
:10AB700009E70024204605B0BDEC028BBDE8F08F4C
:10AB800097F8382C02EB420207EBC202324492F8EB
:10AB9000E52B0D2A7FF4F5AE80238BF81E30F2E60C
:10ABA000012287F8FC2FC7F8283D31E61429002040
:10ABB00043680B4A23F0407323F4807343F480739B
:10ABC000436083681A4042F002028260C36A01391E
:10ABD000CAB223F4700141EA0251C162704700BF5A
:10ABE000FDF7FFC0704700BF0020FDF71BBA00BF94
:10ABF0000120FDF717BA00BF0220FDF713BA00BF0E
:10AC000010B1036882881A83704700BF10B10368CF
:10AC100082885A83704700BF10B404698269E4686F
:10AC2000416814604024D460446900230C31C2E9B7
:10AC30000433C2E90633C2E90833C2E90A33C2E980
:10AC40000C3393609363516084B1C269E06893638D
:10AC5000C2E90233C2E90433C2E90633C2E9083368
:10AC6000C2E90A33C2E90C33C2E900015DF8044BC2
:10AC7000704700BF436800221A60037D1F2B08D96C
:10AC8000203B2022016802FA03F343F01803CB6053
:10AC900070472022016802FA03F343F018038B6027
:10ACA000704700BF0268136A11B1D96901B3143348
:10ACB00030B49C681D689169DDB14FF48060886193
:10ACC0008D60104640690C6180B15968D369D9B173
:10ACD0000A464FF480619A609961224312F0010F95
:10ACE00014BF00224FF400521A621C6130BC70473E
:10ACF00070478D61064D4FF0FF0C85F840C105F59A
:10AD0000A07500688D60DDE7024A9A609961E4E70A
:10AD100098010020503000200168F8B5D1E90423E3
:10AD200004465568002B49D09861107D5E681F2845
:10AD300031D81768202202FA00F040F01800B860FD
:10AD40001A7D1F2A32D91868203A202303FA02F20A
:10AD500042F01802C26000232B60336033688969B7
:10AD600043F010033360284641F0BEFC23683046B0
:10AD7000D96941F0B9FC2B68226843F001032B60CC
:10AD80003368526843F00103336093889BB243F009
:10AD900003039380F8BD17682038202202FA00F0E0
:10ADA00040F01800F8601A7D1F2ACCD818682023BC
:10ADB00003FA02F242F018028260CCE7137D906140
:10ADC0001F2B1CD81068202202FA03F343F018034B
:10ADD000836000232B602B68896943F010032B608C
:10ADE000284641F081FC2B68226843F00103526839
:10ADF0002B6093889BB243F002039380F8BD1068E8
:10AE0000203B202202FA03F343F01803C360E0E77B
:10AE10002DE9F041794E074601253C6897F8888076
:10AE20006368B8881A8884F8245022F0400212041B
:10AE3000120C1A80228982421AD0B0F5807F024615
:10AE4000A8BF4FF48072022A1988B8BF0222002AD4
:10AE500092FAA2F2B2FA82F289B208BF4FF0FF3240
:10AE6000013A21F0380141EAC20292B21A802081EF
:10AE7000397BA27A8A420CD01A8822F0030212048B
:10AE8000120C1A801A8892B2002900F092801A805F
:10AE9000A1721A8892B242F040021A80226A916826
:10AEA000002900F0A1804FF0000C1432E64652F861
:10AEB000100C8E4400EA060120B1B1F1805F23D06E
:10AEC000616909B352F8140C143200EA060110B19A
:10AED000B1F1805F18D052F80C1C0CF1010C002964
:10AEE000E5D1227B82B1B8F1000F0DD0BCF1010F8A
:10AEF0006DD8BEF1070F6AD80CEB8C018900226A6D
:10AF000011440A7B002A62D0226A92684FF000083E
:10AF1000002A51D0B8F1000F02D098F80C2022B1CD
:10AF2000BA6812B1116892884A83226AD2F800E0A6
:10AF3000226A5168226A9268501E9AB1BEF1000FCF
:10AF400023D01EF801CB1A899207FCD5A3F80CC0B8
:10AF50001A89D207FCD59A8992B209B101F8012B5E
:10AF60000138EBD2236A1B7BE3B9236A1B697BB1EF
:10AF7000236AD7F894001B69984701280DD002284E
:10AF800006D100232362BDE8F0814FF0FF0CDAE721
:10AF9000D4F82080236A14332362236A9B685BB150
:10AFA0006368B7E7BB68002BDFD01A689B88138300
:10AFB000DBE742F003026AE7236A1B68DBB1236A1E
:10AFC000D3E9007222620022C3E9002225E70021B2
:10AFD0003846FFF767FEBB6813B11A689B88538336
:10AFE0003846BDE8F04197E6227B002A8CD0B8F1C4
:10AFF000000F84D188E72362C5E700BF0000FFFF90
:10B0000010B40C4C002304F2EC5C01E0152B0CD0C6
:10B0100003EB430201331CF802108142F6D12244B3
:10B020005DF8044B92F9EE0570474FF0FF305DF884
:10B03000044B7047682A002070B502EB4202104CA6
:10B040004FEA820E4FF0000C22460EF108056346CF
:10B0500004E00133172B11D012F81CCF6045F8D152
:10B0600092F801C08C45F4D15659002EF1D0C3EBB3
:10B07000C3030EEB8303181D204470BD002070BD78
:10B08000AC71050830B502EB4202104D104C4FEA8E
:10B09000820C0CF10C0E2A46002304E00133172B1E
:10B0A00011D052F82C4FA042F8D114798C42F5D12E
:10B0B00052F80E40002CF1D02C2000FB03C303F10A
:10B0C0000800284430BD002030BD00BF546505088D
:10B0D00000000140F0B110B504460F4894F804E0B8
:10B0E000002300F2EC5C01E0152B11D003EB4302CE
:10B0F00001331CF802107145F6D10244617992F9CE
:10B10000EE252068D3B2022B02D8BDE81040B9E783
:10B11000002010BD00207047682A00200348D0F8A6
:10B12000543113B100F5A270184770479801002000
:10B130000348D0F8783113B100F5B4701847704760
:10B14000980100200348D0F89C3113B100F5C67077
:10B1500018477047980100200348D0F8C03113B158
:10B1600000F5D87018477047980100200348D0F8C0
:10B17000E43113B100F5EA701847704798010020D8
:10B180000348D0F8083213B100F5FC701847704737
:10B19000980100200348D0F82C3213B100F5077055
:10B1A00018477047980100200348D0F8503213B177
:10B1B00000F5107018477047980100200348D0F838
:10B1C000743213B100F519701847704798010020C8
:10B1D0000348D0F8983213B100F522701847704731
:10B1E000980100200348D0F8BC3213B100F52B7051
:10B1F00018477047980100200348D0F8E03213B197
:10B2000000F5347018477047980100200348D0F8C3
:10B21000043313B100F53D701847704798010020C2
:10B220000348D0F8283313B100F54670184770472B
:10B23000980100200348D0F84C3313B100F54F704B
:10B2400018477047980100200348D0F8703313B1B5
:10B2500000F558701847704798010020094B0A4ABA
:10B26000013800EBC00003EB8000116BD0F84431D3
:10B27000064883420CBF4FF400134FF480030B4386
:10B2800013637047980100200038024000600240BC
:10B2900070B501383C4C3D4D00EBC00C04EB8C0C00
:10B2A0009646DCF844613A4AAE420CBF4FF40015B2
:10B2B0004FF48005166B35431563CCF85411CCF868
:10B2C0005C313449DCF848318B424FEAC0023ED051
:10B2D00001F580618B423AD0A1F57A718B4247D05B
:10B2E00001F580618B4243D0A1F57A718B4241D048
:10B2F00001F580618B423DD0A1F57A718B4235D04A
:10B3000001F580618B4231D0A1F57A718B4233D047
:10B3100001F580618B422FD0A1F57A718B422DD03F
:10B3200001F580618B4229D0A1F57A718B4227D03B
:10B3300001F580618B4223D0A1F57A718B4221D037
:10B34000154D01F580618B4218BF002500E0134DBB
:10B35000104404EB8003CEF38711C3F8645193F8D3
:10B360005901BDE87040002245F0B2BE0C4DEFE738
:10B370000C4DEDE70C4DEBE70C4DE9E70C4DE7E725
:10B380000C4DE5E7044DE3E7980100200060024022
:10B390000038024010600240008000282080001029
:10B3A00000800018008800100080201020800020FD
:10B3B000008800200080202060B182884FF0004388
:10B3C000B2FA82F2D34005D0034A116821EA0301A0
:10B3D00011605361704700BF003C01400120FDF740
:10B3E000B5BE00BF0220FDF7B1BE00BF0420FDF7CF
:10B3F000ADBE00BF0820FDF7A9BE00BF1020FDF7BD
:10B40000A5BE00BF4FF47870FDF7A0BE4FF47C409E
:10B41000FDF79CBE30B50C4683B0054618B30368F3
:10B4200003F13F4303F57E039B0A104A134493F84C
:10B43000DC0E44F06FFAA988009104F00303C4F312
:10B4400081028DF8043028688DF80520C4F30013BC
:10B450006946C4F341148DF806308DF8074041F079
:10B4600015F803B030BD4FF0FF33DEE75465050833
:10B4700000B1CFE7704700BF2DE9F8432A4B0361C5
:10B480000D46044623200FF063FC6B7883B1042B38
:10B4900012D022691370236902221A70EB783BB133
:10B4A00004F11008A97840460DF088FC074638B929
:10B4B00000273846BDE8F883236901221A70EAE7BD
:10B4C000E8780EF09FF8A0612B780133DBB210B161
:10B4D000C371222383710921FFF7CAFFA069FFF717
:10B4E0008FFB124AD2F8D436632BFBD91048DFF811
:10B4F0004890104E0DF038FCA08202E059F8046B21
:10B5000056B14046B04703460028F7D0206984F87A
:10B51000D83048F0B5F9CCE7E8780EF073F80EF0C3
:10B52000D1F83746C5E700BF9430002070190020DD
:10B5300040420F00536C04083C74050838B50C4BAE
:10B54000D3F8545605440446A87D0EF05BF868B164
:10B550002E2201348271C4710121FFF789FFA87D79
:10B560000EF050F810B1036882885A8338BD00BFCE
:10B57000682A002070B5044690F8210182B008B90D
:10B5800002B070BD0EF03EF80546002856D0838804
:10B590002C4AB3FA83F32621202BC180E260C3F149
:10B5A0001F01EDD0284B294A03EB81030A440C34D8
:10B5B000C3F82C4792F8F46EFFF7FEFE0021FFF768
:10B5C00029FFA9882868B1FA81F100F13F40C1F153
:10B5D0001F0100F57E00C9B2C0F3872041F016F9C3
:10B5E000AA884FF00043B2FA82F2D3404FF40061D0
:10B5F0000122684600938DF80620ADF8041045F04E
:10B6000033FD134B334493F85826F02A0CD8AA88FC
:10B610004FF00043B2FA82F2D340B1D00D490A682C
:10B6200013430B6002B070BD0B49F022885D83F8B4
:10B6300058260321002245F04BFDE8E7014BE3606B
:10B640009EE700BF398F0008701900205465050877
:10B65000682A0020003C0140ACDF05080E4B70B5A5
:10B66000D3F8F061002E14DD0C4C002503E0B54248
:10B6700004F120040DD0237F0135002BF7D0E068C2
:10B680000028F4D0217DFFF7C5FEB54204F1200467
:10B69000F1D1012070BD00BF682A0020F01D0020FC
:10B6A00070B50C4682B015460646002839D00368AE
:10B6B00003F13F4303F57E039B0A1B4A134493F8AF
:10B6C000DC0E44F027F9B2880092B2FA82F304F05B
:10B6D00003028DF80420C4F3810230688DF8052040
:10B6E000C3F11F03C4F30012C4F341148DF80740E3
:10B6F000C3F3CC0400EB840403F007038DF80620A9
:10B700009B00226A0F269D4006FA03F322EA0303F8
:10B710002362226A15436946256240F0B7FE02B0F3
:10B7200070BD4FF0FF33C8E75465050800B1B7E7B7
:10B73000704700BF2DE9F043774D05EB001683B04D
:10B74000D6F86036002B00F0938004464FEA0018CC
:10B7500096F8680644F0DEF896F86836590903F062
:10B760001F0203294FF0010303FA02F300F098804F
:10B77000042900F0858002297DD005EB08030134FF
:10B7800093F864060DF03EFFE4B2814610B1122337
:10B790008371C47105EB080393F865060DF032FF61
:10B7A000074610B11323C471837105EB080393F8A6
:10B7B00066060DF027FF064610B11423C47183718D
:10B7C0004544484695F8672601924A21FFF7AEFFA7
:10B7D000019A38462A21FFF7A9FF019A0A2130462B
:10B7E000FFF7A4FFD5F860264C4B9A425DD04C4B36
:10B7F0009A424AD04B4B9A4262D04B4B9A426AD003
:10B800004A4B9A4272D04A4B9A427AD04949908820
:10B81000B1F88643B1F88433B1F88E532343B1F8BD
:10B8200088432343B1F88A4320F003002343B1F84F
:10B830008C430004000C2343B1F8904390802B43C9
:10B8400010882343B1F89243B1F8941300F44150A7
:10B85000234303439BB21380938B23F400631B04A5
:10B860001B0C9383118213889BB243F04003138017
:10B8700003B0BDE8F083304A516A0B4353627CE762
:10B880002D4A11690B43136177E703F50033196AF9
:10B8900041F480411962196A21F480411962B5E7C7
:10B8A000254A116A0B43136267E703F58433596A2B
:10B8B00041F480515962596A21F480515962A5E7D7
:10B8C00003F5FE33196A41F400411962196A21F443
:10B8D000004119629AE703F58233596A41F4005135
:10B8E0005962596A21F4005159628FE703F56843A0
:10B8F000596A41F480115962596A21F480115962E0
:10B9000084E703F56443596A41F400115962596AA6
