:060000000219FD02035B82
:03000B0002008070
:0300130002036E77
:03001B000200B030
:03002B00020329A4
:03005B0002037D20
:030073000203483D
:10008000C0D075D01018B8CF0408208507B2858677
:100090008AD0D03253A4DFD285C2A98F8E7589AAA7
:1000A000C289C28B758A00D2A8D2AAC228D0D03207
:1000B000C2A8C28E85578BC0D075D008C0E0C0F0F2
:1000C000C2CAA9CCAACDD2CAC3E99558F9EA9559B2
:1000D0007049C3E9955A4043955A503FB8103C784F
:1000E00000A9567D00E2FEC39DC399402E99EC33D2
:1000F000FC08E2FDC39EC399402199EC33FC08E261
:10010000FEC39DC399401499EC33FC08E2FDC39EE5
:10011000C399400799EC33FC088002806AE2FEC371
:100120009DC399406299EB33FB08E2FDC39EC399DE
:10013000405599EB33FB08E2FEC39DC399404899B3
:10014000EB33FB08E2FDC39EC399403B99EB33FBC5
:1001500008E2FEC39DC399402E99EB33FB08E2FDF4
:10016000C39EC399402199EB33FB08E2FEC39DC3B4
:1001700099401499EB33FB08E2FDC39EC3994007F5
:1001800099EB33FB08801E0530E53070021530C353
:10019000E5309432400AD225755B00755C00611928
:1001A00075310A6119E2FEC39DC39940DA99EA33B9
:1001B000FA08E2FDC39EC39940CD99EA33FA08E2FA
:1001C000FEC39DC39940C099EA33FA08E2FDC39E7D
:1001D000C39940B399EA33FA08EBC46B6C6A3027D1
:1001E00001F4540F70A1C3EBF4FA9460FBECF454E7
:1001F0000F9400FC5018EA7C007B00600CC3135085
:1002000007B55B05055C8006E4F55B755C00302294
:100210001BC3EB94D0F5F0EC94074003ABF0FC303B
:100220002101B39226C3EB33FBEC33FCEB54F04CCF
:10023000C475F00584FAEC13FCEB132AFBEC3400D4
:10024000FC30E3047BFF7C07201C27301124EC707A
:100250000C798187F0C3EB95F05002ABF0E5376085
:100260001175F028A42BFBEC3400FC30E3047BFF79
:100270007C07EB54F84CC423F97007EB7004D225CB
:100280008005753200C225E53060021530C3E54CAB
:10029000FD954D4002AD4DC3ED995008ED75F00848
:1002A000A4FBACF08CF0EBA2F013A2F113F4F9EC88
:1002B0000303F45401FA30291CEBF4540324C0F86E
:1002C000E623F630E00FE92401F97009EA3400FA78
:1002D00030E1021A19C3E9941EFBEA9400FC5005B0
:1002E000E4FBFC800DC3EB954FEC95504004AB4F05
:1002F000AC5089E98AEA8BFB8CFC75310A302719EE
:10030000302816758E017589A2D28543A420780005
:1003100085638AC28DD2A980097800758A00D2A827
:10032000D2AAD0F0D0E0D0D032C0E0C2CF053BD2CC
:1003300023E5317004D22580021531302507E532DE
:100340000460020532D0E032C2AF53E67F53917FA2
:100350007592FA7593FFC218D2AF32C0E0E58A8574
:10036000578BC0D075D008F208D0D0D0E032C2AAE6
:10037000D28EC2CA85CC5885CD59D2CA32327A00C3
:100380007901801E7A00790580187A00790A801236
:100390007A007964800C7A0079C880067A0079FA4C
:1003A0008000090A8009781874FFD5E0FDD8F9D9D2
:1003B000F5DAF3227A427B3580247A2D7B4D801E3C
:1003C0007A267B5C80187A197B8C80127A147BAF3A
:1003D000800C7A427B1E80067A2D7B2C8000E553B0
:1003E0007001227902E4C292D5E0FDC293D5E0FD0E
:1003F000D293D5E0FDD292D5E0FDE920E002C29192
:1004000030E002C295E553D5E0FDE920E002D2914B
:1004100030E002D2957496D5E0FDD9C9EA78C8D803
:10042000FED5E0F9DBBDC2922271B471BA71C0226F
:1004300071D871B42271C071BA71B422799987539D
:10044000B8010471B48017B8020471BA8010B803FF
:100450000471C08009B8040471C6800271CC799817
:10046000875322901A70E493F4601D7C3E901A74B6
:10047000E493A3FB6012E493FA600471DE8006EB60
:10048000F97A0071A2A3DCE82278A5E6F95403709A
:1004900000E9540C7000E954307000E954C0700059
:1004A00022D291D293D295C290C292C29475D5FFB6
:1004B00022201E2E78FF201026E53A6022E54260B9
:1004C0001E74FF301102747F8542F084853AF0A4D7
:1004D000F8C5F0600278FFC3E8954E5002A84E8838
:1004E0004D22C3E54194A0E5429400E54D5003142C
:1004F0008001046002F54D22102301220566E566A5
:100500005403B4012CE551604F7552FFE5BE6048BD
:10051000E5BDC3955140417552C89404403A7552A7
:1005200096940440337552649404402C7552328082
:1005300027B4021EE5516020C3E54C955260194076
:1005400008E54C6013154C800FE54C046002054C27
:100550008006B4030375E89030243FE566541FB469
:100560000419E5BE700AE5BDC394EB5007E48004AE
:10057000E5BD2414F564756502801FB40808756430
:10058000887565088014B40C087564AA75650A80BE
:1005900009B410067564CC75650C2275410075426E
:1005A000F022C2AFC2CAA8CCA9CDAA3B30CF010A63
:1005B000D2CAD2AFC3EA13FAE913F9E813F820104C
:1005C00014C3E8953C883CF8E9953D893D547FF992
:1005D000301E36C1BCAB3CAC3DAD3E883C893D8A4B
:1005E0003EC3E89BE99CEA9D547F60087541FF7516
:1005F00042FFC18BAE3FAF408B3F8C40C3E89EF8BB
:10060000E99FF9AA41AB428011AA41AB42C3EB94E6
:1006100004404894044013201126C3EB13FDEA1351
:10062000FCC3ED13FDEC13FC804AEBC423FCEAC4CD
:1006300023541F4CFC7D00C3E913F9E813F8803400
:10064000EBC423FC541FFDEC54E0FCEAC423541F0C
:100650004CFCC3E913F9E813F88019EBC4FCEAC4B5
:10066000540F4CFC7D00C3E913F9E813F8C3E913F8
:10067000F9E813F8C3EA9CFAEB9DFBEA28F541EB95
:1006800039F54250067541FF7542FFC3E5429402B9
:100690005002D21EE542C4FA540FFBEA54F0FAE5C8
:1006A00041C4540F4AFAC3EA9402FAEB9400FB40A7
:1006B000057048EA70457A017B00803FAA41AB4251
:1006C000EBC4FCEAC4540F4CFCC3EA9CFAEB940064
:1006D000FBE80303543F2AFAEB3400FB8A418B42C8
:1006E000C394024002C21EEBC4FE7B00EAC4540F56
:1006F0004EC39402FA400270027A01202806301894
:1007000008120AC630180280FB854892854993D2A8
:100710001843E6807892E6FFC3E49AF8E49BF9C3B5
:10072000E833F8E933F9201E7F3010047F03801589
:10073000C3E5389482400E0F941E40010FC3EF941E
:100740000640027F05E8FAE9FBD3E913FDE813FC54
:100750008C468D4788488949C3EF9403602BEF206E
:10076000E00CE82CF8E93DF9ECFAEDFB800BE8D35E
:1007700038F8E939F97AFF7BFFC3EF9403400A8A1E
:100780004A8B4B884489458050884A894B8A448BE0
:1007900045301045754AF0754BFF7546F07547FFBB
:1007A0007548F07549FF8031E8FAD313FC8C468810
:1007B00048C3EF9403601EEF20E007E82CF8ECFA42
:1007C0008007E8282401F87AFFC3EF940340068AE3
:1007D0004A88448004884A8A44202806301808122F
:1007E0000AC630180280FB753502D21843E6803005
:1007F000112DA841A942C3E913F9E813F8301004F8
:10080000E92440F9C2AF53E67F759100C3E498F53F
:1008100094E499F595759104D21843E680D2AF22FD
:1008200075F000301D0E75F040800975F040301DE8
:100830000375F000D2197543007A027B02201E1D59
:10084000301102C2193010067A367B36800F7B28B1
:10085000E542700104FAC3942840027A2820181156
:10086000E543600D301003D53504D21A80671207B6
:10087000EA0543E59B5440B5F00DE53460BB201913
:10088000B8DADAC21A804E20100B2019110AC3EA16
:100890009B40CA80A40AC3EA9B40011A80BFC219C8
:1008A00053E67F759100301E117594007595F075B3
:1008B0009104D21843E680020839E5427EFFC33333
:1008C0004009C3334005C3334001FEC3E49E759421
:1008D00000F59580DAC2AF53E67F85449285459353
:1008E000759100854A94854B95759104D21843E61D
:1008F00080D2AF201013301A1220110F201D0C20AF
:10090000190915811581021212053422E53875F096
:1009100007A430190105F0A2F013A2F113A2F213FB
:10092000F538C394785003753878C3E53895394065
:1009300009D291D293D29575D5FF2028053018079A
:1009400051C630180280FB854692854793D21843E2
:10095000E6802220120FC2AFC292D29075D5CFD2BC
:10096000AF759F0322C2AFC292D29475D5FCD2AFAD
:10097000759F032220120FC2AFD29575D5F3D29086
:10098000D2AF759F1322C2AFD29175D5F3D294D254
:10099000AF759F232220120FC2AFC290D29475D59B
:1009A000F3D2AF759F2322C2AFC294D29075D5F314
:1009B000D2AF759F132220120FC2AFD29375D5FC10
:1009C000D294D2AF759F0322C2AFD29375D5CFD246
:1009D00090D2AF759F032220120FC2AFC294D29261
:1009E00075D5FCD2AF759F1322C2AFC290D292755B
:1009F000D5CFD2AF759F232220120FC2AFD29175EF
:100A0000D5CFD292D2AF759F2322C2AFD29575D5E2
:100A1000FCD292D2AF759F13227432A2854003207C
:100A200085F750033085F2D5E0F3922722E55B701D
:100A30000122F8C39406500FC2AF1204A112043C65
:100A4000120396D2AF8078C3E55C94064077B8076E
:100A500004C221806AB80804D2218063B80904C2A4
:100A600022805CB80A04D2228055B80D0A75640051
:100A700075650ED2248048B80E0A7564FF75650E40
:100A8000C224803BB8140A7988E714A2E09221803E
:100A90002EB8150B7988E714A2E0B392218020B814
:100AA0000C1DE4A22192E0A22292E1047988F7755C
:100AB00054A57555F1B12F755400755500D2AF7519
:100AC0005B00755C0022C0D075D010BE002DE565BE
:100AD0007022C2AF854126854227D2AFE526A238D3
:100AE00013F9A2391329F526E52703C2E7F903C252
:100AF000E739F5270E201803D0D022BE0124E56582
:100B00007010E527705DE526701175270F7526FFBB
:100B100080098564268565277565000E201803D039
:100B2000D022BE0215E526C465266527F478D0A636
:100B30005D71E00E201803D0D022BE030BE52671B4
:100B4000E00E201803D0D022BE040CE526C471E0CC
:100B50000E201803D0D022E52771E0087E00D0D007
:100B6000D2282220E71620E61D20E52720E43420A5
:100B7000E34120E25020E15CE526611BA23733F51A
:100B80002675270F611BA23733A23633F52675274A
:100B90000D611BA23733A23633A23533F5267527F4
:100BA0000B611BE52654F0C23C4527C4F52675278A
:100BB00009611BE526A23813A23913A23A13F526C0
:100BC000752707611BE526A23813A23913F5267590
:100BD0002705611BE526A23813F526752703611B3F
:100BE000540F23900BE77381078111811E812F81A0
:100BF0003981468150816481718185818C819D819B
:100C0000A781BE81C881DC08A65F08A65D08A65D35
:100C10002208A65D08A65E08A65D08A65D2286F0ED
:100C2000E55EB5F002E55FF608A65F08A65D22085E
:100C3000A65D08A65F08A65D2208A65E08A65D0858
:100C4000A65D08A65D2208A65E08A65E08A65D222F
:100C500086F0E55EB5F002E55FF608A65D08A65EE3
:100C600008A65D2208A65D08A65D08A65E08A65D2A
:100C70002286F0E55EB5F002E55FF608A65E08A6FE
:100C80005D08A65D2208A65F08A65E2286F0E55EE6
:100C9000B5F002E55FF608A65E08A65E2208A65D2E
:100CA00008A65E08A65E2286F0E55EB5F002E55F66
:100CB000F608A65D08A65D08A65D08A65D2208A642
:100CC0005E08A65D08A65E2286F0E55EB5F002E548
:100CD0005FF608A65D08A65D08A65E2208A65D0868
:100CE000A65D08A65D08A65E22901A0D7820B16C5C
:100CF000E520B4550AA3B16CE520B4AA02801275B0
:100D000054A57555F1B1F3B12F7554007555008098
:100D10001D901A0378807B0AB16CA308DBFA901A45
:100D20000F788C7B1AB16CA308DBFA901A2922C2C7
:100D3000AFB1AFB1D1B18C901A007400B171A3748E
:100D400012B171A374CCB171901A0378807B0AB18F
:100D500070A308DBFA901A0F788C7B1AB170A30885
:100D6000DBFAB1C2B1E4B1A0901A2922E493F622D1
:100D7000E6438F01538FFDFFC3E583941C4001229E
:100D8000EF8554B78555B7F0538FFE22438F02434A
:100D90008F018554B78555B7901A0DF0538FFC22FB
:100DA000901A0D7455B171901A0E74AAB171227A0D
:100DB0003079D07820901A40B16CE520F709A3DA99
:100DC000F7227A3079D0901A40E7B17109A3DAF9A5
:100DD000227A8C79007820901A70B16CE520F309A2
:100DE000A3DAF7227A8C7900901A70E3B17109A323
:100DF000DAF922788076FF087633087601087601E2
:100E00000876190876FF0876090876300876010812
:100E100076FF08080876FF0876FF0876FF0876FF59
:100E20000876FF0876FF0876040876FF0876FF0844
:100E300076FF0876FF0876FF087628087650087651
:100E4000040876FF0876020876FF0876FF0876FF2A
:100E50000876070876FF0876FF0876FF0876000810
:100E60007600227888E614A2E19222A2E09221780C
:100E700084745096500276507886740D965002769F
:100E80000D863A789CE67539FFB402037539A0B433
:100E9000030375398275510078A0E6F8600674285E
:100EA0002409D8FCF55178988653788DE623F954B7
:100EB00001F550E954FEF54FB6FF03754FFF7883F7
:100EC000E624FF922978C076000876110876550846
:100ED0007677227554007555007597DE7597AD7558
:100EE00081B043FF8075EF0675A9001204A17580DB
:100EF000FF75F1F075A4007580FF75D4FF75902A19
:100F000075F23F75A53F75902A75D5FF75A60175D9
:100F1000A72075F30175CC0175A70075E34075E254
:100F2000021204A1E4F8F6D8FDB1F391E9D163C24D
:100F3000AF120390120463120489120390C2AF75BA
:100F400054007555001204A175A91375A71075C139
:100F50000075A700780979007A0030850CDAFBD992
:100F6000F9D8F7120430021C00302A0E120429129C
:100F7000039C12039C12039CC22A758851758E0132
:100F80007589AA758C00758D0075C80475910475F6
:100F9000D84075D90875F781759E0775960375DB7E
:100FA0004275DA42759B80759D0075D10C75BCB990
:100FB00075BB1075E88075B20112037E511975E496
:100FC000D530270375E45DC228C22475A82D75E6C7
:100FD0008075B803D2AF758E0C7557807556107535
:100FE0005A50755DF7755EE7755FD67563E175609C
:100FF000EB7561CA7562A975300A120390E530601D
:101000002B7557C0755608755A28755DFF755EF7C4
:10101000755FEF7563E17560FB7561EB7562DA759D
:10102000300A120390E5306003020F3DC0D075D046
:1010300010AF8ED0D0D22A753700C2AF1203D2D2F1
:10104000AFC3E532940A40F9C2AF1203D8D2AFE47D
:10105000F541F542F55BF55CF533F53BC3E53B94B3
:101060005E4033753B000533789AE67814146012BD
:10107000782814600D786414600878C814600375CB
:101080003300C3E53398400E15337804C2AF120421
:10109000A112043CD2AF202806120AC61204F8306E
:1010A000250CE5317003020F3D120A2D80AE1203AC
:1010B000902025A8C2AF1204A1D2AFE4F522F523F7
:1010C000F53812037E756500C2AF7984874E854E70
:1010D0004C854E4D854E5275A71075C13075A700D1
:1010E00075A903C3E55733F557C3E55A33F55AC31A
:1010F000E55633F556E55DC560F55DE55EC561F520
:101100005EE55FC562F55F75633CD2AFA2219212C6
:10111000302204A2269212D210D2117534007536F4
:101120000C1209D71209F812059B1205A212059B91
:101130001205A212059B12082B12090C1209531258
:1011400005A21208201204B112090C12097412052A
:10115000A212082B12090C1209951205A2120820DE
:1011600012090C1209B61205A212082B12090C1250
:1011700009D71205A212082012090C1209F812054B
:10118000A21204F830113530101A854E4CC3E534E4
:101190009418500530259F807EC210754CFF754D08
:1011A000FF7552FF201D15E53614600AF53630250F
:1011B000852022828061C211D21C2136753700D26F
:1011C0001B30251320220C79A4E76007C3E5329475
:1011D000035044E5316040202209C3E54294F050B9
:1011E000362136201D1220120520260580EC2026EF
:1011F000E9D21D854E4C215D854E4CC3E5429420BD
:10120000400EC21DA2269212D211753612854E4C86
:101210002136201B020537C2AFC2241204A1752259
:101220000075230075A91375A71075C10075A70077
:10123000D3E55713F557C3E55A13F55AC3E55613CB
:10124000F556E55DC560F55DE55EC561F55EE55F9A
:10125000C562F55F7563E1D2AF202517C3E537940A
:101260000450061203900210B4C2AF120435D2AF7C
:1012700002102C75370078A4E66006D290D292D284
:041280009402104F75
:1019FD00020ED30012CCFF33010119FF093001FF94
:101A0D0055AAFFFFFFFFFFFF04FFFFFFFFFF285059
:0D1A1D0004FF02FFFFFF07FFFFFF0000FFB7
:101A4000235A5F485F33302320202020202020208D
:101A500023424C48454C492445464D3842323123B7
:101A6000426C75656A61792020202020202020208A
:101A7000023A042034420D00452D0D0034420D0081
:0B1A80004E27D300452DD0193419006B
:101C0000C2AFC2D37597DE7597AD7581C075A90057
:101C100043FF80752438752503B1DB7529A5752A26
:101C2000F143F12053A4DFD28575D4FF75E3407DE5
:101C3000FA780379E67C10752200752300901DE880
:101C40007B0675249875250130850281482085081A
:101C5000D8FBD9F9DCF781BA308508D8FBD9F9DC93
:101C6000F781BAB19BE493A3C39A6004DDC381BA40
:101C7000DBDBB18D600281317B08E493FAA3B16EA6
:101C8000DBF87A30B16E752200752300B18DEAFC65
:101C9000EBFDC3ED94FE400EB18D8A278B28ED300D
:101CA000E0048A828B83B18D7AC270D8C3ED94FE32
:101CB000601950CEBD0029EC600F7520007521FF22
:101CC000752900752A000200008100A827A92808AC
:101CD00009D804D90281DDB191EAF281D10D81A642
:101CE000C3ED94035051EDA2E092007AC5C3E582A2
:101CF0009400E583941C508C200010438F02438F86
:101D0000018529B7852AB7F0300027A827A9280818
:101D100009438F01538FFDD804D902A132C3E58353
:101D2000941C4003A3A117E28529B7852AB7F0A325
:101D3000A117538FFC81827AC1BD030CE493A3FAEF
:101D4000B152DCF8B14A81828184AA22AB23B16E00
:101D5000EBFAEA6222752608C3E52313F523E52290
:101D600013F52250066323A0632201D526EAB1DBD6
:101D7000B1DB75260AEAF4200102D285300102C2E5
:101D800085B1DBC3134002C201D526EB22B191EA33
:101D9000FB208502A191308502A196752608AE240C
:101DA000AF25C3EF13FFEE13FEB1DFB1DBC3EA13C0
:101DB0003085024480FA30E703632201C3E5231330
:101DC000F523E52213F52250066323A0632201D5F3
:101DD00026D9E52265236523F52222AE24AF250E00
:101DE0000FDEFEDFFCD20122424C48656C693437BD
:061DF0003164E8B20601B7
:00000001FF
